BL51 BANKED LINKER/LOCATER V6.22.2.0                                                    03/12/2024  18:05:59  PAGE 1


BL51 BANKED LINKER/LOCATER V6.22.2.0, INVOKED BY:
D:\KEIL 5\C51\BIN\BL51.EXE .\Objects\main.obj, .\Objects\Init.obj, .\Objects\Key.obj, .\Objects\Seg.obj, .\Objects\LED.o
>> bj, .\Objects\ds1302.obj, .\Objects\iic.obj TO .\Objects\2303002124 PRINT (.\Listings\2303002124.m51) RAMSIZE (256)


MEMORY MODEL: SMALL


INPUT MODULES INCLUDED:
  .\Objects\main.obj (MAIN)
  .\Objects\Init.obj (INIT)
  .\Objects\Key.obj (KEY)
  .\Objects\Seg.obj (SEG)
  .\Objects\LED.obj (LED)
  .\Objects\ds1302.obj (DS1302)
  .\Objects\iic.obj (IIC)
  D:\KEIL 5\C51\LIB\C51S.LIB (?C_STARTUP)
  D:\KEIL 5\C51\LIB\C51S.LIB (?C?CLDPTR)
  D:\KEIL 5\C51\LIB\C51S.LIB (?C?CLDOPTR)
  D:\KEIL 5\C51\LIB\C51S.LIB (?C?CSTPTR)
  D:\KEIL 5\C51\LIB\C51S.LIB (?C?CSTOPTR)
  D:\KEIL 5\C51\LIB\C51S.LIB (?C?IMUL)
  D:\KEIL 5\C51\LIB\C51S.LIB (?C?UIDIV)
  D:\KEIL 5\C51\LIB\C51S.LIB (?C_INIT)


LINK MAP OF MODULE:  .\Objects\2303002124 (MAIN)


            TYPE    BASE      LENGTH    RELOCATION   SEGMENT NAME
            -----------------------------------------------------

            * * * * * * *   D A T A   M E M O R Y   * * * * * * *
            REG     0000H     0008H     ABSOLUTE     "REG BANK 0"
            DATA    0008H     0007H     UNIT         ?DT?_EEPROM_READ?IIC
            DATA    000FH     0007H     UNIT         _DATA_GROUP_
            DATA    0016H     0002H     UNIT         ?DT?LED
                    0018H     0008H                  *** GAP ***
            BIT     0020H.0   0000H.2   UNIT         ?BI?MAIN
                    0020H.2   0000H.6                *** GAP ***
            DATA    0021H     0031H     UNIT         ?DT?MAIN
            IDATA   0052H     0001H     UNIT         ?STACK

            * * * * * * *   C O D E   M E M O R Y   * * * * * * *
            CODE    0000H     0003H     ABSOLUTE     
                    0003H     0008H                  *** GAP ***
            CODE    000BH     0003H     ABSOLUTE     
            CODE    000EH     0201H     UNIT         ?PR?KEY_PROC?MAIN
            CODE    020FH     010DH     UNIT         ?PR?INFOR_PROC?MAIN
            CODE    031CH     00E1H     UNIT         ?C?LIB_CODE
            CODE    03FDH     008CH     UNIT         ?C_C51STARTUP
            CODE    0489H     0089H     UNIT         ?PR?TIMER0_SERVE?MAIN
            CODE    0512H     0073H     UNIT         ?PR?KEY_READ?KEY
            CODE    0585H     0051H     UNIT         ?PR?_DS1302_WRITE_RTC?DS1302
            CODE    05D6H     0048H     UNIT         ?PR?_EEPROM_READ?IIC
            CODE    061EH     0047H     UNIT         ?PR?_READ_DS1302_BYTE?DS1302
            CODE    0665H     0041H     UNIT         ?C_INITSEG
            CODE    06A6H     0041H     UNIT         ?PR?_SEG_SHOW?SEG
BL51 BANKED LINKER/LOCATER V6.22.2.0                                                  03/12/2024  18:05:59  PAGE 2


            CODE    06E7H     003DH     UNIT         ?PR?_DS1302_READ_RTC?DS1302
            CODE    0724H     003BH     UNIT         ?PR?_LED_SHOW?LED
            CODE    075FH     0038H     UNIT         ?PR?_EEPROM_WRITE?IIC
            CODE    0797H     0037H     UNIT         ?PR?OTHER_PROC?MAIN
            CODE    07CEH     0035H     UNIT         ?PR?_I2CSENDBYTE?IIC
            CODE    0803H     0026H     UNIT         ?PR?I2CRECEIVEBYTE?IIC
            CODE    0829H     0026H     UNIT         ?PR?I2CWAITACK?IIC
            CODE    084FH     0025H     UNIT         ?PR?_BEEP?LED
            CODE    0874H     0025H     UNIT         ?PR?_RELAY?LED
            CODE    0899H     001DH     UNIT         ?PR?INIT?INIT
            CODE    08B6H     001CH     UNIT         ?PR?_WRITE_DS1302?DS1302
            CODE    08D2H     001AH     UNIT         ?PR?MAIN?MAIN
            CODE    08ECH     001AH     UNIT         ?CO?SEG
            CODE    0906H     001AH     UNIT         ?PR?_I2C_DELAY?IIC
            CODE    0920H     0018H     UNIT         ?PR?_I2CSENDACK?IIC
            CODE    0938H     0015H     UNIT         ?PR?TIMER0_INIT?MAIN
            CODE    094DH     0014H     UNIT         ?PR?_DELAY_MS?MAIN
            CODE    0961H     0014H     UNIT         ?PR?_WRITE_DS1302_BYTE?DS1302
            CODE    0975H     000FH     UNIT         ?PR?I2CSTART?IIC
            CODE    0984H     000CH     UNIT         ?PR?I2CSTOP?IIC



OVERLAY MAP OF MODULE:   .\Objects\2303002124 (MAIN)


SEGMENT                                 DATA_GROUP 
  +--> CALLED SEGMENT                 START    LENGTH
-----------------------------------------------------
?PR?TIMER0_SERVE?MAIN                 -----    -----
  +--> ?PR?_SEG_SHOW?SEG
  +--> ?PR?_LED_SHOW?LED

?PR?_SEG_SHOW?SEG                     -----    -----
  +--> ?CO?SEG

*** NEW ROOT ***************************************************

?C_C51STARTUP                         -----    -----
  +--> ?PR?MAIN?MAIN
  +--> ?C_INITSEG

?PR?MAIN?MAIN                         -----    -----
  +--> ?PR?INIT?INIT
  +--> ?PR?_DS1302_WRITE_RTC?DS1302
  +--> ?PR?TIMER0_INIT?MAIN
  +--> ?PR?KEY_PROC?MAIN
  +--> ?PR?INFOR_PROC?MAIN
  +--> ?PR?OTHER_PROC?MAIN

?PR?_DS1302_WRITE_RTC?DS1302          000FH    0003H
  +--> ?PR?_WRITE_DS1302_BYTE?DS1302

?PR?_WRITE_DS1302_BYTE?DS1302         -----    -----
  +--> ?PR?_WRITE_DS1302?DS1302

?PR?KEY_PROC?MAIN                     -----    -----
BL51 BANKED LINKER/LOCATER V6.22.2.0                                                  03/12/2024  18:05:59  PAGE 3


  +--> ?PR?KEY_READ?KEY
  +--> ?PR?_EEPROM_WRITE?IIC
  +--> ?PR?_DS1302_READ_RTC?DS1302

?PR?_EEPROM_WRITE?IIC                 000FH    0007H
  +--> ?PR?I2CWAITACK?IIC
  +--> ?PR?_I2CSENDBYTE?IIC
  +--> ?PR?_I2C_DELAY?IIC
  +--> ?PR?I2CSTOP?IIC

?PR?I2CWAITACK?IIC                    -----    -----
  +--> ?PR?I2CSTART?IIC
  +--> ?PR?_I2CSENDBYTE?IIC
  +--> ?PR?_I2C_DELAY?IIC

?PR?I2CSTART?IIC                      -----    -----
  +--> ?PR?_I2C_DELAY?IIC

?PR?_I2CSENDBYTE?IIC                  -----    -----
  +--> ?PR?_I2C_DELAY?IIC

?PR?I2CSTOP?IIC                       -----    -----
  +--> ?PR?_I2C_DELAY?IIC

?PR?_DS1302_READ_RTC?DS1302           000FH    0004H
  +--> ?PR?_READ_DS1302_BYTE?DS1302

?PR?_READ_DS1302_BYTE?DS1302          -----    -----
  +--> ?PR?_WRITE_DS1302?DS1302

?PR?INFOR_PROC?MAIN                   -----    -----
  +--> ?PR?_DS1302_READ_RTC?DS1302



SYMBOL TABLE OF MODULE:  .\Objects\2303002124 (MAIN)

  VALUE           TYPE          NAME
  ----------------------------------

  -------         MODULE        MAIN
  C:0000H         SYMBOL        _ICE_DUMMY_
  D:0080H         PUBLIC        P0
  D:0090H         PUBLIC        P1
  D:00A0H         PUBLIC        P2
  D:00B0H         PUBLIC        P3
  D:00C0H         PUBLIC        P4
  B:0020H.0       PUBLIC        Seg_Slow_Flag
  D:00C8H         PUBLIC        P5
  B:00A8H.7       PUBLIC        EA
  D:00E8H         PUBLIC        P6
  D:00F8H         PUBLIC        P7
  D:0025H         PUBLIC        Seg_Show_Mode
  D:0026H         PUBLIC        Remark_H
  D:0027H         PUBLIC        Seg_Point
  D:00A8H         PUBLIC        IE
  B:0020H.1       PUBLIC        Key_Slow_Flag
BL51 BANKED LINKER/LOCATER V6.22.2.0                                                  03/12/2024  18:05:59  PAGE 4


  D:002FH         PUBLIC        Remark_L
  D:0030H         PUBLIC        Output_Old
  D:0032H         PUBLIC        Key_Count
  D:00B8H         PUBLIC        IP
  C:0489H         PUBLIC        Timer0_Serve
  D:0033H         PUBLIC        Seg_Buf
  C:000EH         PUBLIC        Key_Proc
  D:003BH         PUBLIC        Output_New
  D:003DH         PUBLIC        Slow_Down
  D:00D8H         PUBLIC        CCON
  C:08D2H         PUBLIC        main
  D:003FH         PUBLIC        Output_Num
  C:0938H         PUBLIC        Timer0_Init
  D:0041H         PUBLIC        Rtc_Hour
  D:0042H         PUBLIC        Rtc_Show
  D:0045H         PUBLIC        Rtc_Min
  C:094DH         PUBLIC        _Delay_ms
  D:0098H         PUBLIC        SCON
  D:0089H         PUBLIC        TMOD
  D:0088H         PUBLIC        TCON
  D:0046H         PUBLIC        Rtc_Set
  D:008EH         PUBLIC        AUXR
  B:00A8H.1       PUBLIC        ET0
  B:0088H.5       PUBLIC        TF0
  D:008CH         PUBLIC        TH0
  D:008AH         PUBLIC        TL0
  D:0049H         PUBLIC        LED_Buf
  B:0088H.4       PUBLIC        TR0
  D:0051H         PUBLIC        i
  C:020FH         PUBLIC        Infor_Proc
  D:00D0H         PUBLIC        PSW
  C:0797H         PUBLIC        Other_Proc
  -------         PROC          KEY_PROC
  -------         DO            
  D:0021H         SYMBOL        Key_Down
  D:0022H         SYMBOL        Key_UP
  D:0023H         SYMBOL        Key_New
  D:0024H         SYMBOL        Key_Old
  -------         ENDDO         
  C:000EH         LINE#         28
  C:000EH         LINE#         29
  C:000EH         LINE#         33
  C:0014H         LINE#         34
  C:0016H         LINE#         36
  C:001BH         LINE#         37
  C:0024H         LINE#         38
  C:002AH         LINE#         39
  C:002DH         LINE#         41
  C:0036H         LINE#         42
  C:0036H         LINE#         43
  C:0040H         LINE#         44
  C:0049H         LINE#         45
  C:0049H         LINE#         46
  C:004DH         LINE#         47
  C:004DH         LINE#         48
  C:0053H         LINE#         49
  C:0053H         LINE#         50
BL51 BANKED LINKER/LOCATER V6.22.2.0                                                  03/12/2024  18:05:59  PAGE 5


  C:0055H         LINE#         51
  C:0064H         LINE#         52
  C:0077H         LINE#         53
  C:0082H         LINE#         54
  C:0082H         LINE#         55
  C:0090H         LINE#         56
  C:0093H         LINE#         57
  C:0097H         LINE#         58
  C:00A8H         LINE#         59
  C:00BBH         LINE#         60
  C:00C9H         LINE#         61
  C:00C9H         LINE#         62
  C:00C9H         LINE#         63
  C:00C9H         LINE#         65
  C:00D2H         LINE#         66
  C:00D2H         LINE#         67
  C:00D8H         LINE#         68
  C:00DEH         LINE#         69
  C:00ECH         LINE#         70
  C:00ECH         LINE#         71
  C:012DH         LINE#         72
  C:012DH         LINE#         73
  C:013FH         LINE#         74
  C:014FH         LINE#         75
  C:015FH         LINE#         76
  C:016FH         LINE#         77
  C:017FH         LINE#         78
  C:018FH         LINE#         79
  C:019FH         LINE#         80
  C:01AFH         LINE#         81
  C:01BFH         LINE#         82
  C:01D3H         LINE#         83
  C:01D3H         LINE#         84
  C:01D3H         LINE#         85
  C:01F5H         LINE#         86
  C:01F5H         LINE#         87
  C:01FDH         LINE#         88
  C:0200H         LINE#         89
  C:0200H         LINE#         90
  C:0206H         LINE#         91
  C:020EH         LINE#         92
  C:020EH         LINE#         93
  -------         ENDPROC       KEY_PROC
  -------         PROC          INFOR_PROC
  C:020FH         LINE#         96
  C:020FH         LINE#         97
  C:020FH         LINE#         98
  C:0215H         LINE#         99
  C:0217H         LINE#         102
  C:0220H         LINE#         105
  C:0232H         LINE#         106
  C:0232H         LINE#         108
  C:0232H         LINE#         109
  C:023AH         LINE#         110
  C:0243H         LINE#         111
  C:0246H         LINE#         112
  C:024EH         LINE#         113
BL51 BANKED LINKER/LOCATER V6.22.2.0                                                  03/12/2024  18:05:59  PAGE 6


  C:0257H         LINE#         114
  C:025AH         LINE#         115
  C:0262H         LINE#         116
  C:0264H         LINE#         117
  C:0267H         LINE#         119
  C:0267H         LINE#         120
  C:026AH         LINE#         121
  C:0278H         LINE#         122
  C:0283H         LINE#         123
  C:0297H         LINE#         124
  C:02ABH         LINE#         125
  C:02BFH         LINE#         126
  C:02CCH         LINE#         127
  C:02DAH         LINE#         128
  C:02DAH         LINE#         129
  C:02E2H         LINE#         130
  C:02E9H         LINE#         132
  C:02E9H         LINE#         133
  C:02EDH         LINE#         134
  C:02EDH         LINE#         136
  C:02EDH         LINE#         137
  C:02F0H         LINE#         138
  C:02F6H         LINE#         139
  C:02FEH         LINE#         140
  C:0307H         LINE#         141
  C:030AH         LINE#         142
  C:0312H         LINE#         143
  C:031BH         LINE#         144
  C:031BH         LINE#         145
  C:031BH         LINE#         146
  -------         ENDPROC       INFOR_PROC
  -------         PROC          OTHER_PROC
  C:0797H         LINE#         149
  C:0797H         LINE#         150
  C:0797H         LINE#         152
  C:07A5H         LINE#         153
  C:07BBH         LINE#         154
  C:07C6H         LINE#         155
  C:07CAH         LINE#         157
  C:07CDH         LINE#         158
  -------         ENDPROC       OTHER_PROC
  -------         PROC          TIMER0_INIT
  C:0938H         LINE#         161
  C:0938H         LINE#         162
  C:0938H         LINE#         163
  C:093BH         LINE#         164
  C:093EH         LINE#         165
  C:0941H         LINE#         166
  C:0944H         LINE#         167
  C:0946H         LINE#         168
  C:0948H         LINE#         169
  C:094AH         LINE#         170
  C:094CH         LINE#         171
  -------         ENDPROC       TIMER0_INIT
  -------         PROC          TIMER0_SERVE
  C:0489H         LINE#         174
  C:04A6H         LINE#         176
BL51 BANKED LINKER/LOCATER V6.22.2.0                                                  03/12/2024  18:05:59  PAGE 7


  C:04BFH         LINE#         177
  C:04D0H         LINE#         178
  C:04E8H         LINE#         179
  C:04F7H         LINE#         180
  -------         ENDPROC       TIMER0_SERVE
  -------         PROC          _DELAY_MS
  D:0006H         SYMBOL        xms
  -------         DO            
  D:0005H         SYMBOL        i
  D:0004H         SYMBOL        j
  -------         ENDDO         
  C:094DH         LINE#         183
  C:094DH         LINE#         184
  C:094DH         LINE#         186
  C:0951H         LINE#         187
  C:0951H         LINE#         188
  C:0953H         LINE#         189
  C:0955H         LINE#         191
  C:0955H         LINE#         192
  C:0957H         LINE#         193
  C:0959H         LINE#         194
  C:095EH         LINE#         195
  C:0960H         LINE#         196
  -------         ENDPROC       _DELAY_MS
  -------         PROC          MAIN
  C:08D2H         LINE#         199
  C:08D2H         LINE#         200
  C:08D2H         LINE#         201
  C:08D5H         LINE#         202
  C:08DEH         LINE#         203
  C:08E1H         LINE#         204
  C:08E1H         LINE#         205
  C:08E1H         LINE#         206
  C:08E4H         LINE#         207
  C:08E7H         LINE#         208
  C:08EAH         LINE#         209
  -------         ENDPROC       MAIN
  -------         ENDMOD        MAIN

  -------         MODULE        INIT
  C:0000H         SYMBOL        _ICE_DUMMY_
  D:0080H         PUBLIC        P0
  D:0090H         PUBLIC        P1
  D:00A0H         PUBLIC        P2
  D:00B0H         PUBLIC        P3
  D:00C0H         PUBLIC        P4
  D:00C8H         PUBLIC        P5
  D:00E8H         PUBLIC        P6
  D:00F8H         PUBLIC        P7
  D:00A8H         PUBLIC        IE
  C:0899H         PUBLIC        Init
  D:00B8H         PUBLIC        IP
  D:00D8H         PUBLIC        CCON
  D:0098H         PUBLIC        SCON
  D:0088H         PUBLIC        TCON
  D:00D0H         PUBLIC        PSW
  -------         PROC          INIT
BL51 BANKED LINKER/LOCATER V6.22.2.0                                                  03/12/2024  18:05:59  PAGE 8


  C:0899H         LINE#         7
  C:0899H         LINE#         8
  C:0899H         LINE#         9
  C:089CH         LINE#         10
  C:08A4H         LINE#         11
  C:08A7H         LINE#         13
  C:08AAH         LINE#         14
  C:08B2H         LINE#         15
  C:08B5H         LINE#         16
  -------         ENDPROC       INIT
  -------         ENDMOD        INIT

  -------         MODULE        KEY
  C:0000H         SYMBOL        _ICE_DUMMY_
  D:0080H         PUBLIC        P0
  D:0090H         PUBLIC        P1
  D:00A0H         PUBLIC        P2
  D:00B0H         PUBLIC        P3
  D:00C0H         PUBLIC        P4
  D:00C8H         PUBLIC        P5
  D:00E8H         PUBLIC        P6
  D:00F8H         PUBLIC        P7
  C:0512H         PUBLIC        Key_Read
  D:00A8H         PUBLIC        IE
  D:00B8H         PUBLIC        IP
  D:00D8H         PUBLIC        CCON
  B:00B0H.0       PUBLIC        P30
  D:0098H         PUBLIC        SCON
  B:00B0H.1       PUBLIC        P31
  D:0088H         PUBLIC        TCON
  B:00B0H.2       PUBLIC        P32
  B:00C0H.2       PUBLIC        P42
  B:00B0H.3       PUBLIC        P33
  B:00B0H.4       PUBLIC        P34
  B:00C0H.4       PUBLIC        P44
  B:00B0H.5       PUBLIC        P35
  D:00D0H         PUBLIC        PSW
  -------         PROC          KEY_READ
  -------         DO            
  D:0007H         SYMBOL        temp
  -------         ENDDO         
  C:0512H         LINE#         7
  C:0512H         LINE#         8
  C:0512H         LINE#         9
  C:0514H         LINE#         10
  C:051CH         LINE#         11
  C:0521H         LINE#         12
  C:0526H         LINE#         13
  C:052BH         LINE#         14
  C:0530H         LINE#         15
  C:0538H         LINE#         16
  C:053DH         LINE#         17
  C:0542H         LINE#         18
  C:0547H         LINE#         19
  C:054CH         LINE#         20
  C:0554H         LINE#         21
  C:0559H         LINE#         22
BL51 BANKED LINKER/LOCATER V6.22.2.0                                                  03/12/2024  18:05:59  PAGE 9


  C:055EH         LINE#         23
  C:0563H         LINE#         24
  C:0568H         LINE#         25
  C:0570H         LINE#         26
  C:0575H         LINE#         27
  C:057AH         LINE#         28
  C:057FH         LINE#         29
  C:0584H         LINE#         30
  C:0584H         LINE#         31
  -------         ENDPROC       KEY_READ
  -------         ENDMOD        KEY

  -------         MODULE        SEG
  C:0000H         SYMBOL        _ICE_DUMMY_
  D:0080H         PUBLIC        P0
  D:0090H         PUBLIC        P1
  D:00A0H         PUBLIC        P2
  D:00B0H         PUBLIC        P3
  D:00C0H         PUBLIC        P4
  D:00C8H         PUBLIC        P5
  D:00E8H         PUBLIC        P6
  D:00F8H         PUBLIC        P7
  D:00A8H         PUBLIC        IE
  D:00B8H         PUBLIC        IP
  C:08FEH         PUBLIC        Seg_Wula
  C:06A6H         PUBLIC        _Seg_Show
  D:00D8H         PUBLIC        CCON
  D:0098H         PUBLIC        SCON
  D:0088H         PUBLIC        TCON
  C:08ECH         PUBLIC        Seg_Table
  D:00D0H         PUBLIC        PSW
  -------         PROC          _SEG_SHOW
  D:0007H         SYMBOL        Wula
  D:0004H         SYMBOL        Table
  D:0002H         SYMBOL        Point
  C:06A6H         LINE#         29
  C:06A6H         LINE#         30
  C:06A6H         LINE#         31
  C:06A9H         LINE#         32
  C:06B1H         LINE#         33
  C:06B4H         LINE#         35
  C:06BBH         LINE#         36
  C:06C3H         LINE#         37
  C:06C6H         LINE#         39
  C:06D4H         LINE#         40
  C:06D8H         LINE#         41
  C:06DBH         LINE#         42
  C:06E3H         LINE#         43
  C:06E6H         LINE#         44
  -------         ENDPROC       _SEG_SHOW
  -------         ENDMOD        SEG

  -------         MODULE        LED
  C:0000H         SYMBOL        _ICE_DUMMY_
  C:0874H         PUBLIC        _Relay
  D:0080H         PUBLIC        P0
  D:0090H         PUBLIC        P1
BL51 BANKED LINKER/LOCATER V6.22.2.0                                                  03/12/2024  18:05:59  PAGE 10


  D:00A0H         PUBLIC        P2
  D:00B0H         PUBLIC        P3
  D:00C0H         PUBLIC        P4
  D:00C8H         PUBLIC        P5
  D:00E8H         PUBLIC        P6
  D:00F8H         PUBLIC        P7
  D:00A8H         PUBLIC        IE
  D:00B8H         PUBLIC        IP
  D:00D8H         PUBLIC        CCON
  D:0098H         PUBLIC        SCON
  D:0088H         PUBLIC        TCON
  D:0016H         SYMBOL        temp_old
  C:0724H         PUBLIC        _LED_Show
  D:0017H         SYMBOL        temp_new
  D:00D0H         PUBLIC        PSW
  C:084FH         PUBLIC        _Beep
  -------         PROC          _LED_SHOW
  D:0007H         SYMBOL        addr
  D:0004H         SYMBOL        enable
  C:0724H         LINE#         9
  C:0724H         LINE#         10
  C:0724H         LINE#         11
  C:0728H         LINE#         12
  C:0737H         LINE#         14
  C:0745H         LINE#         16
  C:074BH         LINE#         17
  C:074BH         LINE#         18
  C:0750H         LINE#         19
  C:0758H         LINE#         20
  C:075BH         LINE#         21
  C:075EH         LINE#         22
  C:075EH         LINE#         23
  -------         ENDPROC       _LED_SHOW
  -------         PROC          _BEEP
  D:0007H         SYMBOL        flag
  C:084FH         LINE#         26
  C:084FH         LINE#         27
  C:084FH         LINE#         28
  C:0852H         LINE#         29
  C:0857H         LINE#         31
  C:085AH         LINE#         33
  C:0860H         LINE#         34
  C:0860H         LINE#         35
  C:0865H         LINE#         36
  C:086DH         LINE#         37
  C:0870H         LINE#         38
  C:0873H         LINE#         39
  C:0873H         LINE#         40
  -------         ENDPROC       _BEEP
  -------         PROC          _RELAY
  D:0007H         SYMBOL        flag
  C:0874H         LINE#         43
  C:0874H         LINE#         44
  C:0874H         LINE#         45
  C:0877H         LINE#         46
  C:087CH         LINE#         48
  C:087FH         LINE#         50
BL51 BANKED LINKER/LOCATER V6.22.2.0                                                  03/12/2024  18:05:59  PAGE 11


  C:0885H         LINE#         51
  C:0885H         LINE#         52
  C:088AH         LINE#         53
  C:0892H         LINE#         54
  C:0895H         LINE#         55
  C:0898H         LINE#         56
  C:0898H         LINE#         57
  -------         ENDPROC       _RELAY
  -------         ENDMOD        LED

  -------         MODULE        DS1302
  C:0000H         SYMBOL        _ICE_DUMMY_
  D:0080H         PUBLIC        P0
  D:0090H         PUBLIC        P1
  D:00A0H         PUBLIC        P2
  D:00B0H         PUBLIC        P3
  D:00C0H         PUBLIC        P4
  D:00C8H         PUBLIC        P5
  D:00E8H         PUBLIC        P6
  D:00F8H         PUBLIC        P7
  D:00A8H         PUBLIC        IE
  D:00B8H         PUBLIC        IP
  D:00D8H         PUBLIC        CCON
  D:0098H         PUBLIC        SCON
  D:0088H         PUBLIC        TCON
  C:06E7H         PUBLIC        _DS1302_Read_Rtc
  C:0628H         PUBLIC        _Read_Ds1302_Byte
  B:00A0H.3       PUBLIC        SDA
  C:0585H         PUBLIC        _DS1302_Write_Rtc
  B:0090H.7       PUBLIC        SCK
  C:0961H         PUBLIC        _Write_Ds1302_Byte
  C:08B6H         PUBLIC        _Write_Ds1302
  B:0090H.3       PUBLIC        RST
  D:00D0H         PUBLIC        PSW
  -------         PROC          _WRITE_DS1302
  D:0007H         SYMBOL        temp
  -------         DO            
  D:0006H         SYMBOL        i
  -------         ENDDO         
  C:08B6H         LINE#         15
  C:08B6H         LINE#         16
  C:08B6H         LINE#         18
  C:08C2H         LINE#         19
  C:08C2H         LINE#         20
  C:08C4H         LINE#         21
  C:08C8H         LINE#         22
  C:08CCH         LINE#         23
  C:08CEH         LINE#         24
  C:08D1H         LINE#         25
  -------         ENDPROC       _WRITE_DS1302
  -------         PROC          _WRITE_DS1302_BYTE
  D:0007H         SYMBOL        address
  D:0005H         SYMBOL        dat
  C:0961H         LINE#         28
  C:0961H         LINE#         29
  C:0961H         LINE#         30
  C:0964H         LINE#         31
BL51 BANKED LINKER/LOCATER V6.22.2.0                                                  03/12/2024  18:05:59  PAGE 12


  C:0967H         LINE#         32
  C:096AH         LINE#         33
  C:096DH         LINE#         34
  C:0972H         LINE#         35
  C:0974H         LINE#         36
  -------         ENDPROC       _WRITE_DS1302_BYTE
  -------         PROC          L?0019
  -------         ENDPROC       L?0019
  -------         PROC          _READ_DS1302_BYTE
  D:0007H         SYMBOL        address
  -------         DO            
  D:0007H         SYMBOL        i
  D:0005H         SYMBOL        temp
  -------         ENDDO         
  C:0628H         LINE#         39
  C:0628H         LINE#         40
  C:0628H         LINE#         41
  C:062AH         LINE#         42
  C:062DH         LINE#         43
  C:0630H         LINE#         44
  C:0633H         LINE#         45
  C:0636H         LINE#         46
  C:0642H         LINE#         47
  C:0642H         LINE#         48
  C:0644H         LINE#         49
  C:0648H         LINE#         50
  C:064BH         LINE#         51
  C:064EH         LINE#         52
  C:0650H         LINE#         53
  C:0653H         LINE#         54
  C:0656H         LINE#         55
  C:0659H         LINE#         56
  C:065CH         LINE#         57
  C:065FH         LINE#         58
  C:0662H         LINE#         59
  C:0664H         LINE#         60
  -------         ENDPROC       _READ_DS1302_BYTE
  -------         PROC          _DS1302_WRITE_RTC
  D:000FH         SYMBOL        pRtc
  -------         DO            
  D:0004H         SYMBOL        i
  D:0003H         SYMBOL        temp
  -------         ENDDO         
  C:0585H         LINE#         63
  C:058BH         LINE#         64
  C:058BH         LINE#         65
  C:058DH         LINE#         66
  C:058EH         LINE#         67
  C:0594H         LINE#         68
  C:059EH         LINE#         69
  C:059EH         LINE#         70
  C:05BEH         LINE#         71
  C:05CCH         LINE#         72
  C:05CFH         LINE#         73
  -------         ENDPROC       _DS1302_WRITE_RTC
  -------         PROC          _DS1302_READ_RTC
  D:000FH         SYMBOL        pRtc
BL51 BANKED LINKER/LOCATER V6.22.2.0                                                  03/12/2024  18:05:59  PAGE 13


  -------         DO            
  D:0012H         SYMBOL        i
  -------         ENDDO         
  C:06E7H         LINE#         76
  C:06EDH         LINE#         77
  C:06EDH         LINE#         78
  C:06F0H         LINE#         79
  C:06FDH         LINE#         80
  C:0723H         LINE#         81
  -------         ENDPROC       _DS1302_READ_RTC
  -------         ENDMOD        DS1302

  -------         MODULE        IIC
  C:0000H         SYMBOL        _ICE_DUMMY_
  D:0080H         PUBLIC        P0
  D:0090H         PUBLIC        P1
  D:00A0H         PUBLIC        P2
  D:00B0H         PUBLIC        P3
  D:00C0H         PUBLIC        P4
  D:00C8H         PUBLIC        P5
  D:00E8H         PUBLIC        P6
  D:00F8H         PUBLIC        P7
  D:00A8H         PUBLIC        IE
  C:090AH         SYMBOL        _I2C_Delay
  D:00B8H         PUBLIC        IP
  C:0803H         PUBLIC        I2CReceiveByte
  D:00D8H         PUBLIC        CCON
  C:05D6H         PUBLIC        _EEPROM_Read
  D:0098H         PUBLIC        SCON
  D:0088H         PUBLIC        TCON
  C:075FH         PUBLIC        _EEPROM_Write
  B:00A0H.1       PUBLIC        sda
  B:00A0H.0       PUBLIC        scl
  C:0975H         PUBLIC        I2CStart
  C:0920H         PUBLIC        _I2CSendAck
  C:07CEH         PUBLIC        _I2CSendByte
  C:083DH         PUBLIC        I2CWaitAck
  C:0984H         PUBLIC        I2CStop
  D:00D0H         PUBLIC        PSW
  C:0906H         SYMBOL        L?0035
  -------         PROC          L?0034
  -------         ENDPROC       L?0034
  C:0906H         SYMBOL        L?0035
  -------         PROC          _I2C_DELAY
  D:0007H         SYMBOL        n
  C:090AH         LINE#         16
  C:090AH         LINE#         17
  C:090AH         LINE#         19
  C:090AH         LINE#         20
  C:090FH         LINE#         21
  C:0914H         LINE#         22
  C:0919H         LINE#         23
  C:0919H         LINE#         24
  C:091FH         LINE#         25
  -------         ENDPROC       _I2C_DELAY
  -------         PROC          I2CSTART
  C:0975H         LINE#         28
BL51 BANKED LINKER/LOCATER V6.22.2.0                                                  03/12/2024  18:05:59  PAGE 14


  C:0975H         LINE#         29
  C:0975H         LINE#         30
  C:0977H         LINE#         31
  C:0977H         LINE#         32
  C:097AH         LINE#         33
  C:097CH         LINE#         34
  C:0981H         LINE#         35
  C:0983H         LINE#         36
  -------         ENDPROC       I2CSTART
  -------         PROC          I2CSTOP
  C:0984H         LINE#         39
  C:0984H         LINE#         40
  C:0984H         LINE#         41
  C:0986H         LINE#         42
  C:0986H         LINE#         43
  C:0989H         LINE#         44
  C:098BH         LINE#         45
  -------         ENDPROC       I2CSTOP
  -------         PROC          _I2CSENDBYTE
  D:0005H         SYMBOL        byt
  -------         DO            
  D:0004H         SYMBOL        i
  -------         ENDDO         
  C:07CEH         LINE#         49
  C:07D0H         LINE#         50
  C:07D0H         LINE#         53
  C:07DCH         LINE#         54
  C:07DEH         LINE#         55
  C:07E3H         LINE#         56
  C:07E7H         LINE#         57
  C:07E9H         LINE#         58
  C:07EBH         LINE#         59
  C:07EBH         LINE#         60
  C:07EDH         LINE#         61
  C:07EDH         LINE#         62
  C:07F2H         LINE#         63
  C:07F4H         LINE#         64
  C:07F8H         LINE#         65
  C:07FDH         LINE#         66
  C:0800H         LINE#         68
  C:0802H         LINE#         69
  -------         ENDPROC       _I2CSENDBYTE
  -------         PROC          I2CRECEIVEBYTE
  -------         DO            
  D:0005H         SYMBOL        da
  D:0004H         SYMBOL        i
  -------         ENDDO         
  C:0803H         LINE#         72
  C:0803H         LINE#         73
  C:0803H         LINE#         76
  C:080FH         LINE#         77
  C:080FH         LINE#         78
  C:0812H         LINE#         79
  C:0816H         LINE#         80
  C:0819H         LINE#         81
  C:081CH         LINE#         82
  C:081EH         LINE#         83
BL51 BANKED LINKER/LOCATER V6.22.2.0                                                  03/12/2024  18:05:59  PAGE 15


  C:0823H         LINE#         84
  C:0826H         LINE#         85
  C:0828H         LINE#         86
  -------         ENDPROC       I2CRECEIVEBYTE
  -------         PROC          L?0033
  -------         ENDPROC       L?0033
  -------         PROC          I2CWAITACK
  -------         DO            
  D:0005H         SYMBOL        ackbit
  -------         ENDDO         
  C:083DH         LINE#         89
  C:083DH         LINE#         90
  C:083DH         LINE#         93
  C:083DH         LINE#         94
  C:0840H         LINE#         95
  C:0845H         LINE#         96
  C:0847H         LINE#         97
  C:084CH         LINE#         99
  C:084EH         LINE#         100
  -------         ENDPROC       I2CWAITACK
  -------         PROC          _I2CSENDACK
  D:0007H         SYMBOL        ackbit
  C:0920H         LINE#         103
  C:0920H         LINE#         104
  C:0920H         LINE#         105
  C:0922H         LINE#         106
  C:0927H         LINE#         107
  C:092CH         LINE#         108
  C:092CH         LINE#         109
  C:092FH         LINE#         110
  C:0931H         LINE#         111
  C:0933H         LINE#         112
  -------         ENDPROC       _I2CSENDACK
  -------         PROC          _EEPROM_WRITE
  D:000FH         SYMBOL        pAT
  D:0002H         SYMBOL        addr
  D:0014H         SYMBOL        num
  C:075FH         LINE#         115
  C:0765H         LINE#         116
  C:0765H         LINE#         117
  C:0765H         LINE#         118
  C:0765H         LINE#         119
  C:0765H         LINE#         120
  C:0765H         LINE#         121
  C:0768H         LINE#         122
  C:0775H         LINE#         123
  C:0775H         LINE#         124
  C:078AH         LINE#         125
  C:078DH         LINE#         126
  C:0792H         LINE#         127
  C:0794H         LINE#         128
  -------         ENDPROC       _EEPROM_WRITE
  -------         PROC          _EEPROM_READ
  D:0008H         SYMBOL        pAT
  D:0002H         SYMBOL        addr
  D:000DH         SYMBOL        num
  C:05D6H         LINE#         131
BL51 BANKED LINKER/LOCATER V6.22.2.0                                                  03/12/2024  18:05:59  PAGE 16


  C:05DCH         LINE#         132
  C:05DCH         LINE#         133
  C:05DCH         LINE#         134
  C:05DCH         LINE#         135
  C:05DCH         LINE#         136
  C:05DCH         LINE#         137
  C:05DFH         LINE#         138
  C:05E2H         LINE#         139
  C:05E7H         LINE#         140
  C:05EAH         LINE#         141
  C:05F7H         LINE#         142
  C:05F7H         LINE#         143
  C:060CH         LINE#         144
  C:0616H         LINE#         145
  C:061BH         LINE#         146
  C:061DH         LINE#         147
  -------         ENDPROC       _EEPROM_READ
  -------         ENDMOD        IIC

  -------         MODULE        ?C?CLDPTR
  C:031CH         PUBLIC        ?C?CLDPTR
  -------         ENDMOD        ?C?CLDPTR

  -------         MODULE        ?C?CLDOPTR
  C:0335H         PUBLIC        ?C?CLDOPTR
  -------         ENDMOD        ?C?CLDOPTR

  -------         MODULE        ?C?CSTPTR
  C:0362H         PUBLIC        ?C?CSTPTR
  -------         ENDMOD        ?C?CSTPTR

  -------         MODULE        ?C?CSTOPTR
  C:0374H         PUBLIC        ?C?CSTOPTR
  -------         ENDMOD        ?C?CSTOPTR

  -------         MODULE        ?C?IMUL
  C:0396H         PUBLIC        ?C?IMUL
  -------         ENDMOD        ?C?IMUL

  -------         MODULE        ?C?UIDIV
  C:03A8H         PUBLIC        ?C?UIDIV
  -------         ENDMOD        ?C?UIDIV

*** WARNING L16: UNCALLED SEGMENT, IGNORED FOR OVERLAY PROCESS
    SEGMENT: ?PR?_DELAY_MS?MAIN

*** WARNING L16: UNCALLED SEGMENT, IGNORED FOR OVERLAY PROCESS
    SEGMENT: ?PR?_BEEP?LED

*** WARNING L16: UNCALLED SEGMENT, IGNORED FOR OVERLAY PROCESS
    SEGMENT: ?PR?_RELAY?LED

*** WARNING L16: UNCALLED SEGMENT, IGNORED FOR OVERLAY PROCESS
    SEGMENT: ?PR?_EEPROM_READ?IIC

Program Size: data=74.2 xdata=0 code=2440
LINK/LOCATE RUN COMPLETE.  4 WARNING(S),  0 ERROR(S)
