BL51 BANKED LINKER/LOCATER V6.22.2.0                                                    05/07/2024  17:06:40  PAGE 1


BL51 BANKED LINKER/LOCATER V6.22.2.0, INVOKED BY:
D:\KEIL 5\C51\BIN\BL51.EXE .\Objects\STARTUP.obj, .\Objects\main.obj, .\Objects\Init.obj, .\Objects\Key.obj, .\Objects\S
>> eg.obj, .\Objects\LED.obj TO .\Objects\15461169 PRINT (.\Listings\15461169.m51) RAMSIZE (256)


MEMORY MODEL: SMALL


INPUT MODULES INCLUDED:
  .\Objects\STARTUP.obj (?C_STARTUP)
  .\Objects\main.obj (MAIN)
  .\Objects\Init.obj (INIT)
  .\Objects\Key.obj (KEY)
  .\Objects\Seg.obj (SEG)
  .\Objects\LED.obj (LED)
  D:\KEIL 5\C51\LIB\C51S.LIB (?C_INIT)
  D:\KEIL 5\C51\LIB\C51S.LIB (?C?UIDIV)


LINK MAP OF MODULE:  .\Objects\15461169 (?C_STARTUP)


            TYPE    BASE      LENGTH    RELOCATION   SEGMENT NAME
            -----------------------------------------------------

            * * * * * * *   D A T A   M E M O R Y   * * * * * * *
            REG     0000H     0008H     ABSOLUTE     "REG BANK 0"
            DATA    0008H     0004H     UNIT         ?DT?LED
                    000CH     0014H                  *** GAP ***
            BIT     0020H.0   0000H.4   UNIT         ?BI?MAIN
                    0020H.4   0000H.4                *** GAP ***
            DATA    0021H     001FH     UNIT         ?DT?MAIN
            IDATA   0040H     0001H     UNIT         ?STACK

            * * * * * * *   C O D E   M E M O R Y   * * * * * * *
            CODE    0000H     0003H     ABSOLUTE     
            CODE    0003H     0015H     UNIT         ?PR?TIMER1_INIT?MAIN
                    0018H     0003H                  *** GAP ***
            CODE    001BH     0003H     ABSOLUTE     
            CODE    001EH     00ABH     UNIT         ?PR?TIMER1_SERVE?MAIN
            CODE    00C9H     008CH     UNIT         ?C_C51STARTUP
            CODE    0155H     0073H     UNIT         ?PR?KEY_READ?KEY
            CODE    01C8H     0055H     UNIT         ?C?LIB_CODE
            CODE    021DH     0047H     UNIT         ?PR?_SEG_SHOW?SEG
            CODE    0264H     0046H     UNIT         ?PR?KEY_DEAL?MAIN
            CODE    02AAH     003BH     UNIT         ?PR?_LED_SHOW?LED
            CODE    02E5H     0037H     UNIT         ?C_INITSEG
            CODE    031CH     0023H     UNIT         ?PR?_BEEP?LED
            CODE    033FH     0023H     UNIT         ?PR?_RELAY?LED
            CODE    0362H     001DH     UNIT         ?PR?SYSTEM_INIT?INIT
            CODE    037FH     0014H     UNIT         ?PR?MAIN?MAIN
            CODE    0393H     0012H     UNIT         ?CO?SEG
            CODE    03A5H     0006H     UNIT         ?PR?SEG_DEAL?MAIN
            CODE    03ABH     0006H     UNIT         ?PR?LED_DEAL?MAIN
            CODE    03B1H     0006H     UNIT         ?PR?INFOR_DEAL?MAIN



BL51 BANKED LINKER/LOCATER V6.22.2.0                                                  05/07/2024  17:06:40  PAGE 2


OVERLAY MAP OF MODULE:   .\Objects\15461169 (?C_STARTUP)


SEGMENT
  +--> CALLED SEGMENT
---------------------
?C_C51STARTUP
  +--> ?PR?MAIN?MAIN
  +--> ?C_INITSEG

?PR?MAIN?MAIN
  +--> ?PR?SYSTEM_INIT?INIT
  +--> ?PR?TIMER1_INIT?MAIN
  +--> ?PR?INFOR_DEAL?MAIN
  +--> ?PR?KEY_DEAL?MAIN
  +--> ?PR?SEG_DEAL?MAIN
  +--> ?PR?LED_DEAL?MAIN

?PR?KEY_DEAL?MAIN
  +--> ?PR?KEY_READ?KEY
  +--> ?PR?_BEEP?LED
  +--> ?PR?_RELAY?LED

*** NEW ROOT ***************************************************

?PR?TIMER1_SERVE?MAIN
  +--> ?PR?_SEG_SHOW?SEG
  +--> ?PR?_LED_SHOW?LED

?PR?_SEG_SHOW?SEG
  +--> ?CO?SEG



SYMBOL TABLE OF MODULE:  .\Objects\15461169 (?C_STARTUP)

  VALUE           TYPE          NAME
  ----------------------------------

  -------         MODULE        ?C_STARTUP
  C:00C9H         SEGMENT       ?C_C51STARTUP
  I:0040H         SEGMENT       ?STACK
  C:0000H         PUBLIC        ?C_STARTUP
  D:00E0H         SYMBOL        ACC
  D:00F0H         SYMBOL        B
  D:0083H         SYMBOL        DPH
  D:0082H         SYMBOL        DPL
  N:0000H         SYMBOL        IBPSTACK
  N:0100H         SYMBOL        IBPSTACKTOP
  N:0080H         SYMBOL        IDATALEN
  C:00CCH         SYMBOL        IDATALOOP
  N:0000H         SYMBOL        PBPSTACK
  N:0100H         SYMBOL        PBPSTACKTOP
  N:0000H         SYMBOL        PDATALEN
  N:0000H         SYMBOL        PDATASTART
  N:0000H         SYMBOL        PPAGE
  N:0000H         SYMBOL        PPAGEENABLE
BL51 BANKED LINKER/LOCATER V6.22.2.0                                                  05/07/2024  17:06:40  PAGE 3


  D:00A0H         SYMBOL        PPAGE_SFR
  D:0081H         SYMBOL        SP
  C:00C9H         SYMBOL        STARTUP1
  N:0000H         SYMBOL        XBPSTACK
  N:0000H         SYMBOL        XBPSTACKTOP
  N:0000H         SYMBOL        XDATALEN
  N:0000H         SYMBOL        XDATASTART
  C:0000H         LINE#         126
  C:00C9H         LINE#         133
  C:00CBH         LINE#         134
  C:00CCH         LINE#         135
  C:00CDH         LINE#         136
  C:00CFH         LINE#         185
  C:00D2H         LINE#         196
  -------         ENDMOD        ?C_STARTUP

  -------         MODULE        MAIN
  C:0000H         SYMBOL        _ICE_DUMMY_
  D:0080H         PUBLIC        P0
  D:0090H         PUBLIC        P1
  D:00A0H         PUBLIC        P2
  C:0264H         PUBLIC        Key_Deal
  D:00B0H         PUBLIC        P3
  D:00C0H         PUBLIC        P4
  B:0020H.0       PUBLIC        Seg_Slow_Flag
  D:00C8H         PUBLIC        P5
  B:00A8H.7       PUBLIC        EA
  D:00E8H         PUBLIC        P6
  D:00F8H         PUBLIC        P7
  D:0025H         PUBLIC        Seg_Point
  D:00A8H         PUBLIC        IE
  B:0020H.1       PUBLIC        Key_Slow_Flag
  D:00B8H         PUBLIC        IP
  C:001EH         PUBLIC        Timer1_Serve
  D:002DH         PUBLIC        Seg_Buf
  D:0035H         PUBLIC        Slow_Down
  D:00D8H         PUBLIC        CCON
  C:037FH         PUBLIC        main
  C:0003H         PUBLIC        Timer1_Init
  C:03ABH         PUBLIC        LED_Deal
  D:0098H         PUBLIC        SCON
  D:0089H         PUBLIC        TMOD
  D:0088H         PUBLIC        TCON
  B:0020H.2       PUBLIC        LED_Slow_Flag
  D:008EH         PUBLIC        AUXR
  B:00A8H.3       PUBLIC        ET1
  B:0088H.7       PUBLIC        TF1
  D:008DH         PUBLIC        TH1
  D:008BH         PUBLIC        TL1
  D:0037H         PUBLIC        LED_Buf
  B:0088H.6       PUBLIC        TR1
  C:03B1H         PUBLIC        Infor_Deal
  B:0020H.3       PUBLIC        Infor_Slow_Flag
  D:003FH         PUBLIC        i
  C:03A5H         PUBLIC        Seg_Deal
  D:00D0H         PUBLIC        PSW
  -------         PROC          KEY_DEAL
BL51 BANKED LINKER/LOCATER V6.22.2.0                                                  05/07/2024  17:06:40  PAGE 4


  -------         DO            
  D:0021H         SYMBOL        Key_New
  D:0022H         SYMBOL        Key_Old
  D:0023H         SYMBOL        Key_UP
  D:0024H         SYMBOL        Key_Down
  -------         ENDDO         
  C:0264H         LINE#         20
  C:0264H         LINE#         21
  C:0264H         LINE#         25
  C:0267H         LINE#         26
  C:0269H         LINE#         28
  C:026EH         LINE#         29
  C:0279H         LINE#         30
  C:027EH         LINE#         31
  C:0281H         LINE#         33
  C:028FH         LINE#         34
  C:028FH         LINE#         35
  C:028FH         LINE#         36
  C:0292H         LINE#         37
  C:0295H         LINE#         38
  C:0296H         LINE#         39
  C:0296H         LINE#         40
  C:029BH         LINE#         41
  C:029BH         LINE#         42
  C:029BH         LINE#         43
  C:029DH         LINE#         44
  C:029FH         LINE#         45
  C:029FH         LINE#         46
  C:02A4H         LINE#         47
  C:02A9H         LINE#         48
  C:02A9H         LINE#         49
  C:02A9H         LINE#         50
  -------         ENDPROC       KEY_DEAL
  -------         PROC          SEG_DEAL
  C:03A5H         LINE#         53
  C:03A5H         LINE#         54
  C:03A5H         LINE#         55
  C:03A8H         LINE#         56
  C:03AAH         LINE#         58
  -------         ENDPROC       SEG_DEAL
  -------         PROC          LED_DEAL
  C:03ABH         LINE#         61
  C:03ABH         LINE#         62
  C:03ABH         LINE#         63
  C:03AEH         LINE#         64
  C:03B0H         LINE#         66
  -------         ENDPROC       LED_DEAL
  -------         PROC          INFOR_DEAL
  C:03B1H         LINE#         69
  C:03B1H         LINE#         70
  C:03B1H         LINE#         71
  C:03B4H         LINE#         72
  C:03B6H         LINE#         74
  -------         ENDPROC       INFOR_DEAL
  -------         PROC          TIMER1_INIT
  C:0003H         LINE#         77
  C:0003H         LINE#         78
BL51 BANKED LINKER/LOCATER V6.22.2.0                                                  05/07/2024  17:06:40  PAGE 5


  C:0003H         LINE#         79
  C:0006H         LINE#         80
  C:0009H         LINE#         81
  C:000CH         LINE#         82
  C:000FH         LINE#         83
  C:0011H         LINE#         84
  C:0013H         LINE#         85
  C:0015H         LINE#         86
  C:0017H         LINE#         87
  -------         ENDPROC       TIMER1_INIT
  -------         PROC          TIMER1_SERVE
  C:001EH         LINE#         90
  C:003BH         LINE#         92
  C:0054H         LINE#         93
  C:0065H         LINE#         94
  C:0076H         LINE#         95
  C:0087H         LINE#         97
  C:009FH         LINE#         98
  C:00AEH         LINE#         99
  -------         ENDPROC       TIMER1_SERVE
  -------         PROC          MAIN
  C:037FH         LINE#         102
  C:037FH         LINE#         103
  C:037FH         LINE#         104
  C:0382H         LINE#         105
  C:0385H         LINE#         107
  C:0385H         LINE#         108
  C:0385H         LINE#         109
  C:0388H         LINE#         110
  C:038BH         LINE#         111
  C:038EH         LINE#         112
  C:0391H         LINE#         113
  -------         ENDPROC       MAIN
  -------         ENDMOD        MAIN

  -------         MODULE        INIT
  C:0000H         SYMBOL        _ICE_DUMMY_
  C:0362H         PUBLIC        System_Init
  D:0080H         PUBLIC        P0
  D:0090H         PUBLIC        P1
  D:00A0H         PUBLIC        P2
  D:00B0H         PUBLIC        P3
  D:00C0H         PUBLIC        P4
  D:00C8H         PUBLIC        P5
  D:00E8H         PUBLIC        P6
  D:00F8H         PUBLIC        P7
  D:00A8H         PUBLIC        IE
  D:00B8H         PUBLIC        IP
  D:00D8H         PUBLIC        CCON
  D:0098H         PUBLIC        SCON
  D:0088H         PUBLIC        TCON
  D:00D0H         PUBLIC        PSW
  -------         PROC          SYSTEM_INIT
  C:0362H         LINE#         5
  C:0362H         LINE#         6
  C:0362H         LINE#         7
  C:0365H         LINE#         8
BL51 BANKED LINKER/LOCATER V6.22.2.0                                                  05/07/2024  17:06:40  PAGE 6


  C:036DH         LINE#         9
  C:0370H         LINE#         11
  C:0373H         LINE#         12
  C:037BH         LINE#         13
  C:037EH         LINE#         14
  -------         ENDPROC       SYSTEM_INIT
  -------         ENDMOD        INIT

  -------         MODULE        KEY
  C:0000H         SYMBOL        _ICE_DUMMY_
  D:0080H         PUBLIC        P0
  D:0090H         PUBLIC        P1
  D:00A0H         PUBLIC        P2
  D:00B0H         PUBLIC        P3
  D:00C0H         PUBLIC        P4
  D:00C8H         PUBLIC        P5
  D:00E8H         PUBLIC        P6
  D:00F8H         PUBLIC        P7
  C:0155H         PUBLIC        Key_Read
  D:00A8H         PUBLIC        IE
  D:00B8H         PUBLIC        IP
  D:00D8H         PUBLIC        CCON
  B:00B0H.0       PUBLIC        P30
  D:0098H         PUBLIC        SCON
  B:00B0H.1       PUBLIC        P31
  D:0088H         PUBLIC        TCON
  B:00B0H.2       PUBLIC        P32
  B:00C0H.2       PUBLIC        P42
  B:00B0H.3       PUBLIC        P33
  B:00B0H.4       PUBLIC        P34
  B:00C0H.4       PUBLIC        P44
  B:00B0H.5       PUBLIC        P35
  D:00D0H         PUBLIC        PSW
  -------         PROC          KEY_READ
  -------         DO            
  D:0007H         SYMBOL        temp
  -------         ENDDO         
  C:0155H         LINE#         4
  C:0155H         LINE#         5
  C:0155H         LINE#         6
  C:0157H         LINE#         7
  C:015FH         LINE#         8
  C:0164H         LINE#         9
  C:0169H         LINE#         10
  C:016EH         LINE#         11
  C:0173H         LINE#         12
  C:017BH         LINE#         13
  C:0180H         LINE#         14
  C:0185H         LINE#         15
  C:018AH         LINE#         16
  C:018FH         LINE#         17
  C:0197H         LINE#         18
  C:019CH         LINE#         19
  C:01A1H         LINE#         20
  C:01A6H         LINE#         21
  C:01ABH         LINE#         22
  C:01B3H         LINE#         23
BL51 BANKED LINKER/LOCATER V6.22.2.0                                                  05/07/2024  17:06:40  PAGE 7


  C:01B8H         LINE#         24
  C:01BDH         LINE#         25
  C:01C2H         LINE#         26
  C:01C7H         LINE#         27
  C:01C7H         LINE#         28
  -------         ENDPROC       KEY_READ
  -------         ENDMOD        KEY

  -------         MODULE        SEG
  C:0000H         SYMBOL        _ICE_DUMMY_
  D:0080H         PUBLIC        P0
  D:0090H         PUBLIC        P1
  D:00A0H         PUBLIC        P2
  D:00B0H         PUBLIC        P3
  D:00C0H         PUBLIC        P4
  D:00C8H         PUBLIC        P5
  D:00E8H         PUBLIC        P6
  D:00F8H         PUBLIC        P7
  D:00A8H         PUBLIC        IE
  D:00B8H         PUBLIC        IP
  C:021DH         PUBLIC        _Seg_Show
  D:00D8H         PUBLIC        CCON
  D:0098H         PUBLIC        SCON
  D:0088H         PUBLIC        TCON
  C:0393H         PUBLIC        Seg_Table
  D:00D0H         PUBLIC        PSW
  -------         PROC          _SEG_SHOW
  D:0007H         SYMBOL        addr
  D:0004H         SYMBOL        Table
  D:0002H         SYMBOL        Point
  C:021DH         LINE#         26
  C:021DH         LINE#         27
  C:021DH         LINE#         28
  C:0220H         LINE#         29
  C:0228H         LINE#         30
  C:022BH         LINE#         32
  C:0238H         LINE#         33
  C:0240H         LINE#         34
  C:0243H         LINE#         36
  C:0251H         LINE#         37
  C:0255H         LINE#         38
  C:0258H         LINE#         39
  C:0260H         LINE#         40
  C:0263H         LINE#         41
  -------         ENDPROC       _SEG_SHOW
  -------         ENDMOD        SEG

  -------         MODULE        LED
  C:0000H         SYMBOL        _ICE_DUMMY_
  C:033FH         PUBLIC        _Relay
  D:0080H         PUBLIC        P0
  D:0090H         PUBLIC        P1
  D:00A0H         PUBLIC        P2
  D:00B0H         PUBLIC        P3
  D:00C0H         PUBLIC        P4
  D:00C8H         PUBLIC        P5
  D:00E8H         PUBLIC        P6
BL51 BANKED LINKER/LOCATER V6.22.2.0                                                  05/07/2024  17:06:40  PAGE 8


  D:00F8H         PUBLIC        P7
  D:00A8H         PUBLIC        IE
  D:00B8H         PUBLIC        IP
  D:00D8H         PUBLIC        CCON
  D:0098H         PUBLIC        SCON
  D:0088H         PUBLIC        TCON
  D:000AH         PUBLIC        Beep_temp_old
  D:000BH         PUBLIC        Beep_temp_new
  C:02AAH         PUBLIC        _LED_Show
  D:00D0H         PUBLIC        PSW
  C:031CH         PUBLIC        _Beep
  -------         PROC          _LED_SHOW
  D:0007H         SYMBOL        addr
  D:0004H         SYMBOL        enable
  -------         DO            
  D:0008H         SYMBOL        temp_new
  D:0009H         SYMBOL        temp_old
  -------         ENDDO         
  C:02AAH         LINE#         4
  C:02AAH         LINE#         5
  C:02AAH         LINE#         9
  C:02AEH         LINE#         10
  C:02BDH         LINE#         12
  C:02CBH         LINE#         14
  C:02D1H         LINE#         15
  C:02D1H         LINE#         16
  C:02D6H         LINE#         17
  C:02DEH         LINE#         18
  C:02E1H         LINE#         19
  C:02E4H         LINE#         20
  C:02E4H         LINE#         21
  -------         ENDPROC       _LED_SHOW
  -------         PROC          _BEEP
  D:0007H         SYMBOL        enable
  C:031CH         LINE#         26
  C:031CH         LINE#         27
  C:031CH         LINE#         28
  C:031FH         LINE#         29
  C:0324H         LINE#         31
  C:0327H         LINE#         33
  C:032DH         LINE#         34
  C:032DH         LINE#         35
  C:0330H         LINE#         36
  C:0338H         LINE#         37
  C:033BH         LINE#         38
  C:033EH         LINE#         39
  C:033EH         LINE#         40
  -------         ENDPROC       _BEEP
  -------         PROC          _RELAY
  D:0007H         SYMBOL        enable
  C:033FH         LINE#         42
  C:033FH         LINE#         43
  C:033FH         LINE#         44
  C:0342H         LINE#         45
  C:0347H         LINE#         47
  C:034AH         LINE#         49
  C:0350H         LINE#         50
BL51 BANKED LINKER/LOCATER V6.22.2.0                                                  05/07/2024  17:06:40  PAGE 9


  C:0350H         LINE#         51
  C:0353H         LINE#         52
  C:035BH         LINE#         53
  C:035EH         LINE#         54
  C:0361H         LINE#         55
  C:0361H         LINE#         56
  -------         ENDPROC       _RELAY
  -------         ENDMOD        LED

  -------         MODULE        ?C?UIDIV
  C:01C8H         PUBLIC        ?C?UIDIV
  -------         ENDMOD        ?C?UIDIV

Program Size: data=44.4 xdata=0 code=948
LINK/LOCATE RUN COMPLETE.  0 WARNING(S),  0 ERROR(S)
