BL51 BANKED LINKER/LOCATER V6.22.2.0                                                    04/08/2024  17:41:05  PAGE 1


BL51 BANKED LINKER/LOCATER V6.22.2.0, INVOKED BY:
D:\KEIL 5\C51\BIN\BL51.EXE .\Objects\main.obj, .\Objects\Init.obj, .\Objects\Seg.obj, .\Objects\Key.obj, .\Objects\LED.o
>> bj TO .\Objects\2303002124 PRINT (.\Listings\2303002124.m51) RAMSIZE (256)


MEMORY MODEL: SMALL


INPUT MODULES INCLUDED:
  .\Objects\main.obj (MAIN)
  .\Objects\Init.obj (INIT)
  .\Objects\Seg.obj (SEG)
  .\Objects\Key.obj (KEY)
  .\Objects\LED.obj (LED)
  D:\KEIL 5\C51\LIB\C51S.LIB (?C_STARTUP)
  D:\KEIL 5\C51\LIB\C51S.LIB (?C?UIDIV)
  D:\KEIL 5\C51\LIB\C51S.LIB (?C_INIT)


LINK MAP OF MODULE:  .\Objects\2303002124 (MAIN)


            TYPE    BASE      LENGTH    RELOCATION   SEGMENT NAME
            -----------------------------------------------------

            * * * * * * *   D A T A   M E M O R Y   * * * * * * *
            REG     0000H     0008H     ABSOLUTE     "REG BANK 0"
            DATA    0008H     0004H     UNIT         ?DT?LED
                    000CH     0014H                  *** GAP ***
            BIT     0020H.0   0000H.4   UNIT         ?BI?MAIN
                    0020H.4   0000H.4                *** GAP ***
            DATA    0021H     001FH     UNIT         ?DT?MAIN
            IDATA   0040H     0001H     UNIT         ?STACK

            * * * * * * *   C O D E   M E M O R Y   * * * * * * *
            CODE    0000H     0003H     ABSOLUTE     
            CODE    0003H     0006H     UNIT         ?PR?SEG_DEAL?MAIN
                    0009H     0002H                  *** GAP ***
            CODE    000BH     0003H     ABSOLUTE     
            CODE    000EH     00BAH     UNIT         ?PR?TIMER0_SERVE?MAIN
            CODE    00C8H     008CH     UNIT         ?C_C51STARTUP
            CODE    0154H     0073H     UNIT         ?PR?KEY_READ?KEY
            CODE    01C7H     0055H     UNIT         ?C?LIB_CODE
            CODE    021CH     0049H     UNIT         ?PR?KEY_DEAL?MAIN
            CODE    0265H     0041H     UNIT         ?PR?_SEG_SHOW?SEG
            CODE    02A6H     003BH     UNIT         ?PR?_LED_SHOW?LED
            CODE    02E1H     0037H     UNIT         ?C_INITSEG
            CODE    0318H     0023H     UNIT         ?PR?_BEEP?LED
            CODE    033BH     0023H     UNIT         ?PR?_RELAY?LED
            CODE    035EH     001DH     UNIT         ?PR?SYSTEM_INIT?INIT
            CODE    037BH     001AH     UNIT         ?CO?SEG
            CODE    0395H     0015H     UNIT         ?PR?TIMER0_INIT?MAIN
            CODE    03AAH     0014H     UNIT         ?PR?MAIN?MAIN
            CODE    03BEH     0006H     UNIT         ?PR?LED_DEAL?MAIN
            CODE    03C4H     0006H     UNIT         ?PR?INFOR_DEAL?MAIN



BL51 BANKED LINKER/LOCATER V6.22.2.0                                                  04/08/2024  17:41:05  PAGE 2


OVERLAY MAP OF MODULE:   .\Objects\2303002124 (MAIN)


SEGMENT
  +--> CALLED SEGMENT
---------------------
?PR?TIMER0_SERVE?MAIN
  +--> ?PR?_SEG_SHOW?SEG
  +--> ?PR?_LED_SHOW?LED

?PR?_SEG_SHOW?SEG
  +--> ?CO?SEG

*** NEW ROOT ***************************************************

?C_C51STARTUP
  +--> ?PR?MAIN?MAIN
  +--> ?C_INITSEG

?PR?MAIN?MAIN
  +--> ?PR?SYSTEM_INIT?INIT
  +--> ?PR?TIMER0_INIT?MAIN
  +--> ?PR?KEY_DEAL?MAIN
  +--> ?PR?SEG_DEAL?MAIN
  +--> ?PR?LED_DEAL?MAIN
  +--> ?PR?INFOR_DEAL?MAIN

?PR?KEY_DEAL?MAIN
  +--> ?PR?KEY_READ?KEY
  +--> ?PR?_BEEP?LED
  +--> ?PR?_RELAY?LED



SYMBOL TABLE OF MODULE:  .\Objects\2303002124 (MAIN)

  VALUE           TYPE          NAME
  ----------------------------------

  -------         MODULE        MAIN
  C:0000H         SYMBOL        _ICE_DUMMY_
  D:0080H         PUBLIC        P0
  D:0090H         PUBLIC        P1
  D:00A0H         PUBLIC        P2
  C:021CH         PUBLIC        Key_Deal
  D:00B0H         PUBLIC        P3
  D:00C0H         PUBLIC        P4
  B:0020H.0       PUBLIC        Seg_Slow_Flag
  D:00C8H         PUBLIC        P5
  B:00A8H.7       PUBLIC        EA
  D:00E8H         PUBLIC        P6
  D:00F8H         PUBLIC        P7
  D:0025H         PUBLIC        Seg_Point
  D:00A8H         PUBLIC        IE
  B:0020H.1       PUBLIC        Key_Slow_Flag
  D:00B8H         PUBLIC        IP
  C:000EH         PUBLIC        Timer0_Serve
BL51 BANKED LINKER/LOCATER V6.22.2.0                                                  04/08/2024  17:41:05  PAGE 3


  D:002DH         PUBLIC        Seg_Buf
  D:0035H         PUBLIC        Slow_Down
  D:00D8H         PUBLIC        CCON
  C:03AAH         PUBLIC        main
  C:0395H         PUBLIC        Timer0_Init
  C:03BEH         PUBLIC        LED_Deal
  D:0098H         PUBLIC        SCON
  D:0089H         PUBLIC        TMOD
  D:0088H         PUBLIC        TCON
  B:0020H.2       PUBLIC        LED_Slow_Flag
  D:008EH         PUBLIC        AUXR
  B:00A8H.1       PUBLIC        ET0
  B:0088H.5       PUBLIC        TF0
  D:008CH         PUBLIC        TH0
  D:008AH         PUBLIC        TL0
  D:0037H         PUBLIC        LED_Buf
  B:0088H.4       PUBLIC        TR0
  C:03C4H         PUBLIC        Infor_Deal
  B:0020H.3       PUBLIC        Infor_Slow_Flag
  D:003FH         PUBLIC        i
  C:0003H         PUBLIC        Seg_Deal
  D:00D0H         PUBLIC        PSW
  -------         PROC          KEY_DEAL
  -------         DO            
  D:0021H         SYMBOL        Key_New
  D:0022H         SYMBOL        Key_Old
  D:0023H         SYMBOL        Key_UP
  D:0024H         SYMBOL        Key_Down
  -------         ENDDO         
  C:021CH         LINE#         20
  C:021CH         LINE#         21
  C:021CH         LINE#         25
  C:021FH         LINE#         26
  C:0221H         LINE#         28
  C:0226H         LINE#         29
  C:0231H         LINE#         30
  C:0236H         LINE#         31
  C:0239H         LINE#         33
  C:0247H         LINE#         34
  C:0247H         LINE#         35
  C:0247H         LINE#         36
  C:024AH         LINE#         37
  C:024DH         LINE#         38
  C:0250H         LINE#         39
  C:0251H         LINE#         40
  C:0251H         LINE#         41
  C:0256H         LINE#         42
  C:0256H         LINE#         43
  C:0256H         LINE#         44
  C:0258H         LINE#         45
  C:025AH         LINE#         46
  C:025AH         LINE#         47
  C:025FH         LINE#         48
  C:0264H         LINE#         49
  C:0264H         LINE#         50
  C:0264H         LINE#         51
  -------         ENDPROC       KEY_DEAL
BL51 BANKED LINKER/LOCATER V6.22.2.0                                                  04/08/2024  17:41:05  PAGE 4


  -------         PROC          SEG_DEAL
  C:0003H         LINE#         54
  C:0003H         LINE#         55
  C:0003H         LINE#         56
  C:0006H         LINE#         57
  C:0008H         LINE#         61
  -------         ENDPROC       SEG_DEAL
  -------         PROC          LED_DEAL
  C:03BEH         LINE#         64
  C:03BEH         LINE#         65
  C:03BEH         LINE#         66
  C:03C1H         LINE#         67
  C:03C3H         LINE#         71
  -------         ENDPROC       LED_DEAL
  -------         PROC          INFOR_DEAL
  C:03C4H         LINE#         74
  C:03C4H         LINE#         75
  C:03C4H         LINE#         76
  C:03C7H         LINE#         77
  C:03C9H         LINE#         81
  -------         ENDPROC       INFOR_DEAL
  -------         PROC          TIMER0_INIT
  C:0395H         LINE#         84
  C:0395H         LINE#         85
  C:0395H         LINE#         86
  C:0398H         LINE#         87
  C:039BH         LINE#         88
  C:039EH         LINE#         89
  C:03A1H         LINE#         90
  C:03A3H         LINE#         91
  C:03A5H         LINE#         92
  C:03A7H         LINE#         93
  C:03A9H         LINE#         94
  -------         ENDPROC       TIMER0_INIT
  -------         PROC          TIMER0_SERVE
  C:000EH         LINE#         97
  C:002BH         LINE#         99
  C:0042H         LINE#         100
  C:0053H         LINE#         101
  C:0064H         LINE#         102
  C:0075H         LINE#         103
  C:0086H         LINE#         104
  C:009EH         LINE#         105
  C:00ADH         LINE#         106
  -------         ENDPROC       TIMER0_SERVE
  -------         PROC          MAIN
  C:03AAH         LINE#         109
  C:03AAH         LINE#         110
  C:03AAH         LINE#         111
  C:03ADH         LINE#         112
  C:03B0H         LINE#         114
  C:03B0H         LINE#         115
  C:03B0H         LINE#         116
  C:03B3H         LINE#         117
  C:03B6H         LINE#         118
  C:03B9H         LINE#         119
  C:03BCH         LINE#         120
BL51 BANKED LINKER/LOCATER V6.22.2.0                                                  04/08/2024  17:41:05  PAGE 5


  -------         ENDPROC       MAIN
  -------         ENDMOD        MAIN

  -------         MODULE        INIT
  C:0000H         SYMBOL        _ICE_DUMMY_
  C:035EH         PUBLIC        System_Init
  D:0080H         PUBLIC        P0
  D:0090H         PUBLIC        P1
  D:00A0H         PUBLIC        P2
  D:00B0H         PUBLIC        P3
  D:00C0H         PUBLIC        P4
  D:00C8H         PUBLIC        P5
  D:00E8H         PUBLIC        P6
  D:00F8H         PUBLIC        P7
  D:00A8H         PUBLIC        IE
  D:00B8H         PUBLIC        IP
  D:00D8H         PUBLIC        CCON
  D:0098H         PUBLIC        SCON
  D:0088H         PUBLIC        TCON
  D:00D0H         PUBLIC        PSW
  -------         PROC          SYSTEM_INIT
  C:035EH         LINE#         5
  C:035EH         LINE#         6
  C:035EH         LINE#         7
  C:0361H         LINE#         8
  C:0369H         LINE#         9
  C:036CH         LINE#         11
  C:036FH         LINE#         12
  C:0377H         LINE#         13
  C:037AH         LINE#         14
  -------         ENDPROC       SYSTEM_INIT
  -------         ENDMOD        INIT

  -------         MODULE        SEG
  C:0000H         SYMBOL        _ICE_DUMMY_
  D:0080H         PUBLIC        P0
  D:0090H         PUBLIC        P1
  D:00A0H         PUBLIC        P2
  D:00B0H         PUBLIC        P3
  D:00C0H         PUBLIC        P4
  D:00C8H         PUBLIC        P5
  D:00E8H         PUBLIC        P6
  D:00F8H         PUBLIC        P7
  D:00A8H         PUBLIC        IE
  D:00B8H         PUBLIC        IP
  C:0265H         PUBLIC        _Seg_Show
  D:00D8H         PUBLIC        CCON
  D:0098H         PUBLIC        SCON
  D:0088H         PUBLIC        TCON
  C:037BH         PUBLIC        Seg_Wu
  C:0383H         PUBLIC        Seg_Table
  D:00D0H         PUBLIC        PSW
  -------         PROC          _SEG_SHOW
  D:0007H         SYMBOL        Wu
  D:0004H         SYMBOL        Table
  D:0002H         SYMBOL        Point
  C:0265H         LINE#         27
BL51 BANKED LINKER/LOCATER V6.22.2.0                                                  04/08/2024  17:41:05  PAGE 6


  C:0265H         LINE#         28
  C:0265H         LINE#         29
  C:0268H         LINE#         30
  C:0270H         LINE#         31
  C:0273H         LINE#         33
  C:027AH         LINE#         34
  C:0282H         LINE#         35
  C:0285H         LINE#         37
  C:0293H         LINE#         38
  C:0297H         LINE#         39
  C:029AH         LINE#         40
  C:02A2H         LINE#         41
  C:02A5H         LINE#         42
  -------         ENDPROC       _SEG_SHOW
  -------         ENDMOD        SEG

  -------         MODULE        KEY
  C:0000H         SYMBOL        _ICE_DUMMY_
  D:0080H         PUBLIC        P0
  D:0090H         PUBLIC        P1
  D:00A0H         PUBLIC        P2
  D:00B0H         PUBLIC        P3
  D:00C0H         PUBLIC        P4
  D:00C8H         PUBLIC        P5
  D:00E8H         PUBLIC        P6
  D:00F8H         PUBLIC        P7
  C:0154H         PUBLIC        Key_Read
  D:00A8H         PUBLIC        IE
  D:00B8H         PUBLIC        IP
  D:00D8H         PUBLIC        CCON
  B:00B0H.0       PUBLIC        P30
  D:0098H         PUBLIC        SCON
  B:00B0H.1       PUBLIC        P31
  D:0088H         PUBLIC        TCON
  B:00B0H.2       PUBLIC        P32
  B:00C0H.2       PUBLIC        P42
  B:00B0H.3       PUBLIC        P33
  B:00B0H.4       PUBLIC        P34
  B:00C0H.4       PUBLIC        P44
  B:00B0H.5       PUBLIC        P35
  D:00D0H         PUBLIC        PSW
  -------         PROC          KEY_READ
  -------         DO            
  D:0007H         SYMBOL        temp
  -------         ENDDO         
  C:0154H         LINE#         4
  C:0154H         LINE#         5
  C:0154H         LINE#         6
  C:0156H         LINE#         7
  C:015EH         LINE#         8
  C:0163H         LINE#         9
  C:0168H         LINE#         10
  C:016DH         LINE#         11
  C:0172H         LINE#         12
  C:017AH         LINE#         13
  C:017FH         LINE#         14
  C:0184H         LINE#         15
BL51 BANKED LINKER/LOCATER V6.22.2.0                                                  04/08/2024  17:41:05  PAGE 7


  C:0189H         LINE#         16
  C:018EH         LINE#         17
  C:0196H         LINE#         18
  C:019BH         LINE#         19
  C:01A0H         LINE#         20
  C:01A5H         LINE#         21
  C:01AAH         LINE#         22
  C:01B2H         LINE#         23
  C:01B7H         LINE#         24
  C:01BCH         LINE#         25
  C:01C1H         LINE#         26
  C:01C6H         LINE#         27
  C:01C6H         LINE#         28
  -------         ENDPROC       KEY_READ
  -------         ENDMOD        KEY

  -------         MODULE        LED
  C:0000H         SYMBOL        _ICE_DUMMY_
  C:033BH         PUBLIC        _Relay
  D:0080H         PUBLIC        P0
  D:0090H         PUBLIC        P1
  D:00A0H         PUBLIC        P2
  D:00B0H         PUBLIC        P3
  D:00C0H         PUBLIC        P4
  D:00C8H         PUBLIC        P5
  D:00E8H         PUBLIC        P6
  D:00F8H         PUBLIC        P7
  D:00A8H         PUBLIC        IE
  D:00B8H         PUBLIC        IP
  D:00D8H         PUBLIC        CCON
  D:0098H         PUBLIC        SCON
  D:0088H         PUBLIC        TCON
  D:000AH         PUBLIC        temp_old
  C:02A6H         PUBLIC        _LED_Show
  D:000BH         PUBLIC        temp_new
  D:00D0H         PUBLIC        PSW
  C:0318H         PUBLIC        _Beep
  -------         PROC          _LED_SHOW
  D:0007H         SYMBOL        addr
  D:0004H         SYMBOL        enable
  -------         DO            
  D:0008H         SYMBOL        temp_new_LED
  D:0009H         SYMBOL        temp_old_LED
  -------         ENDDO         
  C:02A6H         LINE#         4
  C:02A6H         LINE#         5
  C:02A6H         LINE#         9
  C:02AAH         LINE#         10
  C:02B9H         LINE#         12
  C:02C7H         LINE#         14
  C:02CDH         LINE#         15
  C:02CDH         LINE#         16
  C:02D2H         LINE#         17
  C:02DAH         LINE#         18
  C:02DDH         LINE#         19
  C:02E0H         LINE#         20
  C:02E0H         LINE#         21
BL51 BANKED LINKER/LOCATER V6.22.2.0                                                  04/08/2024  17:41:05  PAGE 8


  -------         ENDPROC       _LED_SHOW
  -------         PROC          _BEEP
  D:0007H         SYMBOL        enable
  C:0318H         LINE#         26
  C:0318H         LINE#         27
  C:0318H         LINE#         28
  C:031BH         LINE#         29
  C:0320H         LINE#         31
  C:0323H         LINE#         33
  C:0329H         LINE#         34
  C:0329H         LINE#         35
  C:032CH         LINE#         36
  C:0334H         LINE#         37
  C:0337H         LINE#         38
  C:033AH         LINE#         39
  C:033AH         LINE#         40
  -------         ENDPROC       _BEEP
  -------         PROC          _RELAY
  D:0007H         SYMBOL        enable
  C:033BH         LINE#         42
  C:033BH         LINE#         43
  C:033BH         LINE#         44
  C:033EH         LINE#         45
  C:0343H         LINE#         47
  C:0346H         LINE#         49
  C:034CH         LINE#         50
  C:034CH         LINE#         51
  C:034FH         LINE#         52
  C:0357H         LINE#         53
  C:035AH         LINE#         54
  C:035DH         LINE#         55
  C:035DH         LINE#         56
  -------         ENDPROC       _RELAY
  -------         ENDMOD        LED

  -------         MODULE        ?C?UIDIV
  C:01C7H         PUBLIC        ?C?UIDIV
  -------         ENDMOD        ?C?UIDIV

Program Size: data=44.4 xdata=0 code=968
LINK/LOCATE RUN COMPLETE.  0 WARNING(S),  0 ERROR(S)
