BL51 BANKED LINKER/LOCATER V6.22.2.0                                                    03/15/2024  20:13:15  PAGE 1


BL51 BANKED LINKER/LOCATER V6.22.2.0, INVOKED BY:
D:\KEIL 5\C51\BIN\BL51.EXE .\Objects\main.obj, .\Objects\Init.obj, .\Objects\Key.obj, .\Objects\Seg.obj, .\Objects\LED.o
>> bj, .\Objects\Uwave.obj, .\Objects\iic.obj TO .\Objects\2303002124 PRINT (.\Listings\2303002124.m51) RAMSIZE (256)


MEMORY MODEL: SMALL WITH FLOATING POINT ARITHMETIC


INPUT MODULES INCLUDED:
  .\Objects\main.obj (MAIN)
  .\Objects\Init.obj (INIT)
  .\Objects\Key.obj (KEY)
  .\Objects\Seg.obj (SEG)
  .\Objects\LED.obj (LED)
  .\Objects\Uwave.obj (UWAVE)
  .\Objects\iic.obj (IIC)
  D:\KEIL 5\C51\LIB\C51FPS.LIB (?C?FPMUL)
  D:\KEIL 5\C51\LIB\C51FPS.LIB (?C?FCAST)
  D:\KEIL 5\C51\LIB\C51FPS.LIB (?C?CASTF)
  D:\KEIL 5\C51\LIB\C51FPS.LIB (?C?FPGETOPN)
  D:\KEIL 5\C51\LIB\C51S.LIB (?C_STARTUP)
  D:\KEIL 5\C51\LIB\C51S.LIB (?C?UIDIV)
  D:\KEIL 5\C51\LIB\C51S.LIB (?C?LNEG)
  D:\KEIL 5\C51\LIB\C51S.LIB (?C_INIT)


LINK MAP OF MODULE:  .\Objects\2303002124 (MAIN)


            TYPE    BASE      LENGTH    RELOCATION   SEGMENT NAME
            -----------------------------------------------------

            * * * * * * *   D A T A   M E M O R Y   * * * * * * *
            REG     0000H     0008H     ABSOLUTE     "REG BANK 0"
            DATA    0008H     0002H     UNIT         ?DT?LED
                    000AH     0016H                  *** GAP ***
            BIT     0020H.0   0000H.7   UNIT         ?BI?MAIN
                    0020H.7   0000H.1                *** GAP ***
            DATA    0021H     0029H     UNIT         ?DT?MAIN
            IDATA   004AH     0001H     UNIT         ?STACK

            * * * * * * *   C O D E   M E M O R Y   * * * * * * *
            CODE    0000H     0003H     ABSOLUTE     
            CODE    0003H     0007H     UNIT         ?PR?DELAY12US?UWAVE
                    000AH     0001H                  *** GAP ***
            CODE    000BH     0003H     ABSOLUTE     
            CODE    000EH     0228H     UNIT         ?C?LIB_CODE
            CODE    0236H     00BFH     UNIT         ?PR?INFOR_DEAL?MAIN
            CODE    02F5H     00A8H     UNIT         ?PR?OTHER_DEAL?MAIN
            CODE    039DH     0098H     UNIT         ?PR?TIMER0_SERVE?MAIN
            CODE    0435H     0091H     UNIT         ?PR?KEY_DEAL?MAIN
            CODE    04C6H     008CH     UNIT         ?C_C51STARTUP
            CODE    0552H     0073H     UNIT         ?PR?KEY_READ?KEY
            CODE    05C5H     0041H     UNIT         ?PR?_SEG_SHOW?SEG
            CODE    0606H     003DH     UNIT         ?C_INITSEG
            CODE    0643H     003CH     UNIT         ?PR?UWAVE_READ?UWAVE
            CODE    067FH     003BH     UNIT         ?PR?_LED_SHOW?LED
            CODE    06BAH     0035H     UNIT         ?PR?_I2CSENDBYTE?IIC
BL51 BANKED LINKER/LOCATER V6.22.2.0                                                  03/15/2024  20:13:15  PAGE 2


            CODE    06EFH     002AH     UNIT         ?PR?_AD_READ?IIC
            CODE    0719H     0026H     UNIT         ?PR?I2CRECEIVEBYTE?IIC
            CODE    073FH     001DH     UNIT         ?PR?INIT_17?INIT
            CODE    075CH     001BH     UNIT         ?CO?SEG
            CODE    0777H     001AH     UNIT         ?PR?UWAVE_INIT_17?UWAVE
            CODE    0791H     001AH     UNIT         ?PR?_I2C_DELAY?IIC
            CODE    07ABH     0018H     UNIT         ?PR?_I2CSENDACK?IIC
            CODE    07C3H     0015H     UNIT         ?PR?TIMER0_INIT?MAIN
            CODE    07D8H     0015H     UNIT         ?PR?I2CWAITACK?IIC
            CODE    07EDH     0011H     UNIT         ?PR?MAIN?MAIN
            CODE    07FEH     000FH     UNIT         ?PR?I2CSTART?IIC
            CODE    080DH     000CH     UNIT         ?PR?I2CSTOP?IIC



OVERLAY MAP OF MODULE:   .\Objects\2303002124 (MAIN)


SEGMENT
  +--> CALLED SEGMENT
---------------------
?PR?TIMER0_SERVE?MAIN
  +--> ?PR?_SEG_SHOW?SEG
  +--> ?PR?_LED_SHOW?LED

?PR?_SEG_SHOW?SEG
  +--> ?CO?SEG

*** NEW ROOT ***************************************************

?C_C51STARTUP
  +--> ?PR?MAIN?MAIN
  +--> ?C_INITSEG

?PR?MAIN?MAIN
  +--> ?PR?INIT_17?INIT
  +--> ?PR?TIMER0_INIT?MAIN
  +--> ?PR?KEY_DEAL?MAIN
  +--> ?PR?INFOR_DEAL?MAIN
  +--> ?PR?OTHER_DEAL?MAIN

?PR?KEY_DEAL?MAIN
  +--> ?PR?KEY_READ?KEY

?PR?INFOR_DEAL?MAIN
  +--> ?PR?UWAVE_READ?UWAVE
  +--> ?PR?_AD_READ?IIC

?PR?UWAVE_READ?UWAVE
  +--> ?PR?UWAVE_INIT_17?UWAVE

?PR?UWAVE_INIT_17?UWAVE
  +--> ?PR?DELAY12US?UWAVE

?PR?_AD_READ?IIC
  +--> ?PR?I2CSTART?IIC
  +--> ?PR?I2CWAITACK?IIC
BL51 BANKED LINKER/LOCATER V6.22.2.0                                                  03/15/2024  20:13:15  PAGE 3


  +--> ?PR?_I2CSENDBYTE?IIC
  +--> ?PR?I2CRECEIVEBYTE?IIC
  +--> ?PR?_I2CSENDACK?IIC
  +--> ?PR?I2CSTOP?IIC

?PR?I2CSTART?IIC
  +--> ?PR?_I2C_DELAY?IIC

?PR?I2CWAITACK?IIC
  +--> ?PR?_I2CSENDBYTE?IIC
  +--> ?PR?_I2C_DELAY?IIC

?PR?_I2CSENDBYTE?IIC
  +--> ?PR?_I2C_DELAY?IIC

?PR?I2CRECEIVEBYTE?IIC
  +--> ?PR?_I2C_DELAY?IIC

?PR?_I2CSENDACK?IIC
  +--> ?PR?_I2C_DELAY?IIC

?PR?I2CSTOP?IIC
  +--> ?PR?_I2C_DELAY?IIC



SYMBOL TABLE OF MODULE:  .\Objects\2303002124 (MAIN)

  VALUE           TYPE          NAME
  ----------------------------------

  -------         MODULE        MAIN
  C:0000H         SYMBOL        _ICE_DUMMY_
  D:0080H         PUBLIC        P0
  D:0090H         PUBLIC        P1
  D:00A0H         PUBLIC        P2
  C:0435H         PUBLIC        Key_Deal
  B:0020H.0       PUBLIC        Warn_Flag_New
  D:00B0H         PUBLIC        P3
  D:00C0H         PUBLIC        P4
  B:0020H.1       PUBLIC        Seg_Slow_Flag
  D:00C8H         PUBLIC        P5
  B:00A8H.7       PUBLIC        EA
  D:00E8H         PUBLIC        P6
  D:00F8H         PUBLIC        P7
  D:0025H         PUBLIC        Seg_Show_Mode
  D:0026H         PUBLIC        Seg_Point
  D:00A8H         PUBLIC        IE
  B:0020H.2       PUBLIC        Key_Slow_Flag
  D:00B8H         PUBLIC        IP
  C:039DH         PUBLIC        Timer0_Serve
  D:002EH         PUBLIC        Seg_Buf
  D:00D8H         PUBLIC        CCON
  C:07EDH         PUBLIC        main
  C:07C3H         PUBLIC        Timer0_Init
  D:0036H         PUBLIC        Warn_Num
  D:0037H         PUBLIC        Uwave_D
BL51 BANKED LINKER/LOCATER V6.22.2.0                                                  03/15/2024  20:13:15  PAGE 4


  D:0098H         PUBLIC        SCON
  D:0089H         PUBLIC        TMOD
  D:0088H         PUBLIC        TCON
  D:0038H         PUBLIC        Num_Min
  D:0039H         PUBLIC        Num_Max
  D:008EH         PUBLIC        AUXR
  D:003AH         PUBLIC        Num_Min_Set
  D:003BH         PUBLIC        Num_Max_Set
  B:00A8H.1       PUBLIC        ET0
  B:0088H.5       PUBLIC        TF0
  D:008CH         PUBLIC        TH0
  D:008AH         PUBLIC        TL0
  D:003CH         PUBLIC        LED_Buf
  B:0088H.4       PUBLIC        TR0
  C:0236H         PUBLIC        Infor_Deal
  C:02F5H         PUBLIC        Other_Deal
  B:0020H.3       PUBLIC        L8_Star_Flag
  D:0044H         PUBLIC        AD_Data
  B:0020H.4       PUBLIC        S8_Down_Flag
  B:0020H.5       PUBLIC        S9_Down_Flag
  D:0045H         PUBLIC        Time_100ms
  D:0046H         PUBLIC        i
  D:0047H         PUBLIC        Slow_Down_17
  D:0049H         PUBLIC        Seg_Num_Mode_Flag
  B:0020H.6       PUBLIC        Warn_Flag_Old
  D:00D0H         PUBLIC        PSW
  -------         PROC          KEY_DEAL
  -------         DO            
  D:0021H         SYMBOL        Key_Old
  D:0022H         SYMBOL        Key_New
  D:0023H         SYMBOL        Key_UP
  D:0024H         SYMBOL        Key_Down
  -------         ENDDO         
  C:0435H         LINE#         31
  C:0435H         LINE#         32
  C:0435H         LINE#         36
  C:043BH         LINE#         37
  C:043DH         LINE#         39
  C:0442H         LINE#         40
  C:044DH         LINE#         41
  C:0452H         LINE#         42
  C:0455H         LINE#         44
  C:0464H         LINE#         45
  C:0464H         LINE#         47
  C:0464H         LINE#         48
  C:046EH         LINE#         49
  C:0472H         LINE#         50
  C:0473H         LINE#         52
  C:0473H         LINE#         53
  C:0477H         LINE#         55
  C:0480H         LINE#         56
  C:0484H         LINE#         58
  C:048AH         LINE#         59
  C:048CH         LINE#         60
  C:048DH         LINE#         62
  C:048DH         LINE#         63
  C:0493H         LINE#         64
BL51 BANKED LINKER/LOCATER V6.22.2.0                                                  03/15/2024  20:13:15  PAGE 5


  C:0493H         LINE#         66
  C:0497H         LINE#         67
  C:0497H         LINE#         68
  C:049DH         LINE#         69
  C:04A1H         LINE#         70
  C:04A4H         LINE#         71
  C:04A5H         LINE#         74
  C:04A5H         LINE#         75
  C:04A7H         LINE#         76
  C:04A9H         LINE#         77
  C:04A9H         LINE#         78
  C:04A9H         LINE#         79
  C:04AAH         LINE#         81
  C:04AAH         LINE#         82
  C:04B0H         LINE#         83
  C:04B0H         LINE#         85
  C:04B4H         LINE#         86
  C:04B4H         LINE#         87
  C:04BAH         LINE#         88
  C:04BEH         LINE#         89
  C:04C0H         LINE#         90
  C:04C1H         LINE#         93
  C:04C1H         LINE#         94
  C:04C3H         LINE#         95
  C:04C5H         LINE#         96
  C:04C5H         LINE#         97
  C:04C5H         LINE#         98
  C:04C5H         LINE#         99
  C:04C5H         LINE#         100
  -------         ENDPROC       KEY_DEAL
  -------         PROC          INFOR_DEAL
  C:0236H         LINE#         103
  C:0236H         LINE#         104
  C:0236H         LINE#         106
  C:023CH         LINE#         107
  C:023EH         LINE#         110
  C:0243H         LINE#         111
  C:024FH         LINE#         114
  C:025EH         LINE#         115
  C:025EH         LINE#         117
  C:025EH         LINE#         118
  C:0261H         LINE#         119
  C:026FH         LINE#         120
  C:027AH         LINE#         121
  C:0287H         LINE#         122
  C:0289H         LINE#         123
  C:028BH         LINE#         125
  C:028BH         LINE#         126
  C:028EH         LINE#         127
  C:0293H         LINE#         128
  C:0296H         LINE#         129
  C:02A3H         LINE#         130
  C:02ACH         LINE#         131
  C:02AFH         LINE#         132
  C:02BCH         LINE#         133
  C:02C5H         LINE#         134
  C:02C6H         LINE#         136
BL51 BANKED LINKER/LOCATER V6.22.2.0                                                  03/15/2024  20:13:15  PAGE 6


  C:02C6H         LINE#         137
  C:02C9H         LINE#         138
  C:02D7H         LINE#         139
  C:02E2H         LINE#         140
  C:02EDH         LINE#         141
  C:02F1H         LINE#         143
  C:02F4H         LINE#         144
  C:02F4H         LINE#         145
  C:02F4H         LINE#         147
  -------         ENDPROC       INFOR_DEAL
  -------         PROC          OTHER_DEAL
  C:02F5H         LINE#         150
  C:02F5H         LINE#         151
  C:02F5H         LINE#         154
  C:02F8H         LINE#         155
  C:02F8H         LINE#         156
  C:0300H         LINE#         157
  C:0304H         LINE#         158
  C:030AH         LINE#         159
  C:030CH         LINE#         161
  C:030FH         LINE#         162
  C:030FH         LINE#         163
  C:0319H         LINE#         164
  C:031DH         LINE#         165
  C:0323H         LINE#         166
  C:0323H         LINE#         168
  C:0329H         LINE#         169
  C:0329H         LINE#         170
  C:032CH         LINE#         171
  C:032FH         LINE#         172
  C:032FH         LINE#         174
  C:0341H         LINE#         175
  C:0347H         LINE#         176
  C:0347H         LINE#         177
  C:034BH         LINE#         178
  C:0353H         LINE#         179
  C:0356H         LINE#         180
  C:0358H         LINE#         182
  C:035CH         LINE#         186
  C:036AH         LINE#         187
  C:0380H         LINE#         189
  C:038DH         LINE#         190
  C:0391H         LINE#         192
  C:039CH         LINE#         193
  -------         ENDPROC       OTHER_DEAL
  -------         PROC          TIMER0_INIT
  C:07C3H         LINE#         196
  C:07C3H         LINE#         197
  C:07C3H         LINE#         198
  C:07C6H         LINE#         199
  C:07C9H         LINE#         200
  C:07CCH         LINE#         201
  C:07CFH         LINE#         202
  C:07D1H         LINE#         203
  C:07D3H         LINE#         204
  C:07D5H         LINE#         205
  C:07D7H         LINE#         206
BL51 BANKED LINKER/LOCATER V6.22.2.0                                                  03/15/2024  20:13:15  PAGE 7


  -------         ENDPROC       TIMER0_INIT
  -------         PROC          TIMER0_SERVE
  C:039DH         LINE#         209
  C:03BAH         LINE#         211
  C:03D3H         LINE#         212
  C:03E4H         LINE#         213
  C:03FCH         LINE#         214
  C:040BH         LINE#         216
  C:0413H         LINE#         217
  C:0413H         LINE#         219
  C:0415H         LINE#         220
  C:041AH         LINE#         221
  C:041AH         LINE#         222
  -------         ENDPROC       TIMER0_SERVE
  -------         PROC          MAIN
  C:07EDH         LINE#         225
  C:07EDH         LINE#         226
  C:07EDH         LINE#         227
  C:07F0H         LINE#         228
  C:07F3H         LINE#         229
  C:07F3H         LINE#         230
  C:07F3H         LINE#         231
  C:07F6H         LINE#         232
  C:07F9H         LINE#         233
  C:07FCH         LINE#         234
  -------         ENDPROC       MAIN
  -------         ENDMOD        MAIN

  -------         MODULE        INIT
  C:0000H         SYMBOL        _ICE_DUMMY_
  D:0080H         PUBLIC        P0
  D:0090H         PUBLIC        P1
  D:00A0H         PUBLIC        P2
  D:00B0H         PUBLIC        P3
  D:00C0H         PUBLIC        P4
  D:00C8H         PUBLIC        P5
  D:00E8H         PUBLIC        P6
  D:00F8H         PUBLIC        P7
  D:00A8H         PUBLIC        IE
  D:00B8H         PUBLIC        IP
  D:00D8H         PUBLIC        CCON
  D:0098H         PUBLIC        SCON
  D:0088H         PUBLIC        TCON
  C:073FH         PUBLIC        Init_17
  D:00D0H         PUBLIC        PSW
  -------         PROC          INIT_17
  C:073FH         LINE#         5
  C:073FH         LINE#         6
  C:073FH         LINE#         7
  C:0742H         LINE#         8
  C:074AH         LINE#         9
  C:074DH         LINE#         11
  C:0750H         LINE#         12
  C:0758H         LINE#         13
  C:075BH         LINE#         14
  -------         ENDPROC       INIT_17
  -------         ENDMOD        INIT
BL51 BANKED LINKER/LOCATER V6.22.2.0                                                  03/15/2024  20:13:15  PAGE 8



  -------         MODULE        KEY
  C:0000H         SYMBOL        _ICE_DUMMY_
  D:0080H         PUBLIC        P0
  D:0090H         PUBLIC        P1
  D:00A0H         PUBLIC        P2
  D:00B0H         PUBLIC        P3
  D:00C0H         PUBLIC        P4
  D:00C8H         PUBLIC        P5
  D:00E8H         PUBLIC        P6
  D:00F8H         PUBLIC        P7
  C:0552H         PUBLIC        Key_Read
  D:00A8H         PUBLIC        IE
  D:00B8H         PUBLIC        IP
  D:00D8H         PUBLIC        CCON
  B:00B0H.0       PUBLIC        P30
  D:0098H         PUBLIC        SCON
  B:00B0H.1       PUBLIC        P31
  D:0088H         PUBLIC        TCON
  B:00B0H.2       PUBLIC        P32
  B:00C0H.2       PUBLIC        P42
  B:00B0H.3       PUBLIC        P33
  B:00B0H.4       PUBLIC        P34
  B:00C0H.4       PUBLIC        P44
  B:00B0H.5       PUBLIC        P35
  D:00D0H         PUBLIC        PSW
  -------         PROC          KEY_READ
  -------         DO            
  D:0007H         SYMBOL        temp_17
  -------         ENDDO         
  C:0552H         LINE#         5
  C:0552H         LINE#         6
  C:0552H         LINE#         7
  C:0554H         LINE#         8
  C:055CH         LINE#         9
  C:0561H         LINE#         10
  C:0566H         LINE#         11
  C:056BH         LINE#         12
  C:0570H         LINE#         13
  C:0578H         LINE#         14
  C:057DH         LINE#         15
  C:0582H         LINE#         16
  C:0587H         LINE#         17
  C:058CH         LINE#         18
  C:0594H         LINE#         19
  C:0599H         LINE#         20
  C:059EH         LINE#         21
  C:05A3H         LINE#         22
  C:05A8H         LINE#         23
  C:05B0H         LINE#         24
  C:05B5H         LINE#         25
  C:05BAH         LINE#         26
  C:05BFH         LINE#         27
  C:05C4H         LINE#         28
  C:05C4H         LINE#         29
  -------         ENDPROC       KEY_READ
  -------         ENDMOD        KEY
BL51 BANKED LINKER/LOCATER V6.22.2.0                                                  03/15/2024  20:13:15  PAGE 9



  -------         MODULE        SEG
  C:0000H         SYMBOL        _ICE_DUMMY_
  D:0080H         PUBLIC        P0
  D:0090H         PUBLIC        P1
  D:00A0H         PUBLIC        P2
  D:00B0H         PUBLIC        P3
  D:00C0H         PUBLIC        P4
  D:00C8H         PUBLIC        P5
  D:00E8H         PUBLIC        P6
  D:00F8H         PUBLIC        P7
  D:00A8H         PUBLIC        IE
  D:00B8H         PUBLIC        IP
  C:05C5H         PUBLIC        _Seg_Show
  D:00D8H         PUBLIC        CCON
  D:0098H         PUBLIC        SCON
  D:0088H         PUBLIC        TCON
  C:076FH         PUBLIC        Seg_Wu
  C:075CH         PUBLIC        Seg_Table
  D:00D0H         PUBLIC        PSW
  -------         PROC          _SEG_SHOW
  D:0007H         SYMBOL        Wu
  D:0004H         SYMBOL        Table
  D:0002H         SYMBOL        Point
  C:05C5H         LINE#         29
  C:05C5H         LINE#         30
  C:05C5H         LINE#         31
  C:05C8H         LINE#         32
  C:05D0H         LINE#         33
  C:05D3H         LINE#         35
  C:05DAH         LINE#         36
  C:05E2H         LINE#         37
  C:05E5H         LINE#         39
  C:05F3H         LINE#         40
  C:05F7H         LINE#         41
  C:05FAH         LINE#         42
  C:0602H         LINE#         43
  C:0605H         LINE#         44
  -------         ENDPROC       _SEG_SHOW
  -------         ENDMOD        SEG

  -------         MODULE        LED
  C:0000H         SYMBOL        _ICE_DUMMY_
  D:0080H         PUBLIC        P0
  D:0090H         PUBLIC        P1
  D:00A0H         PUBLIC        P2
  D:00B0H         PUBLIC        P3
  D:00C0H         PUBLIC        P4
  D:00C8H         PUBLIC        P5
  D:00E8H         PUBLIC        P6
  D:00F8H         PUBLIC        P7
  D:00A8H         PUBLIC        IE
  D:00B8H         PUBLIC        IP
  D:00D8H         PUBLIC        CCON
  D:0098H         PUBLIC        SCON
  D:0088H         PUBLIC        TCON
  C:067FH         PUBLIC        _LED_Show
BL51 BANKED LINKER/LOCATER V6.22.2.0                                                  03/15/2024  20:13:15  PAGE 10


  D:00D0H         PUBLIC        PSW
  -------         PROC          _LED_SHOW
  D:0007H         SYMBOL        addr
  D:0004H         SYMBOL        flag
  -------         DO            
  D:0008H         SYMBOL        temp_new
  D:0009H         SYMBOL        temp_old
  -------         ENDDO         
  C:067FH         LINE#         7
  C:067FH         LINE#         8
  C:067FH         LINE#         12
  C:0683H         LINE#         13
  C:0692H         LINE#         15
  C:06A0H         LINE#         17
  C:06A6H         LINE#         18
  C:06A6H         LINE#         19
  C:06ABH         LINE#         20
  C:06B3H         LINE#         21
  C:06B6H         LINE#         22
  C:06B9H         LINE#         23
  C:06B9H         LINE#         24
  -------         ENDPROC       _LED_SHOW
  -------         ENDMOD        LED

  -------         MODULE        UWAVE
  C:0000H         SYMBOL        _ICE_DUMMY_
  D:0080H         PUBLIC        P0
  D:0090H         PUBLIC        P1
  D:00A0H         PUBLIC        P2
  D:00B0H         PUBLIC        P3
  D:00C0H         PUBLIC        P4
  D:00C8H         PUBLIC        P5
  D:00E8H         PUBLIC        P6
  D:00F8H         PUBLIC        P7
  D:00A8H         PUBLIC        IE
  D:00B8H         PUBLIC        IP
  D:00D8H         PUBLIC        CCON
  D:0098H         PUBLIC        SCON
  D:0089H         PUBLIC        TMOD
  D:0088H         PUBLIC        TCON
  C:0003H         PUBLIC        Delay12us
  C:0777H         PUBLIC        Uwave_Init_17
  B:0090H.1       PUBLIC        Rx
  B:0088H.7       PUBLIC        TF1
  B:0090H.0       PUBLIC        Tx
  D:008DH         PUBLIC        TH1
  D:008BH         PUBLIC        TL1
  B:0088H.6       PUBLIC        TR1
  C:0643H         PUBLIC        Uwave_Read
  D:00D0H         PUBLIC        PSW
  -------         PROC          DELAY12US
  -------         DO            
  D:0007H         SYMBOL        i
  -------         ENDDO         
  C:0003H         LINE#         8
  C:0003H         LINE#         9
  C:0003H         LINE#         12
BL51 BANKED LINKER/LOCATER V6.22.2.0                                                  03/15/2024  20:13:15  PAGE 11


  C:0004H         LINE#         13
  C:0005H         LINE#         14
  C:0007H         LINE#         15
  C:0009H         LINE#         16
  -------         ENDPROC       DELAY12US
  -------         PROC          UWAVE_INIT_17
  -------         DO            
  D:0006H         SYMBOL        i
  -------         ENDDO         
  C:0777H         LINE#         18
  C:0777H         LINE#         19
  C:0777H         LINE#         20
  C:0779H         LINE#         21
  C:0783H         LINE#         22
  C:0783H         LINE#         23
  C:0785H         LINE#         24
  C:0788H         LINE#         25
  C:078AH         LINE#         26
  C:078DH         LINE#         27
  C:0790H         LINE#         28
  -------         ENDPROC       UWAVE_INIT_17
  -------         PROC          UWAVE_READ
  -------         DO            
  D:0004H         SYMBOL        time
  -------         ENDDO         
  C:0643H         LINE#         30
  C:0643H         LINE#         31
  C:0643H         LINE#         32
  C:0646H         LINE#         33
  C:0649H         LINE#         34
  C:064DH         LINE#         35
  C:0650H         LINE#         36
  C:0652H         LINE#         37
  C:0658H         LINE#         38
  C:065AH         LINE#         39
  C:065DH         LINE#         40
  C:065DH         LINE#         41
  C:065FH         LINE#         42
  C:0662H         LINE#         43
  C:0662H         LINE#         45
  C:0662H         LINE#         46
  C:0669H         LINE#         47
  C:067EH         LINE#         48
  C:067EH         LINE#         49
  -------         ENDPROC       UWAVE_READ
  -------         ENDMOD        UWAVE

  -------         MODULE        IIC
  C:0000H         SYMBOL        _ICE_DUMMY_
  D:0080H         PUBLIC        P0
  D:0090H         PUBLIC        P1
  D:00A0H         PUBLIC        P2
  D:00B0H         PUBLIC        P3
  D:00C0H         PUBLIC        P4
  D:00C8H         PUBLIC        P5
  D:00E8H         PUBLIC        P6
  D:00F8H         PUBLIC        P7
BL51 BANKED LINKER/LOCATER V6.22.2.0                                                  03/15/2024  20:13:15  PAGE 12


  D:00A8H         PUBLIC        IE
  C:0795H         SYMBOL        _I2C_Delay
  D:00B8H         PUBLIC        IP
  C:0719H         PUBLIC        I2CReceiveByte
  D:00D8H         PUBLIC        CCON
  D:0098H         PUBLIC        SCON
  D:0088H         PUBLIC        TCON
  B:00A0H.1       PUBLIC        sda
  B:00A0H.0       PUBLIC        scl
  C:07FEH         PUBLIC        I2CStart
  C:07ABH         PUBLIC        _I2CSendAck
  C:06BAH         PUBLIC        _I2CSendByte
  C:06EFH         PUBLIC        _AD_Read
  C:07DBH         PUBLIC        I2CWaitAck
  C:080DH         PUBLIC        I2CStop
  D:00D0H         PUBLIC        PSW
  C:0791H         SYMBOL        L?0022
  -------         PROC          L?0021
  -------         ENDPROC       L?0021
  C:0791H         SYMBOL        L?0022
  -------         PROC          _I2C_DELAY
  D:0007H         SYMBOL        n
  C:0795H         LINE#         16
  C:0795H         LINE#         17
  C:0795H         LINE#         19
  C:0795H         LINE#         20
  C:079AH         LINE#         21
  C:079FH         LINE#         22
  C:07A4H         LINE#         23
  C:07A4H         LINE#         24
  C:07AAH         LINE#         25
  -------         ENDPROC       _I2C_DELAY
  -------         PROC          I2CSTART
  C:07FEH         LINE#         28
  C:07FEH         LINE#         29
  C:07FEH         LINE#         30
  C:0800H         LINE#         31
  C:0800H         LINE#         32
  C:0803H         LINE#         33
  C:0805H         LINE#         34
  C:080AH         LINE#         35
  C:080CH         LINE#         36
  -------         ENDPROC       I2CSTART
  -------         PROC          I2CSTOP
  C:080DH         LINE#         39
  C:080DH         LINE#         40
  C:080DH         LINE#         41
  C:080FH         LINE#         42
  C:080FH         LINE#         43
  C:0812H         LINE#         44
  C:0814H         LINE#         45
  -------         ENDPROC       I2CSTOP
  -------         PROC          _I2CSENDBYTE
  D:0005H         SYMBOL        byt
  -------         DO            
  D:0004H         SYMBOL        i
  -------         ENDDO         
BL51 BANKED LINKER/LOCATER V6.22.2.0                                                  03/15/2024  20:13:15  PAGE 13


  C:06BAH         LINE#         49
  C:06BCH         LINE#         50
  C:06BCH         LINE#         53
  C:06C8H         LINE#         54
  C:06CAH         LINE#         55
  C:06CFH         LINE#         56
  C:06D3H         LINE#         57
  C:06D5H         LINE#         58
  C:06D7H         LINE#         59
  C:06D7H         LINE#         60
  C:06D9H         LINE#         61
  C:06D9H         LINE#         62
  C:06DEH         LINE#         63
  C:06E0H         LINE#         64
  C:06E4H         LINE#         65
  C:06E9H         LINE#         66
  C:06ECH         LINE#         68
  C:06EEH         LINE#         69
  -------         ENDPROC       _I2CSENDBYTE
  -------         PROC          I2CRECEIVEBYTE
  -------         DO            
  D:0005H         SYMBOL        da
  D:0004H         SYMBOL        i
  -------         ENDDO         
  C:0719H         LINE#         72
  C:0719H         LINE#         73
  C:0719H         LINE#         76
  C:0725H         LINE#         77
  C:0725H         LINE#         78
  C:0728H         LINE#         79
  C:072CH         LINE#         80
  C:072FH         LINE#         81
  C:0732H         LINE#         82
  C:0734H         LINE#         83
  C:0739H         LINE#         84
  C:073CH         LINE#         85
  C:073EH         LINE#         86
  -------         ENDPROC       I2CRECEIVEBYTE
  -------         PROC          L?0023
  -------         ENDPROC       L?0023
  -------         PROC          I2CWAITACK
  -------         DO            
  D:0005H         SYMBOL        ackbit
  -------         ENDDO         
  C:07DBH         LINE#         89
  C:07DBH         LINE#         90
  C:07DBH         LINE#         93
  C:07DBH         LINE#         94
  C:07DEH         LINE#         95
  C:07E3H         LINE#         96
  C:07E5H         LINE#         97
  C:07EAH         LINE#         99
  C:07ECH         LINE#         100
  -------         ENDPROC       I2CWAITACK
  -------         PROC          _I2CSENDACK
  D:0007H         SYMBOL        ackbit
  C:07ABH         LINE#         103
BL51 BANKED LINKER/LOCATER V6.22.2.0                                                  03/15/2024  20:13:15  PAGE 14


  C:07ABH         LINE#         104
  C:07ABH         LINE#         105
  C:07ADH         LINE#         106
  C:07B2H         LINE#         107
  C:07B7H         LINE#         108
  C:07B7H         LINE#         109
  C:07BAH         LINE#         110
  C:07BCH         LINE#         111
  C:07BEH         LINE#         112
  -------         ENDPROC       _I2CSENDACK
  -------         PROC          _AD_READ
  D:0003H         SYMBOL        addr
  -------         DO            
  D:0005H         SYMBOL        temp_17
  -------         ENDDO         
  C:06EFH         LINE#         115
  C:06F1H         LINE#         116
  C:06F1H         LINE#         118
  C:06F4H         LINE#         119
  C:06F6H         LINE#         120
  C:06F9H         LINE#         121
  C:06FBH         LINE#         122
  C:06FEH         LINE#         124
  C:0701H         LINE#         125
  C:0706H         LINE#         126
  C:0709H         LINE#         127
  C:070EH         LINE#         128
  C:0713H         LINE#         129
  C:0716H         LINE#         130
  C:0718H         LINE#         131
  -------         ENDPROC       _AD_READ
  -------         ENDMOD        IIC

  -------         MODULE        ?C?FPMUL
  C:000EH         PUBLIC        ?C?FPMUL
  -------         ENDMOD        ?C?FPMUL

  -------         MODULE        ?C?FCAST
  C:011EH         PUBLIC        ?C?FCASTC
  C:0119H         PUBLIC        ?C?FCASTI
  C:0114H         PUBLIC        ?C?FCASTL
  -------         ENDMOD        ?C?FCAST

  -------         MODULE        ?C?CASTF
  C:0152H         PUBLIC        ?C?CASTF
  -------         ENDMOD        ?C?CASTF

  -------         MODULE        ?C?UIDIV
  C:01D3H         PUBLIC        ?C?UIDIV
  -------         ENDMOD        ?C?UIDIV

  -------         MODULE        ?C?LNEG
  C:0228H         PUBLIC        ?C?LNEG
  -------         ENDMOD        ?C?LNEG

Program Size: data=52.7 xdata=0 code=2072
LINK/LOCATE RUN COMPLETE.  0 WARNING(S),  0 ERROR(S)
