BL51 BANKED LINKER/LOCATER V6.22.2.0                                                    03/10/2024  14:14:52  PAGE 1


BL51 BANKED LINKER/LOCATER V6.22.2.0, INVOKED BY:
D:\KEIL 5\C51\BIN\BL51.EXE .\Objects\main.obj, .\Objects\Init.obj, .\Objects\Key.obj, .\Objects\Seg.obj, .\Objects\LED.o
>> bj, .\Objects\onewire.obj TO .\Objects\2303002124 PRINT (.\Listings\2303002124.m51) RAMSIZE (256)


MEMORY MODEL: SMALL WITH FLOATING POINT ARITHMETIC


INPUT MODULES INCLUDED:
  .\Objects\main.obj (MAIN)
  .\Objects\Init.obj (INIT)
  .\Objects\Key.obj (KEY)
  .\Objects\Seg.obj (SEG)
  .\Objects\LED.obj (LED)
  .\Objects\onewire.obj (ONEWIRE)
  D:\KEIL 5\C51\LIB\C51FPS.LIB (?C?FPDIV)
  D:\KEIL 5\C51\LIB\C51FPS.LIB (?C?FCAST)
  D:\KEIL 5\C51\LIB\C51FPS.LIB (?C?CASTF)
  D:\KEIL 5\C51\LIB\C51FPS.LIB (?C?FPGETOPN)
  D:\KEIL 5\C51\LIB\C51S.LIB (?C_STARTUP)
  D:\KEIL 5\C51\LIB\C51S.LIB (?C?UIDIV)
  D:\KEIL 5\C51\LIB\C51S.LIB (?C?LNEG)
  D:\KEIL 5\C51\LIB\C51S.LIB (?C_INIT)


LINK MAP OF MODULE:  .\Objects\2303002124 (MAIN)


            TYPE    BASE      LENGTH    RELOCATION   SEGMENT NAME
            -----------------------------------------------------

            * * * * * * *   D A T A   M E M O R Y   * * * * * * *
            REG     0000H     0008H     ABSOLUTE     "REG BANK 0"
            DATA    0008H     0002H     UNIT         ?DT?LED
                    000AH     0016H                  *** GAP ***
            BIT     0020H.0   0000H.3   UNIT         ?BI?MAIN
            BIT     0020H.3   0000H.1   UNIT         _BIT_GROUP_
                    0020H.4   0000H.4                *** GAP ***
            DATA    0021H     0028H     UNIT         ?DT?MAIN
            IDATA   0049H     0001H     UNIT         ?STACK

            * * * * * * *   C O D E   M E M O R Y   * * * * * * *
            CODE    0000H     0003H     ABSOLUTE     
                    0003H     0008H                  *** GAP ***
            CODE    000BH     0003H     ABSOLUTE     
                    000EH     000DH                  *** GAP ***
            CODE    001BH     0003H     ABSOLUTE     
            CODE    001EH     01C2H     UNIT         ?C?LIB_CODE
            CODE    01E0H     00BBH     UNIT         ?PR?TIMER0_SEVRE?MAIN
            CODE    029BH     008CH     UNIT         ?C_C51STARTUP
            CODE    0327H     008BH     UNIT         ?PR?INFOR_DEAL?MAIN
            CODE    03B2H     0061H     UNIT         ?PR?KEY_DEAL?MAIN
            CODE    0413H     004CH     UNIT         ?PR?OTHER_DEAL?MAIN
            CODE    045FH     0041H     UNIT         ?PR?_SEG_SHOW?SEG
            CODE    04A0H     003BH     UNIT         ?PR?_LED_SHOW?LED
            CODE    04DBH     0034H     UNIT         ?PR?DS18B20_READ_T?ONEWIRE
            CODE    050FH     0031H     UNIT         ?C_INITSEG
            CODE    0540H     0027H     UNIT         ?PR?_WRITE_DS18B20?ONEWIRE
BL51 BANKED LINKER/LOCATER V6.22.2.0                                                  03/10/2024  14:14:52  PAGE 2


            CODE    0567H     0027H     UNIT         ?PR?INIT_DS18B20?ONEWIRE
            CODE    058EH     0023H     UNIT         ?PR?READ_DS18B20?ONEWIRE
            CODE    05B1H     0020H     UNIT         ?PR?TIMER1_SEVRE?MAIN
            CODE    05D1H     001EH     UNIT         ?PR?_DELAY_ONEWIRE?ONEWIRE
            CODE    05EFH     001DH     UNIT         ?PR?SYSTEM_INIT?INIT
            CODE    060CH     001AH     UNIT         ?CO?SEG
            CODE    0626H     0017H     UNIT         ?PR?KEY_READ?KEY
            CODE    063DH     0015H     UNIT         ?PR?TIMER0_INIT?MAIN
            CODE    0652H     0014H     UNIT         ?PR?MAIN?MAIN
            CODE    0666H     0013H     UNIT         ?PR?TIMER1_INIT?MAIN



OVERLAY MAP OF MODULE:   .\Objects\2303002124 (MAIN)


SEGMENT                               BIT_GROUP 
  +--> CALLED SEGMENT              START    LENGTH
--------------------------------------------------
?PR?TIMER0_SEVRE?MAIN              -----    -----
  +--> ?PR?_SEG_SHOW?SEG
  +--> ?PR?_LED_SHOW?LED

?PR?_SEG_SHOW?SEG                  -----    -----
  +--> ?CO?SEG

*** NEW ROOT ***************************************************

?C_C51STARTUP                      -----    -----
  +--> ?PR?MAIN?MAIN
  +--> ?C_INITSEG

?PR?MAIN?MAIN                      -----    -----
  +--> ?PR?SYSTEM_INIT?INIT
  +--> ?PR?TIMER0_INIT?MAIN
  +--> ?PR?TIMER1_INIT?MAIN
  +--> ?PR?KEY_DEAL?MAIN
  +--> ?PR?INFOR_DEAL?MAIN
  +--> ?PR?OTHER_DEAL?MAIN

?PR?KEY_DEAL?MAIN                  -----    -----
  +--> ?PR?KEY_READ?KEY

?PR?INFOR_DEAL?MAIN                -----    -----
  +--> ?PR?DS18B20_READ_T?ONEWIRE

?PR?DS18B20_READ_T?ONEWIRE         -----    -----
  +--> ?PR?INIT_DS18B20?ONEWIRE
  +--> ?PR?_WRITE_DS18B20?ONEWIRE
  +--> ?PR?READ_DS18B20?ONEWIRE

?PR?INIT_DS18B20?ONEWIRE           0020H.3  0000H.1
  +--> ?PR?_DELAY_ONEWIRE?ONEWIRE

?PR?_WRITE_DS18B20?ONEWIRE         -----    -----
  +--> ?PR?_DELAY_ONEWIRE?ONEWIRE

BL51 BANKED LINKER/LOCATER V6.22.2.0                                                  03/10/2024  14:14:52  PAGE 3


?PR?READ_DS18B20?ONEWIRE           -----    -----
  +--> ?PR?_DELAY_ONEWIRE?ONEWIRE



SYMBOL TABLE OF MODULE:  .\Objects\2303002124 (MAIN)

  VALUE           TYPE          NAME
  ----------------------------------

  -------         MODULE        MAIN
  C:0000H         SYMBOL        _ICE_DUMMY_
  D:0080H         PUBLIC        P0
  D:0090H         PUBLIC        P1
  D:0026H         PUBLIC        Seg_Work_Index
  D:00A0H         PUBLIC        P2
  C:03B2H         PUBLIC        Key_Deal
  D:00B0H         PUBLIC        P3
  D:0027H         PUBLIC        Work_Count_Time
  D:00C0H         PUBLIC        P4
  B:0020H.0       PUBLIC        Seg_Slow_Flag
  D:00C8H         PUBLIC        P5
  B:00A8H.7       PUBLIC        EA
  D:00E8H         PUBLIC        P6
  D:00F8H         PUBLIC        P7
  B:0020H.1       PUBLIC        Seg_Show_Mode
  D:0029H         PUBLIC        Seg_Point
  D:00A8H         PUBLIC        IE
  B:0020H.2       PUBLIC        Key_Slow_Flag
  D:0031H         PUBLIC        Time_1000ms
  D:00B8H         PUBLIC        IP
  C:01E0H         PUBLIC        Timer0_Sevre
  D:0033H         PUBLIC        Time_1000us
  C:05B1H         PUBLIC        Timer1_Sevre
  D:0034H         PUBLIC        Seg_Buf
  D:003CH         PUBLIC        Slow_Down
  D:00D8H         PUBLIC        CCON
  C:0652H         PUBLIC        main
  C:063DH         PUBLIC        Timer0_Init
  C:0666H         PUBLIC        Timer1_Init
  D:0098H         PUBLIC        SCON
  D:0089H         PUBLIC        TMOD
  D:0088H         PUBLIC        TCON
  B:00B0H.4       PUBLIC        P34
  D:008EH         PUBLIC        AUXR
  B:00A8H.1       PUBLIC        ET0
  B:0088H.5       PUBLIC        TF0
  B:00A8H.3       PUBLIC        ET1
  B:0088H.7       PUBLIC        TF1
  D:008CH         PUBLIC        TH0
  D:008DH         PUBLIC        TH1
  D:008AH         PUBLIC        TL0
  D:008BH         PUBLIC        TL1
  D:003EH         PUBLIC        T
  D:003FH         PUBLIC        LED_Buf
  B:0088H.4       PUBLIC        TR0
  B:0088H.6       PUBLIC        TR1
BL51 BANKED LINKER/LOCATER V6.22.2.0                                                  03/10/2024  14:14:52  PAGE 4


  C:0327H         PUBLIC        Infor_Deal
  C:0413H         PUBLIC        Other_Deal
  D:0047H         PUBLIC        i
  D:0048H         PUBLIC        PWM
  D:00D0H         PUBLIC        PSW
  -------         PROC          KEY_DEAL
  -------         DO            
  D:0021H         SYMBOL        Key_New
  D:0022H         SYMBOL        Key_Old
  D:0023H         SYMBOL        Key_UP
  D:0024H         SYMBOL        Key_Down
  D:0025H         SYMBOL        S5_Set
  -------         ENDDO         
  C:03B2H         LINE#         27
  C:03B2H         LINE#         28
  C:03B2H         LINE#         33
  C:03B5H         LINE#         34
  C:03B7H         LINE#         36
  C:03BCH         LINE#         37
  C:03C7H         LINE#         38
  C:03CCH         LINE#         39
  C:03CFH         LINE#         41
  C:03DCH         LINE#         42
  C:03DCH         LINE#         43
  C:03DCH         LINE#         44
  C:03E1H         LINE#         45
  C:03E2H         LINE#         46
  C:03E2H         LINE#         47
  C:03EAH         LINE#         48
  C:03ECH         LINE#         49
  C:03EDH         LINE#         50
  C:03EDH         LINE#         51
  C:03FBH         LINE#         52
  C:0406H         LINE#         53
  C:0407H         LINE#         54
  C:0407H         LINE#         55
  C:0412H         LINE#         56
  C:0412H         LINE#         57
  C:0412H         LINE#         58
  -------         ENDPROC       KEY_DEAL
  -------         PROC          INFOR_DEAL
  C:0327H         LINE#         61
  C:0327H         LINE#         62
  C:0327H         LINE#         63
  C:032DH         LINE#         64
  C:032FH         LINE#         67
  C:0337H         LINE#         71
  C:033DH         LINE#         72
  C:0340H         LINE#         73
  C:0340H         LINE#         74
  C:0345H         LINE#         76
  C:0359H         LINE#         77
  C:036DH         LINE#         78
  C:0381H         LINE#         79
  C:038EH         LINE#         80
  C:038FH         LINE#         82
  C:038FH         LINE#         83
BL51 BANKED LINKER/LOCATER V6.22.2.0                                                  03/10/2024  14:14:52  PAGE 5


  C:0392H         LINE#         84
  C:0398H         LINE#         85
  C:03A5H         LINE#         86
  C:03AEH         LINE#         87
  C:03B1H         LINE#         88
  C:03B1H         LINE#         89
  -------         ENDPROC       INFOR_DEAL
  -------         PROC          OTHER_DEAL
  C:0413H         LINE#         92
  C:0413H         LINE#         93
  C:0413H         LINE#         95
  C:0419H         LINE#         96
  C:0419H         LINE#         97
  C:0423H         LINE#         98
  C:042CH         LINE#         99
  C:0435H         LINE#         100
  C:0437H         LINE#         102
  C:043AH         LINE#         105
  C:0448H         LINE#         106
  C:045EH         LINE#         107
  -------         ENDPROC       OTHER_DEAL
  -------         PROC          TIMER0_INIT
  C:063DH         LINE#         110
  C:063DH         LINE#         111
  C:063DH         LINE#         112
  C:0640H         LINE#         113
  C:0643H         LINE#         114
  C:0646H         LINE#         115
  C:0649H         LINE#         116
  C:064BH         LINE#         117
  C:064DH         LINE#         118
  C:064FH         LINE#         119
  C:0651H         LINE#         120
  -------         ENDPROC       TIMER0_INIT
  -------         PROC          TIMER1_INIT
  C:0666H         LINE#         121
  C:0666H         LINE#         122
  C:0666H         LINE#         123
  C:0669H         LINE#         124
  C:066CH         LINE#         125
  C:066FH         LINE#         126
  C:0672H         LINE#         127
  C:0674H         LINE#         128
  C:0676H         LINE#         129
  C:0678H         LINE#         130
  -------         ENDPROC       TIMER1_INIT
  -------         PROC          TIMER0_SEVRE
  C:01E0H         LINE#         132
  C:01FDH         LINE#         134
  C:0216H         LINE#         135
  C:0227H         LINE#         136
  C:023FH         LINE#         138
  C:0245H         LINE#         139
  C:0245H         LINE#         140
  C:0254H         LINE#         141
  C:0265H         LINE#         142
  C:0265H         LINE#         143
BL51 BANKED LINKER/LOCATER V6.22.2.0                                                  03/10/2024  14:14:52  PAGE 6


  C:026DH         LINE#         144
  C:0273H         LINE#         145
  C:0273H         LINE#         146
  C:0275H         LINE#         148
  C:0280H         LINE#         149
  -------         ENDPROC       TIMER0_SEVRE
  -------         PROC          TIMER1_SEVRE
  C:05B1H         LINE#         150
  C:05B5H         LINE#         152
  C:05BFH         LINE#         153
  C:05C6H         LINE#         154
  C:05CAH         LINE#         156
  C:05CCH         LINE#         158
  -------         ENDPROC       TIMER1_SEVRE
  -------         PROC          MAIN
  C:0652H         LINE#         161
  C:0652H         LINE#         162
  C:0652H         LINE#         163
  C:0655H         LINE#         164
  C:0658H         LINE#         165
  C:065BH         LINE#         166
  C:065BH         LINE#         167
  C:065BH         LINE#         168
  C:065EH         LINE#         169
  C:0661H         LINE#         170
  C:0664H         LINE#         171
  -------         ENDPROC       MAIN
  -------         ENDMOD        MAIN

  -------         MODULE        INIT
  C:0000H         SYMBOL        _ICE_DUMMY_
  C:05EFH         PUBLIC        System_Init
  D:0080H         PUBLIC        P0
  D:0090H         PUBLIC        P1
  D:00A0H         PUBLIC        P2
  D:00B0H         PUBLIC        P3
  D:00C0H         PUBLIC        P4
  D:00C8H         PUBLIC        P5
  D:00E8H         PUBLIC        P6
  D:00F8H         PUBLIC        P7
  D:00A8H         PUBLIC        IE
  D:00B8H         PUBLIC        IP
  D:00D8H         PUBLIC        CCON
  D:0098H         PUBLIC        SCON
  D:0088H         PUBLIC        TCON
  D:00D0H         PUBLIC        PSW
  -------         PROC          SYSTEM_INIT
  C:05EFH         LINE#         6
  C:05EFH         LINE#         7
  C:05EFH         LINE#         8
  C:05F2H         LINE#         9
  C:05FAH         LINE#         10
  C:05FDH         LINE#         12
  C:0600H         LINE#         13
  C:0608H         LINE#         14
  C:060BH         LINE#         15
  -------         ENDPROC       SYSTEM_INIT
BL51 BANKED LINKER/LOCATER V6.22.2.0                                                  03/10/2024  14:14:52  PAGE 7


  -------         ENDMOD        INIT

  -------         MODULE        KEY
  C:0000H         SYMBOL        _ICE_DUMMY_
  D:0080H         PUBLIC        P0
  D:0090H         PUBLIC        P1
  D:00A0H         PUBLIC        P2
  D:00B0H         PUBLIC        P3
  D:00C0H         PUBLIC        P4
  D:00C8H         PUBLIC        P5
  D:00E8H         PUBLIC        P6
  D:00F8H         PUBLIC        P7
  C:0626H         PUBLIC        Key_Read
  D:00A8H         PUBLIC        IE
  D:00B8H         PUBLIC        IP
  D:00D8H         PUBLIC        CCON
  B:00B0H.0       PUBLIC        P30
  D:0098H         PUBLIC        SCON
  B:00B0H.1       PUBLIC        P31
  D:0088H         PUBLIC        TCON
  B:00B0H.2       PUBLIC        P32
  B:00B0H.3       PUBLIC        P33
  D:00D0H         PUBLIC        PSW
  -------         PROC          KEY_READ
  -------         DO            
  D:0007H         SYMBOL        temp
  -------         ENDDO         
  C:0626H         LINE#         6
  C:0626H         LINE#         7
  C:0626H         LINE#         8
  C:0628H         LINE#         9
  C:062DH         LINE#         10
  C:0632H         LINE#         11
  C:0637H         LINE#         12
  C:063CH         LINE#         13
  C:063CH         LINE#         14
  -------         ENDPROC       KEY_READ
  -------         ENDMOD        KEY

  -------         MODULE        SEG
  C:0000H         SYMBOL        _ICE_DUMMY_
  D:0080H         PUBLIC        P0
  D:0090H         PUBLIC        P1
  D:00A0H         PUBLIC        P2
  D:00B0H         PUBLIC        P3
  D:00C0H         PUBLIC        P4
  D:00C8H         PUBLIC        P5
  D:00E8H         PUBLIC        P6
  D:00F8H         PUBLIC        P7
  D:00A8H         PUBLIC        IE
  D:00B8H         PUBLIC        IP
  C:045FH         PUBLIC        _Seg_Show
  D:00D8H         PUBLIC        CCON
  D:0098H         PUBLIC        SCON
  D:0088H         PUBLIC        TCON
  C:060CH         PUBLIC        Seg_Wu
  C:0614H         PUBLIC        Seg_Table
BL51 BANKED LINKER/LOCATER V6.22.2.0                                                  03/10/2024  14:14:52  PAGE 8


  D:00D0H         PUBLIC        PSW
  -------         PROC          _SEG_SHOW
  D:0007H         SYMBOL        Wu
  D:0004H         SYMBOL        Table
  D:0002H         SYMBOL        Point
  C:045FH         LINE#         27
  C:045FH         LINE#         28
  C:045FH         LINE#         29
  C:0462H         LINE#         30
  C:046AH         LINE#         31
  C:046DH         LINE#         33
  C:0474H         LINE#         34
  C:047CH         LINE#         35
  C:047FH         LINE#         37
  C:048DH         LINE#         38
  C:0491H         LINE#         39
  C:0494H         LINE#         40
  C:049CH         LINE#         41
  C:049FH         LINE#         42
  -------         ENDPROC       _SEG_SHOW
  -------         ENDMOD        SEG

  -------         MODULE        LED
  C:0000H         SYMBOL        _ICE_DUMMY_
  D:0080H         PUBLIC        P0
  D:0090H         PUBLIC        P1
  D:00A0H         PUBLIC        P2
  D:00B0H         PUBLIC        P3
  D:00C0H         PUBLIC        P4
  D:00C8H         PUBLIC        P5
  D:00E8H         PUBLIC        P6
  D:00F8H         PUBLIC        P7
  D:00A8H         PUBLIC        IE
  D:00B8H         PUBLIC        IP
  D:00D8H         PUBLIC        CCON
  D:0098H         PUBLIC        SCON
  D:0088H         PUBLIC        TCON
  C:04A0H         PUBLIC        _LED_Show
  D:00D0H         PUBLIC        PSW
  -------         PROC          _LED_SHOW
  D:0007H         SYMBOL        addr
  D:0004H         SYMBOL        enable
  -------         DO            
  D:0008H         SYMBOL        temp_new
  D:0009H         SYMBOL        temp_old
  -------         ENDDO         
  C:04A0H         LINE#         4
  C:04A0H         LINE#         5
  C:04A0H         LINE#         9
  C:04A4H         LINE#         10
  C:04B3H         LINE#         12
  C:04C1H         LINE#         14
  C:04C7H         LINE#         15
  C:04C7H         LINE#         16
  C:04CCH         LINE#         17
  C:04D4H         LINE#         18
  C:04D7H         LINE#         19
BL51 BANKED LINKER/LOCATER V6.22.2.0                                                  03/10/2024  14:14:52  PAGE 9


  C:04DAH         LINE#         20
  C:04DAH         LINE#         21
  -------         ENDPROC       _LED_SHOW
  -------         ENDMOD        LED

  -------         MODULE        ONEWIRE
  C:0000H         SYMBOL        _ICE_DUMMY_
  D:0080H         PUBLIC        P0
  D:0090H         PUBLIC        P1
  D:00A0H         PUBLIC        P2
  D:00B0H         PUBLIC        P3
  D:00C0H         PUBLIC        P4
  C:058EH         PUBLIC        Read_DS18B20
  D:00C8H         PUBLIC        P5
  D:00E8H         PUBLIC        P6
  D:00F8H         PUBLIC        P7
  D:00A8H         PUBLIC        IE
  C:05D5H         PUBLIC        _Delay_OneWire
  C:0540H         PUBLIC        _Write_DS18B20
  B:0090H.4       PUBLIC        DQ
  D:00B8H         PUBLIC        IP
  C:0567H         PUBLIC        init_ds18b20
  D:00D8H         PUBLIC        CCON
  D:0098H         PUBLIC        SCON
  D:0088H         PUBLIC        TCON
  C:04DBH         PUBLIC        DS18B20_Read_T
  D:00D0H         PUBLIC        PSW
  C:05D1H         SYMBOL        L?0020
  -------         PROC          L?0019
  -------         ENDPROC       L?0019
  C:05D1H         SYMBOL        L?0020
  -------         PROC          _DELAY_ONEWIRE
  D:0006H         SYMBOL        t
  -------         DO            
  D:0005H         SYMBOL        i
  -------         ENDDO         
  C:05D5H         LINE#         12
  C:05D5H         LINE#         13
  C:05D5H         LINE#         15
  C:05DFH         LINE#         16
  C:05EEH         LINE#         17
  C:05EEH         LINE#         18
  -------         ENDPROC       _DELAY_ONEWIRE
  -------         PROC          _WRITE_DS18B20
  D:0001H         SYMBOL        dat
  -------         DO            
  D:0003H         SYMBOL        i
  -------         ENDDO         
  C:0540H         LINE#         21
  C:0542H         LINE#         22
  C:0542H         LINE#         24
  C:054EH         LINE#         25
  C:054EH         LINE#         26
  C:0550H         LINE#         27
  C:0554H         LINE#         28
  C:0557H         LINE#         29
  C:0559H         LINE#         30
BL51 BANKED LINKER/LOCATER V6.22.2.0                                                  03/10/2024  14:14:52  PAGE 10


  C:055DH         LINE#         31
  C:0560H         LINE#         32
  -------         ENDPROC       _WRITE_DS18B20
  -------         PROC          READ_DS18B20
  -------         DO            
  D:0003H         SYMBOL        i
  D:0004H         SYMBOL        dat
  -------         ENDDO         
  C:058EH         LINE#         36
  C:058EH         LINE#         37
  C:058EH         LINE#         41
  C:059AH         LINE#         42
  C:059AH         LINE#         43
  C:059CH         LINE#         44
  C:05A0H         LINE#         45
  C:05A2H         LINE#         46
  C:05A5H         LINE#         47
  C:05A5H         LINE#         48
  C:05A8H         LINE#         49
  C:05A8H         LINE#         50
  C:05ABH         LINE#         51
  C:05AEH         LINE#         52
  C:05B0H         LINE#         53
  -------         ENDPROC       READ_DS18B20
  -------         PROC          INIT_DS18B20
  -------         DO            
  B:0020H.3       SYMBOL        initflag
  -------         ENDDO         
  C:0567H         LINE#         56
  C:0567H         LINE#         57
  C:0567H         LINE#         58
  C:0569H         LINE#         60
  C:056BH         LINE#         61
  C:0572H         LINE#         62
  C:0574H         LINE#         63
  C:057BH         LINE#         64
  C:057DH         LINE#         65
  C:0584H         LINE#         66
  C:0588H         LINE#         67
  C:058BH         LINE#         69
  C:058DH         LINE#         70
  -------         ENDPROC       INIT_DS18B20
  -------         PROC          DS18B20_READ_T
  -------         DO            
  D:0007H         SYMBOL        high
  D:0001H         SYMBOL        low
  -------         ENDDO         
  C:04DBH         LINE#         72
  C:04DBH         LINE#         73
  C:04DBH         LINE#         75
  C:04DEH         LINE#         76
  C:04E3H         LINE#         77
  C:04E8H         LINE#         78
  C:04EBH         LINE#         79
  C:04F0H         LINE#         80
  C:04F5H         LINE#         82
  C:04FAH         LINE#         83
BL51 BANKED LINKER/LOCATER V6.22.2.0                                                  03/10/2024  14:14:52  PAGE 11


  C:04FDH         LINE#         85
  -------         ENDPROC       DS18B20_READ_T
  -------         ENDMOD        ONEWIRE

  -------         MODULE        ?C?FPDIV
  C:0021H         PUBLIC        ?C?FPDIV
  -------         ENDMOD        ?C?FPDIV

  -------         MODULE        ?C?FCAST
  C:00C8H         PUBLIC        ?C?FCASTC
  C:00C3H         PUBLIC        ?C?FCASTI
  C:00BEH         PUBLIC        ?C?FCASTL
  -------         ENDMOD        ?C?FCAST

  -------         MODULE        ?C?CASTF
  C:00FCH         PUBLIC        ?C?CASTF
  -------         ENDMOD        ?C?CASTF

  -------         MODULE        ?C?UIDIV
  C:017DH         PUBLIC        ?C?UIDIV
  -------         ENDMOD        ?C?UIDIV

  -------         MODULE        ?C?LNEG
  C:01D2H         PUBLIC        ?C?LNEG
  -------         ENDMOD        ?C?LNEG

Program Size: data=51.4 xdata=0 code=1636
LINK/LOCATE RUN COMPLETE.  0 WARNING(S),  0 ERROR(S)
