C51 COMPILER V9.59.0.0   MAIN                                                              02/19/2024 15:53:55 PAGE 1   


C51 COMPILER V9.59.0.0, COMPILATION OF MODULE MAIN
OBJECT MODULE PLACED IN .\Objects\main.obj
COMPILER INVOKED BY: D:\keil 5\C51\BIN\C51.EXE main.c OPTIMIZE(8,SPEED) BROWSE INCDIR(..\User;..\Drivers) DEBUG OBJECTEX
                    -TEND PRINT(.\Listings\main.lst) OBJECT(.\Objects\main.obj)

line level    source

   1          /* 头文件声明区 */
   2          #include <STC15F2K60S2.H>
   3          #include "Init.h"
   4          #include "Key.h"
   5          #include "Seg.h"
   6          #include "LED.h"
   7          
   8          /* 基础变量创建区 */
   9          unsigned int Slow_Down;                                                 //减速扫描专用
  10          bit Key_Slow_Flag, Seg_Slow_Flag;                                       //按键数码管减速标志位
  11          unsigned char Seg_Buf[8] = {10, 10, 10, 10, 10, 10, 10, 10};            //数码管显示缓冲区
  12          unsigned char Seg_Point[8] = {0, 0, 0, 0, 0, 0, 0, 0};                  //数码管小数点显示缓冲区
  13          unsigned char LED_Buf[8] = {0, 0, 0, 0, 0, 0, 0, 0};                    //LED显示缓冲区
  14          
  15          /* 变量创建区 */
  16          
  17          
  18          /* 按键处理函数 */
  19          void Key_Proc()
  20          {
  21   1          static unsigned char Key_Down = 0, Key_UP = 0;  //变量
  22   1          static unsigned char Key_New = 0, Key_Old = 0;  //创建
  23   1      
  24   1          if (Key_Slow_Flag) return;
  25   1          Key_Slow_Flag = 1;                              //减速
  26   1          
  27   1          Key_New = Key_Read();                           //获取键码
  28   1          Key_Down = Key_New & ( Key_New ^ Key_Old);      //捕获下降沿
  29   1          Key_UP = ~Key_New & ( Key_New ^ Key_Old);       //捕获上升沿
  30   1          Key_Old = Key_New;                              //辅助扫描
  31   1          
  32   1          switch (Key_UP)
  33   1          {
  34   2              case 4:
  35   2                  Seg_Buf[0] = 4;
  36   2                  LED_Buf[0] ^= 1;
  37   2              break;
  38   2              
  39   2              
  40   2          }
  41   1      }
  42          
  43          /* 信息处理函数 */
  44          void Infor_Proc()
  45          {
  46   1          if (Seg_Slow_Flag) return;
  47   1          Seg_Slow_Flag = 1;                              //减速
  48   1          
  49   1      }
  50          
  51          /* 其他处理函数 */
  52          void Other_Proc()
  53          {
  54   1          
C51 COMPILER V9.59.0.0   MAIN                                                              02/19/2024 15:53:55 PAGE 2   

  55   1      }
  56          
  57          /* 定时器初始化函数 */
  58          void Timer0_Init(void)          //1毫秒@12.000MHz
  59          {
  60   1          AUXR &= 0x7F;                       //定时器时钟12T模式
  61   1          TMOD &= 0xF0;                       //设置定时器模式
  62   1          TL0 = 0x18;                         //设置定时初始值
  63   1          TH0 = 0xFC;                         //设置定时初始值
  64   1          TF0 = 0;                            //清除TF0标志
  65   1          TR0 = 1;                            //定时器0开始计时
  66   1          ET0 = 1;
  67   1          EA  = 1;
  68   1      }
  69          
  70          /* 中断服务函数 */
  71          void Timer0_Serve() interrupt 1
  72          {
  73   1          if (++Slow_Down == 400) Slow_Down = Seg_Slow_Flag = 0;
  74   1          if (Slow_Down % 10 == 0) Key_Slow_Flag = 0;
  75   1          Seg_Show(Slow_Down%8, Seg_Buf[Slow_Down%8], Seg_Point[Slow_Down%8]);
  76   1          LED_Show(Slow_Down%8, LED_Buf[Slow_Down%8]);
  77   1      }
  78          
  79          /* 延时函数 */
  80          void Delay_ms(unsigned int xms)         //@12.000MHz
  81          {
  82   1          unsigned char i, j;
  83   1          while (xms)
  84   1          {
  85   2              i = 12;
  86   2              j = 169;
  87   2              do
  88   2              {
  89   3                  while (--j);
  90   3              } while (--i);
  91   2              xms--;
  92   2          }
  93   1      }
  94          
  95          /* 主函数 */
  96          void main()
  97          {
  98   1          
  99   1          Init();
 100   1          Timer0_Init();
 101   1          
 102   1          while (1)
 103   1          {
 104   2              Key_Proc();
 105   2              Infor_Proc();
 106   2              Other_Proc();
 107   2          }
 108   1      }
 109          
 110          
 111          


MODULE INFORMATION:   STATIC OVERLAYABLE
   CODE SIZE        =    241    ----
   CONSTANT SIZE    =   ----    ----
C51 COMPILER V9.59.0.0   MAIN                                                              02/19/2024 15:53:55 PAGE 3   

   XDATA SIZE       =   ----    ----
   PDATA SIZE       =   ----    ----
   DATA SIZE        =     30    ----
   IDATA SIZE       =   ----    ----
   BIT SIZE         =      2    ----
END OF MODULE INFORMATION.


C51 COMPILATION COMPLETE.  0 WARNING(S),  0 ERROR(S)
