C51 COMPILER V9.59.0.0   MAIN                                                              02/26/2024 20:46:35 PAGE 1   


C51 COMPILER V9.59.0.0, COMPILATION OF MODULE MAIN
OBJECT MODULE PLACED IN .\Objects\main.obj
COMPILER INVOKED BY: D:\keil 5\C51\BIN\C51.EXE main.c OPTIMIZE(8,SPEED) BROWSE INCDIR(..\User;..\Drivers) DEBUG OBJECTEX
                    -TEND PRINT(.\Listings\main.lst) OBJECT(.\Objects\main.obj)

line level    source

   1          /* 头文件声明区 */
   2          #include <STC15F2K60S2.H>
   3          #include <stdio.h>
   4          #include "Init.h"
   5          #include "Key.h"
   6          #include "Seg.h"
   7          #include "LED.h"
   8          #include "Uart.h"
   9          
  10          /* 基础变量创建区 */
  11          unsigned int Slow_Down;                                                 //减速扫描专用
  12          bit Key_Slow_Flag, Seg_Slow_Flag;                                       //按键数码管减速标志位
  13          unsigned char Seg_Buf[8] = {10, 10, 10, 10, 10, 10, 10, 10};            //数码管显示缓冲区
  14          unsigned char Seg_Point[8] = {0, 0, 0, 0, 0, 0, 0, 0};                  //数码管小数点显示缓冲区
  15          unsigned char LED_Buf[8] = {0, 0, 0, 0, 0, 0, 0, 0};                    //LED显示缓冲区
  16          
  17          /* 变量创建区 */
  18          bit Uart_Slow_Flag;                     //串口减速标志位
  19          unsigned char Uart_Rxd_Buf[10];         //串口接收数据缓冲区
  20          unsigned char Uart_Rxd_Poc;             //串口接收指针
  21          unsigned char Uart_Txd_Buf[10];         //串口发送数据缓冲区
  22          unsigned char Uart_Data;                //串口数据
  23          unsigned int t;                //串口数据
  24          
  25          /* 按键处理函数 */
  26          void Key_Proc()
  27          {
  28   1          static unsigned char Key_Down = 0, Key_UP = 0;  //变量
  29   1          static unsigned char Key_New = 0, Key_Old = 0;  //创建
  30   1      
  31   1          if (Key_Slow_Flag) return;
  32   1          Key_Slow_Flag = 1;                              //减速
  33   1          
  34   1          Key_New = Key_Read();                           //获取键码
  35   1          Key_Down = Key_New & ( Key_New ^ Key_Old);      //捕获下降沿
  36   1          Key_UP = ~Key_New & ( Key_New ^ Key_Old);       //捕获上升沿
  37   1          Key_Old = Key_New;                              //辅助扫描
  38   1          
  39   1          switch(Key_Down)
  40   1          {
  41   2      
  42   2              case 4:
  43   2                  sprintf(Uart_Txd_Buf,"T = %d\r\n",t++);
  44   2                  Uart_Txd_String(Uart_Txd_Buf);
  45   2              break;
  46   2              case 5:
  47   2                  Uart_Txd_String("Hello World!\r\n");
  48   2              break;
  49   2          }
  50   1      }
  51          
  52          /* 信息处理函数 */
  53          void Infor_Proc()
  54          {
C51 COMPILER V9.59.0.0   MAIN                                                              02/26/2024 20:46:35 PAGE 2   

  55   1          if (Seg_Slow_Flag) return;
  56   1          Seg_Slow_Flag = 1;                              //减速
  57   1          
  58   1      }
  59          
  60          /* 其他处理函数 */
  61          void Other_Proc()
  62          {
  63   1          
  64   1      }
  65          
  66          /* 串口处理函数 */
  67          void Uart_Proc()
  68          {
  69   1          if (Uart_Slow_Flag) return;
  70   1          Uart_Slow_Flag = 1;                              //减速
  71   1          
  72   1          if (Uart_Rxd_Poc == 8)
  73   1          {
  74   2              if (Uart_Rxd_Buf[0] == 'L' && Uart_Rxd_Buf[1] == 'E' && Uart_Rxd_Buf[2] == 'D' && Uart_Rxd_Buf[4] 
             -== ' ' && Uart_Rxd_Buf[5] == '=' && Uart_Rxd_Buf[6] == ' ')
  75   2                  LED_Buf[Uart_Rxd_Buf[3] - 48] = Uart_Rxd_Buf[7] - 48;
  76   2              Uart_Rxd_Poc = 0;
  77   2          }
  78   1          
  79   1      }
  80          
  81          /* 定时器初始化函数 */
  82          void Timer0_Init(void)          //1毫秒@12.000MHz
  83          {
  84   1          AUXR &= 0x7F;                       //定时器时钟12T模式
  85   1          TMOD &= 0xF0;                       //设置定时器模式
  86   1          TL0 = 0x18;                         //设置定时初始值
  87   1          TH0 = 0xFC;                         //设置定时初始值
  88   1          TF0 = 0;                            //清除TF0标志
  89   1          TR0 = 1;                            //定时器0开始计时
  90   1          ET0 = 1;
  91   1          EA  = 1;
  92   1      }
  93          
  94          /* 定时器中断服务函数 */
  95          void Timer0_Serve() interrupt 1
  96          {
  97   1          if (++Slow_Down == 400) Slow_Down = Seg_Slow_Flag = 0;
  98   1          if (Slow_Down % 10 == 0) Key_Slow_Flag = 0;
  99   1          if (Slow_Down % 200 == 0) Uart_Slow_Flag = 0;
 100   1          Seg_Show(Slow_Down%8, Seg_Buf[Slow_Down%8], Seg_Point[Slow_Down%8]);
 101   1          LED_Show(Slow_Down%8, LED_Buf[Slow_Down%8]);
 102   1      }
 103          
 104          /* 串口中断服务函数 */
 105          void Uart_Serve() interrupt 4
 106          {
 107   1          if (RI == 1)
 108   1          {
 109   2              Uart_Rxd_Buf[Uart_Rxd_Poc++] = SBUF;
 110   2              RI = 0;
 111   2          }
 112   1      }
 113          
 114          /* 延时函数 */
 115          void Delay_ms(unsigned int xms)         //@12.000MHz
C51 COMPILER V9.59.0.0   MAIN                                                              02/26/2024 20:46:35 PAGE 3   

 116          {
 117   1          unsigned char i, j;
 118   1          while (xms)
 119   1          {
 120   2              i = 12;
 121   2              j = 169;
 122   2              do
 123   2              {
 124   3                  while (--j);
 125   3              } while (--i);
 126   2              xms--;
 127   2          }
 128   1      }
 129          
 130          /* 主函数 */
 131          void main()
 132          {
 133   1          Init();
 134   1          Timer0_Init();
 135   1          Uart_Init();
 136   1          while (1)
 137   1          {
 138   2              Key_Proc();
 139   2              Infor_Proc();
 140   2              Other_Proc();
 141   2              Uart_Proc();
 142   2          }
 143   1      }
 144          
 145          
 146          


MODULE INFORMATION:   STATIC OVERLAYABLE
   CODE SIZE        =    405    ----
   CONSTANT SIZE    =     24    ----
   XDATA SIZE       =   ----    ----
   PDATA SIZE       =   ----    ----
   DATA SIZE        =     54    ----
   IDATA SIZE       =   ----    ----
   BIT SIZE         =      3    ----
END OF MODULE INFORMATION.


C51 COMPILATION COMPLETE.  0 WARNING(S),  0 ERROR(S)
