BL51 BANKED LINKER/LOCATER V6.22.2.0                                                    03/17/2024  14:47:47  PAGE 1


BL51 BANKED LINKER/LOCATER V6.22.2.0, INVOKED BY:
D:\KEIL 5\C51\BIN\BL51.EXE .\Objects\main.obj, .\Objects\Init.obj, .\Objects\Key.obj, .\Objects\Seg.obj, .\Objects\LED.o
>> bj, .\Objects\iic.obj, .\Objects\onewire.obj TO .\Objects\2303002124 PRINT (.\Listings\2303002124.m51) RAMSIZE (256)


MEMORY MODEL: SMALL WITH FLOATING POINT ARITHMETIC


INPUT MODULES INCLUDED:
  .\Objects\main.obj (MAIN)
  .\Objects\Init.obj (INIT)
  .\Objects\Key.obj (KEY)
  .\Objects\Seg.obj (SEG)
  .\Objects\LED.obj (LED)
  .\Objects\iic.obj (IIC)
  .\Objects\onewire.obj (ONEWIRE)
  D:\KEIL 5\C51\LIB\C51FPS.LIB (?C?FPADD)
  D:\KEIL 5\C51\LIB\C51FPS.LIB (?C?FPMUL)
  D:\KEIL 5\C51\LIB\C51FPS.LIB (?C?FPDIV)
  D:\KEIL 5\C51\LIB\C51FPS.LIB (?C?FPCMP)
  D:\KEIL 5\C51\LIB\C51FPS.LIB (?C?FCAST)
  D:\KEIL 5\C51\LIB\C51FPS.LIB (?C?CASTF)
  D:\KEIL 5\C51\LIB\C51FPS.LIB (?C?FPGETOPN)
  D:\KEIL 5\C51\LIB\C51S.LIB (?C_STARTUP)
  D:\KEIL 5\C51\LIB\C51S.LIB (?C?UIDIV)
  D:\KEIL 5\C51\LIB\C51S.LIB (?C?LNEG)
  D:\KEIL 5\C51\LIB\C51S.LIB (?C_INIT)


LINK MAP OF MODULE:  .\Objects\2303002124 (MAIN)


            TYPE    BASE      LENGTH    RELOCATION   SEGMENT NAME
            -----------------------------------------------------

            * * * * * * *   D A T A   M E M O R Y   * * * * * * *
            REG     0000H     0008H     ABSOLUTE     "REG BANK 0"
            DATA    0008H     0002H     UNIT         ?DT?LED
                    000AH     0016H                  *** GAP ***
            BIT     0020H.0   0000H.4   UNIT         ?BI?MAIN
            BIT     0020H.4   0000H.1   UNIT         _BIT_GROUP_
                    0020H.5   0000H.3                *** GAP ***
            DATA    0021H     0028H     UNIT         ?DT?MAIN
            IDATA   0049H     0001H     UNIT         ?STACK

            * * * * * * *   C O D E   M E M O R Y   * * * * * * *
            CODE    0000H     0003H     ABSOLUTE     
                    0003H     0008H                  *** GAP ***
            CODE    000BH     0003H     ABSOLUTE     
            CODE    000EH     0439H     UNIT         ?C?LIB_CODE
            CODE    0447H     012EH     UNIT         ?PR?INFOR_PROC?MAIN
            CODE    0575H     012AH     UNIT         ?PR?OTHER_PROC?MAIN
            CODE    069FH     008CH     UNIT         ?C_C51STARTUP
            CODE    072BH     0089H     UNIT         ?PR?TIMER0_SERVE?MAIN
            CODE    07B4H     0073H     UNIT         ?PR?KEY_READ?KEY
            CODE    0827H     0041H     UNIT         ?PR?_SEG_SHOW?SEG
            CODE    0868H     003BH     UNIT         ?PR?_LED_SHOW?LED
            CODE    08A3H     0035H     UNIT         ?PR?_I2CSENDBYTE?IIC
BL51 BANKED LINKER/LOCATER V6.22.2.0                                                  03/17/2024  14:47:47  PAGE 2


            CODE    08D8H     0034H     UNIT         ?PR?KEY_PROC?MAIN
            CODE    090CH     0034H     UNIT         ?PR?DS18B20_READ_T?ONEWIRE
            CODE    0940H     0031H     UNIT         ?C_INITSEG
            CODE    0971H     0027H     UNIT         ?PR?_AD_READ?IIC
            CODE    0998H     0027H     UNIT         ?PR?_WRITE_DS18B20?ONEWIRE
            CODE    09BFH     0027H     UNIT         ?PR?INIT_DS18B20?ONEWIRE
            CODE    09E6H     0026H     UNIT         ?PR?I2CRECEIVEBYTE?IIC
            CODE    0A0CH     0023H     UNIT         ?PR?_BEEP?LED
            CODE    0A2FH     0023H     UNIT         ?PR?_RELAY?LED
            CODE    0A52H     0023H     UNIT         ?PR?READ_DS18B20?ONEWIRE
            CODE    0A75H     001EH     UNIT         ?PR?_DELAY_ONEWIRE?ONEWIRE
            CODE    0A93H     001DH     UNIT         ?PR?INIT?INIT
            CODE    0AB0H     001DH     UNIT         ?PR?I2CWAITACK?IIC
            CODE    0ACDH     001BH     UNIT         ?PR?MAIN?MAIN
            CODE    0AE8H     001BH     UNIT         ?CO?SEG
            CODE    0B03H     001AH     UNIT         ?PR?_I2C_DELAY?IIC
            CODE    0B1DH     0018H     UNIT         ?PR?_I2CSENDACK?IIC
            CODE    0B35H     0015H     UNIT         ?PR?TIMER0_INIT?MAIN
            CODE    0B4AH     0015H     UNIT         ?PR?_DA_WRITE?IIC
            CODE    0B5FH     0014H     UNIT         ?PR?_DELAY_MS?MAIN
            CODE    0B73H     000FH     UNIT         ?PR?I2CSTART?IIC
            CODE    0B82H     000CH     UNIT         ?PR?I2CSTOP?IIC



OVERLAY MAP OF MODULE:   .\Objects\2303002124 (MAIN)


SEGMENT                               BIT_GROUP 
  +--> CALLED SEGMENT              START    LENGTH
--------------------------------------------------
?PR?TIMER0_SERVE?MAIN              -----    -----
  +--> ?PR?_SEG_SHOW?SEG
  +--> ?PR?_LED_SHOW?LED

?PR?_SEG_SHOW?SEG                  -----    -----
  +--> ?CO?SEG

*** NEW ROOT ***************************************************

?C_C51STARTUP                      -----    -----
  +--> ?PR?MAIN?MAIN
  +--> ?C_INITSEG

?PR?MAIN?MAIN                      -----    -----
  +--> ?PR?INIT?INIT
  +--> ?PR?TIMER0_INIT?MAIN
  +--> ?PR?DS18B20_READ_T?ONEWIRE
  +--> ?PR?_DELAY_MS?MAIN
  +--> ?PR?KEY_PROC?MAIN
  +--> ?PR?INFOR_PROC?MAIN
  +--> ?PR?OTHER_PROC?MAIN

?PR?DS18B20_READ_T?ONEWIRE         -----    -----
  +--> ?PR?INIT_DS18B20?ONEWIRE
  +--> ?PR?_WRITE_DS18B20?ONEWIRE
  +--> ?PR?READ_DS18B20?ONEWIRE
BL51 BANKED LINKER/LOCATER V6.22.2.0                                                  03/17/2024  14:47:47  PAGE 3



?PR?INIT_DS18B20?ONEWIRE           0020H.4  0000H.1
  +--> ?PR?_DELAY_ONEWIRE?ONEWIRE

?PR?_WRITE_DS18B20?ONEWIRE         -----    -----
  +--> ?PR?_DELAY_ONEWIRE?ONEWIRE

?PR?READ_DS18B20?ONEWIRE           -----    -----
  +--> ?PR?_DELAY_ONEWIRE?ONEWIRE

?PR?KEY_PROC?MAIN                  -----    -----
  +--> ?PR?KEY_READ?KEY

?PR?INFOR_PROC?MAIN                -----    -----
  +--> ?PR?DS18B20_READ_T?ONEWIRE
  +--> ?PR?_AD_READ?IIC

?PR?_AD_READ?IIC                   -----    -----
  +--> ?PR?I2CSTART?IIC
  +--> ?PR?I2CWAITACK?IIC
  +--> ?PR?_I2CSENDBYTE?IIC
  +--> ?PR?I2CRECEIVEBYTE?IIC
  +--> ?PR?_I2CSENDACK?IIC
  +--> ?PR?I2CSTOP?IIC

?PR?I2CSTART?IIC                   -----    -----
  +--> ?PR?_I2C_DELAY?IIC

?PR?I2CWAITACK?IIC                 -----    -----
  +--> ?PR?_I2CSENDBYTE?IIC
  +--> ?PR?_I2C_DELAY?IIC

?PR?_I2CSENDBYTE?IIC               -----    -----
  +--> ?PR?_I2C_DELAY?IIC

?PR?I2CRECEIVEBYTE?IIC             -----    -----
  +--> ?PR?_I2C_DELAY?IIC

?PR?_I2CSENDACK?IIC                -----    -----
  +--> ?PR?_I2C_DELAY?IIC

?PR?I2CSTOP?IIC                    -----    -----
  +--> ?PR?_I2C_DELAY?IIC

?PR?OTHER_PROC?MAIN                -----    -----
  +--> ?PR?_DA_WRITE?IIC

?PR?_DA_WRITE?IIC                  -----    -----
  +--> ?PR?I2CSTART?IIC
  +--> ?PR?_I2CSENDBYTE?IIC
  +--> ?PR?I2CWAITACK?IIC
  +--> ?PR?I2CSTOP?IIC



SYMBOL TABLE OF MODULE:  .\Objects\2303002124 (MAIN)

BL51 BANKED LINKER/LOCATER V6.22.2.0                                                  03/17/2024  14:47:47  PAGE 4


  VALUE           TYPE          NAME
  ----------------------------------

  -------         MODULE        MAIN
  C:0000H         SYMBOL        _ICE_DUMMY_
  D:0080H         PUBLIC        P0
  D:0090H         PUBLIC        P1
  D:00A0H         PUBLIC        P2
  D:00B0H         PUBLIC        P3
  D:00C0H         PUBLIC        P4
  B:0020H.0       PUBLIC        Seg_Slow_Flag
  D:00C8H         PUBLIC        P5
  B:00A8H.7       PUBLIC        EA
  D:00E8H         PUBLIC        P6
  D:00F8H         PUBLIC        P7
  B:0020H.1       PUBLIC        Seg_Show_Mode
  D:0025H         PUBLIC        Seg_Point
  D:00A8H         PUBLIC        IE
  B:0020H.2       PUBLIC        Key_Slow_Flag
  B:0020H.3       PUBLIC        Seg_Mode_Set
  D:00B8H         PUBLIC        IP
  C:072BH         PUBLIC        Timer0_Serve
  D:002DH         PUBLIC        Seg_Buf
  C:08D8H         PUBLIC        Key_Proc
  D:0035H         PUBLIC        Slow_Down
  D:00D8H         PUBLIC        CCON
  C:0ACDH         PUBLIC        main
  C:0B35H         PUBLIC        Timer0_Init
  C:0B5FH         PUBLIC        _Delay_ms
  D:0098H         PUBLIC        SCON
  D:0089H         PUBLIC        TMOD
  D:0088H         PUBLIC        TCON
  D:008EH         PUBLIC        AUXR
  B:00A8H.1       PUBLIC        ET0
  B:0088H.5       PUBLIC        TF0
  D:008CH         PUBLIC        TH0
  D:008AH         PUBLIC        TL0
  D:0037H         PUBLIC        T
  D:003BH         PUBLIC        LED_Buf
  B:0088H.4       PUBLIC        TR0
  D:0043H         PUBLIC        AD_Light
  D:0044H         PUBLIC        DA_Data
  D:0048H         PUBLIC        i
  C:0447H         PUBLIC        Infor_Proc
  D:00D0H         PUBLIC        PSW
  C:0575H         PUBLIC        Other_Proc
  -------         PROC          KEY_PROC
  -------         DO            
  D:0021H         SYMBOL        Key_Down
  D:0022H         SYMBOL        Key_UP
  D:0023H         SYMBOL        Key_New
  D:0024H         SYMBOL        Key_Old
  -------         ENDDO         
  C:08D8H         LINE#         26
  C:08D8H         LINE#         27
  C:08D8H         LINE#         31
  C:08DBH         LINE#         32
BL51 BANKED LINKER/LOCATER V6.22.2.0                                                  03/17/2024  14:47:47  PAGE 5


  C:08DDH         LINE#         34
  C:08E2H         LINE#         35
  C:08EBH         LINE#         36
  C:08F1H         LINE#         37
  C:08F4H         LINE#         39
  C:08FDH         LINE#         40
  C:08FDH         LINE#         42
  C:08FDH         LINE#         43
  C:0900H         LINE#         44
  C:0905H         LINE#         45
  C:0906H         LINE#         47
  C:0906H         LINE#         48
  C:090BH         LINE#         49
  C:090BH         LINE#         50
  C:090BH         LINE#         51
  -------         ENDPROC       KEY_PROC
  -------         PROC          INFOR_PROC
  C:0447H         LINE#         54
  C:0447H         LINE#         55
  C:0447H         LINE#         56
  C:044DH         LINE#         57
  C:044FH         LINE#         60
  C:045AH         LINE#         61
  C:0461H         LINE#         65
  C:0467H         LINE#         66
  C:0467H         LINE#         68
  C:046AH         LINE#         69
  C:046AH         LINE#         70
  C:046DH         LINE#         71
  C:047BH         LINE#         72
  C:0486H         LINE#         73
  C:0498H         LINE#         74
  C:04A0H         LINE#         75
  C:04A3H         LINE#         76
  C:04C1H         LINE#         77
  C:04C2H         LINE#         80
  C:04C2H         LINE#         81
  C:04C5H         LINE#         82
  C:04D3H         LINE#         83
  C:04DEH         LINE#         84
  C:04EBH         LINE#         85
  C:04F8H         LINE#         86
  C:04FBH         LINE#         87
  C:0504H         LINE#         88
  C:0512H         LINE#         89
  C:0512H         LINE#         90
  C:051AH         LINE#         91
  C:0521H         LINE#         93
  C:0521H         LINE#         94
  C:0525H         LINE#         95
  C:0525H         LINE#         96
  C:0525H         LINE#         99
  C:0525H         LINE#         100
  C:0528H         LINE#         101
  C:0536H         LINE#         102
  C:0541H         LINE#         103
  C:0554H         LINE#         104
BL51 BANKED LINKER/LOCATER V6.22.2.0                                                  03/17/2024  14:47:47  PAGE 6


  C:0557H         LINE#         105
  C:0574H         LINE#         106
  C:0574H         LINE#         107
  -------         ENDPROC       INFOR_PROC
  -------         PROC          OTHER_PROC
  C:0575H         LINE#         110
  C:0575H         LINE#         111
  C:0575H         LINE#         114
  C:0578H         LINE#         115
  C:0578H         LINE#         116
  C:05A2H         LINE#         117
  C:05BFH         LINE#         118
  C:05D3H         LINE#         119
  C:05D5H         LINE#         120
  C:05EBH         LINE#         121
  C:05EBH         LINE#         122
  C:05EDH         LINE#         125
  C:05EDH         LINE#         126
  C:0605H         LINE#         127
  C:062FH         LINE#         128
  C:063DH         LINE#         129
  C:064AH         LINE#         130
  C:0655H         LINE#         131
  C:0660H         LINE#         132
  C:0660H         LINE#         134
  C:0678H         LINE#         137
  C:0686H         LINE#         138
  C:069EH         LINE#         139
  -------         ENDPROC       OTHER_PROC
  -------         PROC          TIMER0_INIT
  C:0B35H         LINE#         142
  C:0B35H         LINE#         143
  C:0B35H         LINE#         144
  C:0B38H         LINE#         145
  C:0B3BH         LINE#         146
  C:0B3EH         LINE#         147
  C:0B41H         LINE#         148
  C:0B43H         LINE#         149
  C:0B45H         LINE#         150
  C:0B47H         LINE#         151
  C:0B49H         LINE#         152
  -------         ENDPROC       TIMER0_INIT
  -------         PROC          TIMER0_SERVE
  C:072BH         LINE#         155
  C:0748H         LINE#         157
  C:0761H         LINE#         158
  C:0772H         LINE#         159
  C:078AH         LINE#         160
  C:0799H         LINE#         161
  -------         ENDPROC       TIMER0_SERVE
  -------         PROC          _DELAY_MS
  D:0006H         SYMBOL        xms
  -------         DO            
  D:0005H         SYMBOL        i
  D:0004H         SYMBOL        j
  -------         ENDDO         
  C:0B5FH         LINE#         164
BL51 BANKED LINKER/LOCATER V6.22.2.0                                                  03/17/2024  14:47:47  PAGE 7


  C:0B5FH         LINE#         165
  C:0B5FH         LINE#         167
  C:0B63H         LINE#         168
  C:0B63H         LINE#         169
  C:0B65H         LINE#         170
  C:0B67H         LINE#         172
  C:0B67H         LINE#         173
  C:0B69H         LINE#         174
  C:0B6BH         LINE#         175
  C:0B70H         LINE#         176
  C:0B72H         LINE#         177
  -------         ENDPROC       _DELAY_MS
  -------         PROC          MAIN
  C:0ACDH         LINE#         180
  C:0ACDH         LINE#         181
  C:0ACDH         LINE#         182
  C:0AD0H         LINE#         183
  C:0AD3H         LINE#         184
  C:0AD6H         LINE#         185
  C:0ADDH         LINE#         186
  C:0ADDH         LINE#         187
  C:0ADDH         LINE#         188
  C:0AE0H         LINE#         189
  C:0AE3H         LINE#         190
  C:0AE6H         LINE#         191
  -------         ENDPROC       MAIN
  -------         ENDMOD        MAIN

  -------         MODULE        INIT
  C:0000H         SYMBOL        _ICE_DUMMY_
  D:0080H         PUBLIC        P0
  D:0090H         PUBLIC        P1
  D:00A0H         PUBLIC        P2
  D:00B0H         PUBLIC        P3
  D:00C0H         PUBLIC        P4
  D:00C8H         PUBLIC        P5
  D:00E8H         PUBLIC        P6
  D:00F8H         PUBLIC        P7
  D:00A8H         PUBLIC        IE
  C:0A93H         PUBLIC        Init
  D:00B8H         PUBLIC        IP
  D:00D8H         PUBLIC        CCON
  D:0098H         PUBLIC        SCON
  D:0088H         PUBLIC        TCON
  D:00D0H         PUBLIC        PSW
  -------         PROC          INIT
  C:0A93H         LINE#         7
  C:0A93H         LINE#         8
  C:0A93H         LINE#         9
  C:0A96H         LINE#         10
  C:0A9EH         LINE#         11
  C:0AA1H         LINE#         13
  C:0AA4H         LINE#         14
  C:0AACH         LINE#         15
  C:0AAFH         LINE#         16
  -------         ENDPROC       INIT
  -------         ENDMOD        INIT
BL51 BANKED LINKER/LOCATER V6.22.2.0                                                  03/17/2024  14:47:47  PAGE 8



  -------         MODULE        KEY
  C:0000H         SYMBOL        _ICE_DUMMY_
  D:0080H         PUBLIC        P0
  D:0090H         PUBLIC        P1
  D:00A0H         PUBLIC        P2
  D:00B0H         PUBLIC        P3
  D:00C0H         PUBLIC        P4
  D:00C8H         PUBLIC        P5
  D:00E8H         PUBLIC        P6
  D:00F8H         PUBLIC        P7
  C:07B4H         PUBLIC        Key_Read
  D:00A8H         PUBLIC        IE
  D:00B8H         PUBLIC        IP
  D:00D8H         PUBLIC        CCON
  B:00B0H.0       PUBLIC        P30
  D:0098H         PUBLIC        SCON
  B:00B0H.1       PUBLIC        P31
  D:0088H         PUBLIC        TCON
  B:00B0H.2       PUBLIC        P32
  B:00C0H.2       PUBLIC        P42
  B:00B0H.3       PUBLIC        P33
  B:00B0H.4       PUBLIC        P34
  B:00C0H.4       PUBLIC        P44
  B:00B0H.5       PUBLIC        P35
  D:00D0H         PUBLIC        PSW
  -------         PROC          KEY_READ
  -------         DO            
  D:0007H         SYMBOL        temp
  -------         ENDDO         
  C:07B4H         LINE#         7
  C:07B4H         LINE#         8
  C:07B4H         LINE#         9
  C:07B6H         LINE#         10
  C:07BEH         LINE#         11
  C:07C3H         LINE#         12
  C:07C8H         LINE#         13
  C:07CDH         LINE#         14
  C:07D2H         LINE#         15
  C:07DAH         LINE#         16
  C:07DFH         LINE#         17
  C:07E4H         LINE#         18
  C:07E9H         LINE#         19
  C:07EEH         LINE#         20
  C:07F6H         LINE#         21
  C:07FBH         LINE#         22
  C:0800H         LINE#         23
  C:0805H         LINE#         24
  C:080AH         LINE#         25
  C:0812H         LINE#         26
  C:0817H         LINE#         27
  C:081CH         LINE#         28
  C:0821H         LINE#         29
  C:0826H         LINE#         30
  C:0826H         LINE#         31
  -------         ENDPROC       KEY_READ
  -------         ENDMOD        KEY
BL51 BANKED LINKER/LOCATER V6.22.2.0                                                  03/17/2024  14:47:47  PAGE 9



  -------         MODULE        SEG
  C:0000H         SYMBOL        _ICE_DUMMY_
  D:0080H         PUBLIC        P0
  D:0090H         PUBLIC        P1
  D:00A0H         PUBLIC        P2
  D:00B0H         PUBLIC        P3
  D:00C0H         PUBLIC        P4
  D:00C8H         PUBLIC        P5
  D:00E8H         PUBLIC        P6
  D:00F8H         PUBLIC        P7
  D:00A8H         PUBLIC        IE
  D:00B8H         PUBLIC        IP
  C:0AFBH         PUBLIC        Seg_Wula
  C:0827H         PUBLIC        _Seg_Show
  D:00D8H         PUBLIC        CCON
  D:0098H         PUBLIC        SCON
  D:0088H         PUBLIC        TCON
  C:0AE8H         PUBLIC        Seg_Table
  D:00D0H         PUBLIC        PSW
  -------         PROC          _SEG_SHOW
  D:0007H         SYMBOL        Wula
  D:0004H         SYMBOL        Table
  D:0002H         SYMBOL        Point
  C:0827H         LINE#         30
  C:0827H         LINE#         31
  C:0827H         LINE#         32
  C:082AH         LINE#         33
  C:0832H         LINE#         34
  C:0835H         LINE#         36
  C:083CH         LINE#         37
  C:0844H         LINE#         38
  C:0847H         LINE#         40
  C:0855H         LINE#         41
  C:0859H         LINE#         42
  C:085CH         LINE#         43
  C:0864H         LINE#         44
  C:0867H         LINE#         45
  -------         ENDPROC       _SEG_SHOW
  -------         ENDMOD        SEG

  -------         MODULE        LED
  C:0000H         SYMBOL        _ICE_DUMMY_
  C:0A2FH         PUBLIC        _Relay
  D:0080H         PUBLIC        P0
  D:0090H         PUBLIC        P1
  D:00A0H         PUBLIC        P2
  D:00B0H         PUBLIC        P3
  D:00C0H         PUBLIC        P4
  D:00C8H         PUBLIC        P5
  D:00E8H         PUBLIC        P6
  D:00F8H         PUBLIC        P7
  D:00A8H         PUBLIC        IE
  D:00B8H         PUBLIC        IP
  D:00D8H         PUBLIC        CCON
  D:0098H         PUBLIC        SCON
  D:0088H         PUBLIC        TCON
BL51 BANKED LINKER/LOCATER V6.22.2.0                                                  03/17/2024  14:47:47  PAGE 10


  D:0008H         SYMBOL        temp_old
  C:0868H         PUBLIC        _LED_Show
  D:0009H         SYMBOL        temp_new
  D:00D0H         PUBLIC        PSW
  C:0A0CH         PUBLIC        _Beep
  -------         PROC          _LED_SHOW
  D:0007H         SYMBOL        addr
  D:0004H         SYMBOL        enable
  C:0868H         LINE#         9
  C:0868H         LINE#         10
  C:0868H         LINE#         11
  C:086CH         LINE#         12
  C:087BH         LINE#         14
  C:0889H         LINE#         16
  C:088FH         LINE#         17
  C:088FH         LINE#         18
  C:0894H         LINE#         19
  C:089CH         LINE#         20
  C:089FH         LINE#         21
  C:08A2H         LINE#         22
  C:08A2H         LINE#         23
  -------         ENDPROC       _LED_SHOW
  -------         PROC          _BEEP
  D:0007H         SYMBOL        flag
  C:0A0CH         LINE#         26
  C:0A0CH         LINE#         27
  C:0A0CH         LINE#         28
  C:0A0FH         LINE#         29
  C:0A14H         LINE#         31
  C:0A17H         LINE#         33
  C:0A1DH         LINE#         34
  C:0A1DH         LINE#         35
  C:0A20H         LINE#         36
  C:0A28H         LINE#         37
  C:0A2BH         LINE#         38
  C:0A2EH         LINE#         39
  C:0A2EH         LINE#         40
  -------         ENDPROC       _BEEP
  -------         PROC          _RELAY
  D:0007H         SYMBOL        flag
  C:0A2FH         LINE#         43
  C:0A2FH         LINE#         44
  C:0A2FH         LINE#         45
  C:0A32H         LINE#         46
  C:0A37H         LINE#         48
  C:0A3AH         LINE#         50
  C:0A40H         LINE#         51
  C:0A40H         LINE#         52
  C:0A43H         LINE#         53
  C:0A4BH         LINE#         54
  C:0A4EH         LINE#         55
  C:0A51H         LINE#         56
  C:0A51H         LINE#         57
  -------         ENDPROC       _RELAY
  -------         ENDMOD        LED

  -------         MODULE        IIC
BL51 BANKED LINKER/LOCATER V6.22.2.0                                                  03/17/2024  14:47:47  PAGE 11


  C:0000H         SYMBOL        _ICE_DUMMY_
  D:0080H         PUBLIC        P0
  D:0090H         PUBLIC        P1
  D:00A0H         PUBLIC        P2
  D:00B0H         PUBLIC        P3
  D:00C0H         PUBLIC        P4
  D:00C8H         PUBLIC        P5
  D:00E8H         PUBLIC        P6
  D:00F8H         PUBLIC        P7
  D:00A8H         PUBLIC        IE
  C:0B07H         SYMBOL        _I2C_Delay
  D:00B8H         PUBLIC        IP
  C:09E6H         PUBLIC        I2CReceiveByte
  D:00D8H         PUBLIC        CCON
  D:0098H         PUBLIC        SCON
  D:0088H         PUBLIC        TCON
  B:00A0H.1       PUBLIC        sda
  B:00A0H.0       PUBLIC        scl
  C:0B73H         PUBLIC        I2CStart
  C:0B1DH         PUBLIC        _I2CSendAck
  C:08A3H         PUBLIC        _I2CSendByte
  C:0971H         PUBLIC        _AD_Read
  C:0ABBH         PUBLIC        I2CWaitAck
  C:0B82H         PUBLIC        I2CStop
  C:0B4AH         PUBLIC        _DA_Write
  D:00D0H         PUBLIC        PSW
  C:0B03H         SYMBOL        L?0024
  -------         PROC          L?0023
  -------         ENDPROC       L?0023
  C:0B03H         SYMBOL        L?0024
  -------         PROC          _I2C_DELAY
  D:0007H         SYMBOL        n
  C:0B07H         LINE#         16
  C:0B07H         LINE#         17
  C:0B07H         LINE#         19
  C:0B07H         LINE#         20
  C:0B0CH         LINE#         21
  C:0B11H         LINE#         22
  C:0B16H         LINE#         23
  C:0B16H         LINE#         24
  C:0B1CH         LINE#         25
  -------         ENDPROC       _I2C_DELAY
  -------         PROC          I2CSTART
  C:0B73H         LINE#         28
  C:0B73H         LINE#         29
  C:0B73H         LINE#         30
  C:0B75H         LINE#         31
  C:0B75H         LINE#         32
  C:0B78H         LINE#         33
  C:0B7AH         LINE#         34
  C:0B7FH         LINE#         35
  C:0B81H         LINE#         36
  -------         ENDPROC       I2CSTART
  -------         PROC          I2CSTOP
  C:0B82H         LINE#         39
  C:0B82H         LINE#         40
  C:0B82H         LINE#         41
BL51 BANKED LINKER/LOCATER V6.22.2.0                                                  03/17/2024  14:47:47  PAGE 12


  C:0B84H         LINE#         42
  C:0B84H         LINE#         43
  C:0B87H         LINE#         44
  C:0B89H         LINE#         45
  -------         ENDPROC       I2CSTOP
  -------         PROC          _I2CSENDBYTE
  D:0005H         SYMBOL        byt
  -------         DO            
  D:0004H         SYMBOL        i
  -------         ENDDO         
  C:08A3H         LINE#         49
  C:08A5H         LINE#         50
  C:08A5H         LINE#         53
  C:08B1H         LINE#         54
  C:08B3H         LINE#         55
  C:08B8H         LINE#         56
  C:08BCH         LINE#         57
  C:08BEH         LINE#         58
  C:08C0H         LINE#         59
  C:08C0H         LINE#         60
  C:08C2H         LINE#         61
  C:08C2H         LINE#         62
  C:08C7H         LINE#         63
  C:08C9H         LINE#         64
  C:08CDH         LINE#         65
  C:08D2H         LINE#         66
  C:08D5H         LINE#         68
  C:08D7H         LINE#         69
  -------         ENDPROC       _I2CSENDBYTE
  -------         PROC          I2CRECEIVEBYTE
  -------         DO            
  D:0005H         SYMBOL        da
  D:0004H         SYMBOL        i
  -------         ENDDO         
  C:09E6H         LINE#         72
  C:09E6H         LINE#         73
  C:09E6H         LINE#         76
  C:09F2H         LINE#         77
  C:09F2H         LINE#         78
  C:09F5H         LINE#         79
  C:09F9H         LINE#         80
  C:09FCH         LINE#         81
  C:09FFH         LINE#         82
  C:0A01H         LINE#         83
  C:0A06H         LINE#         84
  C:0A09H         LINE#         85
  C:0A0BH         LINE#         86
  -------         ENDPROC       I2CRECEIVEBYTE
  -------         PROC          L?0022
  -------         ENDPROC       L?0022
  -------         PROC          I2CWAITACK
  -------         DO            
  D:0005H         SYMBOL        ackbit
  -------         ENDDO         
  C:0ABBH         LINE#         89
  C:0ABBH         LINE#         90
  C:0ABBH         LINE#         93
BL51 BANKED LINKER/LOCATER V6.22.2.0                                                  03/17/2024  14:47:47  PAGE 13


  C:0ABBH         LINE#         94
  C:0ABEH         LINE#         95
  C:0AC3H         LINE#         96
  C:0AC5H         LINE#         97
  C:0ACAH         LINE#         99
  C:0ACCH         LINE#         100
  -------         ENDPROC       I2CWAITACK
  -------         PROC          _I2CSENDACK
  D:0007H         SYMBOL        ackbit
  C:0B1DH         LINE#         103
  C:0B1DH         LINE#         104
  C:0B1DH         LINE#         105
  C:0B1FH         LINE#         106
  C:0B24H         LINE#         107
  C:0B29H         LINE#         108
  C:0B29H         LINE#         109
  C:0B2CH         LINE#         110
  C:0B2EH         LINE#         111
  C:0B30H         LINE#         112
  -------         ENDPROC       _I2CSENDACK
  -------         PROC          _AD_READ
  D:0003H         SYMBOL        addr
  -------         DO            
  D:0005H         SYMBOL        temp
  -------         ENDDO         
  C:0971H         LINE#         115
  C:0973H         LINE#         116
  C:0973H         LINE#         117
  C:0975H         LINE#         118
  C:0978H         LINE#         119
  C:097AH         LINE#         120
  C:097AH         LINE#         121
  C:097AH         LINE#         122
  C:097DH         LINE#         124
  C:0980H         LINE#         125
  C:0985H         LINE#         126
  C:0988H         LINE#         127
  C:098DH         LINE#         128
  C:0992H         LINE#         129
  C:0995H         LINE#         130
  C:0997H         LINE#         131
  -------         ENDPROC       _AD_READ
  -------         PROC          _DA_WRITE
  D:0003H         SYMBOL        dat
  C:0B4AH         LINE#         133
  C:0B4CH         LINE#         134
  C:0B4CH         LINE#         135
  C:0B4FH         LINE#         136
  C:0B54H         LINE#         137
  C:0B57H         LINE#         138
  C:0B59H         LINE#         139
  C:0B59H         LINE#         140
  C:0B59H         LINE#         141
  C:0B5CH         LINE#         142
  -------         ENDPROC       _DA_WRITE
  -------         ENDMOD        IIC

BL51 BANKED LINKER/LOCATER V6.22.2.0                                                  03/17/2024  14:47:47  PAGE 14


  -------         MODULE        ONEWIRE
  C:0000H         SYMBOL        _ICE_DUMMY_
  D:0080H         PUBLIC        P0
  D:0090H         PUBLIC        P1
  D:00A0H         PUBLIC        P2
  D:00B0H         PUBLIC        P3
  D:00C0H         PUBLIC        P4
  C:0A52H         PUBLIC        Read_DS18B20
  D:00C8H         PUBLIC        P5
  D:00E8H         PUBLIC        P6
  D:00F8H         PUBLIC        P7
  D:00A8H         PUBLIC        IE
  C:0A79H         PUBLIC        _Delay_OneWire
  C:0998H         PUBLIC        _Write_DS18B20
  B:0090H.4       PUBLIC        DQ
  D:00B8H         PUBLIC        IP
  C:09BFH         PUBLIC        init_ds18b20
  D:00D8H         PUBLIC        CCON
  D:0098H         PUBLIC        SCON
  D:0088H         PUBLIC        TCON
  C:090CH         PUBLIC        DS18B20_Read_T
  D:00D0H         PUBLIC        PSW
  C:0A75H         SYMBOL        L?0020
  -------         PROC          L?0019
  -------         ENDPROC       L?0019
  C:0A75H         SYMBOL        L?0020
  -------         PROC          _DELAY_ONEWIRE
  D:0006H         SYMBOL        t
  -------         DO            
  D:0005H         SYMBOL        i
  -------         ENDDO         
  C:0A79H         LINE#         13
  C:0A79H         LINE#         14
  C:0A79H         LINE#         16
  C:0A83H         LINE#         17
  C:0A92H         LINE#         18
  C:0A92H         LINE#         19
  -------         ENDPROC       _DELAY_ONEWIRE
  -------         PROC          _WRITE_DS18B20
  D:0001H         SYMBOL        dat
  -------         DO            
  D:0003H         SYMBOL        i
  -------         ENDDO         
  C:0998H         LINE#         22
  C:099AH         LINE#         23
  C:099AH         LINE#         25
  C:09A6H         LINE#         26
  C:09A6H         LINE#         27
  C:09A8H         LINE#         28
  C:09ACH         LINE#         29
  C:09AFH         LINE#         30
  C:09B1H         LINE#         31
  C:09B5H         LINE#         32
  C:09B8H         LINE#         33
  -------         ENDPROC       _WRITE_DS18B20
  -------         PROC          READ_DS18B20
  -------         DO            
BL51 BANKED LINKER/LOCATER V6.22.2.0                                                  03/17/2024  14:47:47  PAGE 15


  D:0003H         SYMBOL        i
  D:0004H         SYMBOL        dat
  -------         ENDDO         
  C:0A52H         LINE#         37
  C:0A52H         LINE#         38
  C:0A52H         LINE#         42
  C:0A5EH         LINE#         43
  C:0A5EH         LINE#         44
  C:0A60H         LINE#         45
  C:0A64H         LINE#         46
  C:0A66H         LINE#         47
  C:0A69H         LINE#         48
  C:0A69H         LINE#         49
  C:0A6CH         LINE#         50
  C:0A6CH         LINE#         51
  C:0A6FH         LINE#         52
  C:0A72H         LINE#         53
  C:0A74H         LINE#         54
  -------         ENDPROC       READ_DS18B20
  -------         PROC          INIT_DS18B20
  -------         DO            
  B:0020H.4       SYMBOL        initflag
  -------         ENDDO         
  C:09BFH         LINE#         57
  C:09BFH         LINE#         58
  C:09BFH         LINE#         59
  C:09C1H         LINE#         61
  C:09C3H         LINE#         62
  C:09CAH         LINE#         63
  C:09CCH         LINE#         64
  C:09D3H         LINE#         65
  C:09D5H         LINE#         66
  C:09DCH         LINE#         67
  C:09E0H         LINE#         68
  C:09E3H         LINE#         70
  C:09E5H         LINE#         71
  -------         ENDPROC       INIT_DS18B20
  -------         PROC          DS18B20_READ_T
  -------         DO            
  D:0007H         SYMBOL        high
  D:0001H         SYMBOL        low
  -------         ENDDO         
  C:090CH         LINE#         73
  C:090CH         LINE#         74
  C:090CH         LINE#         76
  C:090FH         LINE#         77
  C:0914H         LINE#         78
  C:0919H         LINE#         79
  C:091CH         LINE#         80
  C:0921H         LINE#         81
  C:0926H         LINE#         82
  C:092BH         LINE#         83
  C:092EH         LINE#         84
  -------         ENDPROC       DS18B20_READ_T
  -------         ENDMOD        ONEWIRE

  -------         MODULE        ?C?FPADD
BL51 BANKED LINKER/LOCATER V6.22.2.0                                                  03/17/2024  14:47:47  PAGE 16


  C:0015H         PUBLIC        ?C?FPADD
  C:0011H         PUBLIC        ?C?FPSUB
  -------         ENDMOD        ?C?FPADD

  -------         MODULE        ?C?FPMUL
  C:0106H         PUBLIC        ?C?FPMUL
  -------         ENDMOD        ?C?FPMUL

  -------         MODULE        ?C?FPDIV
  C:020FH         PUBLIC        ?C?FPDIV
  -------         ENDMOD        ?C?FPDIV

  -------         MODULE        ?C?FPCMP
  C:02AEH         PUBLIC        ?C?FPCMP
  C:02ACH         PUBLIC        ?C?FPCMP3
  -------         ENDMOD        ?C?FPCMP

  -------         MODULE        ?C?FCAST
  C:032FH         PUBLIC        ?C?FCASTC
  C:032AH         PUBLIC        ?C?FCASTI
  C:0325H         PUBLIC        ?C?FCASTL
  -------         ENDMOD        ?C?FCAST

  -------         MODULE        ?C?CASTF
  C:0363H         PUBLIC        ?C?CASTF
  -------         ENDMOD        ?C?CASTF

  -------         MODULE        ?C?UIDIV
  C:03E4H         PUBLIC        ?C?UIDIV
  -------         ENDMOD        ?C?UIDIV

  -------         MODULE        ?C?LNEG
  C:0439H         PUBLIC        ?C?LNEG
  -------         ENDMOD        ?C?LNEG

*** WARNING L16: UNCALLED SEGMENT, IGNORED FOR OVERLAY PROCESS
    SEGMENT: ?PR?_BEEP?LED

*** WARNING L16: UNCALLED SEGMENT, IGNORED FOR OVERLAY PROCESS
    SEGMENT: ?PR?_RELAY?LED

Program Size: data=51.5 xdata=0 code=2950
LINK/LOCATE RUN COMPLETE.  2 WARNING(S),  0 ERROR(S)
