BL51 BANKED LINKER/LOCATER V6.22.2.0                                                    05/27/2024  17:50:23  PAGE 1


BL51 BANKED LINKER/LOCATER V6.22.2.0, INVOKED BY:
D:\KEIL 5\C51\BIN\BL51.EXE .\Objects\main.obj, .\Objects\STARTUP.obj, .\Objects\Init.obj, .\Objects\Key.obj, .\Objects\S
>> eg.obj, .\Objects\LED.obj, .\Objects\Uart.obj, .\Objects\onewire.obj, .\Objects\iic.obj, .\Objects\Uwave.obj, .\Objec
>> ts\ds1302.obj TO .\Objects\project PRINT (.\Listings\project.m51) RAMSIZE (256)


MEMORY MODEL: SMALL WITH FLOATING POINT ARITHMETIC


INPUT MODULES INCLUDED:
  .\Objects\main.obj (MAIN)
  .\Objects\STARTUP.obj (?C_STARTUP)
  .\Objects\Init.obj (INIT)
  .\Objects\Key.obj (KEY)
  .\Objects\Seg.obj (SEG)
  .\Objects\LED.obj (LED)
  .\Objects\Uart.obj (UART)
  .\Objects\onewire.obj (ONEWIRE)
  .\Objects\iic.obj (IIC)
  .\Objects\Uwave.obj (UWAVE)
  .\Objects\ds1302.obj (DS1302)
  D:\KEIL 5\C51\LIB\C51FPS.LIB (?C?FPMUL)
  D:\KEIL 5\C51\LIB\C51FPS.LIB (?C?FPDIV)
  D:\KEIL 5\C51\LIB\C51FPS.LIB (?C?FCAST)
  D:\KEIL 5\C51\LIB\C51FPS.LIB (?C?CASTF)
  D:\KEIL 5\C51\LIB\C51FPS.LIB (PRINTF)
  D:\KEIL 5\C51\LIB\C51FPS.LIB (?C?FPGETOPN)
  D:\KEIL 5\C51\LIB\C51FPS.LIB (?C?FPROUND)
  D:\KEIL 5\C51\LIB\C51FPS.LIB (?C?FPCONVERT)
  D:\KEIL 5\C51\LIB\C51FPS.LIB (?C?FPADD)
  D:\KEIL 5\C51\LIB\C51FPS.LIB (?C?FTNPWR)
  D:\KEIL 5\C51\LIB\C51S.LIB (?C_INIT)
  D:\KEIL 5\C51\LIB\C51S.LIB (?C?CLDPTR)
  D:\KEIL 5\C51\LIB\C51S.LIB (?C?CLDOPTR)
  D:\KEIL 5\C51\LIB\C51S.LIB (?C?CSTPTR)
  D:\KEIL 5\C51\LIB\C51S.LIB (?C?UIDIV)
  D:\KEIL 5\C51\LIB\C51S.LIB (?C?LNEG)
  D:\KEIL 5\C51\LIB\C51S.LIB (?C?PLDIIDATA)
  D:\KEIL 5\C51\LIB\C51S.LIB (?C?CCASE)
  D:\KEIL 5\C51\LIB\C51S.LIB (?C?MEMSET)


LINK MAP OF MODULE:  .\Objects\project (MAIN)


            TYPE    BASE      LENGTH    RELOCATION   SEGMENT NAME
            -----------------------------------------------------

            * * * * * * *   D A T A   M E M O R Y   * * * * * * *
            REG     0000H     0008H     ABSOLUTE     "REG BANK 0"
            DATA    0008H     0004H     UNIT         ?DT?LED
                    000CH     0014H                  *** GAP ***
            BIT     0020H.0   0001H.1   UNIT         _BIT_GROUP_
            BIT     0021H.1   0000H.6   UNIT         ?BI?MAIN
                    0021H.7   0000H.1                *** GAP ***
            DATA    0022H     001DH     UNIT         _DATA_GROUP_
            DATA    003FH     001BH     UNIT         ?DT?MAIN
            IDATA   005AH     002CH     UNIT         ?ID?MAIN
BL51 BANKED LINKER/LOCATER V6.22.2.0                                                  05/27/2024  17:50:23  PAGE 2


            IDATA   0086H     0001H     UNIT         ?STACK

            * * * * * * *   C O D E   M E M O R Y   * * * * * * *
            CODE    0000H     0003H     ABSOLUTE     
            CODE    0003H     0018H     UNIT         ?PR?_I2CSENDACK?IIC
            CODE    001BH     0003H     ABSOLUTE     
                    001EH     0005H                  *** GAP ***
            CODE    0023H     0003H     ABSOLUTE     
            CODE    0026H     061CH     UNIT         ?C?LIB_CODE
            CODE    0642H     046FH     UNIT         ?PR?PRINTF?PRINTF
            CODE    0AB1H     0211H     UNIT         ?PR?SEG_DEAL?MAIN
            CODE    0CC2H     0165H     UNIT         ?PR?UART_DEAL?MAIN
            CODE    0E27H     00F4H     UNIT         ?PR?TIMER1_SERVE?MAIN
            CODE    0F1BH     00E8H     UNIT         ?PR?KEY_DEAL?MAIN
            CODE    1003H     00ACH     UNIT         ?CO?MAIN
            CODE    10AFH     008CH     UNIT         ?C_C51STARTUP
            CODE    113BH     0070H     UNIT         ?PR?INFOR_DEAL?MAIN
            CODE    11ABH     006EH     UNIT         ?PR?UART_SERVE?MAIN
            CODE    1219H     006CH     UNIT         ?PR?MAIN?MAIN
            CODE    1285H     005EH     UNIT         ?PR?KEY_READ?KEY
            CODE    12E3H     005DH     UNIT         ?PR?_DS1302_WRITE_RTC?DS1302
            CODE    1340H     004AH     UNIT         ?PR?_EEPROM_READ?IIC
            CODE    138AH     0047H     UNIT         ?PR?_SEG_SHOW?SEG
            CODE    13D1H     0047H     UNIT         ?PR?_READ_DS1302_BYTE?DS1302
            CODE    1418H     0041H     UNIT         ?PR?_DS1302_READ_RTC?DS1302
            CODE    1459H     003CH     UNIT         ?C_INITSEG
            CODE    1495H     003BH     UNIT         ?PR?_LED_SHOW?LED
            CODE    14D0H     003BH     UNIT         ?PR?UWAVE_READ_DIST?UWAVE
            CODE    150BH     0038H     UNIT         ?PR?_EEPROM_WRITE?IIC
            CODE    1543H     0035H     UNIT         ?PR?_I2CSENDBYTE?IIC
            CODE    1578H     0034H     UNIT         ?PR?DS18B20_READ_T?ONEWIRE
            CODE    15ACH     002AH     UNIT         ?PR?LED_DEAL?MAIN
            CODE    15D6H     0027H     UNIT         ?PR?_WRITE_DS18B20?ONEWIRE
            CODE    15FDH     0027H     UNIT         ?PR?INIT_DS18B20?ONEWIRE
            CODE    1624H     0026H     UNIT         ?PR?I2CRECEIVEBYTE?IIC
            CODE    164AH     0026H     UNIT         ?PR?I2CWAITACK?IIC
            CODE    1670H     0025H     UNIT         ?PR?_AD_READ?IIC
            CODE    1695H     0023H     UNIT         ?PR?_BEEP?LED
            CODE    16B8H     0023H     UNIT         ?PR?_RELAY?LED
            CODE    16DBH     0023H     UNIT         ?PR?READ_DS18B20?ONEWIRE
            CODE    16FEH     001EH     UNIT         ?PR?_DELAY_ONEWIRE?ONEWIRE
            CODE    171CH     001DH     UNIT         ?PR?SYSTEM_INIT?INIT
            CODE    1739H     001CH     UNIT         ?PR?_WRITE_DS1302?DS1302
            CODE    1755H     001AH     UNIT         ?PR?_I2C_DELAY?IIC
            CODE    176FH     001AH     UNIT         ?PR?UWAVE_INIT?UWAVE
            CODE    1789H     0017H     UNIT         ?PR?UART_INIT?UART
            CODE    17A0H     0015H     UNIT         ?PR?TIMER1_INIT?MAIN
            CODE    17B5H     0015H     UNIT         ?PR?_DA_WRITE?IIC
            CODE    17CAH     0014H     UNIT         ?PR?_WRITE_DS1302_BYTE?DS1302
            CODE    17DEH     0013H     UNIT         ?PR?TIMER0_INIT?MAIN
            CODE    17F1H     0013H     UNIT         ?CO?SEG
            CODE    1804H     000FH     UNIT         ?PR?I2CSTART?IIC
            CODE    1813H     000CH     UNIT         ?PR?I2CSTOP?IIC
            CODE    181FH     0008H     UNIT         ?PR?_PUTCHAR?UART
            CODE    1827H     0007H     UNIT         ?PR?DELAY12US?UWAVE


BL51 BANKED LINKER/LOCATER V6.22.2.0                                                  05/27/2024  17:50:23  PAGE 3



OVERLAY MAP OF MODULE:   .\Objects\project (MAIN)


SEGMENT                                  BIT_GROUP          DATA_GROUP 
  +--> CALLED SEGMENT                 START    LENGTH     START    LENGTH
-------------------------------------------------------------------------
?PR?TIMER1_SERVE?MAIN                 -----    -----      -----    -----
  +--> ?PR?_SEG_SHOW?SEG
  +--> ?PR?_LED_SHOW?LED

?PR?_SEG_SHOW?SEG                     -----    -----      -----    -----
  +--> ?CO?SEG

*** NEW ROOT ***************************************************

?C_C51STARTUP                         -----    -----      -----    -----
  +--> ?PR?MAIN?MAIN
  +--> ?C_INITSEG

?PR?MAIN?MAIN                         -----    -----      0022H    0001H
  +--> ?PR?SYSTEM_INIT?INIT
  +--> ?PR?TIMER1_INIT?MAIN
  +--> ?PR?TIMER0_INIT?MAIN
  +--> ?PR?UART_INIT?UART
  +--> ?PR?DS18B20_READ_T?ONEWIRE
  +--> ?PR?_EEPROM_READ?IIC
  +--> ?PR?_EEPROM_WRITE?IIC
  +--> ?PR?_DS1302_WRITE_RTC?DS1302
  +--> ?PR?KEY_DEAL?MAIN
  +--> ?PR?SEG_DEAL?MAIN
  +--> ?PR?LED_DEAL?MAIN
  +--> ?PR?UART_DEAL?MAIN
  +--> ?PR?INFOR_DEAL?MAIN

?PR?DS18B20_READ_T?ONEWIRE            -----    -----      -----    -----
  +--> ?PR?INIT_DS18B20?ONEWIRE
  +--> ?PR?_WRITE_DS18B20?ONEWIRE
  +--> ?PR?READ_DS18B20?ONEWIRE

?PR?INIT_DS18B20?ONEWIRE              0020H.0  0000H.1    -----    -----
  +--> ?PR?_DELAY_ONEWIRE?ONEWIRE

?PR?_WRITE_DS18B20?ONEWIRE            -----    -----      -----    -----
  +--> ?PR?_DELAY_ONEWIRE?ONEWIRE

?PR?READ_DS18B20?ONEWIRE              -----    -----      -----    -----
  +--> ?PR?_DELAY_ONEWIRE?ONEWIRE

?PR?_EEPROM_READ?IIC                  -----    -----      0023H    0007H
  +--> ?PR?I2CWAITACK?IIC
  +--> ?PR?I2CSTART?IIC
  +--> ?PR?_I2CSENDBYTE?IIC
  +--> ?PR?I2CRECEIVEBYTE?IIC
  +--> ?PR?_I2CSENDACK?IIC
  +--> ?PR?I2CSTOP?IIC

BL51 BANKED LINKER/LOCATER V6.22.2.0                                                  05/27/2024  17:50:23  PAGE 4


?PR?I2CWAITACK?IIC                    -----    -----      -----    -----
  +--> ?PR?I2CSTART?IIC
  +--> ?PR?_I2CSENDBYTE?IIC
  +--> ?PR?_I2C_DELAY?IIC

?PR?I2CSTART?IIC                      -----    -----      -----    -----
  +--> ?PR?_I2C_DELAY?IIC

?PR?_I2CSENDBYTE?IIC                  -----    -----      -----    -----
  +--> ?PR?_I2C_DELAY?IIC

?PR?I2CRECEIVEBYTE?IIC                -----    -----      -----    -----
  +--> ?PR?_I2C_DELAY?IIC

?PR?_I2CSENDACK?IIC                   -----    -----      -----    -----
  +--> ?PR?_I2C_DELAY?IIC

?PR?I2CSTOP?IIC                       -----    -----      -----    -----
  +--> ?PR?_I2C_DELAY?IIC

?PR?_EEPROM_WRITE?IIC                 -----    -----      0023H    0007H
  +--> ?PR?I2CWAITACK?IIC
  +--> ?PR?_I2CSENDBYTE?IIC
  +--> ?PR?_I2C_DELAY?IIC
  +--> ?PR?I2CSTOP?IIC

?PR?_DS1302_WRITE_RTC?DS1302          -----    -----      0023H    0003H
  +--> ?PR?_WRITE_DS1302_BYTE?DS1302

?PR?_WRITE_DS1302_BYTE?DS1302         -----    -----      -----    -----
  +--> ?PR?_WRITE_DS1302?DS1302

?PR?KEY_DEAL?MAIN                     -----    -----      -----    -----
  +--> ?PR?KEY_READ?KEY
  +--> ?PR?_EEPROM_WRITE?IIC
  +--> ?PR?_DS1302_WRITE_RTC?DS1302
  +--> ?CO?MAIN
  +--> ?PR?PRINTF?PRINTF

?PR?PRINTF?PRINTF                     0020H.0  0001H.1    0023H    001CH
  +--> ?PR?_PUTCHAR?UART

?PR?UART_DEAL?MAIN                    -----    -----      -----    -----
  +--> ?CO?MAIN
  +--> ?PR?PRINTF?PRINTF

?PR?INFOR_DEAL?MAIN                   -----    -----      -----    -----
  +--> ?PR?_DA_WRITE?IIC
  +--> ?PR?_BEEP?LED
  +--> ?PR?_RELAY?LED
  +--> ?PR?_DS1302_READ_RTC?DS1302
  +--> ?PR?DS18B20_READ_T?ONEWIRE
  +--> ?PR?_AD_READ?IIC
  +--> ?PR?UWAVE_READ_DIST?UWAVE

?PR?_DA_WRITE?IIC                     -----    -----      -----    -----
  +--> ?PR?I2CSTART?IIC
BL51 BANKED LINKER/LOCATER V6.22.2.0                                                  05/27/2024  17:50:23  PAGE 5


  +--> ?PR?_I2CSENDBYTE?IIC
  +--> ?PR?I2CWAITACK?IIC
  +--> ?PR?I2CSTOP?IIC

?PR?_DS1302_READ_RTC?DS1302           -----    -----      0023H    0004H
  +--> ?PR?_READ_DS1302_BYTE?DS1302

?PR?_READ_DS1302_BYTE?DS1302          -----    -----      -----    -----
  +--> ?PR?_WRITE_DS1302?DS1302

?PR?_AD_READ?IIC                      -----    -----      -----    -----
  +--> ?PR?I2CSTART?IIC
  +--> ?PR?I2CWAITACK?IIC
  +--> ?PR?_I2CSENDBYTE?IIC
  +--> ?PR?I2CRECEIVEBYTE?IIC
  +--> ?PR?_I2CSENDACK?IIC
  +--> ?PR?I2CSTOP?IIC

?PR?UWAVE_READ_DIST?UWAVE             -----    -----      -----    -----
  +--> ?PR?UWAVE_INIT?UWAVE

?PR?UWAVE_INIT?UWAVE                  -----    -----      -----    -----
  +--> ?PR?DELAY12US?UWAVE



SYMBOL TABLE OF MODULE:  .\Objects\project (MAIN)

  VALUE           TYPE          NAME
  ----------------------------------

  -------         MODULE        MAIN
  C:0000H         SYMBOL        _ICE_DUMMY_
  D:0043H         PUBLIC        Uart_Ticks
  D:0080H         PUBLIC        P0
  D:0090H         PUBLIC        P1
  D:00A0H         PUBLIC        P2
  C:0F1BH         PUBLIC        Key_Deal
  D:00B0H         PUBLIC        P3
  D:00C0H         PUBLIC        P4
  B:0021H.1       PUBLIC        Seg_Slow_Flag
  D:00C8H         PUBLIC        P5
  B:00A8H.7       PUBLIC        EA
  D:00E8H         PUBLIC        P6
  C:11ABH         PUBLIC        Uart_Serve
  D:00F8H         PUBLIC        P7
  D:0044H         PUBLIC        Seg_Show_Mode
  I:005AH         PUBLIC        Seg_Point
  D:00A8H         PUBLIC        IE
  B:0021H.2       PUBLIC        Key_Slow_Flag
  D:0045H         PUBLIC        Freq
  D:0047H         PUBLIC        Rtc_Real_Buf
  D:004AH         PUBLIC        Time_1000ms
  D:004CH         PUBLIC        Dist
  D:00B8H         PUBLIC        IP
  B:0098H.0       PUBLIC        RI
  C:0E27H         PUBLIC        Timer1_Serve
BL51 BANKED LINKER/LOCATER V6.22.2.0                                                  05/27/2024  17:50:23  PAGE 6


  I:0062H         PUBLIC        Seg_Buf
  D:004DH         PUBLIC        Slow_Down
  D:00D8H         PUBLIC        CCON
  D:004FH         PUBLIC        Uart_Rx_Index
  B:0021H.3       PUBLIC        Uart_Rx_Flag
  C:1219H         PUBLIC        main
  C:17DEH         PUBLIC        Timer0_Init
  C:17A0H         PUBLIC        Timer1_Init
  C:15ACH         PUBLIC        LED_Deal
  D:0099H         PUBLIC        SBUF
  D:0098H         PUBLIC        SCON
  D:0089H         PUBLIC        TMOD
  D:0088H         PUBLIC        TCON
  B:0021H.4       PUBLIC        LED_Slow_Flag
  D:0050H         PUBLIC        Time_75ms
  D:008EH         PUBLIC        AUXR
  D:0051H         PUBLIC        AD_DA_Data
  I:006AH         PUBLIC        Uart_Rx_Buf
  B:0088H.5       PUBLIC        TF0
  B:00A8H.3       PUBLIC        ET1
  B:0088H.7       PUBLIC        TF1
  D:008CH         PUBLIC        TH0
  D:008DH         PUBLIC        TH1
  D:008AH         PUBLIC        TL0
  D:008BH         PUBLIC        TL1
  D:0055H         PUBLIC        T
  I:007EH         PUBLIC        LED_Buf
  B:0088H.4       PUBLIC        TR0
  B:0088H.6       PUBLIC        TR1
  C:113BH         PUBLIC        Infor_Deal
  B:0021H.5       PUBLIC        Beep_Flag
  B:0021H.6       PUBLIC        Infor_Slow_Flag
  D:0059H         PUBLIC        i
  C:0CC2H         PUBLIC        Uart_Deal
  C:0AB1H         PUBLIC        Seg_Deal
  D:00D0H         PUBLIC        PSW
  -------         PROC          KEY_DEAL
  -------         DO            
  D:003FH         SYMBOL        Key_New
  D:0040H         SYMBOL        Key_Old
  D:0041H         SYMBOL        Key_UP
  D:0042H         SYMBOL        Key_Down
  -------         ENDDO         
  C:0F1BH         LINE#         43
  C:0F1BH         LINE#         44
  C:0F1BH         LINE#         48
  C:0F21H         LINE#         49
  C:0F23H         LINE#         51
  C:0F28H         LINE#         52
  C:0F33H         LINE#         53
  C:0F38H         LINE#         54
  C:0F3BH         LINE#         57
  C:0F4CH         LINE#         58
  C:0F4CH         LINE#         60
  C:0F4CH         LINE#         61
  C:0F59H         LINE#         62
  C:0F5AH         LINE#         64
BL51 BANKED LINKER/LOCATER V6.22.2.0                                                  05/27/2024  17:50:23  PAGE 7


  C:0F5AH         LINE#         65
  C:0F61H         LINE#         66
  C:0F61H         LINE#         67
  C:0F70H         LINE#         68
  C:0F72H         LINE#         69
  C:0F75H         LINE#         70
  C:0F75H         LINE#         71
  C:0F76H         LINE#         73
  C:0F76H         LINE#         74
  C:0F7DH         LINE#         75
  C:0F7DH         LINE#         76
  C:0F80H         LINE#         77
  C:0F83H         LINE#         78
  C:0F86H         LINE#         79
  C:0F8EH         LINE#         80
  C:0F8EH         LINE#         81
  C:0F8EH         LINE#         83
  C:0F8EH         LINE#         84
  C:0F91H         LINE#         85
  C:0F91H         LINE#         86
  C:0FA3H         LINE#         87
  C:0FA3H         LINE#         88
  C:0FBDH         LINE#         89
  C:0FD1H         LINE#         90
  C:0FE5H         LINE#         91
  C:0FF3H         LINE#         92
  C:1002H         LINE#         93
  C:1002H         LINE#         94
  C:1002H         LINE#         95
  C:1002H         LINE#         96
  C:1002H         LINE#         97
  -------         ENDPROC       KEY_DEAL
  -------         PROC          SEG_DEAL
  C:0AB1H         LINE#         100
  C:0AB1H         LINE#         101
  C:0AB1H         LINE#         102
  C:0AB7H         LINE#         103
  C:0AB9H         LINE#         105
  C:0AD7H         LINE#         106
  C:0AD7H         LINE#         108
  C:0AD7H         LINE#         109
  C:0ADBH         LINE#         110
  C:0ADDH         LINE#         111
  C:0AE6H         LINE#         112
  C:0AEFH         LINE#         113
  C:0AF2H         LINE#         114
  C:0AFAH         LINE#         115
  C:0B03H         LINE#         116
  C:0B06H         LINE#         117
  C:0B0EH         LINE#         118
  C:0B10H         LINE#         119
  C:0B13H         LINE#         121
  C:0B13H         LINE#         122
  C:0B17H         LINE#         123
  C:0B1AH         LINE#         124
  C:0B1EH         LINE#         125
  C:0B2CH         LINE#         126
BL51 BANKED LINKER/LOCATER V6.22.2.0                                                  05/27/2024  17:50:23  PAGE 8


  C:0B37H         LINE#         127
  C:0B4FH         LINE#         128
  C:0B57H         LINE#         129
  C:0B66H         LINE#         130
  C:0B68H         LINE#         132
  C:0B68H         LINE#         133
  C:0B6CH         LINE#         134
  C:0B6FH         LINE#         135
  C:0B7DH         LINE#         136
  C:0B88H         LINE#         137
  C:0B8CH         LINE#         138
  C:0BA0H         LINE#         139
  C:0BC0H         LINE#         140
  C:0BE0H         LINE#         141
  C:0BE1H         LINE#         143
  C:0BE1H         LINE#         144
  C:0BE5H         LINE#         145
  C:0BE7H         LINE#         146
  C:0BEBH         LINE#         147
  C:0BF2H         LINE#         148
  C:0C08H         LINE#         149
  C:0C1EH         LINE#         150
  C:0C34H         LINE#         151
  C:0C4AH         LINE#         152
  C:0C59H         LINE#         153
  C:0C67H         LINE#         154
  C:0C67H         LINE#         155
  C:0C6FH         LINE#         156
  C:0C76H         LINE#         158
  C:0C76H         LINE#         159
  C:0C7AH         LINE#         160
  C:0C7AH         LINE#         162
  C:0C7AH         LINE#         163
  C:0C7EH         LINE#         164
  C:0C80H         LINE#         165
  C:0C84H         LINE#         166
  C:0C92H         LINE#         167
  C:0C9DH         LINE#         168
  C:0CABH         LINE#         169
  C:0CB8H         LINE#         170
  C:0CC1H         LINE#         171
  C:0CC1H         LINE#         172
  C:0CC1H         LINE#         173
  -------         ENDPROC       SEG_DEAL
  -------         PROC          LED_DEAL
  C:15ACH         LINE#         176
  C:15ACH         LINE#         177
  C:15ACH         LINE#         178
  C:15AFH         LINE#         179
  C:15B1H         LINE#         182
  C:15BFH         LINE#         183
  C:15D5H         LINE#         184
  -------         ENDPROC       LED_DEAL
  -------         PROC          INFOR_DEAL
  C:113BH         LINE#         187
  C:113BH         LINE#         188
  C:113BH         LINE#         190
BL51 BANKED LINKER/LOCATER V6.22.2.0                                                  05/27/2024  17:50:23  PAGE 9


  C:1153H         LINE#         191
  C:115BH         LINE#         192
  C:116FH         LINE#         195
  C:1172H         LINE#         196
  C:1174H         LINE#         199
  C:117DH         LINE#         200
  C:1188H         LINE#         201
  C:11A5H         LINE#         202
  C:11AAH         LINE#         206
  -------         ENDPROC       INFOR_DEAL
  -------         PROC          UART_DEAL
  C:0CC2H         LINE#         209
  C:0CC2H         LINE#         210
  C:0CC2H         LINE#         211
  C:0CC9H         LINE#         213
  C:0CD7H         LINE#         214
  C:0CD7H         LINE#         215
  C:0CDCH         LINE#         217
  C:0CECH         LINE#         218
  C:0CECH         LINE#         220
  C:0CECH         LINE#         221
  C:0D19H         LINE#         222
  C:0D19H         LINE#         223
  C:0D34H         LINE#         224
  C:0D34H         LINE#         225
  C:0D44H         LINE#         226
  C:0D4EH         LINE#         227
  C:0D51H         LINE#         229
  C:0D61H         LINE#         230
  C:0D64H         LINE#         232
  C:0D73H         LINE#         233
  C:0D76H         LINE#         235
  C:0D76H         LINE#         236
  C:0DDAH         LINE#         238
  C:0DDAH         LINE#         239
  C:0DE8H         LINE#         240
  C:0DE8H         LINE#         241
  C:0DEDH         LINE#         242
  C:0DF3H         LINE#         243
  C:0DF5H         LINE#         245
  C:0DFBH         LINE#         246
  C:0DFDH         LINE#         248
  C:0E03H         LINE#         249
  C:0E05H         LINE#         251
  C:0E05H         LINE#         252
  C:0E14H         LINE#         253
  C:0E14H         LINE#         254
  C:0E14H         LINE#         257
  C:0E23H         LINE#         258
  C:0E26H         LINE#         259
  C:0E26H         LINE#         261
  -------         ENDPROC       UART_DEAL
  -------         PROC          TIMER0_INIT
  C:17DEH         LINE#         264
  C:17DEH         LINE#         265
  C:17DEH         LINE#         266
  C:17E1H         LINE#         267
BL51 BANKED LINKER/LOCATER V6.22.2.0                                                  05/27/2024  17:50:23  PAGE 10


  C:17E4H         LINE#         268
  C:17E7H         LINE#         269
  C:17EAH         LINE#         270
  C:17ECH         LINE#         271
  C:17EEH         LINE#         272
  C:17F0H         LINE#         273
  -------         ENDPROC       TIMER0_INIT
  -------         PROC          TIMER1_INIT
  C:17A0H         LINE#         274
  C:17A0H         LINE#         275
  C:17A0H         LINE#         276
  C:17A3H         LINE#         277
  C:17A6H         LINE#         278
  C:17A9H         LINE#         279
  C:17ACH         LINE#         280
  C:17AEH         LINE#         281
  C:17B0H         LINE#         282
  C:17B2H         LINE#         283
  C:17B4H         LINE#         284
  -------         ENDPROC       TIMER1_INIT
  -------         PROC          TIMER1_SERVE
  C:0E27H         LINE#         288
  C:0E44H         LINE#         290
  C:0E5DH         LINE#         291
  C:0E6EH         LINE#         292
  C:0E7FH         LINE#         293
  C:0E90H         LINE#         294
  C:0EA8H         LINE#         295
  C:0EB7H         LINE#         298
  C:0EC2H         LINE#         299
  C:0EC6H         LINE#         302
  C:0ED7H         LINE#         303
  C:0ED7H         LINE#         304
  C:0EE1H         LINE#         305
  C:0EEDH         LINE#         306
  C:0EEDH         LINE#         309
  C:0EFDH         LINE#         310
  C:0F00H         LINE#         311
  -------         ENDPROC       TIMER1_SERVE
  -------         PROC          UART_SERVE
  C:11ABH         LINE#         313
  C:11C8H         LINE#         316
  C:11CBH         LINE#         317
  C:11CBH         LINE#         318
  C:11D0H         LINE#         319
  C:11D2H         LINE#         320
  C:11DCH         LINE#         321
  C:11DCH         LINE#         323
  C:11E7H         LINE#         324
  C:11E7H         LINE#         325
  C:11F6H         LINE#         327
  C:11F9H         LINE#         328
  C:11FEH         LINE#         329
  C:11FEH         LINE#         330
  -------         ENDPROC       UART_SERVE
  -------         PROC          MAIN
  -------         DO            
BL51 BANKED LINKER/LOCATER V6.22.2.0                                                  05/27/2024  17:50:23  PAGE 11


  D:0022H         SYMBOL        PIN
  -------         ENDDO         
  C:1219H         LINE#         333
  C:1219H         LINE#         334
  C:1219H         LINE#         335
  C:121CH         LINE#         338
  C:121FH         LINE#         339
  C:1222H         LINE#         340
  C:1225H         LINE#         341
  C:1228H         LINE#         342
  C:122BH         LINE#         345
  C:123EH         LINE#         346
  C:1244H         LINE#         347
  C:1255H         LINE#         349
  C:1255H         LINE#         350
  C:1258H         LINE#         351
  C:126BH         LINE#         352
  C:126BH         LINE#         353
  C:1274H         LINE#         355
  C:1274H         LINE#         356
  C:1274H         LINE#         357
  C:1277H         LINE#         358
  C:127AH         LINE#         359
  C:127DH         LINE#         360
  C:1280H         LINE#         361
  C:1283H         LINE#         362
  -------         ENDPROC       MAIN
  -------         ENDMOD        MAIN

  -------         MODULE        ?C_STARTUP
  C:10AFH         SEGMENT       ?C_C51STARTUP
  I:0086H         SEGMENT       ?STACK
  C:0000H         PUBLIC        ?C_STARTUP
  D:00E0H         SYMBOL        ACC
  D:00F0H         SYMBOL        B
  D:0083H         SYMBOL        DPH
  D:0082H         SYMBOL        DPL
  N:0000H         SYMBOL        IBPSTACK
  N:0100H         SYMBOL        IBPSTACKTOP
  N:0080H         SYMBOL        IDATALEN
  C:10B2H         SYMBOL        IDATALOOP
  N:0000H         SYMBOL        PBPSTACK
  N:0100H         SYMBOL        PBPSTACKTOP
  N:0000H         SYMBOL        PDATALEN
  N:0000H         SYMBOL        PDATASTART
  N:0000H         SYMBOL        PPAGE
  N:0000H         SYMBOL        PPAGEENABLE
  D:00A0H         SYMBOL        PPAGE_SFR
  D:0081H         SYMBOL        SP
  C:10AFH         SYMBOL        STARTUP1
  N:0000H         SYMBOL        XBPSTACK
  N:0000H         SYMBOL        XBPSTACKTOP
  N:0000H         SYMBOL        XDATALEN
  N:0000H         SYMBOL        XDATASTART
  C:0000H         LINE#         126
  C:10AFH         LINE#         133
  C:10B1H         LINE#         134
BL51 BANKED LINKER/LOCATER V6.22.2.0                                                  05/27/2024  17:50:23  PAGE 12


  C:10B2H         LINE#         135
  C:10B3H         LINE#         136
  C:10B5H         LINE#         185
  C:10B8H         LINE#         196
  -------         ENDMOD        ?C_STARTUP

  -------         MODULE        INIT
  C:0000H         SYMBOL        _ICE_DUMMY_
  C:171CH         PUBLIC        System_Init
  D:0080H         PUBLIC        P0
  D:0090H         PUBLIC        P1
  D:00A0H         PUBLIC        P2
  D:00B0H         PUBLIC        P3
  D:00C0H         PUBLIC        P4
  D:00C8H         PUBLIC        P5
  D:00E8H         PUBLIC        P6
  D:00F8H         PUBLIC        P7
  D:00A8H         PUBLIC        IE
  D:00B8H         PUBLIC        IP
  D:00D8H         PUBLIC        CCON
  D:0098H         PUBLIC        SCON
  D:0088H         PUBLIC        TCON
  D:00D0H         PUBLIC        PSW
  -------         PROC          SYSTEM_INIT
  C:171CH         LINE#         5
  C:171CH         LINE#         6
  C:171CH         LINE#         7
  C:171FH         LINE#         8
  C:1727H         LINE#         9
  C:172AH         LINE#         11
  C:172DH         LINE#         12
  C:1735H         LINE#         13
  C:1738H         LINE#         14
  -------         ENDPROC       SYSTEM_INIT
  -------         ENDMOD        INIT

  -------         MODULE        KEY
  C:0000H         SYMBOL        _ICE_DUMMY_
  D:0080H         PUBLIC        P0
  D:0090H         PUBLIC        P1
  D:00A0H         PUBLIC        P2
  D:00B0H         PUBLIC        P3
  D:00C0H         PUBLIC        P4
  D:00C8H         PUBLIC        P5
  D:00E8H         PUBLIC        P6
  D:00F8H         PUBLIC        P7
  C:1285H         PUBLIC        Key_Read
  D:00A8H         PUBLIC        IE
  D:00B8H         PUBLIC        IP
  D:00D8H         PUBLIC        CCON
  B:00B0H.0       PUBLIC        P30
  D:0098H         PUBLIC        SCON
  B:00B0H.1       PUBLIC        P31
  D:0088H         PUBLIC        TCON
  B:00B0H.2       PUBLIC        P32
  B:00C0H.2       PUBLIC        P42
  B:00B0H.3       PUBLIC        P33
BL51 BANKED LINKER/LOCATER V6.22.2.0                                                  05/27/2024  17:50:23  PAGE 13


  B:00B0H.4       PUBLIC        P34
  B:00C0H.4       PUBLIC        P44
  B:00B0H.5       PUBLIC        P35
  B:00A8H.3       PUBLIC        ET1
  D:00D0H         PUBLIC        PSW
  -------         PROC          KEY_READ
  -------         DO            
  D:0007H         SYMBOL        temp
  -------         ENDDO         
  C:1285H         LINE#         4
  C:1285H         LINE#         5
  C:1285H         LINE#         6
  C:1287H         LINE#         7
  C:1289H         LINE#         13
  C:1291H         LINE#         14
  C:1296H         LINE#         15
  C:129BH         LINE#         16
  C:12A0H         LINE#         17
  C:12A5H         LINE#         18
  C:12ADH         LINE#         19
  C:12B2H         LINE#         20
  C:12B7H         LINE#         21
  C:12BCH         LINE#         22
  C:12C1H         LINE#         23
  C:12C9H         LINE#         24
  C:12CEH         LINE#         25
  C:12D3H         LINE#         26
  C:12D8H         LINE#         27
  C:12DDH         LINE#         28
  C:12E0H         LINE#         29
  C:12E2H         LINE#         30
  C:12E2H         LINE#         31
  -------         ENDPROC       KEY_READ
  -------         ENDMOD        KEY

  -------         MODULE        SEG
  C:0000H         SYMBOL        _ICE_DUMMY_
  D:0080H         PUBLIC        P0
  D:0090H         PUBLIC        P1
  D:00A0H         PUBLIC        P2
  D:00B0H         PUBLIC        P3
  D:00C0H         PUBLIC        P4
  D:00C8H         PUBLIC        P5
  D:00E8H         PUBLIC        P6
  D:00F8H         PUBLIC        P7
  D:00A8H         PUBLIC        IE
  D:00B8H         PUBLIC        IP
  C:138AH         PUBLIC        _Seg_Show
  D:00D8H         PUBLIC        CCON
  D:0098H         PUBLIC        SCON
  D:0088H         PUBLIC        TCON
  C:17F1H         PUBLIC        Seg_Table
  D:00D0H         PUBLIC        PSW
  -------         PROC          _SEG_SHOW
  D:0007H         SYMBOL        addr
  D:0004H         SYMBOL        Table
  D:0002H         SYMBOL        Point
BL51 BANKED LINKER/LOCATER V6.22.2.0                                                  05/27/2024  17:50:23  PAGE 14


  C:138AH         LINE#         28
  C:138AH         LINE#         29
  C:138AH         LINE#         30
  C:138DH         LINE#         31
  C:1395H         LINE#         32
  C:1398H         LINE#         34
  C:13A5H         LINE#         35
  C:13ADH         LINE#         36
  C:13B0H         LINE#         38
  C:13BEH         LINE#         39
  C:13C2H         LINE#         40
  C:13C5H         LINE#         41
  C:13CDH         LINE#         42
  C:13D0H         LINE#         43
  -------         ENDPROC       _SEG_SHOW
  -------         ENDMOD        SEG

  -------         MODULE        LED
  C:0000H         SYMBOL        _ICE_DUMMY_
  C:16B8H         PUBLIC        _Relay
  D:0080H         PUBLIC        P0
  D:0090H         PUBLIC        P1
  D:00A0H         PUBLIC        P2
  D:00B0H         PUBLIC        P3
  D:00C0H         PUBLIC        P4
  D:00C8H         PUBLIC        P5
  D:00E8H         PUBLIC        P6
  D:00F8H         PUBLIC        P7
  D:00A8H         PUBLIC        IE
  D:00B8H         PUBLIC        IP
  D:00D8H         PUBLIC        CCON
  D:0098H         PUBLIC        SCON
  D:0088H         PUBLIC        TCON
  D:000AH         PUBLIC        temp_old
  C:1495H         PUBLIC        _LED_Show
  D:000BH         PUBLIC        temp_new
  D:00D0H         PUBLIC        PSW
  C:1695H         PUBLIC        _Beep
  -------         PROC          _LED_SHOW
  D:0007H         SYMBOL        addr
  D:0004H         SYMBOL        enable
  -------         DO            
  D:0008H         SYMBOL        temp_new
  D:0009H         SYMBOL        temp_old
  -------         ENDDO         
  C:1495H         LINE#         4
  C:1495H         LINE#         5
  C:1495H         LINE#         9
  C:1499H         LINE#         10
  C:14A8H         LINE#         12
  C:14B6H         LINE#         14
  C:14BCH         LINE#         15
  C:14BCH         LINE#         16
  C:14C1H         LINE#         17
  C:14C9H         LINE#         18
  C:14CCH         LINE#         19
  C:14CFH         LINE#         20
BL51 BANKED LINKER/LOCATER V6.22.2.0                                                  05/27/2024  17:50:23  PAGE 15


  C:14CFH         LINE#         21
  -------         ENDPROC       _LED_SHOW
  -------         PROC          _BEEP
  D:0007H         SYMBOL        enable
  C:1695H         LINE#         26
  C:1695H         LINE#         27
  C:1695H         LINE#         28
  C:1698H         LINE#         29
  C:169DH         LINE#         31
  C:16A0H         LINE#         33
  C:16A6H         LINE#         34
  C:16A6H         LINE#         35
  C:16A9H         LINE#         36
  C:16B1H         LINE#         37
  C:16B4H         LINE#         38
  C:16B7H         LINE#         39
  C:16B7H         LINE#         40
  -------         ENDPROC       _BEEP
  -------         PROC          _RELAY
  D:0007H         SYMBOL        enable
  C:16B8H         LINE#         42
  C:16B8H         LINE#         43
  C:16B8H         LINE#         44
  C:16BBH         LINE#         45
  C:16C0H         LINE#         47
  C:16C3H         LINE#         49
  C:16C9H         LINE#         50
  C:16C9H         LINE#         51
  C:16CCH         LINE#         52
  C:16D4H         LINE#         53
  C:16D7H         LINE#         54
  C:16DAH         LINE#         55
  C:16DAH         LINE#         56
  -------         ENDPROC       _RELAY
  -------         ENDMOD        LED

  -------         MODULE        UART
  C:0000H         SYMBOL        _ICE_DUMMY_
  D:0080H         PUBLIC        P0
  D:0090H         PUBLIC        P1
  D:00A0H         PUBLIC        P2
  D:00B0H         PUBLIC        P3
  D:00C0H         PUBLIC        P4
  D:00C8H         PUBLIC        P5
  B:00A8H.7       PUBLIC        EA
  D:00E8H         PUBLIC        P6
  D:00F8H         PUBLIC        P7
  D:00A8H         PUBLIC        IE
  C:1789H         PUBLIC        Uart_Init
  B:00A8H.4       PUBLIC        ES
  D:00B8H         PUBLIC        IP
  B:0098H.1       PUBLIC        TI
  D:00D8H         PUBLIC        CCON
  D:0099H         PUBLIC        SBUF
  D:0098H         PUBLIC        SCON
  D:0088H         PUBLIC        TCON
  D:008EH         PUBLIC        AUXR
BL51 BANKED LINKER/LOCATER V6.22.2.0                                                  05/27/2024  17:50:23  PAGE 16


  D:00D6H         PUBLIC        T2H
  D:00D7H         PUBLIC        T2L
  D:00D0H         PUBLIC        PSW
  C:181FH         PUBLIC        _putchar
  -------         PROC          UART_INIT
  C:1789H         LINE#         6
  C:1789H         LINE#         7
  C:1789H         LINE#         8
  C:178CH         LINE#         9
  C:178FH         LINE#         10
  C:1792H         LINE#         11
  C:1795H         LINE#         12
  C:1798H         LINE#         13
  C:179BH         LINE#         14
  C:179DH         LINE#         15
  C:179FH         LINE#         16
  -------         ENDPROC       UART_INIT
  -------         PROC          _PUTCHAR
  D:0007H         SYMBOL        c
  C:181FH         LINE#         18
  C:181FH         LINE#         19
  C:181FH         LINE#         20
  C:1821H         LINE#         21
  C:1824H         LINE#         22
  C:1826H         LINE#         23
  C:1826H         LINE#         24
  -------         ENDPROC       _PUTCHAR
  -------         ENDMOD        UART

  -------         MODULE        ONEWIRE
  C:0000H         SYMBOL        _ICE_DUMMY_
  D:0080H         PUBLIC        P0
  D:0090H         PUBLIC        P1
  D:00A0H         PUBLIC        P2
  D:00B0H         PUBLIC        P3
  D:00C0H         PUBLIC        P4
  C:16DBH         PUBLIC        Read_DS18B20
  D:00C8H         PUBLIC        P5
  D:00E8H         PUBLIC        P6
  D:00F8H         PUBLIC        P7
  D:00A8H         PUBLIC        IE
  C:1702H         PUBLIC        _Delay_OneWire
  C:15D6H         PUBLIC        _Write_DS18B20
  B:0090H.4       PUBLIC        DQ
  D:00B8H         PUBLIC        IP
  C:15FDH         PUBLIC        init_ds18b20
  D:00D8H         PUBLIC        CCON
  D:0098H         PUBLIC        SCON
  D:0088H         PUBLIC        TCON
  C:1578H         PUBLIC        DS18B20_Read_T
  D:00D0H         PUBLIC        PSW
  C:16FEH         SYMBOL        L?0020
  -------         PROC          L?0019
  -------         ENDPROC       L?0019
  C:16FEH         SYMBOL        L?0020
  -------         PROC          _DELAY_ONEWIRE
  D:0006H         SYMBOL        t
BL51 BANKED LINKER/LOCATER V6.22.2.0                                                  05/27/2024  17:50:23  PAGE 17


  -------         DO            
  D:0005H         SYMBOL        i
  -------         ENDDO         
  C:1702H         LINE#         12
  C:1702H         LINE#         13
  C:1702H         LINE#         15
  C:170CH         LINE#         16
  C:171BH         LINE#         17
  C:171BH         LINE#         18
  -------         ENDPROC       _DELAY_ONEWIRE
  -------         PROC          _WRITE_DS18B20
  D:0001H         SYMBOL        dat
  -------         DO            
  D:0003H         SYMBOL        i
  -------         ENDDO         
  C:15D6H         LINE#         21
  C:15D8H         LINE#         22
  C:15D8H         LINE#         24
  C:15E4H         LINE#         25
  C:15E4H         LINE#         26
  C:15E6H         LINE#         27
  C:15EAH         LINE#         28
  C:15EDH         LINE#         29
  C:15EFH         LINE#         30
  C:15F3H         LINE#         31
  C:15F6H         LINE#         32
  -------         ENDPROC       _WRITE_DS18B20
  -------         PROC          READ_DS18B20
  -------         DO            
  D:0003H         SYMBOL        i
  D:0004H         SYMBOL        dat
  -------         ENDDO         
  C:16DBH         LINE#         36
  C:16DBH         LINE#         37
  C:16DBH         LINE#         41
  C:16E7H         LINE#         42
  C:16E7H         LINE#         43
  C:16E9H         LINE#         44
  C:16EDH         LINE#         45
  C:16EFH         LINE#         46
  C:16F2H         LINE#         47
  C:16F2H         LINE#         48
  C:16F5H         LINE#         49
  C:16F5H         LINE#         50
  C:16F8H         LINE#         51
  C:16FBH         LINE#         52
  C:16FDH         LINE#         53
  -------         ENDPROC       READ_DS18B20
  -------         PROC          INIT_DS18B20
  -------         DO            
  B:0020H.0       SYMBOL        initflag
  -------         ENDDO         
  C:15FDH         LINE#         56
  C:15FDH         LINE#         57
  C:15FDH         LINE#         58
  C:15FFH         LINE#         60
  C:1601H         LINE#         61
BL51 BANKED LINKER/LOCATER V6.22.2.0                                                  05/27/2024  17:50:23  PAGE 18


  C:1608H         LINE#         62
  C:160AH         LINE#         63
  C:1611H         LINE#         64
  C:1613H         LINE#         65
  C:161AH         LINE#         66
  C:161EH         LINE#         67
  C:1621H         LINE#         69
  C:1623H         LINE#         70
  -------         ENDPROC       INIT_DS18B20
  -------         PROC          DS18B20_READ_T
  -------         DO            
  D:0001H         SYMBOL        low
  D:0007H         SYMBOL        high
  -------         ENDDO         
  C:1578H         LINE#         71
  C:1578H         LINE#         72
  C:1578H         LINE#         74
  C:157BH         LINE#         75
  C:1580H         LINE#         76
  C:1585H         LINE#         77
  C:1588H         LINE#         78
  C:158DH         LINE#         79
  C:1592H         LINE#         80
  C:1597H         LINE#         81
  C:159AH         LINE#         83
  -------         ENDPROC       DS18B20_READ_T
  -------         ENDMOD        ONEWIRE

  -------         MODULE        IIC
  C:0000H         SYMBOL        _ICE_DUMMY_
  D:0080H         PUBLIC        P0
  D:0090H         PUBLIC        P1
  D:00A0H         PUBLIC        P2
  D:00B0H         PUBLIC        P3
  D:00C0H         PUBLIC        P4
  D:00C8H         PUBLIC        P5
  D:00E8H         PUBLIC        P6
  D:00F8H         PUBLIC        P7
  D:00A8H         PUBLIC        IE
  C:1759H         SYMBOL        _I2C_Delay
  D:00B8H         PUBLIC        IP
  C:1624H         PUBLIC        I2CReceiveByte
  D:00D8H         PUBLIC        CCON
  C:1340H         PUBLIC        _EEPROM_Read
  D:0098H         PUBLIC        SCON
  D:0088H         PUBLIC        TCON
  B:00A0H.1       PUBLIC        sda
  C:150BH         PUBLIC        _EEPROM_Write
  B:00A0H.0       PUBLIC        scl
  C:1804H         PUBLIC        I2CStart
  C:0003H         PUBLIC        _I2CSendAck
  C:1543H         PUBLIC        _I2CSendByte
  C:1670H         PUBLIC        _AD_Read
  C:165EH         PUBLIC        I2CWaitAck
  C:1813H         PUBLIC        I2CStop
  C:17B5H         PUBLIC        _DA_Write
  D:00D0H         PUBLIC        PSW
BL51 BANKED LINKER/LOCATER V6.22.2.0                                                  05/27/2024  17:50:23  PAGE 19


  C:1755H         SYMBOL        L?0038
  -------         PROC          L?0037
  -------         ENDPROC       L?0037
  C:1755H         SYMBOL        L?0038
  -------         PROC          _I2C_DELAY
  D:0007H         SYMBOL        n
  C:1759H         LINE#         16
  C:1759H         LINE#         17
  C:1759H         LINE#         19
  C:1759H         LINE#         20
  C:175EH         LINE#         21
  C:1763H         LINE#         22
  C:1768H         LINE#         23
  C:1768H         LINE#         24
  C:176EH         LINE#         25
  -------         ENDPROC       _I2C_DELAY
  -------         PROC          I2CSTART
  C:1804H         LINE#         28
  C:1804H         LINE#         29
  C:1804H         LINE#         30
  C:1806H         LINE#         31
  C:1806H         LINE#         32
  C:1809H         LINE#         33
  C:180BH         LINE#         34
  C:1810H         LINE#         35
  C:1812H         LINE#         36
  -------         ENDPROC       I2CSTART
  -------         PROC          I2CSTOP
  C:1813H         LINE#         39
  C:1813H         LINE#         40
  C:1813H         LINE#         41
  C:1815H         LINE#         42
  C:1815H         LINE#         43
  C:1818H         LINE#         44
  C:181AH         LINE#         45
  -------         ENDPROC       I2CSTOP
  -------         PROC          _I2CSENDBYTE
  D:0005H         SYMBOL        byt
  -------         DO            
  D:0004H         SYMBOL        i
  -------         ENDDO         
  C:1543H         LINE#         49
  C:1545H         LINE#         50
  C:1545H         LINE#         53
  C:1551H         LINE#         54
  C:1553H         LINE#         55
  C:1558H         LINE#         56
  C:155CH         LINE#         57
  C:155EH         LINE#         58
  C:1560H         LINE#         59
  C:1560H         LINE#         60
  C:1562H         LINE#         61
  C:1562H         LINE#         62
  C:1567H         LINE#         63
  C:1569H         LINE#         64
  C:156DH         LINE#         65
  C:1572H         LINE#         66
BL51 BANKED LINKER/LOCATER V6.22.2.0                                                  05/27/2024  17:50:23  PAGE 20


  C:1575H         LINE#         68
  C:1577H         LINE#         69
  -------         ENDPROC       _I2CSENDBYTE
  -------         PROC          I2CRECEIVEBYTE
  -------         DO            
  D:0005H         SYMBOL        da
  D:0004H         SYMBOL        i
  -------         ENDDO         
  C:1624H         LINE#         72
  C:1624H         LINE#         73
  C:1624H         LINE#         76
  C:1630H         LINE#         77
  C:1630H         LINE#         78
  C:1633H         LINE#         79
  C:1637H         LINE#         80
  C:163AH         LINE#         81
  C:163DH         LINE#         82
  C:163FH         LINE#         83
  C:1644H         LINE#         84
  C:1647H         LINE#         85
  C:1649H         LINE#         86
  -------         ENDPROC       I2CRECEIVEBYTE
  C:1653H         SYMBOL        L?0036
  -------         PROC          L?0035
  -------         ENDPROC       L?0035
  C:1653H         SYMBOL        L?0036
  -------         PROC          I2CWAITACK
  -------         DO            
  D:0005H         SYMBOL        ackbit
  -------         ENDDO         
  C:165EH         LINE#         89
  C:165EH         LINE#         90
  C:165EH         LINE#         93
  C:165EH         LINE#         94
  C:1661H         LINE#         95
  C:1666H         LINE#         96
  C:1668H         LINE#         97
  C:166DH         LINE#         99
  C:166FH         LINE#         100
  -------         ENDPROC       I2CWAITACK
  -------         PROC          _I2CSENDACK
  D:0007H         SYMBOL        ackbit
  C:0003H         LINE#         103
  C:0003H         LINE#         104
  C:0003H         LINE#         105
  C:0005H         LINE#         106
  C:000AH         LINE#         107
  C:000FH         LINE#         108
  C:000FH         LINE#         109
  C:0012H         LINE#         110
  C:0014H         LINE#         111
  C:0016H         LINE#         112
  -------         ENDPROC       _I2CSENDACK
  -------         PROC          _AD_READ
  D:0003H         SYMBOL        addr
  -------         DO            
  D:0005H         SYMBOL        Temp
BL51 BANKED LINKER/LOCATER V6.22.2.0                                                  05/27/2024  17:50:23  PAGE 21


  -------         ENDDO         
  C:1670H         LINE#         115
  C:1672H         LINE#         116
  C:1672H         LINE#         118
  C:1675H         LINE#         119
  C:1677H         LINE#         120
  C:1677H         LINE#         121
  C:1677H         LINE#         122
  C:167AH         LINE#         123
  C:167DH         LINE#         124
  C:1682H         LINE#         125
  C:1685H         LINE#         126
  C:168AH         LINE#         127
  C:168FH         LINE#         128
  C:1692H         LINE#         129
  C:1694H         LINE#         130
  -------         ENDPROC       _AD_READ
  -------         PROC          _DA_WRITE
  D:0003H         SYMBOL        dat
  C:17B5H         LINE#         132
  C:17B7H         LINE#         133
  C:17B7H         LINE#         134
  C:17BAH         LINE#         135
  C:17BFH         LINE#         136
  C:17C2H         LINE#         137
  C:17C4H         LINE#         138
  C:17C4H         LINE#         139
  C:17C4H         LINE#         140
  C:17C7H         LINE#         141
  -------         ENDPROC       _DA_WRITE
  -------         PROC          _EEPROM_WRITE
  D:0023H         SYMBOL        pAT
  D:0002H         SYMBOL        addr
  D:0028H         SYMBOL        num
  C:150BH         LINE#         144
  C:1511H         LINE#         145
  C:1511H         LINE#         146
  C:1511H         LINE#         147
  C:1511H         LINE#         148
  C:1511H         LINE#         149
  C:1511H         LINE#         150
  C:1514H         LINE#         151
  C:1521H         LINE#         152
  C:1521H         LINE#         153
  C:1536H         LINE#         154
  C:1539H         LINE#         155
  C:153EH         LINE#         156
  C:1540H         LINE#         157
  -------         ENDPROC       _EEPROM_WRITE
  -------         PROC          _EEPROM_READ
  D:0023H         SYMBOL        pAT
  D:0002H         SYMBOL        addr
  D:0028H         SYMBOL        num
  C:1340H         LINE#         160
  C:1346H         LINE#         161
  C:1346H         LINE#         162
  C:1346H         LINE#         163
BL51 BANKED LINKER/LOCATER V6.22.2.0                                                  05/27/2024  17:50:23  PAGE 22


  C:1346H         LINE#         164
  C:1346H         LINE#         165
  C:1346H         LINE#         166
  C:1349H         LINE#         168
  C:134CH         LINE#         169
  C:1351H         LINE#         170
  C:1354H         LINE#         171
  C:1361H         LINE#         172
  C:1361H         LINE#         173
  C:1376H         LINE#         174
  C:1380H         LINE#         175
  C:1385H         LINE#         176
  C:1387H         LINE#         177
  -------         ENDPROC       _EEPROM_READ
  -------         ENDMOD        IIC

  -------         MODULE        UWAVE
  C:0000H         SYMBOL        _ICE_DUMMY_
  D:0080H         PUBLIC        P0
  D:0090H         PUBLIC        P1
  C:176FH         PUBLIC        Uwave_Init
  D:00A0H         PUBLIC        P2
  D:00B0H         PUBLIC        P3
  D:00C0H         PUBLIC        P4
  D:00C8H         PUBLIC        P5
  D:00E8H         PUBLIC        P6
  D:00F8H         PUBLIC        P7
  B:00D8H.7       PUBLIC        CF
  D:00F9H         PUBLIC        CH
  D:00A8H         PUBLIC        IE
  D:00E9H         PUBLIC        CL
  B:00D8H.6       PUBLIC        CR
  D:00B8H         PUBLIC        IP
  D:00D9H         PUBLIC        CMOD
  D:00D8H         PUBLIC        CCON
  D:0098H         PUBLIC        SCON
  D:0088H         PUBLIC        TCON
  C:1827H         PUBLIC        Delay12us
  B:0090H.1       PUBLIC        Rx
  B:0090H.0       PUBLIC        Tx
  C:14D0H         PUBLIC        Uwave_Read_Dist
  D:00D0H         PUBLIC        PSW
  -------         PROC          DELAY12US
  -------         DO            
  D:0007H         SYMBOL        i
  -------         ENDDO         
  C:1827H         LINE#         8
  C:1827H         LINE#         9
  C:1827H         LINE#         12
  C:1828H         LINE#         13
  C:1829H         LINE#         14
  C:182BH         LINE#         15
  C:182DH         LINE#         16
  -------         ENDPROC       DELAY12US
  -------         PROC          UWAVE_INIT
  -------         DO            
  D:0006H         SYMBOL        i
BL51 BANKED LINKER/LOCATER V6.22.2.0                                                  05/27/2024  17:50:23  PAGE 23


  -------         ENDDO         
  C:176FH         LINE#         18
  C:176FH         LINE#         19
  C:176FH         LINE#         20
  C:1771H         LINE#         21
  C:177BH         LINE#         22
  C:177BH         LINE#         23
  C:177DH         LINE#         24
  C:1780H         LINE#         25
  C:1782H         LINE#         26
  C:1785H         LINE#         27
  C:1788H         LINE#         28
  -------         ENDPROC       UWAVE_INIT
  -------         PROC          UWAVE_READ_DIST
  -------         DO            
  D:0004H         SYMBOL        time
  -------         ENDDO         
  C:14D0H         LINE#         30
  C:14D0H         LINE#         31
  C:14D0H         LINE#         32
  C:14D3H         LINE#         33
  C:14D5H         LINE#         34
  C:14D9H         LINE#         35
  C:14DCH         LINE#         36
  C:14DEH         LINE#         37
  C:14E4H         LINE#         38
  C:14E6H         LINE#         39
  C:14E9H         LINE#         40
  C:14E9H         LINE#         41
  C:14EBH         LINE#         42
  C:14EEH         LINE#         43
  C:14EEH         LINE#         45
  C:14EEH         LINE#         46
  C:14F5H         LINE#         47
  C:150AH         LINE#         48
  C:150AH         LINE#         49
  -------         ENDPROC       UWAVE_READ_DIST
  -------         ENDMOD        UWAVE

  -------         MODULE        DS1302
  C:0000H         SYMBOL        _ICE_DUMMY_
  D:0080H         PUBLIC        P0
  D:0090H         PUBLIC        P1
  D:00A0H         PUBLIC        P2
  D:00B0H         PUBLIC        P3
  D:00C0H         PUBLIC        P4
  D:00C8H         PUBLIC        P5
  D:00E8H         PUBLIC        P6
  D:00F8H         PUBLIC        P7
  D:00A8H         PUBLIC        IE
  D:00B8H         PUBLIC        IP
  D:00D8H         PUBLIC        CCON
  D:0098H         PUBLIC        SCON
  D:0088H         PUBLIC        TCON
  C:1418H         PUBLIC        _DS1302_Read_Rtc
  C:13DBH         PUBLIC        _Read_Ds1302_Byte
  B:00A0H.3       PUBLIC        SDA
BL51 BANKED LINKER/LOCATER V6.22.2.0                                                  05/27/2024  17:50:23  PAGE 24


  C:12E3H         PUBLIC        _DS1302_Write_Rtc
  B:0090H.7       PUBLIC        SCK
  C:17CAH         PUBLIC        _Write_Ds1302_Byte
  C:1739H         PUBLIC        _Write_Ds1302
  B:0090H.3       PUBLIC        RST
  D:00D0H         PUBLIC        PSW
  -------         PROC          _WRITE_DS1302
  D:0007H         SYMBOL        temp
  -------         DO            
  D:0006H         SYMBOL        i
  -------         ENDDO         
  C:1739H         LINE#         15
  C:1739H         LINE#         16
  C:1739H         LINE#         18
  C:1745H         LINE#         19
  C:1745H         LINE#         20
  C:1747H         LINE#         21
  C:174BH         LINE#         22
  C:174FH         LINE#         23
  C:1751H         LINE#         24
  C:1754H         LINE#         25
  -------         ENDPROC       _WRITE_DS1302
  -------         PROC          _WRITE_DS1302_BYTE
  D:0007H         SYMBOL        address
  D:0005H         SYMBOL        dat
  C:17CAH         LINE#         28
  C:17CAH         LINE#         29
  C:17CAH         LINE#         30
  C:17CDH         LINE#         31
  C:17D0H         LINE#         32
  C:17D3H         LINE#         33
  C:17D6H         LINE#         34
  C:17DBH         LINE#         35
  C:17DDH         LINE#         36
  -------         ENDPROC       _WRITE_DS1302_BYTE
  -------         PROC          L?0021
  -------         ENDPROC       L?0021
  -------         PROC          _READ_DS1302_BYTE
  D:0007H         SYMBOL        address
  -------         DO            
  D:0007H         SYMBOL        i
  D:0005H         SYMBOL        temp
  -------         ENDDO         
  C:13DBH         LINE#         39
  C:13DBH         LINE#         40
  C:13DBH         LINE#         41
  C:13DDH         LINE#         42
  C:13E0H         LINE#         43
  C:13E3H         LINE#         44
  C:13E6H         LINE#         45
  C:13E9H         LINE#         46
  C:13F5H         LINE#         47
  C:13F5H         LINE#         48
  C:13F7H         LINE#         49
  C:13FBH         LINE#         50
  C:13FEH         LINE#         51
  C:1401H         LINE#         52
BL51 BANKED LINKER/LOCATER V6.22.2.0                                                  05/27/2024  17:50:23  PAGE 25


  C:1403H         LINE#         53
  C:1406H         LINE#         54
  C:1409H         LINE#         55
  C:140CH         LINE#         56
  C:140FH         LINE#         57
  C:1412H         LINE#         58
  C:1415H         LINE#         59
  C:1417H         LINE#         60
  -------         ENDPROC       _READ_DS1302_BYTE
  -------         PROC          _DS1302_WRITE_RTC
  D:0023H         SYMBOL        pRtc
  -------         DO            
  D:0004H         SYMBOL        i
  -------         ENDDO         
  C:12E3H         LINE#         62
  C:12E9H         LINE#         63
  C:12E9H         LINE#         64
  C:12EBH         LINE#         65
  C:12F1H         LINE#         66
  C:12FBH         LINE#         67
  C:12FBH         LINE#         68
  C:1318H         LINE#         69
  C:1336H         LINE#         70
  C:1339H         LINE#         71
  -------         ENDPROC       _DS1302_WRITE_RTC
  -------         PROC          _DS1302_READ_RTC
  D:0023H         SYMBOL        pRtc
  -------         DO            
  D:0026H         SYMBOL        i
  -------         ENDDO         
  C:1418H         LINE#         74
  C:141EH         LINE#         75
  C:141EH         LINE#         76
  C:1421H         LINE#         77
  C:142EH         LINE#         78
  C:1458H         LINE#         79
  -------         ENDPROC       _DS1302_READ_RTC
  -------         ENDMOD        DS1302

  -------         MODULE        ?C?FPMUL
  C:0026H         PUBLIC        ?C?FPMUL
  -------         ENDMOD        ?C?FPMUL

  -------         MODULE        ?C?FPDIV
  C:012FH         PUBLIC        ?C?FPDIV
  -------         ENDMOD        ?C?FPDIV

  -------         MODULE        ?C?FCAST
  C:01D6H         PUBLIC        ?C?FCASTC
  C:01D1H         PUBLIC        ?C?FCASTI
  C:01CCH         PUBLIC        ?C?FCASTL
  -------         ENDMOD        ?C?FCAST

  -------         MODULE        ?C?CASTF
  C:020AH         PUBLIC        ?C?CASTF
  -------         ENDMOD        ?C?CASTF

BL51 BANKED LINKER/LOCATER V6.22.2.0                                                  05/27/2024  17:50:23  PAGE 26


  -------         MODULE        PRINTF
  D:0023H         PUBLIC        ?_PRINTF?BYTE
  D:0023H         PUBLIC        ?_SPRINTF?BYTE
  C:06A4H         PUBLIC        _PRINTF
  C:069EH         PUBLIC        _SPRINTF
  -------         ENDMOD        PRINTF

  -------         MODULE        ?C?FPROUND
  C:028BH         PUBLIC        ?C?FPROUND
  -------         ENDMOD        ?C?FPROUND

  -------         MODULE        ?C?FPCONVERT
  C:02BAH         PUBLIC        ?C?FPCONVERT
  -------         ENDMOD        ?C?FPCONVERT

  -------         MODULE        ?C?FPADD
  C:03C4H         PUBLIC        ?C?FPADD
  C:03C0H         PUBLIC        ?C?FPSUB
  -------         ENDMOD        ?C?FPADD

  -------         MODULE        ?C?FTNPWR
  C:04E5H         PUBLIC        ?C?FTNPWR
  -------         ENDMOD        ?C?FTNPWR

  -------         MODULE        ?C?CLDPTR
  C:0525H         PUBLIC        ?C?CLDPTR
  -------         ENDMOD        ?C?CLDPTR

  -------         MODULE        ?C?CLDOPTR
  C:053EH         PUBLIC        ?C?CLDOPTR
  -------         ENDMOD        ?C?CLDOPTR

  -------         MODULE        ?C?CSTPTR
  C:056BH         PUBLIC        ?C?CSTPTR
  -------         ENDMOD        ?C?CSTPTR

  -------         MODULE        ?C?UIDIV
  C:057DH         PUBLIC        ?C?UIDIV
  -------         ENDMOD        ?C?UIDIV

  -------         MODULE        ?C?LNEG
  C:05D2H         PUBLIC        ?C?LNEG
  -------         ENDMOD        ?C?LNEG

  -------         MODULE        ?C?PLDIIDATA
  C:05E0H         PUBLIC        ?C?PLDIIDATA
  -------         ENDMOD        ?C?PLDIIDATA

  -------         MODULE        ?C?CCASE
  C:05F0H         PUBLIC        ?C?CCASE
  -------         ENDMOD        ?C?CCASE

  -------         MODULE        ?C?MEMSET
  C:0616H         PUBLIC        ?C?MEMSET
  -------         ENDMOD        ?C?MEMSET

Program Size: data=114.7 xdata=0 code=6185
BL51 BANKED LINKER/LOCATER V6.22.2.0                                                  05/27/2024  17:50:23  PAGE 27


LINK/LOCATE RUN COMPLETE.  0 WARNING(S),  0 ERROR(S)
