BL51 BANKED LINKER/LOCATER V6.22.2.0                                                    03/08/2024  15:56:47  PAGE 1


BL51 BANKED LINKER/LOCATER V6.22.2.0, INVOKED BY:
D:\KEIL 5\C51\BIN\BL51.EXE .\Objects\main.obj, .\Objects\Init.obj, .\Objects\Key.obj, .\Objects\Seg.obj, .\Objects\LED.o
>> bj TO .\Objects\2303002124 PRINT (.\Listings\2303002124.m51) RAMSIZE (256)


MEMORY MODEL: SMALL


INPUT MODULES INCLUDED:
  .\Objects\main.obj (MAIN)
  .\Objects\Init.obj (INIT)
  .\Objects\Key.obj (KEY)
  .\Objects\Seg.obj (SEG)
  .\Objects\LED.obj (LED)
  D:\KEIL 5\C51\LIB\C51S.LIB (?C_STARTUP)
  D:\KEIL 5\C51\LIB\C51S.LIB (?C?UIDIV)
  D:\KEIL 5\C51\LIB\C51S.LIB (?C_INIT)


LINK MAP OF MODULE:  .\Objects\2303002124 (MAIN)


            TYPE    BASE      LENGTH    RELOCATION   SEGMENT NAME
            -----------------------------------------------------

            * * * * * * *   D A T A   M E M O R Y   * * * * * * *
            REG     0000H     0008H     ABSOLUTE     "REG BANK 0"
            DATA    0008H     0002H     UNIT         ?DT?LED
                    000AH     0016H                  *** GAP ***
            BIT     0020H.0   0000H.2   UNIT         ?BI?MAIN
                    0020H.2   0000H.6                *** GAP ***
            DATA    0021H     001EH     UNIT         ?DT?MAIN
            IDATA   003FH     0001H     UNIT         ?STACK

            * * * * * * *   C O D E   M E M O R Y   * * * * * * *
            CODE    0000H     0003H     ABSOLUTE     
            CODE    0003H     0006H     UNIT         ?PR?INFOR_DEAL?MAIN
            CODE    0009H     0001H     UNIT         ?PR?OTHER_DEAL?MAIN
                    000AH     0001H                  *** GAP ***
            CODE    000BH     0003H     ABSOLUTE     
            CODE    000EH     008CH     UNIT         ?C_C51STARTUP
            CODE    009AH     0089H     UNIT         ?PR?TIMER0_SEVRE?MAIN
            CODE    0123H     0073H     UNIT         ?PR?KEY_READ?KEY
            CODE    0196H     0055H     UNIT         ?C?LIB_CODE
            CODE    01EBH     0041H     UNIT         ?PR?_SEG_SHOW?SEG
            CODE    022CH     003BH     UNIT         ?PR?_LED_SHOW?LED
            CODE    0267H     0031H     UNIT         ?C_INITSEG
            CODE    0298H     0028H     UNIT         ?PR?KEY_DEAL?MAIN
            CODE    02C0H     0025H     UNIT         ?PR?_BEEP?LED
            CODE    02E5H     0025H     UNIT         ?PR?_RELAY?LED
            CODE    030AH     001DH     UNIT         ?PR?SYSTEM_INIT?INIT
            CODE    0327H     001AH     UNIT         ?CO?SEG
            CODE    0341H     0015H     UNIT         ?PR?TIMER0_INIT?MAIN
            CODE    0356H     0011H     UNIT         ?PR?MAIN?MAIN



OVERLAY MAP OF MODULE:   .\Objects\2303002124 (MAIN)
BL51 BANKED LINKER/LOCATER V6.22.2.0                                                  03/08/2024  15:56:47  PAGE 2




SEGMENT
  +--> CALLED SEGMENT
---------------------
?PR?TIMER0_SEVRE?MAIN
  +--> ?PR?_SEG_SHOW?SEG
  +--> ?PR?_LED_SHOW?LED

?PR?_SEG_SHOW?SEG
  +--> ?CO?SEG

*** NEW ROOT ***************************************************

?C_C51STARTUP
  +--> ?PR?MAIN?MAIN
  +--> ?C_INITSEG

?PR?MAIN?MAIN
  +--> ?PR?SYSTEM_INIT?INIT
  +--> ?PR?TIMER0_INIT?MAIN
  +--> ?PR?KEY_DEAL?MAIN
  +--> ?PR?INFOR_DEAL?MAIN
  +--> ?PR?OTHER_DEAL?MAIN

?PR?KEY_DEAL?MAIN
  +--> ?PR?KEY_READ?KEY



SYMBOL TABLE OF MODULE:  .\Objects\2303002124 (MAIN)

  VALUE           TYPE          NAME
  ----------------------------------

  -------         MODULE        MAIN
  C:0000H         SYMBOL        _ICE_DUMMY_
  D:0080H         PUBLIC        P0
  D:0090H         PUBLIC        P1
  D:00A0H         PUBLIC        P2
  C:0298H         PUBLIC        Key_Deal
  D:00B0H         PUBLIC        P3
  D:00C0H         PUBLIC        P4
  B:0020H.0       PUBLIC        Seg_Slow_Flag
  D:00C8H         PUBLIC        P5
  B:00A8H.7       PUBLIC        EA
  D:00E8H         PUBLIC        P6
  D:00F8H         PUBLIC        P7
  D:0025H         PUBLIC        Seg_Point
  D:00A8H         PUBLIC        IE
  B:0020H.1       PUBLIC        Key_Slow_Flag
  D:00B8H         PUBLIC        IP
  C:009AH         PUBLIC        Timer0_Sevre
  D:002DH         PUBLIC        Seg_Buf
  D:0035H         PUBLIC        Slow_Down
  D:00D8H         PUBLIC        CCON
  C:0356H         PUBLIC        main
BL51 BANKED LINKER/LOCATER V6.22.2.0                                                  03/08/2024  15:56:47  PAGE 3


  C:0341H         PUBLIC        Timer0_Init
  D:0098H         PUBLIC        SCON
  D:0089H         PUBLIC        TMOD
  D:0088H         PUBLIC        TCON
  D:008EH         PUBLIC        AUXR
  B:00A8H.1       PUBLIC        ET0
  B:0088H.5       PUBLIC        TF0
  D:008CH         PUBLIC        TH0
  D:008AH         PUBLIC        TL0
  D:0037H         PUBLIC        LED_Buf
  B:0088H.4       PUBLIC        TR0
  C:0003H         PUBLIC        Infor_Deal
  C:0009H         PUBLIC        Other_Deal
  D:00D0H         PUBLIC        PSW
  -------         PROC          KEY_DEAL
  -------         DO            
  D:0021H         SYMBOL        Key_New
  D:0022H         SYMBOL        Key_Old
  D:0023H         SYMBOL        Key_UP
  D:0024H         SYMBOL        Key_Down
  -------         ENDDO         
  C:0298H         LINE#         19
  C:0298H         LINE#         20
  C:0298H         LINE#         24
  C:029BH         LINE#         25
  C:029DH         LINE#         27
  C:02A2H         LINE#         28
  C:02ADH         LINE#         29
  C:02B2H         LINE#         30
  C:02B5H         LINE#         32
  C:02B9H         LINE#         33
  C:02B9H         LINE#         34
  C:02B9H         LINE#         35
  C:02BCH         LINE#         36
  C:02BFH         LINE#         37
  C:02BFH         LINE#         38
  C:02BFH         LINE#         40
  -------         ENDPROC       KEY_DEAL
  -------         PROC          INFOR_DEAL
  C:0003H         LINE#         43
  C:0003H         LINE#         44
  C:0003H         LINE#         45
  C:0006H         LINE#         46
  C:0008H         LINE#         49
  -------         ENDPROC       INFOR_DEAL
  -------         PROC          OTHER_DEAL
  C:0009H         LINE#         52
  C:0009H         LINE#         53
  C:0009H         LINE#         56
  -------         ENDPROC       OTHER_DEAL
  -------         PROC          TIMER0_INIT
  C:0341H         LINE#         59
  C:0341H         LINE#         60
  C:0341H         LINE#         61
  C:0344H         LINE#         62
  C:0347H         LINE#         63
  C:034AH         LINE#         64
BL51 BANKED LINKER/LOCATER V6.22.2.0                                                  03/08/2024  15:56:47  PAGE 4


  C:034DH         LINE#         65
  C:034FH         LINE#         66
  C:0351H         LINE#         67
  C:0353H         LINE#         68
  C:0355H         LINE#         69
  -------         ENDPROC       TIMER0_INIT
  -------         PROC          TIMER0_SEVRE
  C:009AH         LINE#         72
  C:00B7H         LINE#         74
  C:00D0H         LINE#         75
  C:00E1H         LINE#         76
  C:00F9H         LINE#         77
  C:0108H         LINE#         78
  -------         ENDPROC       TIMER0_SEVRE
  -------         PROC          MAIN
  C:0356H         LINE#         81
  C:0356H         LINE#         82
  C:0356H         LINE#         83
  C:0359H         LINE#         84
  C:035CH         LINE#         86
  C:035CH         LINE#         87
  C:035CH         LINE#         88
  C:035FH         LINE#         89
  C:0362H         LINE#         90
  C:0365H         LINE#         91
  -------         ENDPROC       MAIN
  -------         ENDMOD        MAIN

  -------         MODULE        INIT
  C:0000H         SYMBOL        _ICE_DUMMY_
  C:030AH         PUBLIC        System_Init
  D:0080H         PUBLIC        P0
  D:0090H         PUBLIC        P1
  D:00A0H         PUBLIC        P2
  D:00B0H         PUBLIC        P3
  D:00C0H         PUBLIC        P4
  D:00C8H         PUBLIC        P5
  D:00E8H         PUBLIC        P6
  D:00F8H         PUBLIC        P7
  D:00A8H         PUBLIC        IE
  D:00B8H         PUBLIC        IP
  D:00D8H         PUBLIC        CCON
  D:0098H         PUBLIC        SCON
  D:0088H         PUBLIC        TCON
  D:00D0H         PUBLIC        PSW
  -------         PROC          SYSTEM_INIT
  C:030AH         LINE#         6
  C:030AH         LINE#         7
  C:030AH         LINE#         8
  C:030DH         LINE#         9
  C:0315H         LINE#         10
  C:0318H         LINE#         12
  C:031BH         LINE#         13
  C:0323H         LINE#         14
  C:0326H         LINE#         15
  -------         ENDPROC       SYSTEM_INIT
  -------         ENDMOD        INIT
BL51 BANKED LINKER/LOCATER V6.22.2.0                                                  03/08/2024  15:56:47  PAGE 5



  -------         MODULE        KEY
  C:0000H         SYMBOL        _ICE_DUMMY_
  D:0080H         PUBLIC        P0
  D:0090H         PUBLIC        P1
  D:00A0H         PUBLIC        P2
  D:00B0H         PUBLIC        P3
  D:00C0H         PUBLIC        P4
  D:00C8H         PUBLIC        P5
  D:00E8H         PUBLIC        P6
  D:00F8H         PUBLIC        P7
  C:0123H         PUBLIC        Key_Read
  D:00A8H         PUBLIC        IE
  D:00B8H         PUBLIC        IP
  D:00D8H         PUBLIC        CCON
  B:00B0H.0       PUBLIC        P30
  D:0098H         PUBLIC        SCON
  B:00B0H.1       PUBLIC        P31
  D:0088H         PUBLIC        TCON
  B:00B0H.2       PUBLIC        P32
  B:00C0H.2       PUBLIC        P42
  B:00B0H.3       PUBLIC        P33
  B:00B0H.4       PUBLIC        P34
  B:00C0H.4       PUBLIC        P44
  B:00B0H.5       PUBLIC        P35
  D:00D0H         PUBLIC        PSW
  -------         PROC          KEY_READ
  -------         DO            
  D:0007H         SYMBOL        temp
  -------         ENDDO         
  C:0123H         LINE#         6
  C:0123H         LINE#         7
  C:0123H         LINE#         8
  C:0125H         LINE#         9
  C:012DH         LINE#         10
  C:0132H         LINE#         11
  C:0137H         LINE#         12
  C:013CH         LINE#         13
  C:0141H         LINE#         14
  C:0149H         LINE#         15
  C:014EH         LINE#         16
  C:0153H         LINE#         17
  C:0158H         LINE#         18
  C:015DH         LINE#         19
  C:0165H         LINE#         20
  C:016AH         LINE#         21
  C:016FH         LINE#         22
  C:0174H         LINE#         23
  C:0179H         LINE#         24
  C:0181H         LINE#         25
  C:0186H         LINE#         26
  C:018BH         LINE#         27
  C:0190H         LINE#         28
  C:0195H         LINE#         29
  C:0195H         LINE#         30
  -------         ENDPROC       KEY_READ
  -------         ENDMOD        KEY
BL51 BANKED LINKER/LOCATER V6.22.2.0                                                  03/08/2024  15:56:47  PAGE 6



  -------         MODULE        SEG
  C:0000H         SYMBOL        _ICE_DUMMY_
  D:0080H         PUBLIC        P0
  D:0090H         PUBLIC        P1
  D:00A0H         PUBLIC        P2
  D:00B0H         PUBLIC        P3
  D:00C0H         PUBLIC        P4
  D:00C8H         PUBLIC        P5
  D:00E8H         PUBLIC        P6
  D:00F8H         PUBLIC        P7
  D:00A8H         PUBLIC        IE
  D:00B8H         PUBLIC        IP
  C:01EBH         PUBLIC        _Seg_Show
  D:00D8H         PUBLIC        CCON
  D:0098H         PUBLIC        SCON
  D:0088H         PUBLIC        TCON
  C:0327H         PUBLIC        Seg_Wu
  C:032FH         PUBLIC        Seg_Table
  D:00D0H         PUBLIC        PSW
  -------         PROC          _SEG_SHOW
  D:0007H         SYMBOL        Wu
  D:0004H         SYMBOL        Table
  D:0002H         SYMBOL        Point
  C:01EBH         LINE#         27
  C:01EBH         LINE#         28
  C:01EBH         LINE#         29
  C:01EEH         LINE#         30
  C:01F6H         LINE#         31
  C:01F9H         LINE#         33
  C:0200H         LINE#         34
  C:0208H         LINE#         35
  C:020BH         LINE#         37
  C:0219H         LINE#         38
  C:021DH         LINE#         39
  C:0220H         LINE#         40
  C:0228H         LINE#         41
  C:022BH         LINE#         43
  -------         ENDPROC       _SEG_SHOW
  -------         ENDMOD        SEG

  -------         MODULE        LED
  C:0000H         SYMBOL        _ICE_DUMMY_
  C:02E5H         PUBLIC        _Relay
  D:0080H         PUBLIC        P0
  D:0090H         PUBLIC        P1
  D:00A0H         PUBLIC        P2
  D:00B0H         PUBLIC        P3
  D:00C0H         PUBLIC        P4
  D:00C8H         PUBLIC        P5
  D:00E8H         PUBLIC        P6
  D:00F8H         PUBLIC        P7
  D:00A8H         PUBLIC        IE
  D:0008H         PUBLIC        LED_temp_old
  D:00B8H         PUBLIC        IP
  D:0009H         PUBLIC        LED_temp_new
  D:00D8H         PUBLIC        CCON
BL51 BANKED LINKER/LOCATER V6.22.2.0                                                  03/08/2024  15:56:47  PAGE 7


  D:0098H         PUBLIC        SCON
  D:0088H         PUBLIC        TCON
  C:022CH         PUBLIC        _LED_Show
  D:00D0H         PUBLIC        PSW
  C:02C0H         PUBLIC        _Beep
  -------         PROC          _LED_SHOW
  D:0007H         SYMBOL        addr
  D:0004H         SYMBOL        enable
  C:022CH         LINE#         9
  C:022CH         LINE#         10
  C:022CH         LINE#         11
  C:0230H         LINE#         12
  C:023FH         LINE#         14
  C:024DH         LINE#         16
  C:0253H         LINE#         17
  C:0253H         LINE#         18
  C:0258H         LINE#         19
  C:0260H         LINE#         20
  C:0263H         LINE#         21
  C:0266H         LINE#         22
  C:0266H         LINE#         23
  -------         ENDPROC       _LED_SHOW
  -------         PROC          _BEEP
  D:0007H         SYMBOL        enable
  C:02C0H         LINE#         25
  C:02C0H         LINE#         26
  C:02C0H         LINE#         27
  C:02C3H         LINE#         28
  C:02C8H         LINE#         30
  C:02CBH         LINE#         32
  C:02D1H         LINE#         33
  C:02D1H         LINE#         34
  C:02D6H         LINE#         35
  C:02DEH         LINE#         36
  C:02E1H         LINE#         37
  C:02E4H         LINE#         38
  C:02E4H         LINE#         39
  -------         ENDPROC       _BEEP
  -------         PROC          _RELAY
  D:0007H         SYMBOL        enable
  C:02E5H         LINE#         42
  C:02E5H         LINE#         43
  C:02E5H         LINE#         44
  C:02E8H         LINE#         45
  C:02EDH         LINE#         47
  C:02F0H         LINE#         49
  C:02F6H         LINE#         50
  C:02F6H         LINE#         51
  C:02FBH         LINE#         52
  C:0303H         LINE#         53
  C:0306H         LINE#         54
  C:0309H         LINE#         55
  C:0309H         LINE#         56
  -------         ENDPROC       _RELAY
  -------         ENDMOD        LED

  -------         MODULE        ?C?UIDIV
BL51 BANKED LINKER/LOCATER V6.22.2.0                                                  03/08/2024  15:56:47  PAGE 8


  C:0196H         PUBLIC        ?C?UIDIV
  -------         ENDMOD        ?C?UIDIV

*** WARNING L16: UNCALLED SEGMENT, IGNORED FOR OVERLAY PROCESS
    SEGMENT: ?PR?_BEEP?LED

*** WARNING L16: UNCALLED SEGMENT, IGNORED FOR OVERLAY PROCESS
    SEGMENT: ?PR?_RELAY?LED

Program Size: data=41.2 xdata=0 code=870
LINK/LOCATE RUN COMPLETE.  2 WARNING(S),  0 ERROR(S)
