C51 COMPILER V9.59.0.0   MAIN                                                              03/08/2024 15:50:42 PAGE 1   


C51 COMPILER V9.59.0.0, COMPILATION OF MODULE MAIN
OBJECT MODULE PLACED IN .\Objects\main.obj
COMPILER INVOKED BY: D:\keil 5\C51\BIN\C51.EXE main.c OPTIMIZE(8,SPEED) BROWSE INCDIR(..\User;..\Drivers) DEBUG OBJECTEX
                    -TEND PRINT(.\Listings\main.lst) OBJECT(.\Objects\main.obj)

line level    source

   1          /* 头文件声明区 */
   2          #include <STC15F2K60S2.H>
   3          #include "Init.h"
   4          #include "Key.h"
   5          #include "Seg.h"
   6          #include "LED.h"
   7          
   8          /* 基础变量创建区 */
   9          unsigned int Slow_Down;             //减速扫描专用变量
  10          bit Key_Slow_Flag, Seg_Slow_Flag;   //按键数码管减速标志位
  11          unsigned char Seg_Buf[8] = {0, 10, 10, 10, 10, 10, 10, 10};
  12          unsigned char Seg_Point[8] = {0, 0, 0, 0, 0, 0, 0, 0};
  13          unsigned char LED_Buf[8] = {0, 0, 0, 0, 0, 0, 0, 0};
  14          
  15          /* 变量创建区 */
  16          
  17          
  18          /* 按键处理函数 */
  19          void Key_Deal()
  20          {
  21   1          static unsigned char Key_New = 0, Key_Old = 0;
  22   1          static unsigned char Key_UP = 0, Key_Down = 0;
  23   1          
  24   1          if (Key_Slow_Flag) return;
  25   1          Key_Slow_Flag = 1;
  26   1          
  27   1          Key_New = Key_Read();
  28   1          Key_UP = ~Key_New & (Key_New ^ Key_Old);
  29   1          Key_Down = Key_New & (Key_New ^ Key_Old);
  30   1          Key_Old = Key_New;
  31   1          
  32   1          switch (Key_Down)
  33   1          {
  34   2              case 4:
  35   2                  Seg_Buf[0] ^= 1;
  36   2                  LED_Buf[0] ^= 1;
  37   2              break;
  38   2          }
  39   1          
  40   1      }
  41          
  42          /* 信息处理函数 */
  43          void Infor_Deal()
  44          {
  45   1          if (Seg_Slow_Flag) return;
  46   1          Seg_Slow_Flag = 1;
  47   1          
  48   1          
  49   1      }
  50          
  51          /* 其他处理函数 */
  52          void Other_Deal()
  53          {
  54   1          
C51 COMPILER V9.59.0.0   MAIN                                                              03/08/2024 15:50:42 PAGE 2   

  55   1          
  56   1      }
  57          
  58          /* 定时器初始化函数 */
  59          void Timer0_Init(void)          //1毫秒@12.000MHz
  60          {
  61   1              AUXR &= 0x7F;                   //定时器时钟12T模式
  62   1              TMOD &= 0xF0;                   //设置定时器模式
  63   1              TL0 = 0x18;                             //设置定时初始值
  64   1              TH0 = 0xFC;                             //设置定时初始值
  65   1              TF0 = 0;                                //清除TF0标志
  66   1              TR0 = 1;                                //定时器0开始计时
  67   1          ET0 = 1;
  68   1          EA  = 1;
  69   1      }
  70          
  71          /* 中断服务函数 */
  72          void Timer0_Sevre() interrupt 1
  73          {
  74   1          if (++Slow_Down == 400) Slow_Down = Seg_Slow_Flag = 0;
  75   1          if (Slow_Down % 10 == 0) Key_Slow_Flag = 0;
  76   1          Seg_Show(Slow_Down%8, Seg_Buf[Slow_Down%8], Seg_Point[Slow_Down%8]);
  77   1          LED_Show(Slow_Down%8, LED_Buf[Slow_Down%8]);
  78   1      }
  79          
  80          /* 主函数 */
  81          void main()
  82          {
  83   1          System_Init();
  84   1          Timer0_Init();
  85   1          
  86   1          while (1)
  87   1          {
  88   2              Key_Deal();
  89   2              Infor_Deal();
  90   2              Other_Deal();
  91   2          }
  92   1      }
  93          
  94          


MODULE INFORMATION:   STATIC OVERLAYABLE
   CODE SIZE        =    222    ----
   CONSTANT SIZE    =   ----    ----
   XDATA SIZE       =   ----    ----
   PDATA SIZE       =   ----    ----
   DATA SIZE        =     30    ----
   IDATA SIZE       =   ----    ----
   BIT SIZE         =      2    ----
END OF MODULE INFORMATION.


C51 COMPILATION COMPLETE.  0 WARNING(S),  0 ERROR(S)
