:10007300EF4E600F7D0C7CA9DCFEDDFCEF1F70F002
:030083001E80EDEF
:010086002257
:10004000EF24FB601214601714601C24037023E576
:10005000A0541F44808016E5A0541F44A0800EE5E4
:10006000A0541F44C08006E5A0541F44E0F5A053EF
:03007000A01F22AC
:10000300E4F5087580FE7F041200407FE87E03124A
:100013000073750801C3E50894087480948050F256
:10002300AF807801EF08800123D8FDF5807F0412AB
:0D00330000407FE87E03120073050880D8AE
:0300000002008774
:0C008700787FE4F6D8FD758108020003C4
:00000001FF
