BL51 BANKED LINKER/LOCATER V6.22.2.0                                                    01/19/2024  13:46:14  PAGE 1


BL51 BANKED LINKER/LOCATER V6.22.2.0, INVOKED BY:
D:\KEIL 5\C51\BIN\BL51.EXE .\Objects\main.obj TO .\Objects\Project PRINT (.\Listings\Project.m51) RAMSIZE (256)


MEMORY MODEL: SMALL


INPUT MODULES INCLUDED:
  .\Objects\main.obj (MAIN)
  D:\KEIL 5\C51\LIB\C51S.LIB (?C_STARTUP)


LINK MAP OF MODULE:  .\Objects\Project (MAIN)


            TYPE    BASE      LENGTH    RELOCATION   SEGMENT NAME
            -----------------------------------------------------

            * * * * * * *   D A T A   M E M O R Y   * * * * * * *
            REG     0000H     0008H     ABSOLUTE     "REG BANK 0"
            IDATA   0008H     0001H     UNIT         ?STACK

            * * * * * * *   C O D E   M E M O R Y   * * * * * * *
            CODE    0000H     0003H     ABSOLUTE     
            CODE    0003H     0039H     UNIT         ?PR?_LATCH?MAIN
            CODE    003CH     002EH     UNIT         ?PR?MAIN?MAIN
            CODE    006AH     0014H     UNIT         ?PR?_DELAY_MS?MAIN
            CODE    007EH     000CH     UNIT         ?C_C51STARTUP
            CODE    008AH     0008H     UNIT         ?PR?INIT?MAIN



OVERLAY MAP OF MODULE:   .\Objects\Project (MAIN)


SEGMENT
  +--> CALLED SEGMENT
---------------------
?C_C51STARTUP
  +--> ?PR?MAIN?MAIN

?PR?MAIN?MAIN
  +--> ?PR?INIT?MAIN
  +--> ?PR?_LATCH?MAIN
  +--> ?PR?_DELAY_MS?MAIN

?PR?INIT?MAIN
  +--> ?PR?_LATCH?MAIN



SYMBOL TABLE OF MODULE:  .\Objects\Project (MAIN)

  VALUE           TYPE          NAME
  ----------------------------------

  -------         MODULE        MAIN
  C:0000H         SYMBOL        _ICE_DUMMY_
BL51 BANKED LINKER/LOCATER V6.22.2.0                                                  01/19/2024  13:46:14  PAGE 2


  D:0080H         PUBLIC        P0
  D:0090H         PUBLIC        P1
  D:00A0H         PUBLIC        P2
  D:00B0H         PUBLIC        P3
  D:00C0H         PUBLIC        P4
  D:00C8H         PUBLIC        P5
  D:00E8H         PUBLIC        P6
  D:00F8H         PUBLIC        P7
  D:00A8H         PUBLIC        IE
  C:008AH         PUBLIC        Init
  D:00B8H         PUBLIC        IP
  D:00D8H         PUBLIC        CCON
  C:003CH         PUBLIC        main
  C:006AH         PUBLIC        _Delay_ms
  D:0098H         PUBLIC        SCON
  D:0088H         PUBLIC        TCON
  C:0003H         PUBLIC        _Latch
  D:00D0H         PUBLIC        PSW
  -------         PROC          _DELAY_MS
  D:0006H         SYMBOL        x_ms
  -------         DO            
  D:0005H         SYMBOL        i
  D:0004H         SYMBOL        j
  -------         ENDDO         
  C:006AH         LINE#         4
  C:006AH         LINE#         5
  C:006AH         LINE#         7
  C:006EH         LINE#         8
  C:006EH         LINE#         9
  C:0070H         LINE#         10
  C:0072H         LINE#         12
  C:0072H         LINE#         13
  C:0074H         LINE#         14
  C:0076H         LINE#         15
  C:007BH         LINE#         16
  C:007DH         LINE#         17
  -------         ENDPROC       _DELAY_MS
  -------         PROC          _LATCH
  D:0007H         SYMBOL        Latch_Num
  C:0003H         LINE#         24
  C:0003H         LINE#         25
  C:0003H         LINE#         26
  C:0012H         LINE#         27
  C:0012H         LINE#         28
  C:001CH         LINE#         29
  C:0026H         LINE#         30
  C:0030H         LINE#         31
  C:0038H         LINE#         32
  C:0038H         LINE#         33
  C:0038H         LINE#         34
  C:003BH         LINE#         35
  -------         ENDPROC       _LATCH
  -------         PROC          INIT
  C:008AH         LINE#         37
  C:008AH         LINE#         38
  C:008AH         LINE#         39
  C:008DH         LINE#         40
BL51 BANKED LINKER/LOCATER V6.22.2.0                                                  01/19/2024  13:46:14  PAGE 3


  -------         ENDPROC       INIT
  -------         PROC          MAIN
  -------         DO            
  D:0003H         SYMBOL        i
  -------         ENDDO         
  C:003CH         LINE#         43
  C:003CH         LINE#         44
  C:003CH         LINE#         45
  C:003EH         LINE#         46
  C:0041H         LINE#         48
  C:0041H         LINE#         49
  C:0041H         LINE#         50
  C:004DH         LINE#         51
  C:004DH         LINE#         52
  C:005BH         LINE#         53
  C:0060H         LINE#         54
  C:0067H         LINE#         55
  -------         ENDPROC       MAIN
  -------         ENDMOD        MAIN

Program Size: data=9.0 xdata=0 code=146
LINK/LOCATE RUN COMPLETE.  0 WARNING(S),  0 ERROR(S)
