C51 COMPILER V9.59.0.0   MAIN                                                              04/11/2024 20:09:06 PAGE 1   


C51 COMPILER V9.59.0.0, COMPILATION OF MODULE MAIN
OBJECT MODULE PLACED IN .\Objects\main.obj
COMPILER INVOKED BY: D:\keil 5\C51\BIN\C51.EXE main.c OPTIMIZE(8,SPEED) BROWSE INCDIR(..\Drivers;..\User) DEBUG OBJECTEX
                    -TEND PRINT(.\Listings\main.lst) OBJECT(.\Objects\main.obj)

line level    source

   1          /* 头文件声明区 */
   2          #include <STC15F2K60S2.H>
   3          #include "Init.h"
   4          #include "Key.h"
   5          #include "Seg.h"
   6          #include "LED.h"
   7          #include "onewire.h"
   8          #include "iic.h"
   9          
  10          /* 基础变量创建区 */
  11          unsigned int Slow_Down;                                                 //减速扫描专用
  12          bit Key_Slow_Flag, Seg_Slow_Flag, LED_Slow_Flag, Infor_Slow_Flag;       //按键数码管LED信息处理减速标志位
  13          unsigned char Seg_Buf[8] = {10, 10, 10, 10, 10, 10, 10, 10};            //数码管显示缓冲区
  14          unsigned char Seg_Point[8] = {0, 0, 0, 0, 0, 0, 0, 0};                  //数码管小数点显示缓冲区
  15          unsigned char LED_Buf[8] = {0, 0, 0, 0, 0, 0, 0, 0};                    //LED显示缓冲区
  16          unsigned char i;                                                        //循环专用变量
  17          
  18          /* 变量创建区 */
  19          unsigned char Seg_Show_Mode;                //数码管显示模式   0-信号界面  1-温度界面  2-参数界面
  20          unsigned int Freq, Time_1000ms;             //实时频率，1000ms计时
  21          float T, DA_Data;                           //实时温度, DA输出数据
  22          unsigned char T_Show = 25, T_Set = 25;      //温度显示参数，温度控制参数
  23          bit L8_Flag, L8_Star_Flag;                  //L8标志位，L8闪烁标志位
  24          unsigned char Time_100ms;                   //100ms计时
  25          
  26          /* 按键处理函数 */
  27          void Key_Deal()
  28          {
  29   1          static unsigned char Key_New = 0, Key_Old = 0;  //按键获取
  30   1          static unsigned char Key_UP = 0, Key_Down = 0;  //专用变量
  31   1          
  32   1          if (Key_Slow_Flag) return;
  33   1          Key_Slow_Flag = 1;
  34   1          
  35   1          Key_New = Key_Read();
  36   1          Key_UP = ~Key_New & (Key_New ^ Key_Old);
  37   1          Key_Down = Key_New & (Key_New ^ Key_Old);
  38   1          Key_Old = Key_New;
  39   1          
  40   1          switch (Key_Down)
  41   1          {
  42   2              //界面切换
  43   2              case 4:
  44   2                  if (++Seg_Show_Mode == 3)
  45   2                      Seg_Show_Mode = 0;
  46   2              break;
  47   2              //参数加
  48   2              case 9:
  49   2                  if (Seg_Show_Mode == 2)
  50   2                  {
  51   3                      if (++T_Show == 36)
  52   3                          T_Show = 20;
  53   3                  }
  54   2              break;
C51 COMPILER V9.59.0.0   MAIN                                                              04/11/2024 20:09:06 PAGE 2   

  55   2              //参数减
  56   2              case 8:
  57   2                  if (Seg_Show_Mode == 2)
  58   2                  {
  59   3                      if (--T_Show == 19)
  60   3                          T_Show = 35;
  61   3                  }
  62   2              break;
  63   2          }
  64   1      }
  65          
  66          /* 数码管处理函数 */
  67          void Seg_Deal()
  68          {
  69   1          if (Seg_Slow_Flag) return;
  70   1          Seg_Slow_Flag = 1;
  71   1          
  72   1          Seg_Point[6] = (Seg_Show_Mode == 1);        //小数点控制
  73   1          switch (Seg_Show_Mode)
  74   1          {
  75   2              //信号界面
  76   2              case 0:
  77   2                  Seg_Buf[0] = 12;                    //显示P
  78   2                  Seg_Buf[3] = Freq / 10000 % 10;     //频率万位
  79   2                  Seg_Buf[4] = Freq / 1000 % 10;      //频率千位
  80   2                  Seg_Buf[5] = Freq / 100 % 10;       //频率百位
  81   2                  Seg_Buf[6] = Freq / 10 % 10;        //频率十位
  82   2                  Seg_Buf[7] = Freq % 10;             //频率个位
  83   2                  for (i = 3; i < 7; i++)             //高位熄灭
  84   2                  {
  85   3                      if (Seg_Buf[i] == 0)
  86   3                          Seg_Buf[i] = 10;
  87   3                      else
  88   3                          break;
  89   3                  }
  90   2              break;
  91   2              //温度界面
  92   2              case 1:
  93   2                  Seg_Buf[0] = 13;                            //显示C
  94   2                  for (i = 1; i < 5; i++)                     //熄灭
  95   2                      Seg_Buf[i] = 10;
  96   2                  Seg_Buf[5] = (unsigned char)T / 10 % 10;    //温度十位
  97   2                  Seg_Buf[6] = (unsigned char)T % 10;         //温度个位
  98   2                  Seg_Buf[7] = (unsigned int)(T*10) % 10;     //温度小数1位
  99   2              break;
 100   2              //参数界面
 101   2              case 2:
 102   2                  Seg_Buf[0] = 14;                  //显示U
 103   2                  Seg_Buf[5] = 10;                  //熄灭
 104   2                  Seg_Buf[6] = T_Show / 10 % 10;    //温度参数十位
 105   2                  Seg_Buf[7] = T_Show % 10;         //温度参数个位
 106   2              break;
 107   2          }
 108   1          
 109   1          
 110   1      }
 111          
 112          /* LED处理函数 */
 113          void LED_Deal()
 114          {
 115   1          if (LED_Slow_Flag) return;
 116   1          LED_Slow_Flag = 1;
C51 COMPILER V9.59.0.0   MAIN                                                              04/11/2024 20:09:06 PAGE 3   

 117   1          
 118   1          //L1, L2互斥点亮
 119   1          LED_Buf[0] = (Seg_Show_Mode == 0);
 120   1          LED_Buf[1] = (Seg_Show_Mode == 1);
 121   1          
 122   1          //L8
 123   1          LED_Buf[7] = L8_Star_Flag;
 124   1      }
 125          
 126          /* 信息处理函数 */
 127          void Infor_Deal()
 128          {
 129   1          /* 数据输出 */
 130   1          DA_Wirte(DA_Data * 51);
 131   1          Relay((T >= T_Set));
 132   1          
 133   1          /* 减速 */
 134   1          if (Infor_Slow_Flag) return;
 135   1          Infor_Slow_Flag = 1;
 136   1          
 137   1          /* 数据读取 */
 138   1          T = DS18B20_Read_T();
 139   1          
 140   1          /* 数据处理 */
 141   1          
 142   1          //数据保存
 143   1          if (Seg_Show_Mode == 0)
 144   1              T_Set = T_Show;
 145   1          
 146   1          //DA输出数据
 147   1          if (Freq >= 2000)       //频率大于2000Hz
 148   1              DA_Data = 4.5;      //输出4.5V
 149   1          else if (Freq <= 200)   //频率小于2000Hz
 150   1              DA_Data = 0.5;      //输出0.5V
 151   1          else                    //范围内计算
 152   1              DA_Data = (4.0 / 1800) * (Freq - 200) + 0.5;
 153   1          
 154   1          //L8控制
 155   1          if (T > 30)
 156   1              L8_Flag = 1;
 157   1          else
 158   1              L8_Flag = L8_Star_Flag = Time_100ms = 0;
 159   1      }
 160          
 161          /* 定时器初始化函数 */
 162          void Timer1_Init(void)          //1毫秒@12.000MHz
 163          {
 164   1              AUXR &= 0xBF;                   //定时器时钟12T模式
 165   1              TMOD &= 0x0F;                   //设置定时器模式
 166   1              TL1 = 0x18;                             //设置定时初始值
 167   1              TH1 = 0xFC;                             //设置定时初始值
 168   1              TF1 = 0;                                //清除TF1标志
 169   1              TR1 = 1;                                //定时器1开始计时
 170   1          EA  = 1;
 171   1          ET1 = 1;
 172   1      }
 173          void Timer0_Init(void)          //1毫秒@12.000MHz
 174          {
 175   1              AUXR &= 0x7F;                   //定时器时钟12T模式
 176   1              TMOD &= 0xF0;                   //设置定时器模式
 177   1          TMOD |= 0x05;
 178   1              TL0 = 0x18;                             //设置定时初始值
C51 COMPILER V9.59.0.0   MAIN                                                              04/11/2024 20:09:06 PAGE 4   

 179   1              TH0 = 0xFC;                             //设置定时初始值
 180   1              TF0 = 0;                                //清除TF0标志
 181   1              TR0 = 1;                                //定时器0开始计时
 182   1      }
 183          
 184          /* 中断服务函数 */
 185          void Timer1_Sevre() interrupt 3
 186          {
 187   1          if (++Slow_Down == 400) Slow_Down = Infor_Slow_Flag = 0;
 188   1          if (Slow_Down % 10 == 0) Key_Slow_Flag = 0;
 189   1          if (Slow_Down % 20 == 0) LED_Slow_Flag = 0;
 190   1          if (Slow_Down % 200 == 0) Seg_Slow_Flag = 0;
 191   1          Seg_Show(Slow_Down%8, Seg_Buf[Slow_Down%8], Seg_Point[Slow_Down%8]);
 192   1          LED_Show(Slow_Down%8, LED_Buf[Slow_Down%8]);
 193   1          
 194   1          if (++Time_1000ms == 1000)
 195   1          {
 196   2              Freq = (TH0 << 8) | TL0;
 197   2              Time_1000ms = TH0 = TL0 = 0;
 198   2          }
 199   1          
 200   1          if (L8_Flag == 1 && ++Time_100ms == 100)
 201   1          {
 202   2              Time_100ms = 0;
 203   2              L8_Star_Flag ^= 1;
 204   2          }
 205   1      }
 206          
 207          /* 主函数 */
 208          void main()
 209          {
 210   1          System_Init();
 211   1          Timer1_Init();
 212   1          Timer0_Init();
 213   1          DS18B20_Read_T();
 214   1      
 215   1          while (1)
 216   1          {
 217   2              Infor_Deal();
 218   2              Key_Deal();
 219   2              Seg_Deal();
 220   2              LED_Deal();
 221   2          }
 222   1      }
 223          
 224          


MODULE INFORMATION:   STATIC OVERLAYABLE
   CODE SIZE        =    920    ----
   CONSTANT SIZE    =   ----    ----
   XDATA SIZE       =   ----    ----
   PDATA SIZE       =   ----    ----
   DATA SIZE        =     47    ----
   IDATA SIZE       =   ----    ----
   BIT SIZE         =      6    ----
END OF MODULE INFORMATION.


C51 COMPILATION COMPLETE.  0 WARNING(S),  0 ERROR(S)
