C51 COMPILER V9.59.0.0   MAIN                                                              02/21/2024 20:56:58 PAGE 1   


C51 COMPILER V9.59.0.0, COMPILATION OF MODULE MAIN
OBJECT MODULE PLACED IN .\Objects\main.obj
COMPILER INVOKED BY: D:\keil 5\C51\BIN\C51.EXE main.c OPTIMIZE(8,SPEED) BROWSE INCDIR(..\User;..\Drivers) DEBUG OBJECTEX
                    -TEND PRINT(.\Listings\main.lst) OBJECT(.\Objects\main.obj)

line level    source

   1          /* 头文件声明区 */
   2          #include <STC15F2K60S2.H>
   3          #include "Init.h"
   4          #include "Key.h"
   5          #include "Seg.h"
   6          #include "LED.h"
   7          #include "Uwave.h"
   8          
   9          /* 基础变量创建区 */
  10          unsigned int Slow_Down;                                                 //减速扫描专用
  11          bit Key_Slow_Flag, Seg_Slow_Flag;                                       //按键数码管减速标志位
  12          unsigned char Seg_Buf[8] = {10, 10, 10, 10, 10, 10, 10, 10};            //数码管显示缓冲区
  13          unsigned char Seg_Point[8] = {0, 0, 0, 0, 0, 0, 0, 0};                  //数码管小数点显示缓冲区
  14          unsigned char LED_Buf[8] = {0, 0, 0, 0, 0, 0, 0, 0};                    //LED显示缓冲区
  15          
  16          /* 变量创建区 */
  17          unsigned char Wave_Data;
  18          
  19          /* 按键处理函数 */
  20          void Key_Proc()
  21          {
  22   1          static unsigned char Key_Down = 0, Key_UP = 0;  //变量
  23   1          static unsigned char Key_New = 0, Key_Old = 0;  //创建
  24   1      
  25   1          if (Key_Slow_Flag) return;
  26   1          Key_Slow_Flag = 1;                              //减速
  27   1          
  28   1          Key_New = Key_Read();                           //获取键码
  29   1          Key_Down = Key_New & ( Key_New ^ Key_Old);      //捕获下降沿
  30   1          Key_UP = ~Key_New & ( Key_New ^ Key_Old);       //捕获上升沿
  31   1          Key_Old = Key_New;                              //辅助扫描
  32   1          
  33   1      }
  34          
  35          /* 信息处理函数 */
  36          void Infor_Proc()
  37          {
  38   1          if (Seg_Slow_Flag) return;
  39   1              Seg_Slow_Flag = 1;                              //减速
  40   1      
  41   1          Wave_Data = Uwave_Read();
  42   1          
  43   1          Seg_Buf[4]=(Wave_Data>1000)?(Wave_Data/1000%10):10;
  44   1      
  45   1          Seg_Buf[5]=(Wave_Data>100)?(Wave_Data/100%10):10;
  46   1      
  47   1          Seg_Buf[6]=(Wave_Data>10)?(Wave_Data/10%10):10;
  48   1      
  49   1          Seg_Buf[7]=Wave_Data%10;
  50   1      }
  51          
  52          /* 其他处理函数 */
  53          void Other_Proc()
  54          {
C51 COMPILER V9.59.0.0   MAIN                                                              02/21/2024 20:56:58 PAGE 2   

  55   1          
  56   1      }
  57          
  58          /* 定时器初始化函数 */
  59          void Timer0_Init(void)          //1毫秒@12.000MHz
  60          {
  61   1          AUXR &= 0x7F;                       //定时器时钟12T模式
  62   1          TMOD &= 0xF0;                       //设置定时器模式
  63   1          TL0 = 0x18;                         //设置定时初始值
  64   1          TH0 = 0xFC;                         //设置定时初始值
  65   1          TF0 = 0;                            //清除TF0标志
  66   1          TR0 = 1;                            //定时器0开始计时
  67   1          ET0 = 1;
  68   1          EA  = 1;
  69   1      }
  70          
  71          /* 中断服务函数 */
  72          void Timer0_Serve() interrupt 1
  73          {
  74   1          if (++Slow_Down == 400) Slow_Down = Seg_Slow_Flag = 0;
  75   1          if (Slow_Down % 10 == 0) Key_Slow_Flag = 0;
  76   1          Seg_Show(Slow_Down%8, Seg_Buf[Slow_Down%8], Seg_Point[Slow_Down%8]);
  77   1          LED_Show(Slow_Down%8, LED_Buf[Slow_Down%8]);
  78   1      }
  79          
  80          /* 延时函数 */
  81          void Delay_ms(unsigned int xms)         //@12.000MHz
  82          {
  83   1          unsigned char i, j;
  84   1          while (xms)
  85   1          {
  86   2              i = 12;
  87   2              j = 169;
  88   2              do
  89   2              {
  90   3                  while (--j);
  91   3              } while (--i);
  92   2              xms--;
  93   2          }
  94   1      }
  95          
  96          /* 主函数 */
  97          void main()
  98          {
  99   1          
 100   1          Init();
 101   1          Timer0_Init();
 102   1          
 103   1          while (1)
 104   1          {
 105   2              Key_Proc();
 106   2              Infor_Proc();
 107   2              Other_Proc();
 108   2          }
 109   1      }
 110          
 111          
 112          


MODULE INFORMATION:   STATIC OVERLAYABLE
   CODE SIZE        =    340    ----
C51 COMPILER V9.59.0.0   MAIN                                                              02/21/2024 20:56:58 PAGE 3   

   CONSTANT SIZE    =   ----    ----
   XDATA SIZE       =   ----    ----
   PDATA SIZE       =   ----    ----
   DATA SIZE        =     31    ----
   IDATA SIZE       =   ----    ----
   BIT SIZE         =      2    ----
END OF MODULE INFORMATION.


C51 COMPILATION COMPLETE.  0 WARNING(S),  0 ERROR(S)
