C51 COMPILER V9.59.0.0   LED                                                               01/28/2024 10:57:36 PAGE 1   


C51 COMPILER V9.59.0.0, COMPILATION OF MODULE LED
OBJECT MODULE PLACED IN .\Objects\LED.obj
COMPILER INVOKED BY: D:\keil 5\C51\BIN\C51.EXE ..\Drivers\LED.c OPTIMIZE(8,SPEED) BROWSE INCDIR(..\Drivers;..\User) DEBU
                    -G OBJECTEXTEND PRINT(.\Listings\LED.lst) OBJECT(.\Objects\LED.obj)

line level    source

   1          #include <STC15F2K60S2.H>
   2          #include "LED.h"
   3          
   4          
   5          
   6          void LED_Disp(unsigned char addr, bit enable)
   7          {
   8   1          static unsigned char temp = 0x00;
   9   1          static unsigned char temp_old = 0xff;
  10   1          
  11   1          if (enable)
  12   1              temp |= 0x01 << addr;
  13   1          else
  14   1              temp &= ~(0x01 << addr);
  15   1      
  16   1          if (temp != temp_old)
  17   1          {
  18   2              P0 = ~temp;
  19   2              P2 = P2 & 0x1f | 0x80;
  20   2              P2 &= 0x1f; 
  21   2              temp_old = temp;
  22   2          }
  23   1      }
  24          
  25          
  26          void Beep(unsigned char flag)
  27          {
  28   1          static unsigned char temp = 0x00;
  29   1          static unsigned char temp_old = 0xff;
  30   1          
  31   1          if (flag)
  32   1              temp |= 0x40;
  33   1          else
  34   1              temp &= ~0x40;
  35   1      
  36   1          if (temp != temp_old)
  37   1          {
  38   2              P0 = ~temp;
  39   2              P2 = P2 & 0x1f | 0xa0;
  40   2              P2 &= 0x1f; 
  41   2              temp_old = temp;
  42   2          }
  43   1      }
  44          
  45          
  46          void Relay(unsigned char flag)
  47          {
  48   1          static unsigned char temp = 0x00;
  49   1          static unsigned char temp_old = 0xff;
  50   1          
  51   1          if (flag)
  52   1              temp |= 0x10;
  53   1          else
  54   1              temp &= ~0x10;
C51 COMPILER V9.59.0.0   LED                                                               01/28/2024 10:57:36 PAGE 2   

  55   1      
  56   1          if (temp != temp_old)
  57   1          {
  58   2              P0 = ~temp;
  59   2              P2 = P2 & 0x1f | 0xa0;
  60   2              P2 &= 0x1f; 
  61   2              temp_old = temp;
  62   2          }
  63   1      }
  64          
  65          
  66          
  67          
  68          
  69          
  70          
  71          
  72          


MODULE INFORMATION:   STATIC OVERLAYABLE
   CODE SIZE        =    132    ----
   CONSTANT SIZE    =   ----    ----
   XDATA SIZE       =   ----    ----
   PDATA SIZE       =   ----    ----
   DATA SIZE        =      6    ----
   IDATA SIZE       =   ----    ----
   BIT SIZE         =   ----       1
END OF MODULE INFORMATION.


C51 COMPILATION COMPLETE.  0 WARNING(S),  0 ERROR(S)
