:0300000002072CC8
:0C072C00787FE4F6D8FD75814F0207735A
:1008C90008320A0A0A0A0A0A0A0A08260000000067
:1008D900000000000840000000000000000001487E
:1008E90019014919012100012200012300012400F5
:10082B00200153D2011207B88F21E5216522FFE584
:10083B0021F45FF523E5215FF52485212224F8605F
:10084B002414600F2405702E0525E52564037026FE
:10085B00F52522E5256402701D0548E548642470E2
:10086B001575481422E5256402700B1548E548649C
:06087B0013700375482311
:010881002254
:1004570030000302057FD200E525640170047F01A7
:1004670080027F008F2CE5251470030205091470A4
:10047700030205632402600302057F75320CAE2E6A
:10048700AF2F7C277D101203F47C007D0A1203F442
:100497008D35AE2EAF2F7C037DE81203F47C007DF3
:1004A7000A1203F48D36AE2EAF2F7C007D64120343
:1004B700F47C007D0A1203F48D37AE2EAF2F7C003B
:1004C7007D0A1203F47C007D0A1203F48D38AE2EE8
:1004D700AF2F7C007D0A1203F48D39754F03C3E5F6
:1004E7004F940774809480400302057F7432254F30
:1004F700F8E6600302057F7432254FF8760A054F48
:1005070080DC75320D754F01C3E54F9405748094F7
:1005170080500B7432254FF8760A054F80EAAF3FBB
:10052700AE3EAD3DAC3C120373EF75F00A8475F037
:100537000A8485F037EF75F00A8485F038E4FFFE0A
:100547007D207C41AB3FAA3EA93DA83C1201161273
:1005570003737C007D0A1203F48D392275320E7500
:10056700370AE54875F00A8475F00A8485F038E59E
:090577004875F00A8485F0392270
:1009B100200225D202AF257E00EF70047D01800266
:1009C1007D008D40EF64014E70047F0180027F0045
:0909D1008F41A203E433F5472233
:10066400E4FFFE7D4C7C42AB4DAA4CA94BA84A1238
:100674000116120373120ADDAC49E412033FAB3FC7
:10068400AA3EA93DA83C1202BC40047F0180027F1F
:1006940000120A2830050302072BD2051209418FE4
:1006A4003F8E3E8D3D8C3CE5257003854849C3E56E
:1006B4002F94D0E52E9407400DE4F54DF54C754B81
:1006C40090754A408041D3E52F94C8E52E9400509C
:1006D4000CE4F54DF54CF54B754A3F802AE52F2483
:1006E40038FDE52E34FFFCE412033A7BB47AA27998
:1006F40011783B120116E4FBFAF9783F1200258FBA
:100704004D8E4C8D4B8C4AE4FFFE7DF07C41AB3F1B
:10071400AA3EA93DA83C1202BC60054003D20422B3
:08072400E4F54EC203C20422F9
:10000300538EBF53890F758B18758DFCC28FD28E9B
:05001300D2AFD2AB22C8
:100B0C00538E7F5389F0438905758A18758CFCC206
:040B1C008DD28C22C8
:03001B000205805B
:10058000C0E0C0F0C083C082C0D075D000C000C041
:1005900001C002C003C004C005C006C007053BE59A
:1005A0003B7002053AFFAE3ABE010BBF9008C20590
:1005B000753A00753B00AE3AAF3B7C007D0A1203F2
:1005C000F4ED4C7002C201AE3AAF3B7C007D1412D8
:1005D00003F4ED4C7002C202AE3AAF3B7C007DC822
:1005E0001203F4ED4C7002C200E53B5407FBFF24FC
:1005F00032F8E6FD7C0074262BF8E6FB7A00120840
:1006000082E53B5407FF2440F8E6FD7C0012090612
:100610000531E53170020530FFAE30BE0319BFE889
:1006200016AF8CEFAD8AF52EEDF52F758A00758C1F
:100630000075300075310030040F054EE54E6464DE
:100640007007F54EA203B39203D007D006D005D0B1
:1006500004D003D002D001D000D0D0D082D083D03B
:04066000F0D0E032C4
:100AA900120A8C120003120B0C120941120664126D
:0A0AB900082B1204571209B180F255
:100A8C00E4F580E5A0541F44A0F5A053A01F758089
:0D0A9C00FFE5A0541F4480F5A053A01F22C9
:1007B800E4FFC2B4D2B5D2C2D2C420B0027F1320A3
:1007C800B1027F1220B2027F1120B3027F10D2B48F
:1007D800C2B5D2C2D2C420B0027F0F20B1027F0EB0
:1007E80020B2027F0D20B3027F0CD2B4D2B5C2C2B0
:1007F800D2C420B0027F0B20B1027F0A20B2027F50
:100808000920B3027F08D2B4D2B5D2C2C2C420B084
:10081800027F0720B1027F0620B2027F0520B302C3
:020828007F044B
:01082A0022AB
:100B2000C0F9A4B0999282F88090FFBE8CC6C188AB
:040B300083A1868E89
:100882007580FFE5A0541F44E0F5A053A01FA80700
:100892007401088002C333D8FCF580E5A0541F44DC
:1008A200C0F5A053A01F74202DF582740B3CF58374
:1008B200E493F580EB4A600353807FE5A0541F4424
:0708C200E0F5A053A01F2286
:0C08F9000108000109FF010A00010BFFCB
:10090600ED4C600FA8077401088002C333D8FC427F
:1009160008800EA8077401088002C333D8FCF4527D
:1009260008E50865096013E508F4F580E5A0541F9D
:0A0936004480F5A053A01F850809B6
:010940002294
:100A2800EF6005430A108003530AEFE50A650B607F
:100A380011850A80E5A0541F44A0F5A053A01F8586
:020A48000A0B97
:010A4A002289
:040AC300D2A07F0539
:100AC700000000000000000000000000000000AE71
:060AD700071FEE70EB2288
:0F0B3400D2A1120AC3C2A17F05120AC7C2A02212
:0C0B4300C2A1120AC3D2A17F05020AC79A
:02097C00AD07C5
:10097E00E4FCECC39408748094805024C2A07F05DC
:10098E00120AC7ED30E704D2A18002C2A17F051280
:10099E000AC7D2A0ED25E0FD7F05120AC70C80D252
:0209AE00C2A0E5
:0109B0002224
:030AF70012097C65
:100AFA00120AC3A2A1E433FDC2A07F05120AC7AF3E
:010B0A0005E5
:010B0B0022C7
:100ADD00AB07120B347F90120AF77F43120AF7AF60
:0A0AED000312097C120AFA020B43FF
:040A6E007F057E0082
:100A7200EF1FAA0670011E4A600FE4FDEDC3940C3D
:090A82007480948050EA0D80F3A9
:010A8B002248
:0209DA00A9076B
:1009DC00E4FBEBC39408748094805012C294E91326
:1009EC009294120A6ED294E9C313F90B80E47F053A
:0509FC007E00020A72FA
:100A4B00E4FBEBC39408748094805014C294ECC301
:100A5B0013FCD294309403430480120A6E0B80E291
:020A6B00AF04D6
:010A6D002266
:100A0100C206D2947F0C7E00120A72C2947F507E7D
:100A110000120A72D2947F0A7E00120A72A2949284
:060A210006120A6EA20697
:010A270022AC
:10094100120A017FCC1209DA7F441209DA7F147E80
:1009510000120A72120A017FCC1209DA7FBE120953
:10096100DA120A4BA907120A4BEFAD01FCEC120394
:0B0971003AE4FBFA7980784102021F93
:10001E000203DFE86480F8E933E83360110460F02E
:10002E00ED33EC337009E8FCE9FDEAFEEBFF220448
:10003E0060DED3EB9FEA9EE99DE8C2E78CF0C2F743
:10004E0095F0400CE8CCF8E9CDF9EACEFAEBCFFB0F
:10005E001203AA85D0F05804700320D5B3E80470BB
:10006E00075002B2D50203E992D5EC0460F7E4CC56
:10007E00C0E0C398F8603B94186008400DD0E0FBD8
:10008E000203C1E4FBFAC9FC8028E830E406E4C9A7
:10009E00FBE4CAFCE830E305E4C9CACBFCE854072C
:1000AE006010F8C3E913F9EA13FAEB13FBEC13FC37
:1000BE00D8F130F52FC3E49CFCEF9BFFEE9AFEEDDA
:1000CE0099FDD0E0FBEF4E4D4C701222DB03020384
:1000DE00E6EC2CFCEF33FFEE33FEED33FDED30E7B7
:1000EE00EB0203C1EF2BFFEE3AFEED39FDD0E0FB44
:1000FE0050130BBB00030203E9ED13FDEE13FEEFED
:08010E0013FFEC13FC0203C116
:10011600EC4D6011E8497017ED33EC3304600DE4E3
:10012600FCFFFEFD22E933E8330470F80203DF1218
:1001360003AA58046009E4CC248150062850090219
:1001460003E92840030203E6C0E0EB4A7044B980A5
:1001560006D0E0FB0203D5EF4E701CBD8008EBFF16
:10016600EAFEE9FD80EBE98DF0A4FEE5F00201FF71
:10017600E9CDF9EAFEEBFFEF89F0A4FCE5F0CE89C4
:10018600F0A42EFFE435F0CD89F0A42DFEE435F081
:100196008067EF4E7005BD80D780C3EF8BF0A4ACAF
:1001A600F0EE8BF0A42CFCE435F0F8EF8AF0A42CEA
:1001B600E5F038FCE433CB8DF0A42CFCE5F03BF8FD
:1001C600EE8AF0A42CFCE5F038F8E433CF89F0A4ED
:1001D6002CFCE5F038CF3400CE89F0A42FFFE5F0F3
:1001E6003EFEE433C98DF0A42EFEE5F039CD8AF04B
:1001F600A42FFFE5F03EFEE43DFD33D0E0FB5007C3
:100206000BBB000F0203E9EC2CFCEF33FFEE33FED1
:06021600ED33FD0203C1FF
:10021C000203E9EC5D046005E8590470030203DF96
:10022C001203AA580460F6EC4860F2EC7004FDFE70
:10023C00FF22C860DB2481C85009C39860025006B5
:10024C000203E69850CAF582E9294B4A7005AB8245
:10025C000203D575F0007C1A7880C3EF9BEE9AED03
:10026C0099400DC3EF9BFFEE9AFEED99FDE842F02D
:10027C00DC23ACF0D0E0FFD0E0FED0E0FDAB822080
:10028C00E7101BEB60BAEC2CFCEF33FFEE33FEED0A
:10029C0033FD0203C1E803F830E705C0F075F00048
:1002AC00EF2FFFEE33FEED33FD40B830E7C280AAEE
:1002BC0074F8CC6480CCC86480C8F58204604FC3E9
:1002CC00EB9FF5F0EA9E42F0E99D42F0E89C45F088
:1002DC00603C501DE5825FFFE582D313CB5BCBF412
:1002EC002B5582FB50280ABA002409B9002008803B
:1002FC001DE5825BFBE582D313CF5FCFF4C3132FD5
:10030C005582FF50090EBE00050DBD00010CC3EB5C
:10031C009FF5F0EA9E42F0E99D42F0E89C45F060C2
:09032C0007CC4820E701B3EC22E4
:1003350075F020800E75F010800575F0087D007E43
:10034500007F003392D530D503120449EC334010B9
:10035500EF33FFEE33FEED33FDEC33FCD5F0ED224C
:0E036500E5F0247EA2D513CC92E7CDCEFF2288
:10037300EDD2E7CD33EC3392D524814006E4FFFE82
:10038300FDFC22FCE4CFCECDCC24E0501174FF80E1
:10039300EDC3CC13CCCD13CDCE13CECF13CF04707E
:0703A300F030D5DE02044931
:1003AA00E9D2E7C933E833F892D5EDD2E7CD33EC99
:0703BA0033FC5002B2D52212
:1003C100EC30E7100FBF000C0EBE00080DBD00049D
:1003D1000BEB6014A2D5EB13FCED92E7FD2274FF49
:1003E100FCFDFEFF22E480F8A2D574FF13FC7D80A2
:0303F100E480EFB6
:10073800020AA9E493A3F8E493A34003F68001F224
:1007480008DFF48029E493A3F85407240CC8C333C2
:10075800C4540F4420C8834004F456800146F6DF91
:10076800E4800B01020408102040809008C9E47E50
:10077800019360BCA3FF543F30E509541FFEE49386
:10078800A360010ECF54C025E060A840B8E493A34D
:10079800FAE493A3F8E493A3C8C582C8CAC583CA78
:1007A800F0A3C8C582C8CAC583CADFE9DEE780BE30
:0109050000F1
:1003F400BC000BBE0029EF8DF084FFADF022E4CCED
:10040400F875F008EF2FFFEE33FEEC33FCEE9DECB5
:10041400984005FCEE9DFE0FD5F0E9E4CEFD22EDFB
:10042400F8F5F0EE8420D21CFEADF075F008EF2F45
:10043400FFED33FD4007985006D5F0F222C398FD36
:050444000FD5F0EA22D3
:0E044900C3E49FFFE49EFEE49DFDE49CFC22C4
:00000001FF
