:1007820008340A0A0A0A0A0A0A0A082700000000AC
:100792000000000008420000000000000000032FDB
:1007A200235958034D000000033C235950035900BC
:1007B2000000095000002F00003C000059012100F8
:0907C200012200012300012400C2
:10027D00E4F508300203020488D202E52FB54D0CD7
:10028D00E530B54E07E531B54F02D20512070F8F98
:10029D0023E5236524FF5523F521E523F45FF5229E
:1002AD00852324300506E5216002C205E52464049A
:1002BD007008E5267004D2018002C201E5267003A4
:1002CD00020418E5216405600302039BE52675F021
:1002DD0003A42450F8860308E6FA08E6F98525827A
:1002ED0075830074011201B3540F640A701CE52666
:1002FD0075F003A42450F8860308E6FA08E6F9859C
:10030D00258275830074061201B3AF257E00EF6060
:10031D003AE52675F003A42450F8860308E6FA089A
:10032D00E6F98525827583001201866460701CE5EF
:10033D002675F003A42450F8860308E6FA08E6F9BA
:10034D008525827583007459020415EF4E600302F2
:10035D000418E52675F003A42450F8860308E6FA80
:10036D0008E6F985258275830012018664246003F1
:10037D00020418E52675F003A42450F8860308E658
:10038D00FA08E6F98525827583007423807AE521C4
:10039D0064047077E52675F003A42450F8860308ED
:1003AD00E6FA08E6F985258275830074FF1201B31C
:1003BD00540F640F701CE52675F003A42450F886C5
:1003CD000308E6FA08E6F985258275830074FA12AA
:1003DD0001B3E52675F003A42450F8860308E6FA68
:1003ED0008E6F985258275830012018664F9701B74
:1003FD00E52675F003A42450F8860308E6FA08E60E
:10040D00F9852582758300E41201F8E521640770F2
:10041D002BAF26EF64026024EF700D752601FB7A79
:10042D0000793C1208CB80140525E5256403700C7A
:10043D00F525F526FB7A00793C120813E5216406B3
:10044D007039AF26EF64016032EF70047526022219
:10045D000525E52564037023F525F526F508C3E587
:10046D0008940374809480501274592508F8E6FF9F
:0B047D00744D2508F8A607050880E371
:010488002251
:10048900E4F5083000030205ACD200FB7A00792FAD
:100499001208CB1208FF1200EC8F4130010302054C
:1004A9007A75360B75390BE4F508C3E508940374BE
:1004B9008094805055E52675F003A42450F88603EE
:1004C90008E6FA08E6F9850882758300120186C4F0
:1004D900540FFFE50875F003A42434F8A607E526B0
:1004E90075F003A42450F8860308E6FA08E6F985AE
:1004F9000882758300120186540FFFE50875F00321
:10050900A42435F8A607050880A0E526700302058E
:10051900AC3006047D0A801EE52675F003A424503C
:10052900F8860308E6FA08E6F9852582758300123C
:100539000186C4540FFDE5258508F0A42434F8A6E6
:10054900053006047D0A801DE52675F003A42450B4
:10055900F8860308E6FA08E6F9852582758300120C
:100569000186540FFDE5258508F0A42435F8A60574
:1005790022E4F508C3E508940574809480500B744F
:10058900342508F8760A050880EAE54175F00A84F9
:1005990075F00A8485F039E54175F00A8485F03AE9
:0305A900753B0E91
:0105AC00222C
:100A0300200418D20430050C3003047F0080027FD9
:0C0A1300018F4222E4F542F532F5332257
:100A5500538E7F5389F0758A18758CFCC28DD28CA4
:050A6500D2A9D2AF226E
:03000B000205AD3E
:1005AD00C0E0C0F0C083C082C0D075D000C000C014
:1005BD0001C002C003C004C005C006C0070540E568
:1005CD00407002053F64C8453F7006C200F53FF517
:1005DD0040AE3FAF407C007D0A12021AED4C700216
:1005ED00C202AE3FAF407C007D3212021AED4C705C
:1005FD0002C204E5405407FBFF2434F8E6FD7C00FD
:10060D0074272BF8E6FB7A001207D2E5405407FF5A
:10061D002442F8E6FD7C00120890054CE54C700272
:10062D00054BFFAE4BBE010EBFF40B754B00754C69
:10063D0000A206B39206054AE54A64647007F54ABE
:10064D00A203B392033005130533E533700205326F
:10065D00FFAE32BE1305BF8802C205D007D006D04B
:10066D0005D004D003D002D001D000D0D0D082D09C
:06067D0083D0F0D0E03252
:100A6A00EF4E600F7D0C7CA9DCFEDDFCEF1F70F001
:030A7A001E80EDEE
:010A7D002256
:100981001209E6120A557B007A00792F1208131218
:1009910008FF7FEE7E02120A6A12027D120489129A
:0409A1000A0380F5D0
:1009E600E4F580E5A0541F44A0F5A053A01F758030
:0D09F600FFE5A0541F4480F5A053A01F2270
:10070F00E4FFC2B4D2B5D2C2D2C420B0027F13204C
:10071F00B1027F1220B2027F1120B3027F10D2B438
:10072F00C2B5D2C2D2C420B0027F0F20B1027F0E59
:10073F0020B2027F0D20B3027F0CD2B4D2B5C2C259
:10074F00D2C420B0027F0B20B1027F0A20B2027FF9
:10075F000920B3027F08D2B4D2B5D2C2C2C420B02E
:10076F00027F0720B1027F0620B2027F0520B3026D
:02077F007F04F5
:010781002255
:100A3B00C0F9A4B0999282F88090FFBF8883C6A1B9
:0A0A4B00868E01020408102040808E
:1007D2007580FFE5A0541F44E0F5A053A01FEF90E1
:1007E2000A4D93F580E5A0541F44C0F5A053A01F05
:1007F200743B2DF582740A3CF583E493F580EB4A51
:10080200600353807FE5A0541F44E0F5A053A01F6E
:0108120022C3
:0607CB00010D00010CFF0E
:10089000ED4C600FA8077401088002C333D8FC42F6
:1008A0000D800EA8077401088002C333D8FCF452EF
:1008B0000DE50D650C6013E50DF4F580E5A0541F02
:0B08C0004480F5A053A01F850D0C2202
:100A1F00E4FEEEC3940874809480500FC297EF13D6
:0B0A2F0092A3EFC313FFD2970E80E7E5
:010A3A002299
:100A7E00C29300C29700D29300120A1FAF05120A4A
:040A8E001FC29322CE
:10085300E4FDC29300C29700D29300120A1FE4FF83
:10086300EFC39408748094805011C297EDC313FDB5
:1008730030A303430580D2970F80E5C29300C2974C
:0C08830000D29700C2A300D2A300AF0572
:01088F002246
:060813008B098A0A890B23
:10081900E4FCFD7F8E120A7EECC3940374809480FD
:100829005021EC25E0FFC374849FFFAB09050BE55C
:100839000BAA0A7002050A14F912016DFD120A7E4B
:0A0849000C80D57D807F8E020A7EB0
:0608CB008B098A0A890B6B
:1008D100E4FCECC39403748094805021EC25E0FF88
:1008E100C374859FFF120853AB09050BE50BAA0AD8
:0D08F1007002050A14F9EF1201E60C80D523
:0108FE0022D7
:0409C8007F057E0029
:1009CC00EF1FAA0670011E4A600FE4FDEDC3940CE4
:0909DC007480948050EA0D80F350
:0109E50022EF
:02093300A90712
:10093500E4FBEBC39408748094805012C294E913CD
:1009450092941209C8D294E9C313F90B80E47F0588
:050955007E000209CC48
:1009A500E4FBEBC39408748094805014C294ECC3A8
:1009B50013FCD2943094034304801209C80B80E2DF
:0209C500AF047D
:0109C700220D
:10095A00C207D2947F0C7E001209CCC2947F507ECB
:10096A00001209CCD2947F0A7E001209CCA294927A
:06097A00071209C8A207E4
:010980002254
:1008FF0012095A7FCC1209337F4412093312095A55
:10090F007FCC1209337FBE1209331209A5A9071232
:10091F0009A5EFAD01FCEC1200B3E4FBFA79807886
:04092F004102001170
:10000E00020162EC5D046005E859047003020158B8
:10001E00120123580460F6EC4860F2EC7004FDFE09
:10002E00FF22C860DB2481C85009C39860025006C5
:10003E0002015F9850CAF582E9294B4A7005AB82DE
:10004E0002014E75F0007C1A7880C3EF9BEE9AED9C
:10005E0099400DC3EF9BFFEE9AFEED99FDE842F03D
:10006E00DC23ACF0D0E0FFD0E0FED0E0FDAB822090
:10007E00E7101BEB60BAEC2CFCEF33FFEE33FEED1A
:10008E0033FD02013AE803F830E705C0F075F000E1
:10009E00EF2FFFEE33FEED33FD40B830E7C280AAFE
:1000AE0075F020800E75F010800575F0087D007ECD
:1000BE00007F003392D530D50312026FEC3340101F
:1000CE00EF33FFEE33FEED33FDEC33FCD5F0ED22D6
:0E00DE00E5F0247EA2D513CC92E7CDCEFF2212
:1000EC00EDD2E7CD33EC3392D524814006E4FFFE0C
:1000FC00FDFC22FCE4CFCECDCC24E0501174FF806B
:10010C00EDC3CC13CCCD13CDCE13CECF13CF047007
:07011C00F030D5DE02026F96
:10012300E9D2E7C933E833F892D5EDD2E7CD33EC22
:0701330033FC5002B2D5229B
:10013A00EC30E7100FBF000C0EBE00080DBD000426
:10014A000BEB6014A2D5EB13FCED92E7FD2274FFD2
:10015A00FCFDFEFF22E480F8A2D574FF13FC7D802B
:03016A00E480EF3F
:0300000002068372
:0C068300787FE4F6D8FD75815B0206CAA2
:10016D00BB010689828A83E0225002E722BBFE0290
:09017D00E32289828A83E49322C3
:10018600BB010CE58229F582E5833AF583E022502E
:1001960006E92582F8E622BBFE06E92582F8E22278
:0D01A600E58229F582E5833AF583E4932292
:1001B300BB010FF8E58229F582E5833AF583E02850
:1001C300F0225009C58229F8E58226F622BBFE09F2
:1001D300C58229F8E22582F222F8EA2583F583E92C
:0301E3009328223C
:1001E600BB010689828A83F0225002F722BBFE01F8
:0201F600F322F2
:1001F800F8BB010DE58229F582E5833AF583E8F03D
:10020800225006E92582C8F622BBFE05E92582C8E8
:02021800F222D0
:10021A00BC000BBE0029EF8DF084FFADF022E4CCC8
:10022A00F875F008EF2FFFEE33FEEC33FCEE9DEC91
:10023A00984005FCEE9DFE0FD5F0E9E4CEFD22EDD7
:10024A00F8F5F0EE8420D21CFEADF075F008EF2F21
:10025A00FFED33FD4007985006D5F0F222C398FD12
:05026A000FD5F0EA22AF
:0E026F00C3E49FFFE49EFEE49DFDE49CFC22A0
:10068F00020981E493A3F8E493A34003F68001F2F7
:10069F0008DFF48029E493A3F85407240CC8C3336C
:1006AF00C4540F4420C8834004F456800146F6DF3B
:1006BF00E4800B0102040810204080900782E47E42
:1006CF00019360BCA3FF543F30E509541FFEE49330
:1006DF00A360010ECF54C025E060A840B8E493A3F7
:1006EF00FAE493A3F8E493A3C8C582C8CAC583CA22
:1006FF00F0A3C8C582C8CAC583CADFE9DEE780BEDA
:0107D1000027
:00000001FF
