C51 COMPILER V9.59.0.0   MAIN                                                              03/07/2024 18:13:28 PAGE 1   


C51 COMPILER V9.59.0.0, COMPILATION OF MODULE MAIN
OBJECT MODULE PLACED IN .\Objects\main.obj
COMPILER INVOKED BY: D:\keil 5\C51\BIN\C51.EXE main.c OPTIMIZE(8,SPEED) BROWSE INCDIR(..\User;..\Drivers) DEBUG OBJECTEX
                    -TEND PRINT(.\Listings\main.lst) OBJECT(.\Objects\main.obj)

line level    source

   1          /* 头文件声明区 */
   2          #include <STC15F2K60S2.H>
   3          #include <stdio.h>
   4          #include "Init.h"
   5          #include "Key.h"
   6          #include "Seg.h"
   7          #include "LED.h"
   8          #include "Uart.h"
   9          
  10          /* 基础变量创建区 */
  11          unsigned int Slow_Down;                                                 //减速扫描专用
  12          bit Key_Slow_Flag, Seg_Slow_Flag;                                       //按键数码管减速标志位
  13          unsigned char Seg_Buf[8] = {10, 10, 10, 10, 10, 10, 10, 10};            //数码管显示缓冲区
  14          unsigned char Seg_Point[8] = {0, 0, 0, 0, 0, 0, 0, 0};                  //数码管小数点显示缓冲区
  15          unsigned char LED_Buf[8] = {0, 0, 0, 0, 0, 0, 0, 0};                    //LED显示缓冲区
  16          
  17          /* 变量创建区 */
  18          unsigned char Num;
  19          idata unsigned char Uart_Rxd_Buf[15];
  20          unsigned char Uart_Rxd_Index;
  21          bit Uart_Slow_Flag, Uart_Rxd_Flag;
  22          
  23          /* 按键处理函数 */
  24          void Key_Proc()
  25          {
  26   1          static unsigned char Key_Down = 0, Key_UP = 0;  //变量
  27   1          static unsigned char Key_New = 0, Key_Old = 0;  //创建
  28   1      
  29   1          if (Key_Slow_Flag) return;
  30   1          Key_Slow_Flag = 1;                              //减速
  31   1          
  32   1          Key_New = Key_Read();                           //获取键码
  33   1          Key_Down = Key_New & ( Key_New ^ Key_Old);      //捕获下降沿
  34   1          Key_UP = ~Key_New & ( Key_New ^ Key_Old);       //捕获上升沿
  35   1          Key_Old = Key_New;                              //辅助扫描
  36   1          
  37   1          switch (Key_Down)
  38   1          {
  39   2              case 4:
  40   2                  if (++Num == 18) Num = 0;
  41   2              break;
  42   2              case 5:
  43   2                  printf("Num = %d\r\n", (unsigned int)Num);
  44   2              break;
  45   2              
  46   2          }
  47   1      }
  48          
  49          /* 信息处理函数 */
  50          void Infor_Proc()
  51          {
  52   1          if (Seg_Slow_Flag) return;
  53   1          Seg_Slow_Flag = 1;                              //减速
  54   1          
C51 COMPILER V9.59.0.0   MAIN                                                              03/07/2024 18:13:28 PAGE 2   

  55   1          if (Num >= 10)          //高位熄灭
  56   1              Seg_Buf[6] = Num / 10;
  57   1          else
  58   1              Seg_Buf[6] = 10;
  59   1          
  60   1          Seg_Buf[7] = Num % 10;
  61   1      }
  62          
  63          /* 其他处理函数 */
  64          void Other_Proc()
  65          {
  66   1          
  67   1      }
  68          
  69          /* 串口处理函数 */
  70          void UART_Proc()
  71          {
  72   1      //    unsigned char temp = 0x00;
  73   1          if (Uart_Slow_Flag) return;
  74   1          Uart_Slow_Flag = 1;
  75   1          
  76   1          if (Uart_Rxd_Flag)
  77   1          {
  78   2              if (Uart_Rxd_Index == 8)
  79   2              {
  80   3                  if (Uart_Rxd_Buf[0] == 'L' && Uart_Rxd_Buf[1] == 'E' && Uart_Rxd_Buf[2] == 'D' && Uart_Rxd_Buf
             -[4] == ' ' && Uart_Rxd_Buf[5] == '=' && Uart_Rxd_Buf[6] == ' ')
  81   3                  {
  82   4                      LED_Buf[Uart_Rxd_Buf[3] - 48] = Uart_Rxd_Buf[7] - 48;
  83   4                      printf("OK\r\n");
  84   4                  }
  85   3              }
  86   2              else
  87   2                  printf("ERROR\r\n");
  88   2              Uart_Rxd_Index = Uart_Rxd_Flag = 0;
  89   2          }
  90   1      }    
  91              
  92          /* 定时器初始化函数 */
  93          void Timer0_Init(void)          //1毫秒@12.000MHz
  94          {
  95   1          AUXR &= 0x7F;                       //定时器时钟12T模式
  96   1          TMOD &= 0xF0;                       //设置定时器模式
  97   1          TL0 = 0x18;                         //设置定时初始值
  98   1          TH0 = 0xFC;                         //设置定时初始值
  99   1          TF0 = 0;                            //清除TF0标志
 100   1          TR0 = 1;                            //定时器0开始计时
 101   1          ET0 = 1;
 102   1          EA  = 1;
 103   1      }
 104          
 105          /* 定时器中断服务函数 */
 106          void Timer0_Serve() interrupt 1
 107          {
 108   1          if (++Slow_Down == 400) Slow_Down = Seg_Slow_Flag = 0;
 109   1          if (Slow_Down % 10 == 0) Key_Slow_Flag = 0;
 110   1          if (Slow_Down % 200 == 0) Uart_Slow_Flag = 0;
 111   1          Seg_Show(Slow_Down%8, Seg_Buf[Slow_Down%8], Seg_Point[Slow_Down%8]);
 112   1          LED_Show(Slow_Down%8, LED_Buf[Slow_Down%8]);
 113   1      }
 114          
 115          /* 串口中断函数 */
C51 COMPILER V9.59.0.0   MAIN                                                              03/07/2024 18:13:28 PAGE 3   

 116          void Uart_Sevre() interrupt 4
 117          {
 118   1          if (RI == 1)
 119   1          {
 120   2              Uart_Rxd_Buf[Uart_Rxd_Index++] = SBUF;
 121   2              Uart_Rxd_Flag = 1;
 122   2              RI = 0;
 123   2          }
 124   1      }
 125          
 126          /* 延时函数 */
 127          void Delay_ms(unsigned int xms)         //@12.000MHz
 128          {
 129   1          unsigned char i, j;
 130   1          while (xms)
 131   1          {
 132   2              i = 12;
 133   2              j = 169;
 134   2              do
 135   2              {
 136   3                  while (--j);
 137   3              } while (--i);
 138   2              xms--;
 139   2          }
 140   1      }
 141          
 142          /* 主函数 */
 143          void main()
 144          {
 145   1          Init();
 146   1          Uart_Init();
 147   1          Timer0_Init();
 148   1          while (1)
 149   1          {
 150   2              Key_Proc();
 151   2              Infor_Proc();
 152   2              Other_Proc();
 153   2              UART_Proc();
 154   2          }
 155   1      }
 156          
 157          
 158          


MODULE INFORMATION:   STATIC OVERLAYABLE
   CODE SIZE        =    446    ----
   CONSTANT SIZE    =     24    ----
   XDATA SIZE       =   ----    ----
   PDATA SIZE       =   ----    ----
   DATA SIZE        =     32    ----
   IDATA SIZE       =     15    ----
   BIT SIZE         =      4    ----
END OF MODULE INFORMATION.


C51 COMPILATION COMPLETE.  0 WARNING(S),  0 ERROR(S)
