BL51 BANKED LINKER/LOCATER V6.22.2.0                                                    05/22/2024  15:22:19  PAGE 1


BL51 BANKED LINKER/LOCATER V6.22.2.0, INVOKED BY:
D:\KEIL 5\C51\BIN\BL51.EXE .\Objects\STARTUP.obj, .\Objects\main.obj, .\Objects\Init.obj, .\Objects\Key.obj, .\Objects\S
>> eg.obj, .\Objects\LED.obj, .\Objects\ds1302.obj, .\Objects\iic.obj, .\Objects\onewire.obj TO .\Objects\project PRINT 
>> (.\Listings\project.m51) RAMSIZE (256)


MEMORY MODEL: SMALL WITH FLOATING POINT ARITHMETIC


INPUT MODULES INCLUDED:
  .\Objects\STARTUP.obj (?C_STARTUP)
  .\Objects\main.obj (MAIN)
  .\Objects\Init.obj (INIT)
  .\Objects\Key.obj (KEY)
  .\Objects\Seg.obj (SEG)
  .\Objects\LED.obj (LED)
  .\Objects\ds1302.obj (DS1302)
  .\Objects\iic.obj (IIC)
  .\Objects\onewire.obj (ONEWIRE)
  D:\KEIL 5\C51\LIB\C51FPS.LIB (?C?FPMUL)
  D:\KEIL 5\C51\LIB\C51FPS.LIB (?C?FPDIV)
  D:\KEIL 5\C51\LIB\C51FPS.LIB (?C?FPCMP)
  D:\KEIL 5\C51\LIB\C51FPS.LIB (?C?FCAST)
  D:\KEIL 5\C51\LIB\C51FPS.LIB (?C?CASTF)
  D:\KEIL 5\C51\LIB\C51FPS.LIB (?C?FPGETOPN)
  D:\KEIL 5\C51\LIB\C51S.LIB (?C_INIT)
  D:\KEIL 5\C51\LIB\C51S.LIB (?C?CLDOPTR)
  D:\KEIL 5\C51\LIB\C51S.LIB (?C?CSTOPTR)
  D:\KEIL 5\C51\LIB\C51S.LIB (?C?UIDIV)
  D:\KEIL 5\C51\LIB\C51S.LIB (?C?LNEG)


LINK MAP OF MODULE:  .\Objects\project (?C_STARTUP)


            TYPE    BASE      LENGTH    RELOCATION   SEGMENT NAME
            -----------------------------------------------------

            * * * * * * *   D A T A   M E M O R Y   * * * * * * *
            REG     0000H     0008H     ABSOLUTE     "REG BANK 0"
            DATA    0008H     0004H     UNIT         _DATA_GROUP_
            DATA    000CH     0002H     UNIT         ?DT?LED
                    000EH     0012H                  *** GAP ***
            BIT     0020H.0   0001H.0   UNIT         ?BI?MAIN
            BIT     0021H.0   0000H.1   UNIT         _BIT_GROUP_
                    0021H.1   0000H.7                *** GAP ***
            DATA    0022H     0033H     UNIT         ?DT?MAIN
            IDATA   0055H     0001H     UNIT         ?STACK

            * * * * * * *   C O D E   M E M O R Y   * * * * * * *
            CODE    0000H     0003H     ABSOLUTE     
            CODE    0003H     0018H     UNIT         ?PR?_I2CSENDACK?IIC
            CODE    001BH     0003H     ABSOLUTE     
            CODE    001EH     0390H     UNIT         ?C?LIB_CODE
            CODE    03AEH     0183H     UNIT         ?PR?SEG_DEAL?MAIN
            CODE    0531H     00E7H     UNIT         ?PR?KEY_DEAL?MAIN
            CODE    0618H     00DBH     UNIT         ?PR?LED_DEAL?MAIN
            CODE    06F3H     00ABH     UNIT         ?PR?TIMER1_SERVE?MAIN
BL51 BANKED LINKER/LOCATER V6.22.2.0                                                  05/22/2024  15:22:19  PAGE 2


            CODE    079EH     008DH     UNIT         ?PR?INFOR_DEAL?MAIN
            CODE    082BH     008CH     UNIT         ?C_C51STARTUP
            CODE    08B7H     0073H     UNIT         ?PR?KEY_READ?KEY
            CODE    092AH     0051H     UNIT         ?PR?_DS1302_WRITE_RTC?DS1302
            CODE    097BH     004AH     UNIT         ?C_INITSEG
            CODE    09C5H     0047H     UNIT         ?PR?_SEG_SHOW?SEG
            CODE    0A0CH     0047H     UNIT         ?PR?_READ_DS1302_BYTE?DS1302
            CODE    0A53H     003DH     UNIT         ?PR?_DS1302_READ_RTC?DS1302
            CODE    0A90H     003BH     UNIT         ?PR?_LED_SHOW?LED
            CODE    0ACBH     0037H     UNIT         ?PR?DS18B20_READ_T?ONEWIRE
            CODE    0B02H     0035H     UNIT         ?PR?_I2CSENDBYTE?IIC
            CODE    0B37H     002CH     UNIT         ?PR?_AD_READ?IIC
            CODE    0B63H     0027H     UNIT         ?PR?_WRITE_DS18B20?ONEWIRE
            CODE    0B8AH     0027H     UNIT         ?PR?INIT_DS18B20?ONEWIRE
            CODE    0BB1H     0026H     UNIT         ?PR?I2CRECEIVEBYTE?IIC
            CODE    0BD7H     0025H     UNIT         ?PR?MAIN?MAIN
            CODE    0BFCH     0023H     UNIT         ?PR?READ_DS18B20?ONEWIRE
            CODE    0C1FH     001EH     UNIT         ?PR?_DELAY_ONEWIRE?ONEWIRE
            CODE    0C3DH     001DH     UNIT         ?PR?SYSTEM_INIT?INIT
            CODE    0C5AH     001CH     UNIT         ?PR?_WRITE_DS1302?DS1302
            CODE    0C76H     001AH     UNIT         ?PR?_I2C_DELAY?IIC
            CODE    0C90H     0015H     UNIT         ?PR?TIMER1_INIT?MAIN
            CODE    0CA5H     0015H     UNIT         ?PR?I2CWAITACK?IIC
            CODE    0CBAH     0014H     UNIT         ?PR?_WRITE_DS1302_BYTE?DS1302
            CODE    0CCEH     0013H     UNIT         ?CO?SEG
            CODE    0CE1H     000FH     UNIT         ?PR?I2CSTART?IIC
            CODE    0CF0H     000CH     UNIT         ?PR?I2CSTOP?IIC



OVERLAY MAP OF MODULE:   .\Objects\project (?C_STARTUP)


SEGMENT                                  BIT_GROUP          DATA_GROUP 
  +--> CALLED SEGMENT                 START    LENGTH     START    LENGTH
-------------------------------------------------------------------------
?C_C51STARTUP                         -----    -----      -----    -----
  +--> ?PR?MAIN?MAIN
  +--> ?C_INITSEG

?PR?MAIN?MAIN                         -----    -----      -----    -----
  +--> ?PR?SYSTEM_INIT?INIT
  +--> ?PR?TIMER1_INIT?MAIN
  +--> ?PR?DS18B20_READ_T?ONEWIRE
  +--> ?PR?_DS1302_WRITE_RTC?DS1302
  +--> ?PR?_AD_READ?IIC
  +--> ?PR?KEY_DEAL?MAIN
  +--> ?PR?SEG_DEAL?MAIN
  +--> ?PR?LED_DEAL?MAIN
  +--> ?PR?INFOR_DEAL?MAIN

?PR?DS18B20_READ_T?ONEWIRE            -----    -----      -----    -----
  +--> ?PR?INIT_DS18B20?ONEWIRE
  +--> ?PR?_WRITE_DS18B20?ONEWIRE
  +--> ?PR?READ_DS18B20?ONEWIRE

?PR?INIT_DS18B20?ONEWIRE              0021H.0  0000H.1    -----    -----
BL51 BANKED LINKER/LOCATER V6.22.2.0                                                  05/22/2024  15:22:19  PAGE 3


  +--> ?PR?_DELAY_ONEWIRE?ONEWIRE

?PR?_WRITE_DS18B20?ONEWIRE            -----    -----      -----    -----
  +--> ?PR?_DELAY_ONEWIRE?ONEWIRE

?PR?READ_DS18B20?ONEWIRE              -----    -----      -----    -----
  +--> ?PR?_DELAY_ONEWIRE?ONEWIRE

?PR?_DS1302_WRITE_RTC?DS1302          -----    -----      0008H    0003H
  +--> ?PR?_WRITE_DS1302_BYTE?DS1302

?PR?_WRITE_DS1302_BYTE?DS1302         -----    -----      -----    -----
  +--> ?PR?_WRITE_DS1302?DS1302

?PR?_AD_READ?IIC                      -----    -----      -----    -----
  +--> ?PR?I2CSTART?IIC
  +--> ?PR?I2CWAITACK?IIC
  +--> ?PR?_I2CSENDBYTE?IIC
  +--> ?PR?I2CRECEIVEBYTE?IIC
  +--> ?PR?_I2CSENDACK?IIC
  +--> ?PR?I2CSTOP?IIC

?PR?I2CSTART?IIC                      -----    -----      -----    -----
  +--> ?PR?_I2C_DELAY?IIC

?PR?I2CWAITACK?IIC                    -----    -----      -----    -----
  +--> ?PR?_I2CSENDBYTE?IIC
  +--> ?PR?_I2C_DELAY?IIC

?PR?_I2CSENDBYTE?IIC                  -----    -----      -----    -----
  +--> ?PR?_I2C_DELAY?IIC

?PR?I2CRECEIVEBYTE?IIC                -----    -----      -----    -----
  +--> ?PR?_I2C_DELAY?IIC

?PR?_I2CSENDACK?IIC                   -----    -----      -----    -----
  +--> ?PR?_I2C_DELAY?IIC

?PR?I2CSTOP?IIC                       -----    -----      -----    -----
  +--> ?PR?_I2C_DELAY?IIC

?PR?KEY_DEAL?MAIN                     -----    -----      -----    -----
  +--> ?PR?KEY_READ?KEY

?PR?INFOR_DEAL?MAIN                   -----    -----      -----    -----
  +--> ?PR?_DS1302_READ_RTC?DS1302
  +--> ?PR?_AD_READ?IIC
  +--> ?PR?DS18B20_READ_T?ONEWIRE

?PR?_DS1302_READ_RTC?DS1302           -----    -----      0008H    0004H
  +--> ?PR?_READ_DS1302_BYTE?DS1302

?PR?_READ_DS1302_BYTE?DS1302          -----    -----      -----    -----
  +--> ?PR?_WRITE_DS1302?DS1302

*** NEW ROOT ***************************************************

BL51 BANKED LINKER/LOCATER V6.22.2.0                                                  05/22/2024  15:22:19  PAGE 4


?PR?TIMER1_SERVE?MAIN                 -----    -----      -----    -----
  +--> ?PR?_SEG_SHOW?SEG
  +--> ?PR?_LED_SHOW?LED

?PR?_SEG_SHOW?SEG                     -----    -----      -----    -----
  +--> ?CO?SEG



SYMBOL TABLE OF MODULE:  .\Objects\project (?C_STARTUP)

  VALUE           TYPE          NAME
  ----------------------------------

  -------         MODULE        ?C_STARTUP
  C:082BH         SEGMENT       ?C_C51STARTUP
  I:0055H         SEGMENT       ?STACK
  C:0000H         PUBLIC        ?C_STARTUP
  D:00E0H         SYMBOL        ACC
  D:00F0H         SYMBOL        B
  D:0083H         SYMBOL        DPH
  D:0082H         SYMBOL        DPL
  N:0000H         SYMBOL        IBPSTACK
  N:0100H         SYMBOL        IBPSTACKTOP
  N:0080H         SYMBOL        IDATALEN
  C:082EH         SYMBOL        IDATALOOP
  N:0000H         SYMBOL        PBPSTACK
  N:0100H         SYMBOL        PBPSTACKTOP
  N:0000H         SYMBOL        PDATALEN
  N:0000H         SYMBOL        PDATASTART
  N:0000H         SYMBOL        PPAGE
  N:0000H         SYMBOL        PPAGEENABLE
  D:00A0H         SYMBOL        PPAGE_SFR
  D:0081H         SYMBOL        SP
  C:082BH         SYMBOL        STARTUP1
  N:0000H         SYMBOL        XBPSTACK
  N:0000H         SYMBOL        XBPSTACKTOP
  N:0000H         SYMBOL        XDATALEN
  N:0000H         SYMBOL        XDATASTART
  C:0000H         LINE#         126
  C:082BH         LINE#         133
  C:082DH         LINE#         134
  C:082EH         LINE#         135
  C:082FH         LINE#         136
  C:0831H         LINE#         185
  C:0834H         LINE#         196
  -------         ENDMOD        ?C_STARTUP

  -------         MODULE        MAIN
  C:0000H         SYMBOL        _ICE_DUMMY_
  D:0080H         PUBLIC        P0
  D:0090H         PUBLIC        P1
  D:00A0H         PUBLIC        P2
  C:0531H         PUBLIC        Key_Deal
  D:00B0H         PUBLIC        P3
  D:00C0H         PUBLIC        P4
  B:0020H.0       PUBLIC        Seg_Slow_Flag
BL51 BANKED LINKER/LOCATER V6.22.2.0                                                  05/22/2024  15:22:19  PAGE 5


  D:00C8H         PUBLIC        P5
  B:00A8H.7       PUBLIC        EA
  D:00E8H         PUBLIC        P6
  D:00F8H         PUBLIC        P7
  B:0020H.1       PUBLIC        Seg_Show_Mode
  D:0026H         PUBLIC        Seg_Point
  D:00A8H         PUBLIC        IE
  B:0020H.2       PUBLIC        Key_Slow_Flag
  D:002EH         PUBLIC        Rtc_Real_Buf
  D:00B8H         PUBLIC        IP
  B:0020H.3       PUBLIC        Light_Record_Flag
  D:0031H         PUBLIC        Num_Show_Mode
  C:06F3H         PUBLIC        Timer1_Serve
  D:0032H         PUBLIC        Seg_Buf
  D:003AH         PUBLIC        Slow_Down
  D:003CH         PUBLIC        Hour_Show
  D:00D8H         PUBLIC        CCON
  C:0BD7H         PUBLIC        main
  C:0C90H         PUBLIC        Timer1_Init
  C:0618H         PUBLIC        LED_Deal
  D:003DH         PUBLIC        Hour_Set
  D:0098H         PUBLIC        SCON
  D:0089H         PUBLIC        TMOD
  D:0088H         PUBLIC        TCON
  B:0020H.4       PUBLIC        LED_Slow_Flag
  D:003EH         PUBLIC        L3_Record_Sec
  D:008EH         PUBLIC        AUXR
  D:003FH         PUBLIC        Lx_Show
  B:00A8H.3       PUBLIC        ET1
  B:0088H.7       PUBLIC        TF1
  D:008DH         PUBLIC        TH1
  D:008BH         PUBLIC        TL1
  D:0040H         PUBLIC        Lx_Set
  D:0041H         PUBLIC        T
  D:0045H         PUBLIC        LED_Buf
  D:004DH         PUBLIC        T_Show
  B:0020H.5       PUBLIC        Light_Flag
  B:0088H.6       PUBLIC        TR1
  B:0020H.6       PUBLIC        Light_Flag_Old
  C:079EH         PUBLIC        Infor_Deal
  D:004EH         PUBLIC        AD_Light
  D:0052H         PUBLIC        T_Set
  B:0020H.7       PUBLIC        Infor_Slow_Flag
  D:0053H         PUBLIC        Data_Show_Mode
  D:0054H         PUBLIC        i
  C:03AEH         PUBLIC        Seg_Deal
  D:00D0H         PUBLIC        PSW
  -------         PROC          KEY_DEAL
  -------         DO            
  D:0022H         SYMBOL        Key_New
  D:0023H         SYMBOL        Key_Old
  D:0024H         SYMBOL        Key_UP
  D:0025H         SYMBOL        Key_Down
  -------         ENDDO         
  C:0531H         LINE#         33
  C:0531H         LINE#         34
  C:0531H         LINE#         38
BL51 BANKED LINKER/LOCATER V6.22.2.0                                                  05/22/2024  15:22:19  PAGE 6


  C:0537H         LINE#         39
  C:0539H         LINE#         41
  C:053EH         LINE#         42
  C:0549H         LINE#         43
  C:054EH         LINE#         44
  C:0551H         LINE#         46
  C:0563H         LINE#         47
  C:0563H         LINE#         49
  C:0563H         LINE#         50
  C:0568H         LINE#         51
  C:056CH         LINE#         52
  C:056FH         LINE#         54
  C:0571H         LINE#         55
  C:0572H         LINE#         57
  C:0572H         LINE#         59
  C:0575H         LINE#         60
  C:0575H         LINE#         61
  C:0580H         LINE#         62
  C:0582H         LINE#         63
  C:0583H         LINE#         66
  C:0583H         LINE#         67
  C:058EH         LINE#         68
  C:0590H         LINE#         69
  C:0590H         LINE#         70
  C:0591H         LINE#         72
  C:0591H         LINE#         74
  C:0597H         LINE#         75
  C:0597H         LINE#         76
  C:05A3H         LINE#         77
  C:05A3H         LINE#         79
  C:05B4H         LINE#         81
  C:05C5H         LINE#         83
  C:05D6H         LINE#         84
  C:05D6H         LINE#         85
  C:05D6H         LINE#         86
  C:05D6H         LINE#         88
  C:05D6H         LINE#         90
  C:05D9H         LINE#         91
  C:05D9H         LINE#         92
  C:05E5H         LINE#         93
  C:05E5H         LINE#         95
  C:05F6H         LINE#         97
  C:0607H         LINE#         99
  C:0617H         LINE#         100
  C:0617H         LINE#         101
  C:0617H         LINE#         102
  C:0617H         LINE#         103
  C:0617H         LINE#         104
  -------         ENDPROC       KEY_DEAL
  -------         PROC          SEG_DEAL
  C:03AEH         LINE#         107
  C:03AEH         LINE#         108
  C:03AEH         LINE#         109
  C:03B4H         LINE#         110
  C:03B6H         LINE#         113
  C:03BCH         LINE#         114
  C:03BCH         LINE#         115
BL51 BANKED LINKER/LOCATER V6.22.2.0                                                  05/22/2024  15:22:19  PAGE 7


  C:03CEH         LINE#         116
  C:03CEH         LINE#         118
  C:03CEH         LINE#         119
  C:03D6H         LINE#         120
  C:03DFH         LINE#         121
  C:03E2H         LINE#         122
  C:03EAH         LINE#         123
  C:03F3H         LINE#         124
  C:03F6H         LINE#         125
  C:03FEH         LINE#         126
  C:0400H         LINE#         127
  C:0403H         LINE#         129
  C:0403H         LINE#         130
  C:0411H         LINE#         131
  C:041CH         LINE#         132
  C:041FH         LINE#         133
  C:0431H         LINE#         134
  C:0439H         LINE#         135
  C:0457H         LINE#         136
  C:045AH         LINE#         138
  C:045AH         LINE#         139
  C:0463H         LINE#         140
  C:0466H         LINE#         141
  C:0479H         LINE#         142
  C:0496H         LINE#         143
  C:04B4H         LINE#         144
  C:04BAH         LINE#         145
  C:04BCH         LINE#         146
  C:04BCH         LINE#         147
  C:04BCH         LINE#         150
  C:04BCH         LINE#         151
  C:04CAH         LINE#         152
  C:04D5H         LINE#         153
  C:04D8H         LINE#         154
  C:04DDH         LINE#         155
  C:04E9H         LINE#         156
  C:04E9H         LINE#         158
  C:04E9H         LINE#         159
  C:04F1H         LINE#         160
  C:04F3H         LINE#         161
  C:04F5H         LINE#         163
  C:04F5H         LINE#         164
  C:04FDH         LINE#         165
  C:0506H         LINE#         166
  C:0508H         LINE#         168
  C:0508H         LINE#         169
  C:050BH         LINE#         170
  C:050EH         LINE#         171
  C:050EH         LINE#         172
  C:050EH         LINE#         173
  C:050EH         LINE#         176
  C:051FH         LINE#         177
  C:0530H         LINE#         178
  -------         ENDPROC       SEG_DEAL
  -------         PROC          LED_DEAL
  C:0618H         LINE#         181
  C:0618H         LINE#         182
BL51 BANKED LINKER/LOCATER V6.22.2.0                                                  05/22/2024  15:22:19  PAGE 8


  C:0618H         LINE#         183
  C:061EH         LINE#         184
  C:0620H         LINE#         187
  C:0640H         LINE#         188
  C:0642H         LINE#         189
  C:065DH         LINE#         190
  C:0662H         LINE#         192
  C:0665H         LINE#         195
  C:0680H         LINE#         198
  C:0696H         LINE#         199
  C:069BH         LINE#         200
  C:069EH         LINE#         201
  C:06A1H         LINE#         204
  C:06B2H         LINE#         205
  C:06C9H         LINE#         206
  C:06DAH         LINE#         207
  C:06F2H         LINE#         208
  -------         ENDPROC       LED_DEAL
  -------         PROC          INFOR_DEAL
  C:079EH         LINE#         211
  C:079EH         LINE#         212
  C:079EH         LINE#         213
  C:07A4H         LINE#         214
  C:07A6H         LINE#         217
  C:07AFH         LINE#         218
  C:07CCH         LINE#         219
  C:07D7H         LINE#         220
  C:07F1H         LINE#         224
  C:07F8H         LINE#         225
  C:07FBH         LINE#         226
  C:0804H         LINE#         227
  C:0807H         LINE#         228
  C:0810H         LINE#         229
  C:0813H         LINE#         232
  C:081BH         LINE#         233
  C:081BH         LINE#         234
  C:081EH         LINE#         235
  C:081EH         LINE#         236
  C:0821H         LINE#         237
  C:0823H         LINE#         238
  C:0823H         LINE#         239
  C:0824H         LINE#         241
  C:0824H         LINE#         242
  C:0828H         LINE#         243
  C:082AH         LINE#         244
  C:082AH         LINE#         245
  -------         ENDPROC       INFOR_DEAL
  -------         PROC          TIMER1_INIT
  C:0C90H         LINE#         248
  C:0C90H         LINE#         249
  C:0C90H         LINE#         250
  C:0C93H         LINE#         251
  C:0C96H         LINE#         252
  C:0C99H         LINE#         253
  C:0C9CH         LINE#         254
  C:0C9EH         LINE#         255
  C:0CA0H         LINE#         256
BL51 BANKED LINKER/LOCATER V6.22.2.0                                                  05/22/2024  15:22:19  PAGE 9


  C:0CA2H         LINE#         257
  C:0CA4H         LINE#         258
  -------         ENDPROC       TIMER1_INIT
  -------         PROC          TIMER1_SERVE
  C:06F3H         LINE#         261
  C:0710H         LINE#         263
  C:0729H         LINE#         264
  C:073AH         LINE#         265
  C:074BH         LINE#         266
  C:075CH         LINE#         267
  C:0774H         LINE#         268
  C:0783H         LINE#         269
  -------         ENDPROC       TIMER1_SERVE
  -------         PROC          MAIN
  C:0BD7H         LINE#         272
  C:0BD7H         LINE#         273
  C:0BD7H         LINE#         274
  C:0BDAH         LINE#         275
  C:0BDDH         LINE#         276
  C:0BE0H         LINE#         277
  C:0BE9H         LINE#         278
  C:0BEEH         LINE#         280
  C:0BEEH         LINE#         281
  C:0BEEH         LINE#         282
  C:0BF1H         LINE#         283
  C:0BF4H         LINE#         284
  C:0BF7H         LINE#         285
  C:0BFAH         LINE#         286
  -------         ENDPROC       MAIN
  -------         ENDMOD        MAIN

  -------         MODULE        INIT
  C:0000H         SYMBOL        _ICE_DUMMY_
  C:0C3DH         PUBLIC        System_Init
  D:0080H         PUBLIC        P0
  D:0090H         PUBLIC        P1
  D:00A0H         PUBLIC        P2
  D:00B0H         PUBLIC        P3
  D:00C0H         PUBLIC        P4
  D:00C8H         PUBLIC        P5
  D:00E8H         PUBLIC        P6
  D:00F8H         PUBLIC        P7
  D:00A8H         PUBLIC        IE
  D:00B8H         PUBLIC        IP
  D:00D8H         PUBLIC        CCON
  D:0098H         PUBLIC        SCON
  D:0088H         PUBLIC        TCON
  D:00D0H         PUBLIC        PSW
  -------         PROC          SYSTEM_INIT
  C:0C3DH         LINE#         5
  C:0C3DH         LINE#         6
  C:0C3DH         LINE#         7
  C:0C40H         LINE#         8
  C:0C48H         LINE#         9
  C:0C4BH         LINE#         11
  C:0C4EH         LINE#         12
  C:0C56H         LINE#         13
BL51 BANKED LINKER/LOCATER V6.22.2.0                                                  05/22/2024  15:22:19  PAGE 10


  C:0C59H         LINE#         14
  -------         ENDPROC       SYSTEM_INIT
  -------         ENDMOD        INIT

  -------         MODULE        KEY
  C:0000H         SYMBOL        _ICE_DUMMY_
  D:0080H         PUBLIC        P0
  D:0090H         PUBLIC        P1
  D:00A0H         PUBLIC        P2
  D:00B0H         PUBLIC        P3
  D:00C0H         PUBLIC        P4
  D:00C8H         PUBLIC        P5
  D:00E8H         PUBLIC        P6
  D:00F8H         PUBLIC        P7
  C:08B7H         PUBLIC        Key_Read
  D:00A8H         PUBLIC        IE
  D:00B8H         PUBLIC        IP
  D:00D8H         PUBLIC        CCON
  B:00B0H.0       PUBLIC        P30
  D:0098H         PUBLIC        SCON
  B:00B0H.1       PUBLIC        P31
  D:0088H         PUBLIC        TCON
  B:00B0H.2       PUBLIC        P32
  B:00C0H.2       PUBLIC        P42
  B:00B0H.3       PUBLIC        P33
  B:00B0H.4       PUBLIC        P34
  B:00C0H.4       PUBLIC        P44
  B:00B0H.5       PUBLIC        P35
  D:00D0H         PUBLIC        PSW
  -------         PROC          KEY_READ
  -------         DO            
  D:0007H         SYMBOL        temp
  -------         ENDDO         
  C:08B7H         LINE#         5
  C:08B7H         LINE#         6
  C:08B7H         LINE#         7
  C:08B9H         LINE#         8
  C:08C1H         LINE#         9
  C:08C6H         LINE#         10
  C:08CBH         LINE#         11
  C:08D0H         LINE#         12
  C:08D5H         LINE#         13
  C:08DDH         LINE#         14
  C:08E2H         LINE#         15
  C:08E7H         LINE#         16
  C:08ECH         LINE#         17
  C:08F1H         LINE#         18
  C:08F9H         LINE#         19
  C:08FEH         LINE#         20
  C:0903H         LINE#         21
  C:0908H         LINE#         22
  C:090DH         LINE#         23
  C:0915H         LINE#         24
  C:091AH         LINE#         25
  C:091FH         LINE#         26
  C:0924H         LINE#         27
  C:0929H         LINE#         28
BL51 BANKED LINKER/LOCATER V6.22.2.0                                                  05/22/2024  15:22:19  PAGE 11


  C:0929H         LINE#         29
  -------         ENDPROC       KEY_READ
  -------         ENDMOD        KEY

  -------         MODULE        SEG
  C:0000H         SYMBOL        _ICE_DUMMY_
  D:0080H         PUBLIC        P0
  D:0090H         PUBLIC        P1
  D:00A0H         PUBLIC        P2
  D:00B0H         PUBLIC        P3
  D:00C0H         PUBLIC        P4
  D:00C8H         PUBLIC        P5
  D:00E8H         PUBLIC        P6
  D:00F8H         PUBLIC        P7
  D:00A8H         PUBLIC        IE
  D:00B8H         PUBLIC        IP
  C:09C5H         PUBLIC        _Seg_Show
  D:00D8H         PUBLIC        CCON
  D:0098H         PUBLIC        SCON
  D:0088H         PUBLIC        TCON
  C:0CCEH         PUBLIC        Seg_Table
  D:00D0H         PUBLIC        PSW
  -------         PROC          _SEG_SHOW
  D:0007H         SYMBOL        addr
  D:0004H         SYMBOL        Table
  D:0002H         SYMBOL        Point
  C:09C5H         LINE#         28
  C:09C5H         LINE#         29
  C:09C5H         LINE#         30
  C:09C8H         LINE#         31
  C:09D0H         LINE#         32
  C:09D3H         LINE#         34
  C:09E0H         LINE#         35
  C:09E8H         LINE#         36
  C:09EBH         LINE#         38
  C:09F9H         LINE#         39
  C:09FDH         LINE#         40
  C:0A00H         LINE#         41
  C:0A08H         LINE#         42
  C:0A0BH         LINE#         43
  -------         ENDPROC       _SEG_SHOW
  -------         ENDMOD        SEG

  -------         MODULE        LED
  C:0000H         SYMBOL        _ICE_DUMMY_
  D:0080H         PUBLIC        P0
  D:0090H         PUBLIC        P1
  D:00A0H         PUBLIC        P2
  D:00B0H         PUBLIC        P3
  D:00C0H         PUBLIC        P4
  D:00C8H         PUBLIC        P5
  D:00E8H         PUBLIC        P6
  D:00F8H         PUBLIC        P7
  D:00A8H         PUBLIC        IE
  D:00B8H         PUBLIC        IP
  D:00D8H         PUBLIC        CCON
  D:0098H         PUBLIC        SCON
BL51 BANKED LINKER/LOCATER V6.22.2.0                                                  05/22/2024  15:22:19  PAGE 12


  D:0088H         PUBLIC        TCON
  C:0A90H         PUBLIC        _LED_Show
  D:00D0H         PUBLIC        PSW
  -------         PROC          _LED_SHOW
  D:0007H         SYMBOL        addr
  D:0004H         SYMBOL        enable
  -------         DO            
  D:000CH         SYMBOL        temp_new
  D:000DH         SYMBOL        temp_old
  -------         ENDDO         
  C:0A90H         LINE#         5
  C:0A90H         LINE#         6
  C:0A90H         LINE#         10
  C:0A94H         LINE#         11
  C:0AA3H         LINE#         13
  C:0AB1H         LINE#         15
  C:0AB7H         LINE#         16
  C:0AB7H         LINE#         17
  C:0ABCH         LINE#         18
  C:0AC4H         LINE#         19
  C:0AC7H         LINE#         20
  C:0ACAH         LINE#         21
  C:0ACAH         LINE#         22
  -------         ENDPROC       _LED_SHOW
  -------         ENDMOD        LED

  -------         MODULE        DS1302
  C:0000H         SYMBOL        _ICE_DUMMY_
  D:0080H         PUBLIC        P0
  D:0090H         PUBLIC        P1
  D:00A0H         PUBLIC        P2
  D:00B0H         PUBLIC        P3
  D:00C0H         PUBLIC        P4
  D:00C8H         PUBLIC        P5
  D:00E8H         PUBLIC        P6
  D:00F8H         PUBLIC        P7
  D:00A8H         PUBLIC        IE
  D:00B8H         PUBLIC        IP
  D:00D8H         PUBLIC        CCON
  D:0098H         PUBLIC        SCON
  D:0088H         PUBLIC        TCON
  C:0A53H         PUBLIC        _DS1302_Read_Rtc
  C:0A16H         PUBLIC        _Read_Ds1302_Byte
  B:00A0H.3       PUBLIC        SDA
  C:092AH         PUBLIC        _DS1302_Write_Rtc
  B:0090H.7       PUBLIC        SCK
  C:0CBAH         PUBLIC        _Write_Ds1302_Byte
  C:0C5AH         PUBLIC        _Write_Ds1302
  B:0090H.3       PUBLIC        RST
  D:00D0H         PUBLIC        PSW
  -------         PROC          _WRITE_DS1302
  D:0007H         SYMBOL        temp
  -------         DO            
  D:0006H         SYMBOL        i
  -------         ENDDO         
  C:0C5AH         LINE#         15
  C:0C5AH         LINE#         16
BL51 BANKED LINKER/LOCATER V6.22.2.0                                                  05/22/2024  15:22:19  PAGE 13


  C:0C5AH         LINE#         18
  C:0C66H         LINE#         19
  C:0C66H         LINE#         20
  C:0C68H         LINE#         21
  C:0C6CH         LINE#         22
  C:0C70H         LINE#         23
  C:0C72H         LINE#         24
  C:0C75H         LINE#         25
  -------         ENDPROC       _WRITE_DS1302
  -------         PROC          _WRITE_DS1302_BYTE
  D:0007H         SYMBOL        address
  D:0005H         SYMBOL        dat
  C:0CBAH         LINE#         28
  C:0CBAH         LINE#         29
  C:0CBAH         LINE#         30
  C:0CBDH         LINE#         31
  C:0CC0H         LINE#         32
  C:0CC3H         LINE#         33
  C:0CC6H         LINE#         34
  C:0CCBH         LINE#         35
  C:0CCDH         LINE#         36
  -------         ENDPROC       _WRITE_DS1302_BYTE
  -------         PROC          L?0019
  -------         ENDPROC       L?0019
  -------         PROC          _READ_DS1302_BYTE
  D:0007H         SYMBOL        address
  -------         DO            
  D:0007H         SYMBOL        i
  D:0005H         SYMBOL        temp
  -------         ENDDO         
  C:0A16H         LINE#         39
  C:0A16H         LINE#         40
  C:0A16H         LINE#         41
  C:0A18H         LINE#         42
  C:0A1BH         LINE#         43
  C:0A1EH         LINE#         44
  C:0A21H         LINE#         45
  C:0A24H         LINE#         46
  C:0A30H         LINE#         47
  C:0A30H         LINE#         48
  C:0A32H         LINE#         49
  C:0A36H         LINE#         50
  C:0A39H         LINE#         51
  C:0A3CH         LINE#         52
  C:0A3EH         LINE#         53
  C:0A41H         LINE#         54
  C:0A44H         LINE#         55
  C:0A47H         LINE#         56
  C:0A4AH         LINE#         57
  C:0A4DH         LINE#         58
  C:0A50H         LINE#         59
  C:0A52H         LINE#         60
  -------         ENDPROC       _READ_DS1302_BYTE
  -------         PROC          _DS1302_WRITE_RTC
  D:0008H         SYMBOL        pRtc
  -------         DO            
  D:0004H         SYMBOL        i
BL51 BANKED LINKER/LOCATER V6.22.2.0                                                  05/22/2024  15:22:19  PAGE 14


  D:0003H         SYMBOL        temp
  -------         ENDDO         
  C:092AH         LINE#         62
  C:0930H         LINE#         63
  C:0930H         LINE#         64
  C:0932H         LINE#         65
  C:0933H         LINE#         66
  C:0939H         LINE#         67
  C:0943H         LINE#         68
  C:0943H         LINE#         69
  C:0963H         LINE#         70
  C:0971H         LINE#         71
  C:0974H         LINE#         72
  -------         ENDPROC       _DS1302_WRITE_RTC
  -------         PROC          _DS1302_READ_RTC
  D:0008H         SYMBOL        pRtc
  -------         DO            
  D:000BH         SYMBOL        i
  -------         ENDDO         
  C:0A53H         LINE#         75
  C:0A59H         LINE#         76
  C:0A59H         LINE#         77
  C:0A5CH         LINE#         78
  C:0A69H         LINE#         79
  C:0A8FH         LINE#         80
  -------         ENDPROC       _DS1302_READ_RTC
  -------         ENDMOD        DS1302

  -------         MODULE        IIC
  C:0000H         SYMBOL        _ICE_DUMMY_
  D:0080H         PUBLIC        P0
  D:0090H         PUBLIC        P1
  D:00A0H         PUBLIC        P2
  D:00B0H         PUBLIC        P3
  D:00C0H         PUBLIC        P4
  D:00C8H         PUBLIC        P5
  D:00E8H         PUBLIC        P6
  D:00F8H         PUBLIC        P7
  D:00A8H         PUBLIC        IE
  C:0C7AH         SYMBOL        _I2C_Delay
  D:00B8H         PUBLIC        IP
  C:0BB1H         PUBLIC        I2CReceiveByte
  D:00D8H         PUBLIC        CCON
  D:0098H         PUBLIC        SCON
  D:0088H         PUBLIC        TCON
  B:00A0H.1       PUBLIC        sda
  B:00A0H.0       PUBLIC        scl
  C:0CE1H         PUBLIC        I2CStart
  C:0003H         PUBLIC        _I2CSendAck
  C:0B02H         PUBLIC        _I2CSendByte
  C:0B37H         PUBLIC        _AD_Read
  C:0CA8H         PUBLIC        I2CWaitAck
  C:0CF0H         PUBLIC        I2CStop
  D:00D0H         PUBLIC        PSW
  C:0C76H         SYMBOL        L?0022
  -------         PROC          L?0021
  -------         ENDPROC       L?0021
BL51 BANKED LINKER/LOCATER V6.22.2.0                                                  05/22/2024  15:22:19  PAGE 15


  C:0C76H         SYMBOL        L?0022
  -------         PROC          _I2C_DELAY
  D:0007H         SYMBOL        n
  C:0C7AH         LINE#         17
  C:0C7AH         LINE#         18
  C:0C7AH         LINE#         20
  C:0C7AH         LINE#         21
  C:0C7FH         LINE#         22
  C:0C84H         LINE#         23
  C:0C89H         LINE#         24
  C:0C89H         LINE#         25
  C:0C8FH         LINE#         26
  -------         ENDPROC       _I2C_DELAY
  -------         PROC          I2CSTART
  C:0CE1H         LINE#         29
  C:0CE1H         LINE#         30
  C:0CE1H         LINE#         31
  C:0CE3H         LINE#         32
  C:0CE3H         LINE#         33
  C:0CE6H         LINE#         34
  C:0CE8H         LINE#         35
  C:0CEDH         LINE#         36
  C:0CEFH         LINE#         37
  -------         ENDPROC       I2CSTART
  -------         PROC          I2CSTOP
  C:0CF0H         LINE#         40
  C:0CF0H         LINE#         41
  C:0CF0H         LINE#         42
  C:0CF2H         LINE#         43
  C:0CF2H         LINE#         44
  C:0CF5H         LINE#         45
  C:0CF7H         LINE#         46
  -------         ENDPROC       I2CSTOP
  -------         PROC          _I2CSENDBYTE
  D:0005H         SYMBOL        byt
  -------         DO            
  D:0004H         SYMBOL        i
  -------         ENDDO         
  C:0B02H         LINE#         50
  C:0B04H         LINE#         51
  C:0B04H         LINE#         54
  C:0B10H         LINE#         55
  C:0B12H         LINE#         56
  C:0B17H         LINE#         57
  C:0B1BH         LINE#         58
  C:0B1DH         LINE#         59
  C:0B1FH         LINE#         60
  C:0B1FH         LINE#         61
  C:0B21H         LINE#         62
  C:0B21H         LINE#         63
  C:0B26H         LINE#         64
  C:0B28H         LINE#         65
  C:0B2CH         LINE#         66
  C:0B31H         LINE#         67
  C:0B34H         LINE#         69
  C:0B36H         LINE#         70
  -------         ENDPROC       _I2CSENDBYTE
BL51 BANKED LINKER/LOCATER V6.22.2.0                                                  05/22/2024  15:22:19  PAGE 16


  -------         PROC          I2CRECEIVEBYTE
  -------         DO            
  D:0005H         SYMBOL        da
  D:0004H         SYMBOL        i
  -------         ENDDO         
  C:0BB1H         LINE#         73
  C:0BB1H         LINE#         74
  C:0BB1H         LINE#         77
  C:0BBDH         LINE#         78
  C:0BBDH         LINE#         79
  C:0BC0H         LINE#         80
  C:0BC4H         LINE#         81
  C:0BC7H         LINE#         82
  C:0BCAH         LINE#         83
  C:0BCCH         LINE#         84
  C:0BD1H         LINE#         85
  C:0BD4H         LINE#         86
  C:0BD6H         LINE#         87
  -------         ENDPROC       I2CRECEIVEBYTE
  -------         PROC          L?0023
  -------         ENDPROC       L?0023
  -------         PROC          I2CWAITACK
  -------         DO            
  D:0005H         SYMBOL        ackbit
  -------         ENDDO         
  C:0CA8H         LINE#         90
  C:0CA8H         LINE#         91
  C:0CA8H         LINE#         94
  C:0CA8H         LINE#         95
  C:0CABH         LINE#         96
  C:0CB0H         LINE#         97
  C:0CB2H         LINE#         98
  C:0CB7H         LINE#         100
  C:0CB9H         LINE#         101
  -------         ENDPROC       I2CWAITACK
  -------         PROC          _I2CSENDACK
  D:0007H         SYMBOL        ackbit
  C:0003H         LINE#         104
  C:0003H         LINE#         105
  C:0003H         LINE#         106
  C:0005H         LINE#         107
  C:000AH         LINE#         108
  C:000FH         LINE#         109
  C:000FH         LINE#         110
  C:0012H         LINE#         111
  C:0014H         LINE#         112
  C:0016H         LINE#         113
  -------         ENDPROC       _I2CSENDACK
  -------         PROC          _AD_READ
  D:0003H         SYMBOL        addr
  -------         DO            
  D:0005H         SYMBOL        temp
  -------         ENDDO         
  C:0B37H         LINE#         116
  C:0B39H         LINE#         117
  C:0B39H         LINE#         118
  C:0B3BH         LINE#         119
BL51 BANKED LINKER/LOCATER V6.22.2.0                                                  05/22/2024  15:22:19  PAGE 17


  C:0B3EH         LINE#         120
  C:0B40H         LINE#         121
  C:0B43H         LINE#         122
  C:0B45H         LINE#         123
  C:0B48H         LINE#         125
  C:0B4BH         LINE#         126
  C:0B50H         LINE#         127
  C:0B53H         LINE#         128
  C:0B58H         LINE#         129
  C:0B5DH         LINE#         130
  C:0B60H         LINE#         131
  C:0B62H         LINE#         132
  -------         ENDPROC       _AD_READ
  -------         ENDMOD        IIC

  -------         MODULE        ONEWIRE
  C:0000H         SYMBOL        _ICE_DUMMY_
  D:0080H         PUBLIC        P0
  D:0090H         PUBLIC        P1
  D:00A0H         PUBLIC        P2
  D:00B0H         PUBLIC        P3
  D:00C0H         PUBLIC        P4
  C:0BFCH         PUBLIC        Read_DS18B20
  D:00C8H         PUBLIC        P5
  D:00E8H         PUBLIC        P6
  D:00F8H         PUBLIC        P7
  D:00A8H         PUBLIC        IE
  C:0C23H         PUBLIC        _Delay_OneWire
  C:0B63H         PUBLIC        _Write_DS18B20
  B:0090H.4       PUBLIC        DQ
  D:00B8H         PUBLIC        IP
  C:0B8AH         PUBLIC        init_ds18b20
  D:00D8H         PUBLIC        CCON
  D:0098H         PUBLIC        SCON
  D:0088H         PUBLIC        TCON
  C:0ACBH         PUBLIC        DS18B20_Read_T
  D:00D0H         PUBLIC        PSW
  C:0C1FH         SYMBOL        L?0020
  -------         PROC          L?0019
  -------         ENDPROC       L?0019
  C:0C1FH         SYMBOL        L?0020
  -------         PROC          _DELAY_ONEWIRE
  D:0006H         SYMBOL        t
  -------         DO            
  D:0005H         SYMBOL        i
  -------         ENDDO         
  C:0C23H         LINE#         12
  C:0C23H         LINE#         13
  C:0C23H         LINE#         15
  C:0C2DH         LINE#         16
  C:0C3CH         LINE#         17
  C:0C3CH         LINE#         18
  -------         ENDPROC       _DELAY_ONEWIRE
  -------         PROC          _WRITE_DS18B20
  D:0001H         SYMBOL        dat
  -------         DO            
  D:0003H         SYMBOL        i
BL51 BANKED LINKER/LOCATER V6.22.2.0                                                  05/22/2024  15:22:19  PAGE 18


  -------         ENDDO         
  C:0B63H         LINE#         21
  C:0B65H         LINE#         22
  C:0B65H         LINE#         24
  C:0B71H         LINE#         25
  C:0B71H         LINE#         26
  C:0B73H         LINE#         27
  C:0B77H         LINE#         28
  C:0B7AH         LINE#         29
  C:0B7CH         LINE#         30
  C:0B80H         LINE#         31
  C:0B83H         LINE#         32
  -------         ENDPROC       _WRITE_DS18B20
  -------         PROC          READ_DS18B20
  -------         DO            
  D:0003H         SYMBOL        i
  D:0004H         SYMBOL        dat
  -------         ENDDO         
  C:0BFCH         LINE#         36
  C:0BFCH         LINE#         37
  C:0BFCH         LINE#         41
  C:0C08H         LINE#         42
  C:0C08H         LINE#         43
  C:0C0AH         LINE#         44
  C:0C0EH         LINE#         45
  C:0C10H         LINE#         46
  C:0C13H         LINE#         47
  C:0C13H         LINE#         48
  C:0C16H         LINE#         49
  C:0C16H         LINE#         50
  C:0C19H         LINE#         51
  C:0C1CH         LINE#         52
  C:0C1EH         LINE#         53
  -------         ENDPROC       READ_DS18B20
  -------         PROC          INIT_DS18B20
  -------         DO            
  B:0021H.0       SYMBOL        initflag
  -------         ENDDO         
  C:0B8AH         LINE#         56
  C:0B8AH         LINE#         57
  C:0B8AH         LINE#         58
  C:0B8CH         LINE#         60
  C:0B8EH         LINE#         61
  C:0B95H         LINE#         62
  C:0B97H         LINE#         63
  C:0B9EH         LINE#         64
  C:0BA0H         LINE#         65
  C:0BA7H         LINE#         66
  C:0BABH         LINE#         67
  C:0BAEH         LINE#         69
  C:0BB0H         LINE#         70
  -------         ENDPROC       INIT_DS18B20
  -------         PROC          DS18B20_READ_T
  -------         DO            
  D:0007H         SYMBOL        high
  D:0001H         SYMBOL        low
  -------         ENDDO         
BL51 BANKED LINKER/LOCATER V6.22.2.0                                                  05/22/2024  15:22:19  PAGE 19


  C:0ACBH         LINE#         72
  C:0ACBH         LINE#         73
  C:0ACBH         LINE#         74
  C:0ACEH         LINE#         75
  C:0AD1H         LINE#         76
  C:0AD6H         LINE#         77
  C:0ADBH         LINE#         78
  C:0ADEH         LINE#         79
  C:0AE3H         LINE#         80
  C:0AE8H         LINE#         81
  C:0AEDH         LINE#         82
  C:0AF0H         LINE#         83
  -------         ENDPROC       DS18B20_READ_T
  -------         ENDMOD        ONEWIRE

  -------         MODULE        ?C?FPMUL
  C:001EH         PUBLIC        ?C?FPMUL
  -------         ENDMOD        ?C?FPMUL

  -------         MODULE        ?C?FPDIV
  C:0127H         PUBLIC        ?C?FPDIV
  -------         ENDMOD        ?C?FPDIV

  -------         MODULE        ?C?FPCMP
  C:01C6H         PUBLIC        ?C?FPCMP
  C:01C4H         PUBLIC        ?C?FPCMP3
  -------         ENDMOD        ?C?FPCMP

  -------         MODULE        ?C?FCAST
  C:0247H         PUBLIC        ?C?FCASTC
  C:0242H         PUBLIC        ?C?FCASTI
  C:023DH         PUBLIC        ?C?FCASTL
  -------         ENDMOD        ?C?FCAST

  -------         MODULE        ?C?CASTF
  C:027BH         PUBLIC        ?C?CASTF
  -------         ENDMOD        ?C?CASTF

  -------         MODULE        ?C?CLDOPTR
  C:02FCH         PUBLIC        ?C?CLDOPTR
  -------         ENDMOD        ?C?CLDOPTR

  -------         MODULE        ?C?CSTOPTR
  C:0329H         PUBLIC        ?C?CSTOPTR
  -------         ENDMOD        ?C?CSTOPTR

  -------         MODULE        ?C?UIDIV
  C:034BH         PUBLIC        ?C?UIDIV
  -------         ENDMOD        ?C?UIDIV

  -------         MODULE        ?C?LNEG
  C:03A0H         PUBLIC        ?C?LNEG
  -------         ENDMOD        ?C?LNEG

Program Size: data=67.1 xdata=0 code=3324
LINK/LOCATE RUN COMPLETE.  0 WARNING(S),  0 ERROR(S)
