:0300000002008675
:0C008600787FE4F6D8FD758107020003C6
:10004400EF24FB60111460151460192403701B5312
:10005400A01F43A0802253A01F43A0A02253A01F8F
:0B00640043A0C02253A01F43A0E022D5
:10006F00E4FF20B3027F0420B2027F0520B1027F9C
:06007F000620B0027F071D
:010085002258
:10000300E4FE7580FF7F0412004412006FAE07EE1A
:1000130064047007B2837F04120044EE6405700722
:10002300B2847F04120044EE64067007B2857F0435
:10003300120044EE640770D2B2867F04120044803B
:01004300C9F3
:00000001FF
