BL51 BANKED LINKER/LOCATER V6.22.2.0                                                    03/20/2024  16:57:04  PAGE 1


BL51 BANKED LINKER/LOCATER V6.22.2.0, INVOKED BY:
D:\KEIL 5\C51\BIN\BL51.EXE .\Objects\main.obj, .\Objects\Init.obj, .\Objects\Key.obj, .\Objects\Seg.obj, .\Objects\LED.o
>> bj, .\Objects\iic.obj, .\Objects\Uart.obj TO .\Objects\2303002124 PRINT (.\Listings\2303002124.m51) RAMSIZE (256)


MEMORY MODEL: SMALL WITH FLOATING POINT ARITHMETIC


INPUT MODULES INCLUDED:
  .\Objects\main.obj (MAIN)
  .\Objects\Init.obj (INIT)
  .\Objects\Key.obj (KEY)
  .\Objects\Seg.obj (SEG)
  .\Objects\LED.obj (LED)
  .\Objects\iic.obj (IIC)
  .\Objects\Uart.obj (UART)
  D:\KEIL 5\C51\LIB\C51FPS.LIB (?C?FPMUL)
  D:\KEIL 5\C51\LIB\C51FPS.LIB (?C?FPDIV)
  D:\KEIL 5\C51\LIB\C51FPS.LIB (?C?FPCMP)
  D:\KEIL 5\C51\LIB\C51FPS.LIB (?C?FCAST)
  D:\KEIL 5\C51\LIB\C51FPS.LIB (?C?CASTF)
  D:\KEIL 5\C51\LIB\C51FPS.LIB (PRINTF)
  D:\KEIL 5\C51\LIB\C51FPS.LIB (?C?FPGETOPN)
  D:\KEIL 5\C51\LIB\C51FPS.LIB (?C?FPROUND)
  D:\KEIL 5\C51\LIB\C51FPS.LIB (?C?FPCONVERT)
  D:\KEIL 5\C51\LIB\C51FPS.LIB (?C?FPADD)
  D:\KEIL 5\C51\LIB\C51FPS.LIB (?C?FTNPWR)
  D:\KEIL 5\C51\LIB\C51S.LIB (?C_STARTUP)
  D:\KEIL 5\C51\LIB\C51S.LIB (?C?CLDPTR)
  D:\KEIL 5\C51\LIB\C51S.LIB (?C?CLDOPTR)
  D:\KEIL 5\C51\LIB\C51S.LIB (?C?CSTPTR)
  D:\KEIL 5\C51\LIB\C51S.LIB (?C?UIDIV)
  D:\KEIL 5\C51\LIB\C51S.LIB (?C?LNEG)
  D:\KEIL 5\C51\LIB\C51S.LIB (?C?PLDIIDATA)
  D:\KEIL 5\C51\LIB\C51S.LIB (?C?CCASE)
  D:\KEIL 5\C51\LIB\C51S.LIB (?C?STRCMP)
  D:\KEIL 5\C51\LIB\C51S.LIB (?C_INIT)


LINK MAP OF MODULE:  .\Objects\2303002124 (MAIN)


            TYPE    BASE      LENGTH    RELOCATION   SEGMENT NAME
            -----------------------------------------------------

            * * * * * * *   D A T A   M E M O R Y   * * * * * * *
            REG     0000H     0008H     ABSOLUTE     "REG BANK 0"
            DATA    0008H     0002H     UNIT         ?DT?LED
                    000AH     0016H                  *** GAP ***
            BIT     0020H.0   0001H.1   UNIT         _BIT_GROUP_
            BIT     0021H.1   0001H.0   UNIT         ?BI?MAIN
                    0022H.1   0000H.7                *** GAP ***
            DATA    0023H     0033H     UNIT         ?DT?MAIN
            DATA    0056H     001CH     UNIT         _DATA_GROUP_
            IDATA   0072H     0001H     UNIT         ?STACK

            * * * * * * *   C O D E   M E M O R Y   * * * * * * *
            CODE    0000H     0003H     ABSOLUTE     
BL51 BANKED LINKER/LOCATER V6.22.2.0                                                  03/20/2024  16:57:04  PAGE 2


            CODE    0003H     0008H     UNIT         ?PR?_PUTCHAR?UART
            CODE    000BH     0003H     ABSOLUTE     
            CODE    000EH     0015H     UNIT         ?PR?TIMER0_INIT?MAIN
            CODE    0023H     0003H     ABSOLUTE     
            CODE    0026H     0804H     UNIT         ?C?LIB_CODE
            CODE    082AH     046FH     UNIT         ?PR?PRINTF?PRINTF
            CODE    0C99H     00D6H     UNIT         ?PR?TIMER0_SEVRE?MAIN
            CODE    0D6FH     008CH     UNIT         ?C_C51STARTUP
            CODE    0DFBH     0073H     UNIT         ?PR?KEY_READ?KEY
            CODE    0E6EH     006FH     UNIT         ?PR?SEG_DEAL?MAIN
            CODE    0EDDH     005DH     UNIT         ?PR?INFOR_DEAL?MAIN
            CODE    0F3AH     0055H     UNIT         ?PR?KEY_DEAL?MAIN
            CODE    0F8FH     0041H     UNIT         ?PR?_SEG_SHOW?SEG
            CODE    0FD0H     003BH     UNIT         ?PR?_LED_SHOW?LED
            CODE    100BH     003AH     UNIT         ?PR?MAIN?MAIN
            CODE    1045H     0039H     UNIT         ?PR?LED_DEAL?MAIN
            CODE    107EH     0039H     UNIT         ?PR?UART_DEAL?MAIN
            CODE    10B7H     0037H     UNIT         ?C_INITSEG
            CODE    10EEH     0035H     UNIT         ?PR?_I2CSENDBYTE?IIC
            CODE    1123H     002CH     UNIT         ?PR?_AD_READ?IIC
            CODE    114FH     0026H     UNIT         ?PR?I2CRECEIVEBYTE?IIC
            CODE    1175H     0023H     UNIT         ?PR?UART_SEVRE?MAIN
            CODE    1198H     001DH     UNIT         ?PR?SYSTEM_INIT?INIT
            CODE    11B5H     001BH     UNIT         ?CO?SEG
            CODE    11D0H     001BH     UNIT         ?PR?UART_INIT?UART
            CODE    11EBH     001AH     UNIT         ?PR?_I2C_DELAY?IIC
            CODE    1205H     0018H     UNIT         ?PR?_I2CSENDACK?IIC
            CODE    121DH     0015H     UNIT         ?CO?MAIN
            CODE    1232H     0015H     UNIT         ?PR?I2CWAITACK?IIC
            CODE    1247H     000FH     UNIT         ?PR?I2CSTART?IIC
            CODE    1256H     000DH     UNIT         ?PR?DELAY500MS?MAIN
            CODE    1263H     000CH     UNIT         ?PR?I2CSTOP?IIC



OVERLAY MAP OF MODULE:   .\Objects\2303002124 (MAIN)


SEGMENT                           BIT_GROUP          DATA_GROUP 
  +--> CALLED SEGMENT          START    LENGTH     START    LENGTH
------------------------------------------------------------------
?PR?TIMER0_SEVRE?MAIN          -----    -----      -----    -----
  +--> ?PR?_SEG_SHOW?SEG
  +--> ?PR?_LED_SHOW?LED

?PR?_SEG_SHOW?SEG              -----    -----      -----    -----
  +--> ?CO?SEG

*** NEW ROOT ***************************************************

?C_C51STARTUP                  -----    -----      -----    -----
  +--> ?PR?MAIN?MAIN
  +--> ?C_INITSEG

?PR?MAIN?MAIN                  -----    -----      -----    -----
  +--> ?PR?SYSTEM_INIT?INIT
  +--> ?PR?TIMER0_INIT?MAIN
BL51 BANKED LINKER/LOCATER V6.22.2.0                                                  03/20/2024  16:57:04  PAGE 3


  +--> ?PR?UART_INIT?UART
  +--> ?PR?_AD_READ?IIC
  +--> ?PR?DELAY500MS?MAIN
  +--> ?PR?KEY_DEAL?MAIN
  +--> ?PR?SEG_DEAL?MAIN
  +--> ?PR?LED_DEAL?MAIN
  +--> ?PR?UART_DEAL?MAIN
  +--> ?PR?INFOR_DEAL?MAIN

?PR?_AD_READ?IIC               -----    -----      -----    -----
  +--> ?PR?I2CSTART?IIC
  +--> ?PR?I2CWAITACK?IIC
  +--> ?PR?_I2CSENDBYTE?IIC
  +--> ?PR?I2CRECEIVEBYTE?IIC
  +--> ?PR?_I2CSENDACK?IIC
  +--> ?PR?I2CSTOP?IIC

?PR?I2CSTART?IIC               -----    -----      -----    -----
  +--> ?PR?_I2C_DELAY?IIC

?PR?I2CWAITACK?IIC             -----    -----      -----    -----
  +--> ?PR?_I2CSENDBYTE?IIC
  +--> ?PR?_I2C_DELAY?IIC

?PR?_I2CSENDBYTE?IIC           -----    -----      -----    -----
  +--> ?PR?_I2C_DELAY?IIC

?PR?I2CRECEIVEBYTE?IIC         -----    -----      -----    -----
  +--> ?PR?_I2C_DELAY?IIC

?PR?_I2CSENDACK?IIC            -----    -----      -----    -----
  +--> ?PR?_I2C_DELAY?IIC

?PR?I2CSTOP?IIC                -----    -----      -----    -----
  +--> ?PR?_I2C_DELAY?IIC

?PR?KEY_DEAL?MAIN              -----    -----      -----    -----
  +--> ?PR?KEY_READ?KEY

?PR?UART_DEAL?MAIN             -----    -----      -----    -----
  +--> ?CO?MAIN
  +--> ?PR?PRINTF?PRINTF

?PR?PRINTF?PRINTF              0020H.0  0001H.1    0056H    001CH
  +--> ?PR?_PUTCHAR?UART

?PR?INFOR_DEAL?MAIN            -----    -----      -----    -----
  +--> ?PR?_AD_READ?IIC



SYMBOL TABLE OF MODULE:  .\Objects\2303002124 (MAIN)

  VALUE           TYPE          NAME
  ----------------------------------

  -------         MODULE        MAIN
BL51 BANKED LINKER/LOCATER V6.22.2.0                                                  03/20/2024  16:57:04  PAGE 4


  C:0000H         SYMBOL        _ICE_DUMMY_
  D:0080H         PUBLIC        P0
  D:0090H         PUBLIC        P1
  D:00A0H         PUBLIC        P2
  C:0F3AH         PUBLIC        Key_Deal
  B:0021H.1       PUBLIC        Uart_Slow_Flag
  D:00B0H         PUBLIC        P3
  D:00C0H         PUBLIC        P4
  B:0021H.2       PUBLIC        Seg_Slow_Flag
  D:00C8H         PUBLIC        P5
  B:00A8H.7       PUBLIC        EA
  D:00E8H         PUBLIC        P6
  C:1175H         PUBLIC        Uart_Sevre
  D:00F8H         PUBLIC        P7
  D:0027H         PUBLIC        Timer0_100ms
  B:0021H.3       PUBLIC        Seg_Show_Mode
  D:0029H         PUBLIC        Seg_Point
  D:00A8H         PUBLIC        IE
  B:0021H.4       PUBLIC        Key_Slow_Flag
  D:0031H         PUBLIC        dB_Temp_Ctrl
  D:00B8H         PUBLIC        IP
  B:0098H.0       PUBLIC        RI
  C:0C99H         PUBLIC        Timer0_Sevre
  D:0032H         PUBLIC        Seg_Buf
  D:003AH         PUBLIC        Slow_Down
  D:003CH         PUBLIC        dB_Temp_Show
  D:00D8H         PUBLIC        CCON
  D:003DH         PUBLIC        Uart_Rx_Index
  D:003EH         PUBLIC        dB
  C:100BH         PUBLIC        main
  C:000EH         PUBLIC        Timer0_Init
  C:1045H         PUBLIC        LED_Deal
  D:0099H         PUBLIC        SBUF
  D:0098H         PUBLIC        SCON
  D:0089H         PUBLIC        TMOD
  D:0088H         PUBLIC        TCON
  B:0021H.5       PUBLIC        LED_Slow_Flag
  D:008EH         PUBLIC        AUXR
  D:0042H         PUBLIC        Uart_Rx_Buf
  B:00A8H.1       PUBLIC        ET0
  B:0088H.5       PUBLIC        TF0
  D:008CH         PUBLIC        TH0
  D:008AH         PUBLIC        TL0
  D:0049H         PUBLIC        LED_Buf
  B:0088H.4       PUBLIC        TR0
  C:0EDDH         PUBLIC        Infor_Deal
  B:0021H.6       PUBLIC        L8_Star_Flag
  B:0021H.7       PUBLIC        L8_Flag
  D:0051H         PUBLIC        AD_Data
  B:0022H.0       PUBLIC        Infor_Slow_Flag
  D:0055H         PUBLIC        i
  C:1256H         PUBLIC        Delay500ms
  C:107EH         PUBLIC        Uart_Deal
  C:0E6EH         PUBLIC        Seg_Deal
  D:00D0H         PUBLIC        PSW
  -------         PROC          KEY_DEAL
  -------         DO            
BL51 BANKED LINKER/LOCATER V6.22.2.0                                                  03/20/2024  16:57:04  PAGE 5


  D:0023H         SYMBOL        Key_New
  D:0024H         SYMBOL        Key_Old
  D:0025H         SYMBOL        Key_UP
  D:0026H         SYMBOL        Key_Down
  -------         ENDDO         
  C:0F3AH         LINE#         32
  C:0F3AH         LINE#         33
  C:0F3AH         LINE#         37
  C:0F3DH         LINE#         38
  C:0F3FH         LINE#         40
  C:0F44H         LINE#         41
  C:0F4FH         LINE#         42
  C:0F54H         LINE#         43
  C:0F57H         LINE#         45
  C:0F62H         LINE#         46
  C:0F62H         LINE#         48
  C:0F62H         LINE#         49
  C:0F67H         LINE#         50
  C:0F68H         LINE#         52
  C:0F68H         LINE#         53
  C:0F6BH         LINE#         54
  C:0F6BH         LINE#         55
  C:0F71H         LINE#         56
  C:0F75H         LINE#         57
  C:0F78H         LINE#         58
  C:0F78H         LINE#         59
  C:0F79H         LINE#         61
  C:0F79H         LINE#         62
  C:0F7CH         LINE#         63
  C:0F7CH         LINE#         64
  C:0F82H         LINE#         65
  C:0F8BH         LINE#         66
  C:0F8EH         LINE#         67
  C:0F8EH         LINE#         68
  C:0F8EH         LINE#         69
  C:0F8EH         LINE#         70
  -------         ENDPROC       KEY_DEAL
  -------         PROC          SEG_DEAL
  C:0E6EH         LINE#         73
  C:0E6EH         LINE#         74
  C:0E6EH         LINE#         75
  C:0E71H         LINE#         76
  C:0E73H         LINE#         78
  C:0E76H         LINE#         80
  C:0E79H         LINE#         81
  C:0E79H         LINE#         82
  C:0E7CH         LINE#         83
  C:0E93H         LINE#         84
  C:0E9BH         LINE#         85
  C:0E9EH         LINE#         86
  C:0EBCH         LINE#         87
  C:0EBDH         LINE#         90
  C:0EBDH         LINE#         91
  C:0EC0H         LINE#         92
  C:0EC3H         LINE#         93
  C:0ED0H         LINE#         94
  C:0ED3H         LINE#         95
BL51 BANKED LINKER/LOCATER V6.22.2.0                                                  03/20/2024  16:57:04  PAGE 6


  C:0EDCH         LINE#         96
  C:0EDCH         LINE#         97
  -------         ENDPROC       SEG_DEAL
  -------         PROC          LED_DEAL
  C:1045H         LINE#         100
  C:1045H         LINE#         101
  C:1045H         LINE#         102
  C:1048H         LINE#         103
  C:104AH         LINE#         106
  C:1058H         LINE#         107
  C:1070H         LINE#         109
  C:1073H         LINE#         110
  C:107AH         LINE#         112
  C:107DH         LINE#         113
  -------         ENDPROC       LED_DEAL
  -------         PROC          UART_DEAL
  C:107EH         LINE#         116
  C:107EH         LINE#         117
  C:107EH         LINE#         118
  C:1081H         LINE#         119
  C:1083H         LINE#         121
  C:1089H         LINE#         122
  C:1089H         LINE#         123
  C:109EH         LINE#         124
  C:109EH         LINE#         125
  C:10B3H         LINE#         126
  C:10B3H         LINE#         127
  C:10B6H         LINE#         128
  C:10B6H         LINE#         129
  -------         ENDPROC       UART_DEAL
  -------         PROC          INFOR_DEAL
  C:0EDDH         LINE#         132
  C:0EDDH         LINE#         133
  C:0EDDH         LINE#         134
  C:0EE0H         LINE#         135
  C:0EE2H         LINE#         138
  C:0EFFH         LINE#         142
  C:0F19H         LINE#         144
  C:0F1CH         LINE#         145
  C:0F1FH         LINE#         147
  C:0F34H         LINE#         148
  C:0F37H         LINE#         150
  C:0F39H         LINE#         151
  -------         ENDPROC       INFOR_DEAL
  -------         PROC          TIMER0_INIT
  C:000EH         LINE#         154
  C:000EH         LINE#         155
  C:000EH         LINE#         156
  C:0011H         LINE#         157
  C:0014H         LINE#         158
  C:0017H         LINE#         159
  C:001AH         LINE#         160
  C:001CH         LINE#         161
  C:001EH         LINE#         162
  C:0020H         LINE#         163
  C:0022H         LINE#         164
  -------         ENDPROC       TIMER0_INIT
BL51 BANKED LINKER/LOCATER V6.22.2.0                                                  03/20/2024  16:57:04  PAGE 7


  -------         PROC          TIMER0_SEVRE
  C:0C99H         LINE#         167
  C:0CB6H         LINE#         169
  C:0CCFH         LINE#         170
  C:0CE0H         LINE#         171
  C:0CF1H         LINE#         172
  C:0D02H         LINE#         173
  C:0D13H         LINE#         174
  C:0D2BH         LINE#         175
  C:0D3AH         LINE#         177
  C:0D3DH         LINE#         178
  C:0D3DH         LINE#         179
  C:0D4BH         LINE#         180
  C:0D4BH         LINE#         181
  C:0D4FH         LINE#         182
  C:0D54H         LINE#         183
  C:0D54H         LINE#         184
  C:0D54H         LINE#         186
  -------         ENDPROC       TIMER0_SEVRE
  -------         PROC          UART_SEVRE
  C:1175H         LINE#         187
  C:1180H         LINE#         189
  C:1183H         LINE#         190
  C:1183H         LINE#         191
  C:118DH         LINE#         192
  C:118FH         LINE#         193
  C:118FH         LINE#         194
  -------         ENDPROC       UART_SEVRE
  -------         PROC          DELAY500MS
  -------         DO            
  D:0007H         SYMBOL        i
  D:0006H         SYMBOL        j
  D:0005H         SYMBOL        k
  -------         ENDDO         
  C:1256H         LINE#         196
  C:1256H         LINE#         197
  C:1256H         LINE#         199
  C:1258H         LINE#         200
  C:125AH         LINE#         201
  C:125CH         LINE#         203
  C:125CH         LINE#         205
  C:125CH         LINE#         206
  C:125EH         LINE#         207
  C:1260H         LINE#         208
  C:1262H         LINE#         209
  -------         ENDPROC       DELAY500MS
  -------         PROC          MAIN
  C:100BH         LINE#         212
  C:100BH         LINE#         213
  C:100BH         LINE#         214
  C:100EH         LINE#         215
  C:1011H         LINE#         216
  C:1014H         LINE#         217
  C:1031H         LINE#         218
  C:1034H         LINE#         219
  C:1034H         LINE#         220
  C:1034H         LINE#         221
BL51 BANKED LINKER/LOCATER V6.22.2.0                                                  03/20/2024  16:57:04  PAGE 8


  C:1037H         LINE#         222
  C:103AH         LINE#         223
  C:103DH         LINE#         224
  C:1040H         LINE#         225
  C:1043H         LINE#         226
  -------         ENDPROC       MAIN
  -------         ENDMOD        MAIN

  -------         MODULE        INIT
  C:0000H         SYMBOL        _ICE_DUMMY_
  C:1198H         PUBLIC        System_Init
  D:0080H         PUBLIC        P0
  D:0090H         PUBLIC        P1
  D:00A0H         PUBLIC        P2
  D:00B0H         PUBLIC        P3
  D:00C0H         PUBLIC        P4
  D:00C8H         PUBLIC        P5
  D:00E8H         PUBLIC        P6
  D:00F8H         PUBLIC        P7
  D:00A8H         PUBLIC        IE
  D:00B8H         PUBLIC        IP
  D:00D8H         PUBLIC        CCON
  D:0098H         PUBLIC        SCON
  D:0088H         PUBLIC        TCON
  D:00D0H         PUBLIC        PSW
  -------         PROC          SYSTEM_INIT
  C:1198H         LINE#         5
  C:1198H         LINE#         6
  C:1198H         LINE#         7
  C:119BH         LINE#         8
  C:11A3H         LINE#         9
  C:11A6H         LINE#         11
  C:11A9H         LINE#         12
  C:11B1H         LINE#         13
  C:11B4H         LINE#         14
  -------         ENDPROC       SYSTEM_INIT
  -------         ENDMOD        INIT

  -------         MODULE        KEY
  C:0000H         SYMBOL        _ICE_DUMMY_
  D:0080H         PUBLIC        P0
  D:0090H         PUBLIC        P1
  D:00A0H         PUBLIC        P2
  D:00B0H         PUBLIC        P3
  D:00C0H         PUBLIC        P4
  D:00C8H         PUBLIC        P5
  D:00E8H         PUBLIC        P6
  D:00F8H         PUBLIC        P7
  C:0DFBH         PUBLIC        Key_Read
  D:00A8H         PUBLIC        IE
  D:00B8H         PUBLIC        IP
  D:00D8H         PUBLIC        CCON
  B:00B0H.0       PUBLIC        P30
  D:0098H         PUBLIC        SCON
  B:00B0H.1       PUBLIC        P31
  D:0088H         PUBLIC        TCON
  B:00B0H.2       PUBLIC        P32
BL51 BANKED LINKER/LOCATER V6.22.2.0                                                  03/20/2024  16:57:04  PAGE 9


  B:00C0H.2       PUBLIC        P42
  B:00B0H.3       PUBLIC        P33
  B:00B0H.4       PUBLIC        P34
  B:00C0H.4       PUBLIC        P44
  B:00B0H.5       PUBLIC        P35
  D:00D0H         PUBLIC        PSW
  -------         PROC          KEY_READ
  -------         DO            
  D:0007H         SYMBOL        temp
  -------         ENDDO         
  C:0DFBH         LINE#         4
  C:0DFBH         LINE#         5
  C:0DFBH         LINE#         6
  C:0DFDH         LINE#         7
  C:0E05H         LINE#         8
  C:0E0AH         LINE#         9
  C:0E0FH         LINE#         10
  C:0E14H         LINE#         11
  C:0E19H         LINE#         12
  C:0E21H         LINE#         13
  C:0E26H         LINE#         14
  C:0E2BH         LINE#         15
  C:0E30H         LINE#         16
  C:0E35H         LINE#         17
  C:0E3DH         LINE#         18
  C:0E42H         LINE#         19
  C:0E47H         LINE#         20
  C:0E4CH         LINE#         21
  C:0E51H         LINE#         22
  C:0E59H         LINE#         23
  C:0E5EH         LINE#         24
  C:0E63H         LINE#         25
  C:0E68H         LINE#         26
  C:0E6DH         LINE#         27
  C:0E6DH         LINE#         28
  -------         ENDPROC       KEY_READ
  -------         ENDMOD        KEY

  -------         MODULE        SEG
  C:0000H         SYMBOL        _ICE_DUMMY_
  D:0080H         PUBLIC        P0
  D:0090H         PUBLIC        P1
  D:00A0H         PUBLIC        P2
  D:00B0H         PUBLIC        P3
  D:00C0H         PUBLIC        P4
  D:00C8H         PUBLIC        P5
  D:00E8H         PUBLIC        P6
  D:00F8H         PUBLIC        P7
  D:00A8H         PUBLIC        IE
  D:00B8H         PUBLIC        IP
  C:0F8FH         PUBLIC        _Seg_Show
  D:00D8H         PUBLIC        CCON
  D:0098H         PUBLIC        SCON
  D:0088H         PUBLIC        TCON
  C:11B5H         PUBLIC        Seg_Wu
  C:11BDH         PUBLIC        Seg_Table
  D:00D0H         PUBLIC        PSW
BL51 BANKED LINKER/LOCATER V6.22.2.0                                                  03/20/2024  16:57:04  PAGE 10


  -------         PROC          _SEG_SHOW
  D:0007H         SYMBOL        Wu
  D:0004H         SYMBOL        Table
  D:0002H         SYMBOL        Point
  C:0F8FH         LINE#         29
  C:0F8FH         LINE#         30
  C:0F8FH         LINE#         31
  C:0F92H         LINE#         32
  C:0F9AH         LINE#         33
  C:0F9DH         LINE#         35
  C:0FA4H         LINE#         36
  C:0FACH         LINE#         37
  C:0FAFH         LINE#         39
  C:0FBDH         LINE#         40
  C:0FC1H         LINE#         41
  C:0FC4H         LINE#         42
  C:0FCCH         LINE#         43
  C:0FCFH         LINE#         45
  -------         ENDPROC       _SEG_SHOW
  -------         ENDMOD        SEG

  -------         MODULE        LED
  C:0000H         SYMBOL        _ICE_DUMMY_
  D:0080H         PUBLIC        P0
  D:0090H         PUBLIC        P1
  D:00A0H         PUBLIC        P2
  D:00B0H         PUBLIC        P3
  D:00C0H         PUBLIC        P4
  D:00C8H         PUBLIC        P5
  D:00E8H         PUBLIC        P6
  D:00F8H         PUBLIC        P7
  D:00A8H         PUBLIC        IE
  D:00B8H         PUBLIC        IP
  D:00D8H         PUBLIC        CCON
  D:0098H         PUBLIC        SCON
  D:0088H         PUBLIC        TCON
  C:0FD0H         PUBLIC        _LED_Show
  D:00D0H         PUBLIC        PSW
  -------         PROC          _LED_SHOW
  D:0007H         SYMBOL        addr
  D:0004H         SYMBOL        enable
  -------         DO            
  D:0008H         SYMBOL        temp_new
  D:0009H         SYMBOL        temp_old
  -------         ENDDO         
  C:0FD0H         LINE#         5
  C:0FD0H         LINE#         6
  C:0FD0H         LINE#         10
  C:0FD4H         LINE#         11
  C:0FE3H         LINE#         13
  C:0FF1H         LINE#         15
  C:0FF7H         LINE#         16
  C:0FF7H         LINE#         17
  C:0FFCH         LINE#         18
  C:1004H         LINE#         19
  C:1007H         LINE#         20
  C:100AH         LINE#         21
BL51 BANKED LINKER/LOCATER V6.22.2.0                                                  03/20/2024  16:57:04  PAGE 11


  C:100AH         LINE#         22
  -------         ENDPROC       _LED_SHOW
  -------         ENDMOD        LED

  -------         MODULE        IIC
  C:0000H         SYMBOL        _ICE_DUMMY_
  D:0080H         PUBLIC        P0
  D:0090H         PUBLIC        P1
  D:00A0H         PUBLIC        P2
  D:00B0H         PUBLIC        P3
  D:00C0H         PUBLIC        P4
  D:00C8H         PUBLIC        P5
  D:00E8H         PUBLIC        P6
  D:00F8H         PUBLIC        P7
  D:00A8H         PUBLIC        IE
  C:11EFH         SYMBOL        _I2C_Delay
  D:00B8H         PUBLIC        IP
  C:114FH         PUBLIC        I2CReceiveByte
  D:00D8H         PUBLIC        CCON
  D:0098H         PUBLIC        SCON
  D:0088H         PUBLIC        TCON
  B:00A0H.1       PUBLIC        sda
  B:00A0H.0       PUBLIC        scl
  C:1247H         PUBLIC        I2CStart
  C:1205H         PUBLIC        _I2CSendAck
  C:10EEH         PUBLIC        _I2CSendByte
  C:1123H         PUBLIC        _AD_Read
  C:1235H         PUBLIC        I2CWaitAck
  C:1263H         PUBLIC        I2CStop
  D:00D0H         PUBLIC        PSW
  C:11EBH         SYMBOL        L?0022
  -------         PROC          L?0021
  -------         ENDPROC       L?0021
  C:11EBH         SYMBOL        L?0022
  -------         PROC          _I2C_DELAY
  D:0007H         SYMBOL        n
  C:11EFH         LINE#         16
  C:11EFH         LINE#         17
  C:11EFH         LINE#         19
  C:11EFH         LINE#         20
  C:11F4H         LINE#         21
  C:11F9H         LINE#         22
  C:11FEH         LINE#         23
  C:11FEH         LINE#         24
  C:1204H         LINE#         25
  -------         ENDPROC       _I2C_DELAY
  -------         PROC          I2CSTART
  C:1247H         LINE#         28
  C:1247H         LINE#         29
  C:1247H         LINE#         30
  C:1249H         LINE#         31
  C:1249H         LINE#         32
  C:124CH         LINE#         33
  C:124EH         LINE#         34
  C:1253H         LINE#         35
  C:1255H         LINE#         36
  -------         ENDPROC       I2CSTART
BL51 BANKED LINKER/LOCATER V6.22.2.0                                                  03/20/2024  16:57:04  PAGE 12


  -------         PROC          I2CSTOP
  C:1263H         LINE#         39
  C:1263H         LINE#         40
  C:1263H         LINE#         41
  C:1265H         LINE#         42
  C:1265H         LINE#         43
  C:1268H         LINE#         44
  C:126AH         LINE#         45
  -------         ENDPROC       I2CSTOP
  -------         PROC          _I2CSENDBYTE
  D:0005H         SYMBOL        byt
  -------         DO            
  D:0004H         SYMBOL        i
  -------         ENDDO         
  C:10EEH         LINE#         49
  C:10F0H         LINE#         50
  C:10F0H         LINE#         53
  C:10FCH         LINE#         54
  C:10FEH         LINE#         55
  C:1103H         LINE#         56
  C:1107H         LINE#         57
  C:1109H         LINE#         58
  C:110BH         LINE#         59
  C:110BH         LINE#         60
  C:110DH         LINE#         61
  C:110DH         LINE#         62
  C:1112H         LINE#         63
  C:1114H         LINE#         64
  C:1118H         LINE#         65
  C:111DH         LINE#         66
  C:1120H         LINE#         68
  C:1122H         LINE#         69
  -------         ENDPROC       _I2CSENDBYTE
  -------         PROC          I2CRECEIVEBYTE
  -------         DO            
  D:0005H         SYMBOL        da
  D:0004H         SYMBOL        i
  -------         ENDDO         
  C:114FH         LINE#         72
  C:114FH         LINE#         73
  C:114FH         LINE#         76
  C:115BH         LINE#         77
  C:115BH         LINE#         78
  C:115EH         LINE#         79
  C:1162H         LINE#         80
  C:1165H         LINE#         81
  C:1168H         LINE#         82
  C:116AH         LINE#         83
  C:116FH         LINE#         84
  C:1172H         LINE#         85
  C:1174H         LINE#         86
  -------         ENDPROC       I2CRECEIVEBYTE
  -------         PROC          L?0023
  -------         ENDPROC       L?0023
  -------         PROC          I2CWAITACK
  -------         DO            
  D:0005H         SYMBOL        ackbit
BL51 BANKED LINKER/LOCATER V6.22.2.0                                                  03/20/2024  16:57:04  PAGE 13


  -------         ENDDO         
  C:1235H         LINE#         89
  C:1235H         LINE#         90
  C:1235H         LINE#         93
  C:1235H         LINE#         94
  C:1238H         LINE#         95
  C:123DH         LINE#         96
  C:123FH         LINE#         97
  C:1244H         LINE#         99
  C:1246H         LINE#         100
  -------         ENDPROC       I2CWAITACK
  -------         PROC          _I2CSENDACK
  D:0007H         SYMBOL        ackbit
  C:1205H         LINE#         103
  C:1205H         LINE#         104
  C:1205H         LINE#         105
  C:1207H         LINE#         106
  C:120CH         LINE#         107
  C:1211H         LINE#         108
  C:1211H         LINE#         109
  C:1214H         LINE#         110
  C:1216H         LINE#         111
  C:1218H         LINE#         112
  -------         ENDPROC       _I2CSENDACK
  -------         PROC          _AD_READ
  D:0003H         SYMBOL        addr
  -------         DO            
  D:0005H         SYMBOL        temp
  -------         ENDDO         
  C:1123H         LINE#         115
  C:1125H         LINE#         116
  C:1125H         LINE#         117
  C:1127H         LINE#         118
  C:112AH         LINE#         119
  C:112CH         LINE#         120
  C:112FH         LINE#         121
  C:1131H         LINE#         122
  C:1134H         LINE#         124
  C:1137H         LINE#         125
  C:113CH         LINE#         126
  C:113FH         LINE#         127
  C:1144H         LINE#         128
  C:1149H         LINE#         129
  C:114CH         LINE#         130
  C:114EH         LINE#         131
  -------         ENDPROC       _AD_READ
  -------         ENDMOD        IIC

  -------         MODULE        UART
  C:0000H         SYMBOL        _ICE_DUMMY_
  D:0080H         PUBLIC        P0
  D:0090H         PUBLIC        P1
  D:00A0H         PUBLIC        P2
  D:00B0H         PUBLIC        P3
  D:00C0H         PUBLIC        P4
  D:00C8H         PUBLIC        P5
  B:00A8H.7       PUBLIC        EA
BL51 BANKED LINKER/LOCATER V6.22.2.0                                                  03/20/2024  16:57:04  PAGE 14


  D:00E8H         PUBLIC        P6
  D:00F8H         PUBLIC        P7
  D:00A8H         PUBLIC        IE
  C:11D0H         PUBLIC        Uart_Init
  B:00A8H.4       PUBLIC        ES
  D:00B8H         PUBLIC        IP
  B:0098H.1       PUBLIC        TI
  D:00D8H         PUBLIC        CCON
  D:0099H         PUBLIC        SBUF
  D:0098H         PUBLIC        SCON
  D:0089H         PUBLIC        TMOD
  D:0088H         PUBLIC        TCON
  D:008EH         PUBLIC        AUXR
  B:00A8H.3       PUBLIC        ET1
  D:008DH         PUBLIC        TH1
  D:008BH         PUBLIC        TL1
  B:0088H.6       PUBLIC        TR1
  D:00D0H         PUBLIC        PSW
  C:0003H         PUBLIC        _putchar
  -------         PROC          UART_INIT
  C:11D0H         LINE#         6
  C:11D0H         LINE#         7
  C:11D0H         LINE#         8
  C:11D3H         LINE#         9
  C:11D6H         LINE#         10
  C:11D9H         LINE#         11
  C:11DCH         LINE#         12
  C:11DFH         LINE#         13
  C:11E2H         LINE#         14
  C:11E4H         LINE#         15
  C:11E6H         LINE#         16
  C:11E8H         LINE#         17
  C:11EAH         LINE#         18
  -------         ENDPROC       UART_INIT
  -------         PROC          _PUTCHAR
  D:0007H         SYMBOL        string
  C:0003H         LINE#         20
  C:0003H         LINE#         21
  C:0003H         LINE#         22
  C:0005H         LINE#         23
  C:0008H         LINE#         24
  C:000AH         LINE#         25
  C:000AH         LINE#         26
  -------         ENDPROC       _PUTCHAR
  -------         ENDMOD        UART

  -------         MODULE        ?C?FPMUL
  C:0026H         PUBLIC        ?C?FPMUL
  -------         ENDMOD        ?C?FPMUL

  -------         MODULE        ?C?FPDIV
  C:012FH         PUBLIC        ?C?FPDIV
  -------         ENDMOD        ?C?FPDIV

  -------         MODULE        ?C?FPCMP
  C:01CEH         PUBLIC        ?C?FPCMP
  C:01CCH         PUBLIC        ?C?FPCMP3
BL51 BANKED LINKER/LOCATER V6.22.2.0                                                  03/20/2024  16:57:04  PAGE 15


  -------         ENDMOD        ?C?FPCMP

  -------         MODULE        ?C?FCAST
  C:024FH         PUBLIC        ?C?FCASTC
  C:024AH         PUBLIC        ?C?FCASTI
  C:0245H         PUBLIC        ?C?FCASTL
  -------         ENDMOD        ?C?FCAST

  -------         MODULE        ?C?CASTF
  C:0283H         PUBLIC        ?C?CASTF
  -------         ENDMOD        ?C?CASTF

  -------         MODULE        PRINTF
  D:0056H         PUBLIC        ?_PRINTF?BYTE
  D:0056H         PUBLIC        ?_SPRINTF?BYTE
  C:088CH         PUBLIC        _PRINTF
  C:0886H         PUBLIC        _SPRINTF
  -------         ENDMOD        PRINTF

  -------         MODULE        ?C?FPROUND
  C:0304H         PUBLIC        ?C?FPROUND
  -------         ENDMOD        ?C?FPROUND

  -------         MODULE        ?C?FPCONVERT
  C:0333H         PUBLIC        ?C?FPCONVERT
  -------         ENDMOD        ?C?FPCONVERT

  -------         MODULE        ?C?FPADD
  C:043DH         PUBLIC        ?C?FPADD
  C:0439H         PUBLIC        ?C?FPSUB
  -------         ENDMOD        ?C?FPADD

  -------         MODULE        ?C?FTNPWR
  C:055EH         PUBLIC        ?C?FTNPWR
  -------         ENDMOD        ?C?FTNPWR

  -------         MODULE        ?C?CLDPTR
  C:059EH         PUBLIC        ?C?CLDPTR
  -------         ENDMOD        ?C?CLDPTR

  -------         MODULE        ?C?CLDOPTR
  C:05B7H         PUBLIC        ?C?CLDOPTR
  -------         ENDMOD        ?C?CLDOPTR

  -------         MODULE        ?C?CSTPTR
  C:05E4H         PUBLIC        ?C?CSTPTR
  -------         ENDMOD        ?C?CSTPTR

  -------         MODULE        ?C?UIDIV
  C:05F6H         PUBLIC        ?C?UIDIV
  -------         ENDMOD        ?C?UIDIV

  -------         MODULE        ?C?LNEG
  C:064BH         PUBLIC        ?C?LNEG
  -------         ENDMOD        ?C?LNEG

  -------         MODULE        ?C?PLDIIDATA
BL51 BANKED LINKER/LOCATER V6.22.2.0                                                  03/20/2024  16:57:04  PAGE 16


  C:0659H         PUBLIC        ?C?PLDIIDATA
  -------         ENDMOD        ?C?PLDIIDATA

  -------         MODULE        ?C?CCASE
  C:0669H         PUBLIC        ?C?CCASE
  -------         ENDMOD        ?C?CCASE

  -------         MODULE        ?C?STRCMP
  C:080DH         PUBLIC        ?C?STRCMP
  -------         ENDMOD        ?C?STRCMP

Program Size: data=92.1 xdata=0 code=4719
LINK/LOCATE RUN COMPLETE.  0 WARNING(S),  0 ERROR(S)
