:1004B500082B0A0A0A0A0A0A0A0A08230000000089
:1004C50000000000083D0000000000000000013CA5
:1004D5001E013714014B1E0146140145010121007F
:0304E500012200F1
:1003EB00200164D2011207108F21E5216522FFE560
:1003FB0021F45FF53685212224FB60080470086325
:10040B004C018003634501E54C603CE53624F96003
:10041B001D047033E545700B054BE54B6464702789
:10042B00F54B220546E5466464701CF54622E5450E
:10043B00700B154BE54BF4700E754B63221546E5AF
:07044B0046F47003754663DF
:010452002287
:10037200200075D2001205A98F4A8E498D488C47FC
:10038200E54C14603E047060754501E54BD395461B
:100392004008854B3C8546378006853C4B85374671
:1003A200752B0B752E0A752F0AAF4AAE49AD48ACB4
:1003B20047120165EF75F00A8475F00A8485F03101
:1003C200EF801E752B0CE54B75F00A84F52EE54B7C
:1003D20075F00A8485F02FE54675F00A84F531E55B
:0903E2004675F00A8485F0322210
:10045300AC3CE4120131AB4AAA49A948A8471200AF
:10046300AE6011400F7FCC1206F6753D01E4F53EF8
:10047300F53F802FAC37E4120131AB4AAA49A948B2
:10048300A8471200AE500F7F661206F6E4F53DF55D
:100493003E753F01800D7F991206F6E4F53D753EEA
:1004A30001F53FE54BD395464004E4F54022754002
:0204B300012224
:10075400538E7F5389F0758A18758CFCC28DD28CA8
:05076400D2A9D2AF2272
:03000B000202E707
:1002E700C0E0C0F0C083C082C0D075D000C000C0DD
:1002F70001C002C003C004C005C006C0070534E53D
:100307003470020533FFAE33BE010BBF9008C20045
:10031700753300753400AE33AF347C007D0A1201AB
:10032700F8ED4C7002C201E5345407FBFF242BF8AB
:10033700E6FD7C0074232BF8E624FF92021204FBEF
:10034700E5345407FF243DF8E624FF920212053BEB
:10035700D007D006D005D004D003D002D001D000FA
:0B036700D0D0D082D083D0F0D0E032A4
:10077E00EF4E600F7D0C7CA9DCFEDDFCEF1F70F0F0
:03078E001E80EDDD
:010791002245
:1006DB001205A97FEE7E0212077E1207541206BE88
:0B06EB001203EB12037212045380F59F
:1006BE00E4F580E5A0541F44A0F5A053A01F75805B
:0D06CE00FFE5A0541F4480F5A053A01F229B
:10071000E4FF20B0027F0720B1027F0620B2027FF3
:060720000520B3027F0476
:0107260022B0
:10076900C0F9A4B0999282F88090FFC68C01020466
:05077900081020408083
:1004FB007580FFE5A0541F44E0F5A053A01FEF90BB
:10050B00077693F580E5A0541F44C0F5A053A01FB8
:10051B0074692DF58274073CF583E493F580300202
:10052B000353807FE5A0541F44E0F5A053A01F2286
:1004E8000108000109FF010A00010BFF010C0001CE
:0204F8000DFFF6
:10053B0030020FA8077401088002C333D8FC4208AD
:10054B00800DA8077401088002C333D8FC5208E55C
:10055B000865096013E508F4F580E5A0541F448095
:08056B00F5A053A01F8508094B
:010573002265
:10065100EF6005430A408003530ABFE50A650B605A
:1006610013E50AF4F580E5A0541F44A0F5A053A0BA
:040671001F850A0BCC
:010675002262
:10067600EF6005430C108003530CEFE50C650D602D
:1006860013E50CF4F580E5A0541F44A0F5A053A093
:040696001F850C0DA3
:01069A00223D
:04073E007F057E00B5
:100742007C007D0C1201E6EF1FAC0670011E4C709E
:02075200F6228D
:0205DD00AB076A
:1005DF00E4FAEAC39408748094805012C294EB1327
:1005EF00929412073ED294EBC313FB0A80E47F056B
:0505FF007E000207422E
:10069B00E4FAEAC39408748094805014C294EBC3B8
:1006AB0013FBD29430940343038012073E0A80E27B
:0206BB00AF038B
:0106BD00221A
:10060400C203D2947F0C7E00120742C2947F507EB4
:1006140000120742D2947F0A7E00120742A29492EB
:060624000312073EA203D1
:01062A0022AD
:1005A9001206047FCC1205DD7F441205DD12060414
:1005B9007FCC1205DD7FBE1205DD12069BA907124D
:1005C900069BEFAD01FCEC12012CE4FBFA79807873
:0405D90041020011CA
:0407B500D2A07F054A
:0807B90000AE071FEE70F922EB
:0F07A600D2A11207B5C2A17F051207B9C2A022C6
:0C07C100C2A11207B5D2A17F050207B942
:10072700C2A0A20492A17F051207B91207B5C2A001
:07073700D2A17F050207B902
:03079200120574D9
:100795001207B5A2A19203C2A07F051207B9A20351
:0107A5002231
:02057400AD07D1
:10057600E4FCECC39408748094805024C2A07F05E8
:100586001207B9ED30E704D2A18002C2A17F05129D
:1005960007B9D2A0ED25E0FD7F051207B90C80D280
:0205A600C2A0F1
:0105A8002230
:10062B00E4FCECC394087480948050171207B5ED6A
:10063B0025E0FD30A103430501C2A07F051207B9D8
:05064B000C80DFAF058B
:010650002287
:1006F600AB071207A67F901207927F41120792AFAF
:0A070600031205741207950207C1E3
:10000E000201DBEC5D046005E8590470030201D1C6
:10001E0012019C580460F6EC4860F2EC7004FDFE90
:10002E00FF22C860DB2481C85009C39860025006C5
:10003E000201D89850CAF582E9294B4A7005AB8265
:10004E000201C775F0007C1A7880C3EF9BEE9AED23
:10005E0099400DC3EF9BFFEE9AFEED99FDE842F03D
:10006E00DC23ACF0D0E0FFD0E0FED0E0FDAB822090
:10007E00E7101BEB60BAEC2CFCEF33FFEE33FEED1A
:10008E0033FD0201B3E803F830E705C0F075F00068
:10009E00EF2FFFEE33FEED33FD40B830E7C280AAFE
:1000AE0074F8CC6480CCC86480C8F58204604FC3F9
:1000BE00EB9FF5F0EA9E42F0E99D42F0E89C45F098
:1000CE00603C501DE5825FFFE582D313CB5BCBF422
:1000DE002B5582FB50280ABA002409B9002008804B
:1000EE001DE5825BFBE582D313CF5FCFF4C3132FE5
:1000FE005582FF50090EBE00050DBD00010CC3EB6D
:10010E009FF5F0EA9E42F0E99D42F0E89C45F060D2
:09011E0007CC4820E701B3EC22F4
:1001270075F020800E75F010800575F0087D007E53
:10013700007F003392D530D50312024DEC334010C7
:10014700EF33FFEE33FEED33FDEC33FCD5F0ED225C
:0E015700E5F0247EA2D513CC92E7CDCEFF2298
:10016500EDD2E7CD33EC3392D524814006E4FFFE92
:10017500FDFC22FCE4CFCECDCC24E0501174FF80F1
:10018500EDC3CC13CCCD13CDCE13CECF13CF04708E
:07019500F030D5DE02024D3F
:10019C00E9D2E7C933E833F892D5EDD2E7CD33ECA9
:0701AC0033FC5002B2D52222
:1001B300EC30E7100FBF000C0EBE00080DBD0004AD
:1001C3000BEB6014A2D5EB13FCED92E7FD2274FF59
:1001D300FCFDFEFF22E480F8A2D574FF13FC7D80B2
:0301E300E480EFC6
:0300000002025B9E
:0C025B00787FE4F6D8FD75814C0202A209
:1001E600EF8DF0A4A8F0CF8CF0A428CE8DF0A42E2D
:0201F600FE22E7
:1001F800BC000BBE0029EF8DF084FFADF022E4CCEB
:10020800F875F008EF2FFFEE33FEEC33FCEE9DECB3
:10021800984005FCEE9DFE0FD5F0E9E4CEFD22EDF9
:10022800F8F5F0EE8420D21CFEADF075F008EF2F43
:10023800FFED33FD4007985006D5F0F222C398FD34
:050248000FD5F0EA22D1
:0E024D00C3E49FFFE49EFEE49DFDE49CFC22C2
:100267000206DBE493A3F8E493A34003F68001F2CC
:1002770008DFF48029E493A3F85407240CC8C33398
:10028700C4540F4420C8834004F456800146F6DF67
:10029700E4800B01020408102040809004B5E47E3E
:1002A700019360BCA3FF543F30E509541FFEE4935C
:1002B700A360010ECF54C025E060A840B8E493A323
:1002C700FAE493A3F8E493A3C8C582C8CAC583CA4E
:1002D700F0A3C8C582C8CAC583CADFE9DEE780BE06
:0104FA000001
:00000001FF
