BL51 BANKED LINKER/LOCATER V6.22.2.0                                                    03/08/2024  21:30:01  PAGE 1


BL51 BANKED LINKER/LOCATER V6.22.2.0, INVOKED BY:
D:\KEIL 5\C51\BIN\BL51.EXE .\Objects\main.obj, .\Objects\Init.obj, .\Objects\Key.obj, .\Objects\Seg.obj, .\Objects\LED.o
>> bj, .\Objects\iic.obj TO .\Objects\project PRINT (.\Listings\project.m51) RAMSIZE (256)


MEMORY MODEL: SMALL


INPUT MODULES INCLUDED:
  .\Objects\main.obj (MAIN)
  .\Objects\Init.obj (INIT)
  .\Objects\Key.obj (KEY)
  .\Objects\Seg.obj (SEG)
  .\Objects\LED.obj (LED)
  .\Objects\iic.obj (IIC)
  D:\KEIL 5\C51\LIB\C51S.LIB (?C_STARTUP)
  D:\KEIL 5\C51\LIB\C51S.LIB (?C?CLDPTR)
  D:\KEIL 5\C51\LIB\C51S.LIB (?C?CSTPTR)
  D:\KEIL 5\C51\LIB\C51S.LIB (?C?UIDIV)
  D:\KEIL 5\C51\LIB\C51S.LIB (?C_INIT)


LINK MAP OF MODULE:  .\Objects\project (MAIN)


            TYPE    BASE      LENGTH    RELOCATION   SEGMENT NAME
            -----------------------------------------------------

            * * * * * * *   D A T A   M E M O R Y   * * * * * * *
            REG     0000H     0008H     ABSOLUTE     "REG BANK 0"
            DATA    0008H     0008H     UNIT         _DATA_GROUP_
            DATA    0010H     0002H     UNIT         ?DT?LED
                    0012H     000EH                  *** GAP ***
            BIT     0020H.0   0000H.6   UNIT         ?BI?MAIN
                    0020H.6   0000H.2                *** GAP ***
            DATA    0021H     003EH     UNIT         ?DT?MAIN
            IDATA   005FH     0001H     UNIT         ?STACK

            * * * * * * *   C O D E   M E M O R Y   * * * * * * *
            CODE    0000H     0003H     ABSOLUTE     
                    0003H     0008H                  *** GAP ***
            CODE    000BH     0003H     ABSOLUTE     
            CODE    000EH     0158H     UNIT         ?PR?KEY_DEAL?MAIN
            CODE    0166H     0157H     UNIT         ?PR?INFOR_DEAL?MAIN
            CODE    02BDH     00F9H     UNIT         ?PR?TIMER0_SERVE?MAIN
            CODE    03B6H     00D8H     UNIT         ?PR?OTHER_DEAL?MAIN
            CODE    048EH     008CH     UNIT         ?C_C51STARTUP
            CODE    051AH     0089H     UNIT         ?PR?MAIN?MAIN
            CODE    05A3H     0080H     UNIT         ?C?LIB_CODE
            CODE    0623H     004AH     UNIT         ?PR?_EEPROM_READ?IIC
            CODE    066DH     0045H     UNIT         ?C_INITSEG
            CODE    06B2H     0041H     UNIT         ?PR?_SEG_SHOW?SEG
            CODE    06F3H     003BH     UNIT         ?PR?_LED_SHOW?LED
            CODE    072EH     0038H     UNIT         ?PR?_EEPROM_WRITE?IIC
            CODE    0766H     0035H     UNIT         ?PR?_I2CSENDBYTE?IIC
            CODE    079BH     0026H     UNIT         ?PR?I2CRECEIVEBYTE?IIC
            CODE    07C1H     0026H     UNIT         ?PR?I2CWAITACK?IIC
            CODE    07E7H     0025H     UNIT         ?PR?_AD_READ?IIC
BL51 BANKED LINKER/LOCATER V6.22.2.0                                                  03/08/2024  21:30:01  PAGE 2


            CODE    080CH     001DH     UNIT         ?PR?SYSTEM_INIT?INIT
            CODE    0829H     001AH     UNIT         ?CO?SEG
            CODE    0843H     001AH     UNIT         ?PR?_I2C_DELAY?IIC
            CODE    085DH     0018H     UNIT         ?PR?_I2CSENDACK?IIC
            CODE    0875H     0017H     UNIT         ?PR?KEY_READ?KEY
            CODE    088CH     0015H     UNIT         ?PR?TIMER0_INIT?MAIN
            CODE    08A1H     000FH     UNIT         ?PR?I2CSTART?IIC
            CODE    08B0H     000CH     UNIT         ?PR?I2CSTOP?IIC



OVERLAY MAP OF MODULE:   .\Objects\project (MAIN)


SEGMENT                          DATA_GROUP 
  +--> CALLED SEGMENT          START    LENGTH
----------------------------------------------
?PR?TIMER0_SERVE?MAIN          -----    -----
  +--> ?PR?_LED_SHOW?LED
  +--> ?PR?_SEG_SHOW?SEG

?PR?_SEG_SHOW?SEG              -----    -----
  +--> ?CO?SEG

*** NEW ROOT ***************************************************

?C_C51STARTUP                  -----    -----
  +--> ?PR?MAIN?MAIN
  +--> ?C_INITSEG

?PR?MAIN?MAIN                  0008H    0001H
  +--> ?PR?SYSTEM_INIT?INIT
  +--> ?PR?TIMER0_INIT?MAIN
  +--> ?PR?_EEPROM_READ?IIC
  +--> ?PR?_EEPROM_WRITE?IIC
  +--> ?PR?KEY_DEAL?MAIN
  +--> ?PR?INFOR_DEAL?MAIN
  +--> ?PR?OTHER_DEAL?MAIN

?PR?_EEPROM_READ?IIC           0009H    0007H
  +--> ?PR?I2CWAITACK?IIC
  +--> ?PR?I2CSTART?IIC
  +--> ?PR?_I2CSENDBYTE?IIC
  +--> ?PR?I2CRECEIVEBYTE?IIC
  +--> ?PR?_I2CSENDACK?IIC
  +--> ?PR?I2CSTOP?IIC

?PR?I2CWAITACK?IIC             -----    -----
  +--> ?PR?I2CSTART?IIC
  +--> ?PR?_I2CSENDBYTE?IIC
  +--> ?PR?_I2C_DELAY?IIC

?PR?I2CSTART?IIC               -----    -----
  +--> ?PR?_I2C_DELAY?IIC

?PR?_I2CSENDBYTE?IIC           -----    -----
  +--> ?PR?_I2C_DELAY?IIC
BL51 BANKED LINKER/LOCATER V6.22.2.0                                                  03/08/2024  21:30:01  PAGE 3



?PR?I2CRECEIVEBYTE?IIC         -----    -----
  +--> ?PR?_I2C_DELAY?IIC

?PR?_I2CSENDACK?IIC            -----    -----
  +--> ?PR?_I2C_DELAY?IIC

?PR?I2CSTOP?IIC                -----    -----
  +--> ?PR?_I2C_DELAY?IIC

?PR?_EEPROM_WRITE?IIC          0009H    0007H
  +--> ?PR?I2CWAITACK?IIC
  +--> ?PR?_I2CSENDBYTE?IIC
  +--> ?PR?_I2C_DELAY?IIC
  +--> ?PR?I2CSTOP?IIC

?PR?KEY_DEAL?MAIN              -----    -----
  +--> ?PR?KEY_READ?KEY
  +--> ?PR?_EEPROM_WRITE?IIC

?PR?INFOR_DEAL?MAIN            -----    -----
  +--> ?PR?_AD_READ?IIC

?PR?_AD_READ?IIC               -----    -----
  +--> ?PR?I2CSTART?IIC
  +--> ?PR?I2CWAITACK?IIC
  +--> ?PR?_I2CSENDBYTE?IIC
  +--> ?PR?I2CRECEIVEBYTE?IIC
  +--> ?PR?_I2CSENDACK?IIC
  +--> ?PR?I2CSTOP?IIC



SYMBOL TABLE OF MODULE:  .\Objects\project (MAIN)

  VALUE           TYPE          NAME
  ----------------------------------

  -------         MODULE        MAIN
  C:0000H         SYMBOL        _ICE_DUMMY_
  D:0080H         PUBLIC        P0
  D:0090H         PUBLIC        P1
  D:00A0H         PUBLIC        P2
  C:000EH         PUBLIC        Key_Deal
  D:00B0H         PUBLIC        P3
  D:0025H         PUBLIC        Roarm_Time_Set
  D:00C0H         PUBLIC        P4
  B:0020H.0       PUBLIC        Seg_Slow_Flag
  D:00C8H         PUBLIC        P5
  B:00A8H.7       PUBLIC        EA
  D:00E8H         PUBLIC        P6
  D:00F8H         PUBLIC        P7
  D:002DH         PUBLIC        Seg_Set_Index
  B:0020H.1       PUBLIC        Seg_Show_Mode
  D:002EH         PUBLIC        Seg_Point
  D:00A8H         PUBLIC        IE
  B:0020H.2       PUBLIC        Key_Slow_Flag
BL51 BANKED LINKER/LOCATER V6.22.2.0                                                  03/08/2024  21:30:01  PAGE 4


  D:0036H         PUBLIC        LED_Roarm_Index
  D:0037H         PUBLIC        AD_LED_Light
  D:00B8H         PUBLIC        IP
  C:02BDH         PUBLIC        Timer0_Serve
  D:0038H         PUBLIC        Seg_Buf
  D:0040H         PUBLIC        Slow_Down
  D:00D8H         PUBLIC        CCON
  C:051AH         PUBLIC        main
  D:0042H         PUBLIC        LED_Timer_Count
  C:088CH         PUBLIC        Timer0_Init
  D:0043H         PUBLIC        Ms_Tick
  B:0020H.3       PUBLIC        LED_Flag
  D:0098H         PUBLIC        SCON
  D:0089H         PUBLIC        TMOD
  D:0088H         PUBLIC        TCON
  B:0020H.4       PUBLIC        LED_Slow_Flag
  D:008EH         PUBLIC        AUXR
  B:00A8H.1       PUBLIC        ET0
  B:0088H.5       PUBLIC        TF0
  D:008CH         PUBLIC        TH0
  D:008AH         PUBLIC        TL0
  D:0045H         PUBLIC        EEPROM_Arr
  D:0049H         PUBLIC        LED_Buf
  B:0088H.4       PUBLIC        TR0
  C:0166H         PUBLIC        Infor_Deal
  C:03B6H         PUBLIC        Other_Deal
  D:0051H         PUBLIC        Roarm_Index
  D:0052H         PUBLIC        i
  D:0053H         PUBLIC        LED_Pos
  D:0054H         PUBLIC        Time_800ms
  D:0056H         PUBLIC        PWM
  B:0020H.5       PUBLIC        Seg_Star_Flag
  D:0057H         PUBLIC        Roarm_Time_Show
  D:00D0H         PUBLIC        PSW
  -------         PROC          KEY_DEAL
  -------         DO            
  D:0021H         SYMBOL        Key_New
  D:0022H         SYMBOL        Key_Old
  D:0023H         SYMBOL        Key_UP
  D:0024H         SYMBOL        Key_Down
  -------         ENDDO         
  C:000EH         LINE#         34
  C:000EH         LINE#         35
  C:000EH         LINE#         39
  C:0014H         LINE#         40
  C:0016H         LINE#         42
  C:001BH         LINE#         43
  C:0026H         LINE#         44
  C:002BH         LINE#         45
  C:002EH         LINE#         48
  C:0032H         LINE#         49
  C:0032H         LINE#         50
  C:0038H         LINE#         51
  C:003CH         LINE#         53
  C:003CH         LINE#         54
  C:003EH         LINE#         55
  C:0044H         LINE#         56
BL51 BANKED LINKER/LOCATER V6.22.2.0                                                  03/08/2024  21:30:01  PAGE 5


  C:0044H         LINE#         57
  C:0044H         LINE#         59
  C:005DH         LINE#         60
  C:005DH         LINE#         61
  C:005DH         LINE#         62
  C:0065H         LINE#         63
  C:0067H         LINE#         64
  C:006EH         LINE#         65
  C:006EH         LINE#         66
  C:0070H         LINE#         67
  C:007DH         LINE#         68
  C:007DH         LINE#         69
  C:0097H         LINE#         70
  C:00AFH         LINE#         71
  C:00B3H         LINE#         72
  C:00C5H         LINE#         73
  C:00C5H         LINE#         74
  C:00C5H         LINE#         75
  C:00C5H         LINE#         76
  C:00CEH         LINE#         77
  C:00CEH         LINE#         78
  C:00D8H         LINE#         79
  C:00DAH         LINE#         80
  C:00DBH         LINE#         81
  C:00E4H         LINE#         82
  C:00E4H         LINE#         83
  C:00F5H         LINE#         84
  C:0108H         LINE#         85
  C:0114H         LINE#         86
  C:0114H         LINE#         87
  C:0115H         LINE#         88
  C:0115H         LINE#         89
  C:011EH         LINE#         90
  C:011EH         LINE#         91
  C:0126H         LINE#         92
  C:0129H         LINE#         93
  C:012AH         LINE#         94
  C:0130H         LINE#         95
  C:0130H         LINE#         96
  C:0140H         LINE#         97
  C:0153H         LINE#         98
  C:015FH         LINE#         99
  C:015FH         LINE#         100
  C:0160H         LINE#         101
  C:0160H         LINE#         102
  C:0165H         LINE#         103
  C:0165H         LINE#         104
  C:0165H         LINE#         105
  -------         ENDPROC       KEY_DEAL
  -------         PROC          INFOR_DEAL
  C:0166H         LINE#         108
  C:0166H         LINE#         109
  C:0166H         LINE#         110
  C:016CH         LINE#         111
  C:016EH         LINE#         114
  C:017BH         LINE#         118
  C:0188H         LINE#         119
BL51 BANKED LINKER/LOCATER V6.22.2.0                                                  03/08/2024  21:30:01  PAGE 6


  C:0188H         LINE#         120
  C:018BH         LINE#         122
  C:0191H         LINE#         123
  C:0196H         LINE#         125
  C:01B5H         LINE#         126
  C:01C9H         LINE#         127
  C:01E1H         LINE#         128
  C:01F2H         LINE#         130
  C:01F8H         LINE#         131
  C:01F8H         LINE#         132
  C:0205H         LINE#         133
  C:0212H         LINE#         134
  C:0213H         LINE#         136
  C:0213H         LINE#         137
  C:0238H         LINE#         138
  C:025DH         LINE#         139
  C:027BH         LINE#         140
  C:0299H         LINE#         141
  C:0299H         LINE#         142
  C:029AH         LINE#         144
  C:029DH         LINE#         145
  C:029DH         LINE#         146
  C:02ABH         LINE#         147
  C:02B6H         LINE#         148
  C:02B9H         LINE#         149
  C:02BCH         LINE#         150
  C:02BCH         LINE#         152
  -------         ENDPROC       INFOR_DEAL
  -------         PROC          OTHER_DEAL
  C:03B6H         LINE#         155
  C:03B6H         LINE#         156
  C:03B6H         LINE#         158
  C:03B9H         LINE#         159
  C:03B9H         LINE#         160
  C:03CDH         LINE#         161
  C:03CDH         LINE#         162
  C:03D1H         LINE#         163
  C:03E0H         LINE#         164
  C:03E0H         LINE#         165
  C:03E0H         LINE#         166
  C:03E8H         LINE#         167
  C:03E8H         LINE#         168
  C:03EBH         LINE#         169
  C:03EEH         LINE#         170
  C:03EEH         LINE#         171
  C:03F0H         LINE#         172
  C:03F0H         LINE#         173
  C:03F7H         LINE#         174
  C:03F7H         LINE#         175
  C:03FAH         LINE#         176
  C:03FDH         LINE#         177
  C:03FDH         LINE#         178
  C:03FFH         LINE#         179
  C:03FFH         LINE#         180
  C:0405H         LINE#         181
  C:040EH         LINE#         182
  C:040EH         LINE#         183
BL51 BANKED LINKER/LOCATER V6.22.2.0                                                  03/08/2024  21:30:01  PAGE 7


  C:0411H         LINE#         184
  C:0414H         LINE#         185
  C:0414H         LINE#         186
  C:0416H         LINE#         187
  C:0416H         LINE#         188
  C:041CH         LINE#         189
  C:0425H         LINE#         190
  C:0425H         LINE#         191
  C:0428H         LINE#         192
  C:042AH         LINE#         193
  C:042AH         LINE#         194
  C:042AH         LINE#         195
  C:042AH         LINE#         196
  C:042AH         LINE#         197
  C:042AH         LINE#         199
  C:0435H         LINE#         200
  C:0435H         LINE#         201
  C:0443H         LINE#         202
  C:0459H         LINE#         203
  C:0459H         LINE#         205
  C:0459H         LINE#         206
  C:0467H         LINE#         207
  C:048DH         LINE#         208
  C:048DH         LINE#         209
  -------         ENDPROC       OTHER_DEAL
  -------         PROC          TIMER0_INIT
  C:088CH         LINE#         212
  C:088CH         LINE#         213
  C:088CH         LINE#         214
  C:088FH         LINE#         215
  C:0892H         LINE#         216
  C:0895H         LINE#         217
  C:0898H         LINE#         218
  C:089AH         LINE#         219
  C:089CH         LINE#         220
  C:089EH         LINE#         221
  C:08A0H         LINE#         222
  -------         ENDPROC       TIMER0_INIT
  -------         PROC          TIMER0_SERVE
  C:02BDH         LINE#         225
  C:02DAH         LINE#         227
  C:02F3H         LINE#         228
  C:0304H         LINE#         229
  C:0315H         LINE#         230
  C:031FH         LINE#         231
  C:032AH         LINE#         234
  C:0344H         LINE#         235
  C:034DH         LINE#         237
  C:0353H         LINE#         240
  C:035AH         LINE#         241
  C:0371H         LINE#         243
  C:037FH         LINE#         245
  C:0390H         LINE#         246
  C:0390H         LINE#         247
  C:0396H         LINE#         248
  C:039BH         LINE#         249
  C:039BH         LINE#         250
BL51 BANKED LINKER/LOCATER V6.22.2.0                                                  03/08/2024  21:30:01  PAGE 8


  -------         ENDPROC       TIMER0_SERVE
  -------         PROC          MAIN
  -------         DO            
  D:0008H         SYMBOL        PID
  -------         ENDDO         
  C:051AH         LINE#         253
  C:051AH         LINE#         254
  C:051AH         LINE#         255
  C:051DH         LINE#         256
  C:0520H         LINE#         257
  C:0523H         LINE#         259
  C:0536H         LINE#         260
  C:053CH         LINE#         261
  C:053CH         LINE#         262
  C:054BH         LINE#         263
  C:0559H         LINE#         264
  C:0582H         LINE#         265
  C:0582H         LINE#         267
  C:0582H         LINE#         268
  C:0585H         LINE#         269
  C:0598H         LINE#         270
  C:0598H         LINE#         274
  C:0598H         LINE#         275
  C:0598H         LINE#         276
  C:059BH         LINE#         277
  C:059EH         LINE#         278
  C:05A1H         LINE#         279
  -------         ENDPROC       MAIN
  -------         ENDMOD        MAIN

  -------         MODULE        INIT
  C:0000H         SYMBOL        _ICE_DUMMY_
  C:080CH         PUBLIC        System_Init
  D:0080H         PUBLIC        P0
  D:0090H         PUBLIC        P1
  D:00A0H         PUBLIC        P2
  D:00B0H         PUBLIC        P3
  D:00C0H         PUBLIC        P4
  D:00C8H         PUBLIC        P5
  D:00E8H         PUBLIC        P6
  D:00F8H         PUBLIC        P7
  D:00A8H         PUBLIC        IE
  D:00B8H         PUBLIC        IP
  D:00D8H         PUBLIC        CCON
  D:0098H         PUBLIC        SCON
  D:0088H         PUBLIC        TCON
  D:00D0H         PUBLIC        PSW
  -------         PROC          SYSTEM_INIT
  C:080CH         LINE#         6
  C:080CH         LINE#         7
  C:080CH         LINE#         8
  C:080FH         LINE#         9
  C:0817H         LINE#         10
  C:081AH         LINE#         12
  C:081DH         LINE#         13
  C:0825H         LINE#         14
  C:0828H         LINE#         15
BL51 BANKED LINKER/LOCATER V6.22.2.0                                                  03/08/2024  21:30:01  PAGE 9


  -------         ENDPROC       SYSTEM_INIT
  -------         ENDMOD        INIT

  -------         MODULE        KEY
  C:0000H         SYMBOL        _ICE_DUMMY_
  D:0080H         PUBLIC        P0
  D:0090H         PUBLIC        P1
  D:00A0H         PUBLIC        P2
  D:00B0H         PUBLIC        P3
  D:00C0H         PUBLIC        P4
  D:00C8H         PUBLIC        P5
  D:00E8H         PUBLIC        P6
  D:00F8H         PUBLIC        P7
  C:0875H         PUBLIC        Key_Read
  D:00A8H         PUBLIC        IE
  D:00B8H         PUBLIC        IP
  D:00D8H         PUBLIC        CCON
  B:00B0H.0       PUBLIC        P30
  D:0098H         PUBLIC        SCON
  B:00B0H.1       PUBLIC        P31
  D:0088H         PUBLIC        TCON
  B:00B0H.2       PUBLIC        P32
  B:00B0H.3       PUBLIC        P33
  D:00D0H         PUBLIC        PSW
  -------         PROC          KEY_READ
  -------         DO            
  D:0007H         SYMBOL        temp
  -------         ENDDO         
  C:0875H         LINE#         6
  C:0875H         LINE#         7
  C:0875H         LINE#         8
  C:0877H         LINE#         9
  C:087CH         LINE#         10
  C:0881H         LINE#         11
  C:0886H         LINE#         12
  C:088BH         LINE#         13
  C:088BH         LINE#         14
  -------         ENDPROC       KEY_READ
  -------         ENDMOD        KEY

  -------         MODULE        SEG
  C:0000H         SYMBOL        _ICE_DUMMY_
  D:0080H         PUBLIC        P0
  D:0090H         PUBLIC        P1
  D:00A0H         PUBLIC        P2
  D:00B0H         PUBLIC        P3
  D:00C0H         PUBLIC        P4
  D:00C8H         PUBLIC        P5
  D:00E8H         PUBLIC        P6
  D:00F8H         PUBLIC        P7
  D:00A8H         PUBLIC        IE
  D:00B8H         PUBLIC        IP
  C:083BH         PUBLIC        Seg_Wula
  C:06B2H         PUBLIC        _Seg_Show
  D:00D8H         PUBLIC        CCON
  D:0098H         PUBLIC        SCON
  D:0088H         PUBLIC        TCON
BL51 BANKED LINKER/LOCATER V6.22.2.0                                                  03/08/2024  21:30:01  PAGE 10


  C:0829H         PUBLIC        Seg_Table
  D:00D0H         PUBLIC        PSW
  -------         PROC          _SEG_SHOW
  D:0007H         SYMBOL        Wula
  D:0004H         SYMBOL        Dula
  D:0002H         SYMBOL        Point
  C:06B2H         LINE#         28
  C:06B2H         LINE#         29
  C:06B2H         LINE#         30
  C:06B5H         LINE#         31
  C:06BDH         LINE#         32
  C:06C0H         LINE#         34
  C:06C7H         LINE#         35
  C:06CFH         LINE#         36
  C:06D2H         LINE#         38
  C:06E0H         LINE#         39
  C:06E4H         LINE#         40
  C:06E7H         LINE#         41
  C:06EFH         LINE#         42
  C:06F2H         LINE#         43
  -------         ENDPROC       _SEG_SHOW
  -------         ENDMOD        SEG

  -------         MODULE        LED
  C:0000H         SYMBOL        _ICE_DUMMY_
  D:0080H         PUBLIC        P0
  D:0090H         PUBLIC        P1
  D:00A0H         PUBLIC        P2
  D:00B0H         PUBLIC        P3
  D:00C0H         PUBLIC        P4
  D:00C8H         PUBLIC        P5
  D:00E8H         PUBLIC        P6
  D:00F8H         PUBLIC        P7
  D:00A8H         PUBLIC        IE
  D:00B8H         PUBLIC        IP
  D:00D8H         PUBLIC        CCON
  D:0098H         PUBLIC        SCON
  D:0088H         PUBLIC        TCON
  C:06F3H         PUBLIC        _LED_Show
  D:00D0H         PUBLIC        PSW
  -------         PROC          _LED_SHOW
  D:0007H         SYMBOL        addr
  D:0004H         SYMBOL        enable
  -------         DO            
  D:0010H         SYMBOL        temp_new
  D:0011H         SYMBOL        temp_old
  -------         ENDDO         
  C:06F3H         LINE#         5
  C:06F3H         LINE#         6
  C:06F3H         LINE#         10
  C:06F7H         LINE#         11
  C:0706H         LINE#         13
  C:0714H         LINE#         15
  C:071AH         LINE#         16
  C:071AH         LINE#         17
  C:071FH         LINE#         18
  C:0727H         LINE#         19
BL51 BANKED LINKER/LOCATER V6.22.2.0                                                  03/08/2024  21:30:01  PAGE 11


  C:072AH         LINE#         20
  C:072DH         LINE#         21
  C:072DH         LINE#         22
  -------         ENDPROC       _LED_SHOW
  -------         ENDMOD        LED

  -------         MODULE        IIC
  C:0000H         SYMBOL        _ICE_DUMMY_
  D:0080H         PUBLIC        P0
  D:0090H         PUBLIC        P1
  D:00A0H         PUBLIC        P2
  D:00B0H         PUBLIC        P3
  D:00C0H         PUBLIC        P4
  D:00C8H         PUBLIC        P5
  D:00E8H         PUBLIC        P6
  D:00F8H         PUBLIC        P7
  D:00A8H         PUBLIC        IE
  C:0847H         SYMBOL        _I2C_Delay
  D:00B8H         PUBLIC        IP
  C:079BH         PUBLIC        I2CReceiveByte
  D:00D8H         PUBLIC        CCON
  C:0623H         PUBLIC        _EEPROM_Read
  D:0098H         PUBLIC        SCON
  D:0088H         PUBLIC        TCON
  B:00A0H.1       PUBLIC        sda
  C:072EH         PUBLIC        _EEPROM_Write
  B:00A0H.0       PUBLIC        scl
  C:08A1H         PUBLIC        I2CStart
  C:085DH         PUBLIC        _I2CSendAck
  C:0766H         PUBLIC        _I2CSendByte
  C:07E7H         PUBLIC        _AD_Read
  C:07D5H         PUBLIC        I2CWaitAck
  C:08B0H         PUBLIC        I2CStop
  D:00D0H         PUBLIC        PSW
  C:0843H         SYMBOL        L?0037
  -------         PROC          L?0036
  -------         ENDPROC       L?0036
  C:0843H         SYMBOL        L?0037
  -------         PROC          _I2C_DELAY
  D:0007H         SYMBOL        n
  C:0847H         LINE#         16
  C:0847H         LINE#         17
  C:0847H         LINE#         19
  C:0847H         LINE#         20
  C:084CH         LINE#         21
  C:0851H         LINE#         22
  C:0856H         LINE#         23
  C:0856H         LINE#         24
  C:085CH         LINE#         25
  -------         ENDPROC       _I2C_DELAY
  -------         PROC          I2CSTART
  C:08A1H         LINE#         28
  C:08A1H         LINE#         29
  C:08A1H         LINE#         30
  C:08A3H         LINE#         31
  C:08A3H         LINE#         32
  C:08A6H         LINE#         33
BL51 BANKED LINKER/LOCATER V6.22.2.0                                                  03/08/2024  21:30:01  PAGE 12


  C:08A8H         LINE#         34
  C:08ADH         LINE#         35
  C:08AFH         LINE#         36
  -------         ENDPROC       I2CSTART
  -------         PROC          I2CSTOP
  C:08B0H         LINE#         39
  C:08B0H         LINE#         40
  C:08B0H         LINE#         41
  C:08B2H         LINE#         42
  C:08B2H         LINE#         43
  C:08B5H         LINE#         44
  C:08B7H         LINE#         45
  -------         ENDPROC       I2CSTOP
  -------         PROC          _I2CSENDBYTE
  D:0005H         SYMBOL        byt
  -------         DO            
  D:0004H         SYMBOL        i
  -------         ENDDO         
  C:0766H         LINE#         49
  C:0768H         LINE#         50
  C:0768H         LINE#         53
  C:0774H         LINE#         54
  C:0776H         LINE#         55
  C:077BH         LINE#         56
  C:077FH         LINE#         57
  C:0781H         LINE#         58
  C:0783H         LINE#         59
  C:0783H         LINE#         60
  C:0785H         LINE#         61
  C:0785H         LINE#         62
  C:078AH         LINE#         63
  C:078CH         LINE#         64
  C:0790H         LINE#         65
  C:0795H         LINE#         66
  C:0798H         LINE#         68
  C:079AH         LINE#         69
  -------         ENDPROC       _I2CSENDBYTE
  -------         PROC          I2CRECEIVEBYTE
  -------         DO            
  D:0005H         SYMBOL        da
  D:0004H         SYMBOL        i
  -------         ENDDO         
  C:079BH         LINE#         72
  C:079BH         LINE#         73
  C:079BH         LINE#         76
  C:07A7H         LINE#         77
  C:07A7H         LINE#         78
  C:07AAH         LINE#         79
  C:07AEH         LINE#         80
  C:07B1H         LINE#         81
  C:07B4H         LINE#         82
  C:07B6H         LINE#         83
  C:07BBH         LINE#         84
  C:07BEH         LINE#         85
  C:07C0H         LINE#         86
  -------         ENDPROC       I2CRECEIVEBYTE
  C:07CAH         SYMBOL        L?0035
BL51 BANKED LINKER/LOCATER V6.22.2.0                                                  03/08/2024  21:30:01  PAGE 13


  -------         PROC          L?0034
  -------         ENDPROC       L?0034
  C:07CAH         SYMBOL        L?0035
  -------         PROC          I2CWAITACK
  -------         DO            
  D:0005H         SYMBOL        ackbit
  -------         ENDDO         
  C:07D5H         LINE#         89
  C:07D5H         LINE#         90
  C:07D5H         LINE#         93
  C:07D5H         LINE#         94
  C:07D8H         LINE#         95
  C:07DDH         LINE#         96
  C:07DFH         LINE#         97
  C:07E4H         LINE#         99
  C:07E6H         LINE#         100
  -------         ENDPROC       I2CWAITACK
  -------         PROC          _I2CSENDACK
  D:0007H         SYMBOL        ackbit
  C:085DH         LINE#         103
  C:085DH         LINE#         104
  C:085DH         LINE#         105
  C:085FH         LINE#         106
  C:0864H         LINE#         107
  C:0869H         LINE#         108
  C:0869H         LINE#         109
  C:086CH         LINE#         110
  C:086EH         LINE#         111
  C:0870H         LINE#         112
  -------         ENDPROC       _I2CSENDACK
  -------         PROC          _AD_READ
  D:0003H         SYMBOL        addr
  -------         DO            
  D:0005H         SYMBOL        temp
  -------         ENDDO         
  C:07E7H         LINE#         115
  C:07E9H         LINE#         116
  C:07E9H         LINE#         118
  C:07ECH         LINE#         119
  C:07EEH         LINE#         120
  C:07EEH         LINE#         121
  C:07EEH         LINE#         122
  C:07F1H         LINE#         123
  C:07F4H         LINE#         124
  C:07F9H         LINE#         125
  C:07FCH         LINE#         126
  C:0801H         LINE#         127
  C:0806H         LINE#         128
  C:0809H         LINE#         129
  C:080BH         LINE#         130
  -------         ENDPROC       _AD_READ
  -------         PROC          _EEPROM_WRITE
  D:0009H         SYMBOL        pAT
  D:0002H         SYMBOL        addr
  D:000EH         SYMBOL        num
  C:072EH         LINE#         132
  C:0734H         LINE#         133
BL51 BANKED LINKER/LOCATER V6.22.2.0                                                  03/08/2024  21:30:01  PAGE 14


  C:0734H         LINE#         134
  C:0734H         LINE#         135
  C:0734H         LINE#         136
  C:0734H         LINE#         137
  C:0734H         LINE#         138
  C:0737H         LINE#         139
  C:0744H         LINE#         140
  C:0744H         LINE#         141
  C:0759H         LINE#         142
  C:075CH         LINE#         143
  C:0761H         LINE#         144
  C:0763H         LINE#         145
  -------         ENDPROC       _EEPROM_WRITE
  -------         PROC          _EEPROM_READ
  D:0009H         SYMBOL        pAT
  D:0002H         SYMBOL        addr
  D:000EH         SYMBOL        num
  C:0623H         LINE#         148
  C:0629H         LINE#         149
  C:0629H         LINE#         150
  C:0629H         LINE#         151
  C:0629H         LINE#         152
  C:0629H         LINE#         153
  C:0629H         LINE#         154
  C:062CH         LINE#         156
  C:062FH         LINE#         157
  C:0634H         LINE#         158
  C:0637H         LINE#         160
  C:0644H         LINE#         161
  C:0644H         LINE#         162
  C:0659H         LINE#         163
  C:065FH         LINE#         164
  C:0663H         LINE#         166
  C:0668H         LINE#         167
  C:066AH         LINE#         168
  -------         ENDPROC       _EEPROM_READ
  -------         ENDMOD        IIC

  -------         MODULE        ?C?CLDPTR
  C:05A3H         PUBLIC        ?C?CLDPTR
  -------         ENDMOD        ?C?CLDPTR

  -------         MODULE        ?C?CSTPTR
  C:05BCH         PUBLIC        ?C?CSTPTR
  -------         ENDMOD        ?C?CSTPTR

  -------         MODULE        ?C?UIDIV
  C:05CEH         PUBLIC        ?C?UIDIV
  -------         ENDMOD        ?C?UIDIV

Program Size: data=81.6 xdata=0 code=2228
LINK/LOCATE RUN COMPLETE.  0 WARNING(S),  0 ERROR(S)
