:10060600082E000A0A0A0A0A0A0A0826000000003A
:1006160000000000083C0000000000000000013857
:100626000A01393C013A0A013B3C01210001220042
:0606360001230001240075
:100435003002030204C5D2021205528F22E522655D
:1004450021FFE522F45FF523E5225FF524852221CE
:1004550024FB601A24FD604D14602D240570610590
:1004650025E52564037002F525C204C20522C204F0
:10047500C205AF257E00EF6401700463490122EFD8
:1004850064024E703BF53622E52564017032E5497C
:10049500700E740A253BF53B64647024753B32226B
:1004A500D205C20422E52564017015E549700D7475
:1004B5000A253AF53A64327007F53A22D204C205A4
:0104C5002214
:100236003001030202F4D2011206438F377F4312C4
:1002460006EFEF75F03384F544E525146037146046
:100256006F240260030202F4752E0C754601C3E595
:1002660046940674809480500B742E2546F8760AC0
:10027600054680EAE53775F00A8475F00A8485F04C
:1002860034E5378033752E12E54904F52F75300AAB
:10029600E53A75F00A8475F00A8485F031E53A7519
:1002A600F00A8485F03275330BE53B75F00A8475E8
:1002B600F00A8485F034E53B75F00A8485F0352232
:1002C600752E10754601C3E54694077480948050D8
:1002D6000B742E2546F8760A054680EAD3E5369451
:0F02E600097480948050048536352275350B22BB
:1002F500300414E54475F00AA4F53A6432701F74AD
:10030500F6253AF53A8017300514E54475F00AA448
:100315002432F53B6464700674F6253BF53BE52510
:1003250064016006853A38853B39E538D395375001
:1003350008E537953950028001C39200200014303A
:100345000611A20092060536E536640A700975366F
:100355000A8004A2009206E4F546C3E546940374B8
:100365008094805016E546B525047F0180027F0004
:10037500743C2546F8A607054680DFE538D3953752
:10038500500AE53795395004754301223003047F3F
:080395000080027F018F43226A
:1007C300538E7F5389F0758A18758CFCC28DD28C39
:0507D300D2AFD2A92203
:03000B0002039D50
:10039D00C0E0C0F0C083C082C0D075D000C000C026
:1003AD0001C002C003C004C005C006C0070548E572
:1003BD004870020547FFAE47BE010BBF9008C20152
:1003CD00754700754800AE47AF487C007D0A1201A5
:1003DD00D3ED4C7002C202E5485407FBFF242EF802
:1003ED00E6FD7C0074262BF8E6FB7A001205C5E5C8
:1003FD00485407FF243CF8E6FD7C0012067F0545B6
:10040D00E54564647007F545A203B39203D007D0A8
:10041D0006D005D004D003D002D001D000D0D0D06A
:08042D0082D083D0F0D0E03250
:1007ED0012073F1207C31204351202361202F580AA
:0107FD00F506
:10073F007580FFE5A0541F4480F5A053A01FE4F57A
:0D074F0080E5A0541F44A0F5A053A01F2278
:10055200E4FFC2B4D2B5D2C2D2C420B0027F13200B
:10056200B1027F1220B2027F1120B3027F10D2B4F7
:10057200C2B5D2C2D2C420B0027F0F20B1027F0E18
:1005820020B2027F0D20B3027F0CD2B4D2B5C2C218
:10059200D2C420B0027F0B20B1027F0A20B2027FB8
:1005A2000920B3027F08D2B4D2B5D2C2C2C420B0ED
:1005B200027F0720B1027F0620B2027F0520B3022C
:0205C2007F04B4
:0105C4002214
:10075C00C0F9A4B0999282F88090FFBF8883C6A19B
:0B076C00868E8C0102040810204080E3
:1005C5007580FFE5A0541F44E0F5A053A01FEF90F0
:1005D500076F93F580E5A0541F44C0F5A053A01FF5
:1005E500745C2DF58274073CF583E493F580EB4A42
:1005F500600353807FE5A0541F44E0F5A053A01F7E
:0106050022D2
:06063C000108000109FFA6
:10067F00ED4C600FA8077401088002C333D8FC4209
:10068F0008800EA8077401088002C333D8FCF45207
:10069F0008E50865096013E508F4F580E5A0541F27
:0A06AF004480F5A053A01F85080940
:0106B900221E
:0600030000007F21DFFE7A
:0100090022D4
:10077700E4FEEEC3940874809480500DD29012006A
:0907870003C2901200030E80E988
:010790002246
:10064300E4FDFC53890FF58BF58D120777D28E30BD
:100653009103308FFAC28E308F05C28F7F0022AF95
:100663008DEFAD8BFCEDAE04FFE41201197B967A9E
:0B06730043798B783C12000E120152FC
:01067E002259
:04079100D2A07F056E
:10079500000000000000000000000000000000AEA6
:0607A500071FEE70EB22BD
:0F07FE00D2A1120791C2A17F05120795C2A022B6
:0C080D00C2A1120791D2A17F050207953D
:0206BA00AD078A
:1006BC00E4FCECC39408748094805024C2A07F05A1
:1006CC00120795ED30E704D2A18002C2A17F05127A
:1006DC000795D2A0ED25E0FD7F051207950C80D281
:0206EC00C2A0AA
:0106EE0022E9
:10071900E4FCECC39408748094805017120791ED9F
:1007290025E0FD30A103430501C2A07F051207950D
:050739000C80DFAF059C
:01073E002298
:0307D8001206BA4C
:1007DB00120791A2A1E433FDC2A07F05120795AFCA
:0107EB000508
:0107EC0022EA
:1007AB00C2A0EF24FF92A17F05120795120791C2F9
:0807BB00A0D2A17F0502079501
:0206EF00AB0757
:1006F1001207FE7F901207D8AF031207D81207FE28
:100701007F911206BA1207DB120719AD077F01129A
:0707110007AB12080DAF0554
:0107180022BE
:10000E00EC4D6011E8497017ED33EC3304600DE4EC
:10001E00FCFFFEFD22E933E8330470F80201BE1244
:10002E00018958046009E4CC248150062850090245
:10003E0001C82840030201C5C0E0EB4A7044B980F4
:10004E0006D0E0FB0201B4EF4E701CBD8008EBFF42
:10005E00EAFEE9FD80EBE98DF0A4FEE5F00200F783
:10006E00E9CDF9EAFEEBFFEF89F0A4FCE5F0CE89CD
:10007E00F0A42EFFE435F0CD89F0A42DFEE435F08A
:10008E008067EF4E7005BD80D780C3EF8BF0A4ACB8
:10009E00F0EE8BF0A42CFCE435F0F8EF8AF0A42CF3
:1000AE00E5F038FCE433CB8DF0A42CFCE5F03BF806
:1000BE00EE8AF0A42CFCE5F038F8E433CF89F0A4F6
:1000CE002CFCE5F038CF3400CE89F0A42FFFE5F0FC
:1000DE003EFEE433C98DF0A42EFEE5F039CD8AF054
:1000EE00A42FFFE5F03EFEE43DFD33D0E0FB5007CC
:1000FE000BBB000F0201C8EC2CFCEF33FFEE33FEFE
:06010E00ED33FD0201A02B
:1001140075F020800E75F010800575F0087D007E66
:10012400007F003392D530D503120228EC334010FF
:10013400EF33FFEE33FEED33FDEC33FCD5F0ED226F
:0E014400E5F0247EA2D513CC92E7CDCEFF22AB
:10015200EDD2E7CD33EC3392D524814006E4FFFEA5
:10016200FDFC22FCE4CFCECDCC24E0501174FF8004
:10017200EDC3CC13CCCD13CDCE13CECF13CF0470A1
:07018200F030D5DE02022877
:10018900E9D2E7C933E833F892D5EDD2E7CD33ECBC
:0701990033FC5002B2D52235
:1001A000EC30E7100FBF000C0EBE00080DBD0004C0
:1001B0000BEB6014A2D5EB13FCED92E7FD2274FF6C
:1001C000FCFDFEFF22E480F8A2D574FF13FC7D80C5
:0301D000E480EFD9
:030000000204C631
:0C04C600787FE4F6D8FD75814902050D31
:1001D300BC000BBE0029EF8DF084FFADF022E4CC10
:1001E300F875F008EF2FFFEE33FEEC33FCEE9DECD9
:1001F300984005FCEE9DFE0FD5F0E9E4CEFD22ED1F
:10020300F8F5F0EE8420D21CFEADF075F008EF2F68
:10021300FFED33FD4007985006D5F0F222C398FD59
:050223000FD5F0EA22F6
:0E022800C3E49FFFE49EFEE49DFDE49CFC22E7
:1004D2000207EDE493A3F8E493A34003F68001F24C
:1004E20008DFF48029E493A3F85407240CC8C3332B
:1004F200C4540F4420C8834004F456800146F6DFFA
:10050200E4800B0102040810204080900606E47E7D
:10051200019360BCA3FF543F30E509541FFEE493EE
:10052200A360010ECF54C025E060A840B8E493A3B5
:10053200FAE493A3F8E493A3C8C582C8CAC583CAE0
:10054200F0A3C8C582C8CAC583CADFE9DEE780BE98
:0106420000B7
:00000001FF
