:03000000020B6D83
:0C0B6D00787FE4F6D8FD758169020BB4B6
:100D8B0008370A0A0A0A0A0A0A0A082B0000000096
:100D9B0000000000084E0000000000000000045E90
:100DAB003DCCCCCD04663DCCCCCD01210001220045
:060DBB00012300012400E9
:081038007F757EB8DEFEDFFCCF
:01104000228D
:1007C70030010302094BD201120C508F21E521653C
:1007D70022FFE521F45FF523E5215FF5248521223A
:1007E700E5226406700AE52A64027004D202805882
:1007F700C202D3E5659400E56494004025E565945D
:1008070020E5649403501BAF61AE60AD5FAC5E7BC7
:10081700CD7ACC79CC783D1200258F618E608D5FC3
:100827008C5EE4FFFE7DA07C40AB61AA60A95FA857
:100837005E1202BC600D400BE4F561F560755FA0C8
:10084700755E40E4F564F565E52424FB603B1470B0
:100857000302093414700302093E240360030209EA
:100867004BAF2A7E00EF700A0562E56264037002EF
:10087700F562EF64014E600302094B0547E54764E3
:1008870003600302094BF54722855D59855C58854E
:100897005B57855A56E4FFFE7D207C41AB5DAA5C21
:1008A700A95BA85A1201161203738F417B007A00C5
:1008B7007941750E00750F01E4FDFC120E0312104D
:1008C70038E533F54C85344DF5288534297B007A96
:1008D70000794C750E00750F027D107C00120E0317
:1008E700121038854B46854A45854944854843AFAC
:1008F7004BAE4AAD49AC481203738F35E4FFFE7D1A
:10090700C87C42AB4BAA4AA949A848120116120350
:10091700737C007D6412041F8D367B007A00793565
:10092700750E00750F027D207C00020E03E52A6418
:10093700026011632A0122E52A64026004752A0213
:0409470022E4F52A87
:01094B002289
:100482003000030207C6D200E52A1470030205E514
:1004920014700302073624026003020782E5621425
:1004A200604E14700302057F240260030207827506
:1004B2006301C3E563940674809480500B743725FE
:1004C20063F8760A056380EA75370CAF5DAE5CAD02
:1004D2005BAC5A120373EF75F00A8485F03DE4FFBA
:1004E200FE7D207C41AB5DAA5CA95BA85A02077421
:1004F20075390A75380A75370DAE33AF347C277DEE
:100502001012041F7C007D0A12041F8D3AAE33AF15
:10051200347C037DE812041F7C007D0A12041F8DC7
:100522003BAE33AF347C007D6412041F7C007D0A35
:1005320012041F8D3CAE33AF347C007D0A12041FBF
:100542007C007D0A12041F8D3DAE33AF347C007DEA
:100552000A12041F8D3E756303C3E563940774801A
:100562009480400302078274372563F8E660030231
:10057200078274372563F8760A056380DC756301A8
:10058200C3E563940474809480500B74372563F838
:10059200760A056380EA75370EAF4BAE4AAD49ACB9
:1005A20048120373EF75F00A84F53BEF75F00A8485
:1005B20085F03CE4FFFE7D207C41AB4BAA4AA94971
:1005C200A8481201161203737C007D0A12041F8DC3
:1005D2003DE4FFFE7DC87C42AB4BAA4AA949A8482C
:1005E20002072575370FE547240CF538E5471460F7
:1005F2004B1470030206C52402600302078275636E
:1006020002C3E563940674809480500B74372563AB
:10061200F8760A056380EAAF59AE58AD57AC561268
:100622000373EF75F00A8485F03DE4FFFE7D207CC4
:1006320041AB59AA58A957A85602077475390AAE90
:1006420028AF297C277D1012041F7C007D0A12042A
:100652001F8D3AAE28AF297C037DE812041F7C006F
:100662007D0A12041F8D3BAE28AF297C007D6412E7
:10067200041F7C007D0A12041F8D3CAE28AF297C2A
:10068200007D0A12041F7C007D0A12041F8D3DAEFC
:1006920028AF297C007D0A12041F8D3E756303C3B7
:1006A200E5639407748094804003020782743725BF
:1006B20063F8E6600302078274372563F8760A0559
:1006C2006380DC756302C3E5639404748094805094
:1006D2000B74372563F8760A056380EAAF46AE45A8
:1006E200AD44AC43120373EF75F00A84F53BEF752A
:1006F200F00A8485F03CE4FFFE7D207C41AB46AAF3
:1007020045A944A8431201161203737C007D0A1204
:10071200041F8D3DE4FFFE7DC87C42AB46AA45A97D
:1007220044A8431201161203737C007D0A12041FAF
:100732008D3E804C756301C3E5639406748094809A
:10074200500B74372563F8760A056380EA75371013
:10075200AF61AE60AD5FAC5E120373EF75F00A84F9
:1007620085F03DE4FFFE7D207C41AB61AA60A95F7C
:10077200A85E120116120373EF75F00A8485F03E2B
:10078200AF2A7E00EF7004E5626010EF64014E70E4
:1007920004E5476006E52A640270047F0180027F57
:1007A200008F31AF2A7E00EF7006E5626402600CB2
:1007B200EF64014E700AE547640270047F01800213
:0507C2007F008F3022D2
:100BF900200353D203E4F563C3E56394037480943B
:100C090080501AE563B56208E52A70047F01800205
:100C19007F00744E2563F8A607056380DBAF5DAEE0
:100C29005CAD5BAC5AAB69AA68A967A8661202BC3D
:100C390050028001C39205300507A204E433F5553B
:070C490022E4F542F55522FB
:100CA70020064FD206120E3B8F4B8E4A8D498C4839
:100CB7007F43120EA7AC07E412033FE4FBFA794C1B
:100CC700784212021F8F5D8E5C8D5B8C5AAF2A7E35
:100CD70000EF6003E4F562EF64014E6003E4F5475B
:100CE700EF64024E600C856169856068855F678582
:030CF7005E662214
:10100A00538E7F5389F0438905E4F58AF58CC28DA6
:03101A00D28C2253
:100FE000538EBF53890F758B18758DFCC28FD28EAF
:050FF000D2AFD2AB22DC
:03001B0002094C8B
:10094C00C0E0C0F0C083C082C0D075D000C000C071
:10095C0001C002C003C004C005C006C0070540E5C5
:10096C00407002053FFFAE3FBE010BBF9008C206B0
:10097C00753F00754000AE3FAF407C007D0A12040D
:10098C001FED4C7002C201AE3FAF407C007D1412D3
:10099C00041FED4C7002C203AE3FAF407C007D647F
:1009AC0012041FED4C7002C200E5405407FBFF24FB
:1009BC0037F8E6FD7C00742B2BF8E6FB7A00120D61
:1009CC0044E5405407FF244EF8E6FD7C00120DC8A8
:1009DC000527E52770020526FFAE26BE0319BFE8E2
:1009EC0016752600752700AF8CEFAD8AF533EDF543
:1009FC0034758A00758C0030025E0565E565700201
:100A0C000564C39420E5649403404D7564037565D7
:100A1C00200525E5256464703FF525AF61AE60AD1A
:100A2C005FAC5E7BCD7ACC79CC783D1200258F61A2
:100A3C008E608D5F8C5EE4FFFE7DA07C40AB61AA76
:100A4C0060A95FA85E1202BC600E400C7561007557
:100A5C006000755FA0755E4030050F0542E542648D
:100A6C00C87007F542A204B39204120482D007D0D6
:100A7C0006D005D004D003D002D001D000D0D0D005
:080A8C0082D083D0F0D0E032EB
:100A9400E4F508120FA9120FE012100A120E3B7FA0
:100AA40043120EA77B007A007908750E00750F01BA
:100AB4007D387C00120CFAE50864426003020B4C9A
:100AC400FB7A007941F50E750F01FDFC120CFAACAE
:100AD40041E412033FE4FBFA7920784112021F8FAC
:100AE400598E588D578C567B007A00794C750E00C0
:100AF400750F027D107C00120CFAE54CF528E54DCB
:100B0400F5297B007A007935750E00750F027D207A
:100B14007C00120CFAAC36E412033FE4FBFA79C809
:100B2400784212021FC004C005C006C007AC35E4F9
:100B340012033FD003D002D001D0001200258F460B
:100B44008E458D448C4380167508427B007A00796B
:100B540008750E00750F017D387C00120E03120714
:090B6400C7120BF9120CA780F571
:100FA900E4F580E5A0541F44A0F5A053A01F758067
:0D0FB900FFE5A0541F4480F5A053A01F22A7
:100C5000E4FFD2B4C2B5D2C2D2C420B0027F0F200A
:100C6000B1027F0E20B2027F0D20B3027F0CD2B4FE
:100C7000D2B5C2C2D2C420B0027F0B20B1027F0A1B
:100C800020B2027F0920B3027F08D2B4D2B5D2C20B
:100C9000C2C420B0027F0720B1027F0620B2027FCB
:060CA0000520B3027F04F1
:010CA600222B
:100FF500C0F9A4B0999282F88090FFBFC18EC689CE
:051005008C8883A18628
:100D44007580FFE5A0541F44E0F5A053A01FA80739
:100D54007401088002C333D8FCF580E5A0541F4415
:100D6400C0F5A053A01F74F52DF582740F3CF583D4
:100D7400E493F580EB4A600353807FE5A0541F445D
:070D8400E0F5A053A01F22BF
:060DC1000110000111FF0A
:100DC800ED4C600FA8077401088002C333D8FC42B9
:100DD80010800EA8077401088002C333D8FCF452AF
:100DE80010E51065116013E510F4F580E5A0541FB7
:0A0DF8004480F5A053A01F851011E0
:010E020022CD
:040FC600D2A07F0531
:100FCA00000000000000000000000000000000AE69
:060FDA00071FEE70EB2280
:0F101D00D2A1120FC6C2A17F05120FCAC2A02214
:0C102C00C2A1120FC6D2A17F05020FCA9C
:020E7200AD07CA
:100E7400E4FCECC39408748094805024C2A07F05E1
:100E8400120FCAED30E704D2A18002C2A17F05127D
:100E94000FCAD2A0ED25E0FD7F05120FCA0C80D247
:020EA400C2A0EA
:010EA6002229
:100F1C00E4FCECC39408748094805017120FC6ED57
:100F2C0025E0FD30A103430501C2A07F05120FCAC5
:050F3C000C80DFAF0591
:010F4100228D
:100F4200AB05AA0412101D7FA0120E72120F56AF2B
:040F520003120E7206
:100F5600120FC6A2A1E433FDC2A07F05120FCAAFCD
:010F66000585
:010F67002267
:10000300C2A0EF24FF92A17F05120FCA120FC6C22E
:08001300A0D2A17F05020FCA73
:020EA700AB0797
:100EA900E4FD12101D7F90120F4B12101D7F91123D
:100EB9000E72120F56120F1CAD077F01120003129A
:040EC900102CAF0535
:010ECD002202
:100E03008B098A0A890B120F42E50F150FAE0E707C
:100E130002150E4E601FAB09050BE50BAA0A700203
:100E2300050A14F91203F4FF120E72120F567FC84B
:080E3300120FCA80D402102C3A
:100CFA008B098A0A890B120F4212101D7FA1120E4C
:100D0A0072120F56E50F150FAE0E7002150E4E60D9
:100D1A0026120F1CAB09050BE50BAA0A7002050A7D
:100D2A0014F9EF12040DE50F450E6004E4FF80028A
:0A0D3A007F0112000380CD02102C8F
:040F8B007F057E0060
:100F8F00EF1FAA0670011E4A600FE4FDEDC3940C1B
:090F9F007480948050EA0D80F387
:010FA8002226
:020ECE00A90772
:100ED000E4FBEBC39408748094805012C294E9132D
:100EE0009294120F8BD294E9C313F90B80E47F051F
:050EF0007E00020F8FDF
:100F6800E4FBEBC39408748094805014C294ECC3DF
:100F780013FCD294309403430480120F8B0B80E24D
:020F8800AF04B4
:010F8A002244
:100EF500C207D2947F0C7E00120F8FC2947F507E62
:100F050000120F8FD2947F0A7E00120F8FA2949247
:060F150007120F8BA2077A
:010F1B0022B3
:100E3B00E4FFF9120EF57FCC120ECE7F44120ECECC
:100E4B00120EF57FCC120ECE7FBE120ECE120F6895
:100E5B00A907120F68EFAD01FCEC12033AE4FBFAA1
:070E6B007980784102021FAB
:10001E000203DFE86480F8E933E83360110460F02E
:10002E00ED33EC337009E8FCE9FDEAFEEBFF220448
:10003E0060DED3EB9FEA9EE99DE8C2E78CF0C2F743
:10004E0095F0400CE8CCF8E9CDF9EACEFAEBCFFB0F
:10005E001203AA85D0F05804700320D5B3E80470BB
:10006E00075002B2D50203E992D5EC0460F7E4CC56
:10007E00C0E0C398F8603B94186008400DD0E0FBD8
:10008E000203C1E4FBFAC9FC8028E830E406E4C9A7
:10009E00FBE4CAFCE830E305E4C9CACBFCE854072C
:1000AE006010F8C3E913F9EA13FAEB13FBEC13FC37
:1000BE00D8F130F52FC3E49CFCEF9BFFEE9AFEEDDA
:1000CE0099FDD0E0FBEF4E4D4C701222DB03020384
:1000DE00E6EC2CFCEF33FFEE33FEED33FDED30E7B7
:1000EE00EB0203C1EF2BFFEE3AFEED39FDD0E0FB44
:1000FE0050130BBB00030203E9ED13FDEE13FEEFED
:08010E0013FFEC13FC0203C116
:10011600EC4D6011E8497017ED33EC3304600DE4E3
:10012600FCFFFEFD22E933E8330470F80203DF1218
:1001360003AA58046009E4CC248150062850090219
:1001460003E92840030203E6C0E0EB4A7044B980A5
:1001560006D0E0FB0203D5EF4E701CBD8008EBFF16
:10016600EAFEE9FD80EBE98DF0A4FEE5F00201FF71
:10017600E9CDF9EAFEEBFFEF89F0A4FCE5F0CE89C4
:10018600F0A42EFFE435F0CD89F0A42DFEE435F081
:100196008067EF4E7005BD80D780C3EF8BF0A4ACAF
:1001A600F0EE8BF0A42CFCE435F0F8EF8AF0A42CEA
:1001B600E5F038FCE433CB8DF0A42CFCE5F03BF8FD
:1001C600EE8AF0A42CFCE5F038F8E433CF89F0A4ED
:1001D6002CFCE5F038CF3400CE89F0A42FFFE5F0F3
:1001E6003EFEE433C98DF0A42EFEE5F039CD8AF04B
:1001F600A42FFFE5F03EFEE43DFD33D0E0FB5007C3
:100206000BBB000F0203E9EC2CFCEF33FFEE33FED1
:06021600ED33FD0203C1FF
:10021C000203E9EC5D046005E8590470030203DF96
:10022C001203AA580460F6EC4860F2EC7004FDFE70
:10023C00FF22C860DB2481C85009C39860025006B5
:10024C000203E69850CAF582E9294B4A7005AB8245
:10025C000203D575F0007C1A7880C3EF9BEE9AED03
:10026C0099400DC3EF9BFFEE9AFEED99FDE842F02D
:10027C00DC23ACF0D0E0FFD0E0FED0E0FDAB822080
:10028C00E7101BEB60BAEC2CFCEF33FFEE33FEED0A
:10029C0033FD0203C1E803F830E705C0F075F00048
:1002AC00EF2FFFEE33FEED33FD40B830E7C280AAEE
:1002BC0074F8CC6480CCC86480C8F58204604FC3E9
:1002CC00EB9FF5F0EA9E42F0E99D42F0E89C45F088
:1002DC00603C501DE5825FFFE582D313CB5BCBF412
:1002EC002B5582FB50280ABA002409B9002008803B
:1002FC001DE5825BFBE582D313CF5FCFF4C3132FD5
:10030C005582FF50090EBE00050DBD00010CC3EB5C
:10031C009FF5F0EA9E42F0E99D42F0E89C45F060C2
:09032C0007CC4820E701B3EC22E4
:1003350075F020800E75F010800575F0087D007E43
:10034500007F003392D530D503120474EC3340108E
:10035500EF33FFEE33FEED33FDEC33FCD5F0ED224C
:0E036500E5F0247EA2D513CC92E7CDCEFF2288
:10037300EDD2E7CD33EC3392D524814006E4FFFE82
:10038300FDFC22FCE4CFCECDCC24E0501174FF80E1
:10039300EDC3CC13CCCD13CDCE13CECF13CF04707E
:0703A300F030D5DE02047406
:1003AA00E9D2E7C933E833F892D5EDD2E7CD33EC99
:0703BA0033FC5002B2D52212
:1003C100EC30E7100FBF000C0EBE00080DBD00049D
:1003D1000BEB6014A2D5EB13FCED92E7FD2274FF49
:1003E100FCFDFEFF22E480F8A2D574FF13FC7D80A2
:0303F100E480EFB6
:100B7900020A94E493A3F8E493A34003F68001F2F4
:100B890008DFF48029E493A3F85407240CC8C3337D
:100B9900C4540F4420C8834004F456800146F6DF4C
:100BA900E4800B0102040810204080900D8BE47E44
:100BB900019360BCA3FF543F30E509541FFEE49341
:100BC900A360010ECF54C025E060A840B8E493A308
:100BD900FAE493A3F8E493A3C8C582C8CAC583CA33
:100BE900F0A3C8C582C8CAC583CADFE9DEE780BEEB
:010DC700002B
:1003F400BB010689828A83E0225002E722BBFE0207
:09040400E32289828A83E4932239
:10040D00BB010689828A83F0225002F722BBFE01CE
:02041D00F322C8
:10041F00BC000BBE0029EF8DF084FFADF022E4CCC1
:10042F00F875F008EF2FFFEE33FEEC33FCEE9DEC8A
:10043F00984005FCEE9DFE0FD5F0E9E4CEFD22EDD0
:10044F00F8F5F0EE8420D21CFEADF075F008EF2F1A
:10045F00FFED33FD4007985006D5F0F222C398FD0B
:05046F000FD5F0EA22A8
:0E047400C3E49FFFE49EFEE49DFDE49CFC2299
:00000001FF
