:1002E100082D000A0A0A0A0A0A0A08250000000065
:1002F100000000000837000000000000000001219C
:0A0301000001220001230001240086
:10021C00200145D2011201548F21E5216522FFE511
:10022C0021F45FF523E5215FF52485212224FB6071
:10023C00141460161460172403701D633701632DAA
:10024C0001632501227F010203187F018007E4FF6F
:08025C00120318E4FF12033B3A
:010264002277
:06000300200002D20022E1
:0603BE00200202D202221F
:0603C400200302D2032217
:10039500538E7F5389F0758A18758CFCC28DD28C6B
:0503A500D2A9D2AF2235
:03000B0002000EE2
:10000E00C0E0C0F0C083C082C0D075D000C000C0B8
:10001E0001C002C003C004C005C006C0070536E516
:10002E003670020535FFAE35BE0209BF580675356E
:10003E0000753600AE35AF367C007D0A1201C7ED75
:10004E004C7002C201AE35AF367C007D141201C772
:10005E00ED4C7002C202AE35AF367C007DC8120187
:10006E00C7ED4C7002C200AE35AF367C017D2C124E
:10007E0001C7ED4C7002C203E5365407FBFF242D79
:10008E00F8E6FD7C0074252BF8E6FB7A001202657B
:10009E00E5365407FF2437F8E6FD7C001202A6D0A1
:1000AE0007D006D005D004D003D002D001D000D0A6
:0A00BE00D0D082D083D0F0D0E03221
:1003AA0012035E12039512021C1200031203BE12FC
:0403BA0003C480F206
:10035E00E4F580E5A0541F44A0F5A053A01F7580BE
:0D036E00FFE5A0541F4480F5A053A01F22FE
:10037B000102040810204080C0F9A4B0999282F8C1
:0A038B008090FFBF8883C6A1868E14
:100265007580FFE5A0541F44E0F5A053A01FEF9053
:10027500037B93F580E5A0541F44C0F5A053A01F50
:1002850074832DF58274033CF583E493F580EB4A82
:10029500600353807FE5A0541F44E0F5A053A01FE1
:0102A5002236
:10015400E4FFC2B4D2B5D2C2D2C420B0027F13200D
:10016400B1027F1220B2027F1120B3027F10D2B4F9
:10017400C2B5D2C2D2C420B0027F0F20B1027F0E1A
:1001840020B2027F0D20B3027F0CD2B4D2B5C2C21A
:10019400D2C420B0027F0B20B1027F0A20B2027FBA
:1001A4000920B3027F08D2B4D2B5D2C2C2C420B0EF
:1001B400027F0720B1027F0620B2027F0520B3022E
:0201C4007F04B6
:0101C6002216
:0C030B000108000109FF010B00010AFFBE
:1002A600ED4C600FA8077401088002C333D8FC42E6
:1002B60008800EA8077401088002C333D8FCF452E4
:1002C60008E50865096013E508F4F580E5A0541F04
:0A02D6004480F5A053A01F8508091D
:0102E00022FB
:10031800EF6005430B408003530BBFE50B650A6094
:1003280011850B80E5A0541F44A0F5A053A01F859C
:030338000B0A228B
:10033B00EF6005430B108003530BEFE50B650A6071
:10034B0011850B80E5A0541F44A0F5A053A01F8579
:03035B000B0A2268
:030000000200C833
:0C00C800787FE4F6D8FD75813F02010F3F
:1001C700BC000BBE0029EF8DF084FFADF022E4CC1C
:1001D700F875F008EF2FFFEE33FEEC33FCEE9DECE5
:1001E700984005FCEE9DFE0FD5F0E9E4CEFD22ED2B
:1001F700F8F5F0EE8420D21CFEADF075F008EF2F75
:10020700FFED33FD4007985006D5F0F222C398FD65
:050217000FD5F0EA2202
:1000D4000203AAE493A3F8E493A34003F68001F295
:1000E40008DFF48029E493A3F85407240CC8C3332D
:1000F400C4540F4420C8834004F456800146F6DFFC
:10010400E4800B01020408102040809002E1E47EA8
:10011400019360BCA3FF543F30E509541FFEE493F0
:10012400A360010ECF54C025E060A840B8E493A3B7
:10013400FAE493A3F8E493A3C8C582C8CAC583CAE2
:10014400F0A3C8C582C8CAC583CADFE9DEE780BE9A
:0103170000E5
:00000001FF
