C51 COMPILER V9.59.0.0   MAIN                                                              02/27/2024 15:21:13 PAGE 1   


C51 COMPILER V9.59.0.0, COMPILATION OF MODULE MAIN
OBJECT MODULE PLACED IN .\Objects\main.obj
COMPILER INVOKED BY: D:\keil 5\C51\BIN\C51.EXE main.c OPTIMIZE(8,SPEED) BROWSE INCDIR(..\User;..\Drivers) DEBUG OBJECTEX
                    -TEND PRINT(.\Listings\main.lst) OBJECT(.\Objects\main.obj)

line level    source

   1          /* 头文件声明区 */
   2          #include <STC15F2K60S2.H>
   3          #include <intrins.h>
   4          #include "Init.h"
   5          #include "Key.h"
   6          #include "Seg.h"
   7          #include "LED.h"
   8          #include "iic.h"
   9          
  10          /* 基础变量创建区 */
  11          unsigned int Slow_Down;                                                 //减速扫描专用
  12          bit Key_Slow_Flag, Seg_Slow_Flag, LED_Show_Flag;                        //按键数码管减速标志位
  13          unsigned char Seg_Buf[8] = {10, 10, 10, 10, 10, 10, 10, 10};            //数码管显示缓冲区
  14          unsigned char Seg_Point[8] = {0, 0, 0, 0, 0, 0, 0, 0};                  //数码管小数点显示缓冲区
  15          //unsigned char LED_Buf[8] = {0, 0, 0, 0, 0, 0, 0, 0};                  //LED显示缓冲区
  16          
  17          /* 变量创建区 */
  18          unsigned char AD_Data, i;
  19          unsigned char LED_Disp_Mode = 3;            // 0 --> 模式1   1 --> 模式2   2 --> 模式3   3 --> 模式4
  20          unsigned char LED_Mode_Arr[4] = {0x81, 0x42, 0x24, 0x18};
  21          unsigned char LED_Poc = 3;
  22          
  23          /* 按键处理函数 */
  24          void Key_Proc()
  25          {
  26   1          static unsigned char Key_Down = 0, Key_UP = 0;  //变量
  27   1          static unsigned char Key_New = 0, Key_Old = 0;  //创建
  28   1      
  29   1          if (Key_Slow_Flag) return;
  30   1          Key_Slow_Flag = 1;                              //减速
  31   1          
  32   1          Key_New = Key_Read();                           //获取键码
  33   1          Key_Down = Key_New & ( Key_New ^ Key_Old);      //捕获下降沿
  34   1          Key_UP = ~Key_New & ( Key_New ^ Key_Old);       //捕获上升沿
  35   1          Key_Old = Key_New;                              //辅助扫描
  36   1          
  37   1          switch (Key_UP)
  38   1          {
  39   2              case 4:
  40   2                  
  41   2              break;
  42   2              
  43   2          }
  44   1          
  45   1      }
  46          
  47          /* 信息处理函数 */
  48          void Infor_Proc()
  49          {
  50   1          if (Seg_Slow_Flag) return;
  51   1          Seg_Slow_Flag = 1;                              //减速
  52   1          
  53   1          AD_Data = AD_Read(0x43);
  54   1          
C51 COMPILER V9.59.0.0   MAIN                                                              02/27/2024 15:21:13 PAGE 2   

  55   1          Seg_Buf[0] = AD_Data / 100 % 10;
  56   1          Seg_Buf[1] = AD_Data / 10 % 10;
  57   1          Seg_Buf[2] = AD_Data % 10;
  58   1          
  59   1      //    Seg_Buf[7] = Num;
  60   1      }
  61          
  62          /* 其他处理函数 */
  63          void Other_Proc()
  64          {
  65   1          if (LED_Show_Flag) return;
  66   1          LED_Show_Flag = 1;                              //减速
  67   1          /* LED模块 */
  68   1          switch (LED_Disp_Mode)
  69   1          {
  70   2              case 0: LED_Show(_crol_(0x01, i++)); break;
  71   2              case 1: LED_Show(_cror_(0x01, ++i)); break;
  72   2              case 2:
  73   2                  LED_Show(LED_Mode_Arr[i++]);
  74   2                  i %= 4;
  75   2              break;
  76   2              case 3:
  77   2                  LED_Show(LED_Mode_Arr[LED_Poc--]);
  78   2                  if (LED_Poc == 255) LED_Poc = 3;
  79   2              break;
  80   2          }
  81   1      }
  82          
  83          /* 定时器初始化函数 */
  84          void Timer0_Init(void)          //1毫秒@12.000MHz
  85          {
  86   1          AUXR &= 0x7F;                       //定时器时钟12T模式
  87   1          TMOD &= 0xF0;                       //设置定时器模式
  88   1          TL0 = 0x18;                         //设置定时初始值
  89   1          TH0 = 0xFC;                         //设置定时初始值
  90   1          TF0 = 0;                            //清除TF0标志
  91   1          TR0 = 1;                            //定时器0开始计时
  92   1          ET0 = 1;
  93   1          EA  = 1;
  94   1      }
  95          
  96          /* 定时器中断服务函数 */
  97          void Timer0_Serve() interrupt 1
  98          {
  99   1          if (++Slow_Down == 400) Slow_Down = Seg_Slow_Flag = LED_Show_Flag = 0;
 100   1          if (Slow_Down % 10 == 0) Key_Slow_Flag = 0;
 101   1          Seg_Show(Slow_Down%8, Seg_Buf[Slow_Down%8], Seg_Point[Slow_Down%8]);
 102   1      //    LED_Show(Slow_Down%8, LED_Buf[Slow_Down%8]);
 103   1          
 104   1          
 105   1      }
 106          
 107          /* 延时函数 */
 108          void Delay_ms(unsigned int xms)         //@12.000MHz
 109          {
 110   1          unsigned char i, j;
 111   1          while (xms)
 112   1          {
 113   2              i = 12;
 114   2              j = 169;
 115   2              do
 116   2              {
C51 COMPILER V9.59.0.0   MAIN                                                              02/27/2024 15:21:13 PAGE 3   

 117   3                  while (--j);
 118   3              } while (--i);
 119   2              xms--;
 120   2          }
 121   1      }
 122          
 123          /* 主函数 */
 124          void main()
 125          {
 126   1          Init();
 127   1          Timer0_Init();
 128   1          while (1)
 129   1          {
 130   2              Key_Proc();
 131   2              Infor_Proc();
 132   2              Other_Proc();
 133   2          }
 134   1      }
 135          
 136          
 137          


MODULE INFORMATION:   STATIC OVERLAYABLE
   CODE SIZE        =    352    ----
   CONSTANT SIZE    =   ----    ----
   XDATA SIZE       =   ----    ----
   PDATA SIZE       =   ----    ----
   DATA SIZE        =     30    ----
   IDATA SIZE       =   ----    ----
   BIT SIZE         =      3    ----
END OF MODULE INFORMATION.


C51 COMPILATION COMPLETE.  0 WARNING(S),  0 ERROR(S)
