:10094000082D0A0A0A0A0A0A0A0A082500000000F5
:1009500000000000083B0000000000000000012132
:0A0960000001220001230001240021
:1008D800200230D2021207B48F23E5236524FF5586
:1008E80023F521E523F45FF522852324E52124FB64
:1008F800600C04700E20010BA203B3920322A20124
:03090800B39201A6
:01090B0022C9
:10044700300003020574D20012090C8F3A8E398DE1
:10045700388C377F411209718F433001030205251C
:10046700200358752D01754801C3E548940574802C
:100477009480500B742D2548F8760A054880EAAF1A
:100487003AAE39AD38AC37120363EF75F00A84F52D
:1004970032EF75F00A8485F033752B01E4FFFE7D9A
:1004A700207C41AB3AAA39A938A8371201061203B2
:1004B700637C007D0A1203E48D3422752D02754892
:1004C70001C3E548940374809480500B742D25482C
:1004D700F8760A054880EAE54375F0648475F00A02
:1004E7008485F032E54375F00A8475F00A8485F057
:1004F70033E4F52BE54375F00A8485F03475480538
:10050700C3E5489407748094805062742D2548F899
:10051700E6705A742D2548F8760A054880E2752D4D
:1005270012754801C3E548940674809480500B7493
:100537002D2548F8760A054880EAAF47AE46AD450F
:10054700AC44120363EF75F00A8485F033752B0111
:10055700E4FFFE7D207C41AB47AA46A945A844128B
:0E0567000106120363EF75F00A8485F034225A
:10057500200375E4FFFE7D207C41AB3AAA39A938FA
:10058500A8371202AC4033E4FFFE7D207C42AB3A33
:10059500AA39A938A8371202AC6002501D7F897E9E
:1005A500887D087C3EAB3AAA39A938A837120106DE
:1005B5007BAC7AAA79AA78BE8063E4FFFE7D207CB5
:1005C50041AB3AAA39A938A8371202AC5002806863
:1005D500E4FFFE7D207C42AB3AAA39A938A8371240
:1005E50002AC607740758068AF437E00C3EF940A24
:1005F500748094804034D3EF94F074809480502AB2
:10060500EF24F6FDEE34FFFC12032A7B357A787968
:100615008E783C120106E4FBFA7980783F120015CA
:100625008F478E468D458C448031E543FB7A00C368
:10063500940A74809480500DE4F547F5467545801D
:1006450075443F8016D3EB94F0EA64809480400BA8
:10065500E4F547F5467545A0754440E4FFFE7D4C3D
:100665007C42AB47AA46A945A8441201061203637A
:10067500120B4AE4F548C3E548940274809480500F
:1006850018A203E433B548047F0180027F00743B60
:0A0695002548F8A607054880DD227D
:100B3500538E7F5389F0758A18758CFCC28DD28CC3
:050B4500D2A9D2AF228D
:03000B0002072BBE
:10072B00C0E0C0F0C083C082C0D075D000C000C094
:10073B0001C002C003C004C005C006C0070536E5F2
:10074B003670020535FFAE35BE010BBF9008C200F7
:10075B00753500753600AE35AF367C007D0A120359
:10076B00E4ED4C7002C202E5365407FBFF242DF872
:10077B00E6FD7C0074252BF8E6FB7A00120827E5D2
:10078B00365407FF243BF8E6FD7C00120868D007BF
:10079B00D006D005D004D003D002D001D000D0D0E9
:0907AB00D082D083D0F0D0E032FE
:100B5F00EF4E600F7D0C7CA9DCFEDDFCEF1F70F00B
:030B6F001E80EDF8
:010B72002260
:100ACD00120A93120B3512090C7FEE7E02120B5F88
:0B0ADD001208D812044712057580F5BE
:100A9300E4F580E5A0541F44A0F5A053A01F758082
:0D0AA300FFE5A0541F4480F5A053A01F22C2
:1007B400E4FFC2B4D2B5D2C2D2C420B0027F1320A7
:1007C400B1027F1220B2027F1120B3027F10D2B493
:1007D400C2B5D2C2D2C420B0027F0F20B1027F0EB4
:1007E40020B2027F0D20B3027F0CD2B4D2B5C2C2B4
:1007F400D2C420B0027F0B20B1027F0A20B2027F54
:100804000920B3027F08D2B4D2B5D2C2C2C420B088
:10081400027F0720B1027F0620B2027F0520B302C7
:020824007F044F
:0108260022AF
:100AE800C0F9A4B0999282F88090FFBF8883C6A10C
:0B0AF800868EC101020408102040801F
:100827007580FFE5A0541F44E0F5A053A01FEF908B
:100837000AFB93F580E5A0541F44C0F5A053A01F01
:1008470074E82DF582740A3CF583E493F580EB4A4E
:10085700600353807FE5A0541F44E0F5A053A01F19
:01086700226E
:06096A000109000108FF75
:10086800ED4C600FA8077401088002C333D8FC421E
:1008780009800EA8077401088002C333D8FCF4521B
:1008880009E50965086013E509F4F580E5A0541F3A
:0B0898004480F5A053A01F8509082232
:100A0C00EF600543094080035309BFE509650860A1
:100A1C0011850980E5A0541F44A0F5A053A01F85A3
:030A2C0009082294
:100A2F00EF600543091080035309EFE5096508607E
:100A3F0011850980E5A0541F44A0F5A053A01F8580
:030A4F0009082271
:040B0300D2A07F05F8
:100B0700000000000000000000000000000000AE30
:060B1700071FEE70EB2247
:0F0B7300D2A1120B03C2A17F05120B07C2A02251
:0C0B8200C2A1120B03D2A17F05020B07D9
:0208A300AD079F
:1008A500E4FCECC39408748094805024C2A07F05B6
:1008B500120B07ED30E704D2A18002C2A17F051219
:1008C5000B07D2A0ED25E0FD7F05120B070C80D2AA
:0208D500C2A0BF
:0108D70022FE
:1009E600E4FCECC39408748094805017120B03ED5A
:1009F60025E0FD30A103430501C2A07F05120B07C8
:050A06000C80DFAF05CC
:010A0B0022C8
:0B0AB0001208A3120ABBAF031208A338
:100ABB00120B03A2A1E433FDC2A07F05120B07AFFB
:010ACB000525
:010ACC002207
:100B1D00C2A0EF24FF92A17F05120B07120B03C297
:080B2D00A0D2A17F05020B0715
:02097100AB07D2
:10097300E4FD120B737F90120AB0120B737F911276
:1009830008A3120ABB1209E6AD077F01120B1D1261
:040993000B82AF051F
:01099700223D
:100B4A00AB07120B737F901208A3120ABB7F4112E4
:050B5A000AB0020B824D
:040A75007F057E007B
:100A7900EF1FAA0670011E4A600FE4FDEDC3940C36
:090A89007480948050EA0D80F3A2
:010A92002241
:02099800A907AD
:10099A00E4FBEBC39408748094805012C294E91368
:1009AA009294120A75D294E9C313F90B80E47F0575
:0509BA007E00020A7935
:100A5200E4FBEBC39408748094805014C294ECC3FA
:100A620013FCD294309403430480120A750B80E283
:020A7200AF04CF
:010A7400225F
:1009BF00C204D2947F0C7E00120A79C2947F507EBB
:1009CF0000120A79D2947F0A7E00120A79A29492B9
:0609DF0004120A75A204D7
:0109E50022EF
:10090C001209BF7FCC1209987F441209981209BFB3
:10091C007FCC1209987FBE120998120A52A90712AD
:10092C000A52EFAD01FCEC12032AE4FBFA79807851
:04093C004102020F63
:10000E000203CFE86480F8E933E83360110460F04E
:10001E00ED33EC337009E8FCE9FDEAFEEBFF220458
:10002E0060DED3EB9FEA9EE99DE8C2E78CF0C2F753
:10003E0095F0400CE8CCF8E9CDF9EACEFAEBCFFB1F
:10004E0012039A85D0F05804700320D5B3E80470DB
:10005E00075002B2D50203D992D5EC0460F7E4CC76
:10006E00C0E0C398F8603B94186008400DD0E0FBE8
:10007E000203B1E4FBFAC9FC8028E830E406E4C9C7
:10008E00FBE4CAFCE830E305E4C9CACBFCE854073C
:10009E006010F8C3E913F9EA13FAEB13FBEC13FC47
:1000AE00D8F130F52FC3E49CFCEF9BFFEE9AFEEDEA
:1000BE0099FDD0E0FBEF4E4D4C701222DB03020394
:1000CE00D6EC2CFCEF33FFEE33FEED33FDED30E7D7
:1000DE00EB0203B1EF2BFFEE3AFEED39FDD0E0FB64
:1000EE0050130BBB00030203D9ED13FDEE13FEEF0D
:0800FE0013FFEC13FC0203B137
:10010600EC4D6011E8497017ED33EC3304600DE4F3
:10011600FCFFFEFD22E933E8330470F80203CF1238
:10012600039A58046009E4CC248150062850090239
:1001360003D92840030203D6C0E0EB4A7044B980D5
:1001460006D0E0FB0203C5EF4E701CBD8008EBFF36
:10015600EAFEE9FD80EBE98DF0A4FEE5F00201EF91
:10016600E9CDF9EAFEEBFFEF89F0A4FCE5F0CE89D4
:10017600F0A42EFFE435F0CD89F0A42DFEE435F091
:100186008067EF4E7005BD80D780C3EF8BF0A4ACBF
:10019600F0EE8BF0A42CFCE435F0F8EF8AF0A42CFA
:1001A600E5F038FCE433CB8DF0A42CFCE5F03BF80D
:1001B600EE8AF0A42CFCE5F038F8E433CF89F0A4FD
:1001C6002CFCE5F038CF3400CE89F0A42FFFE5F003
:1001D6003EFEE433C98DF0A42EFEE5F039CD8AF05B
:1001E600A42FFFE5F03EFEE43DFD33D0E0FB5007D3
:1001F6000BBB000F0203D9EC2CFCEF33FFEE33FEF2
:06020600ED33FD0203B11F
:10020C000203D9EC5D046005E8590470030203CFC6
:10021C0012039A580460F6EC4860F2EC7004FDFE90
:10022C00FF22C860DB2481C85009C39860025006C5
:10023C000203D69850CAF582E9294B4A7005AB8265
:10024C000203C575F0007C1A7880C3EF9BEE9AED23
:10025C0099400DC3EF9BFFEE9AFEED99FDE842F03D
:10026C00DC23ACF0D0E0FFD0E0FED0E0FDAB822090
:10027C00E7101BEB60BAEC2CFCEF33FFEE33FEED1A
:10028C0033FD0203B1E803F830E705C0F075F00068
:10029C00EF2FFFEE33FEED33FD40B830E7C280AAFE
:1002AC0074F8CC6480CCC86480C8F58204604FC3F9
:1002BC00EB9FF5F0EA9E42F0E99D42F0E89C45F098
:1002CC00603C501DE5825FFFE582D313CB5BCBF422
:1002DC002B5582FB50280ABA002409B9002008804B
:1002EC001DE5825BFBE582D313CF5FCFF4C3132FE5
:1002FC005582FF50090EBE00050DBD00010CC3EB6D
:10030C009FF5F0EA9E42F0E99D42F0E89C45F060D2
:09031C0007CC4820E701B3EC22F4
:1003250075F020800E75F010800575F0087D007E53
:10033500007F003392D530D503120439EC334010D9
:10034500EF33FFEE33FEED33FDEC33FCD5F0ED225C
:0E035500E5F0247EA2D513CC92E7CDCEFF2298
:10036300EDD2E7CD33EC3392D524814006E4FFFE92
:10037300FDFC22FCE4CFCECDCC24E0501174FF80F1
:10038300EDC3CC13CCCD13CDCE13CECF13CF04708E
:07039300F030D5DE02043951
:10039A00E9D2E7C933E833F892D5EDD2E7CD33ECA9
:0703AA0033FC5002B2D52222
:1003B100EC30E7100FBF000C0EBE00080DBD0004AD
:1003C1000BEB6014A2D5EB13FCED92E7FD2274FF59
:1003D100FCFDFEFF22E480F8A2D574FF13FC7D80B2
:0303E100E480EFC6
:0300000002069F56
:0C069F00787FE4F6D8FD7581480206E67D
:1003E400BC000BBE0029EF8DF084FFADF022E4CCFD
:1003F400F875F008EF2FFFEE33FEEC33FCEE9DECC6
:10040400984005FCEE9DFE0FD5F0E9E4CEFD22ED0B
:10041400F8F5F0EE8420D21CFEADF075F008EF2F55
:10042400FFED33FD4007985006D5F0F222C398FD46
:050434000FD5F0EA22E3
:0E043900C3E49FFFE49EFEE49DFDE49CFC22D4
:1006AB00020ACDE493A3F8E493A34003F68001F28E
:1006BB0008DFF48029E493A3F85407240CC8C33350
:1006CB00C4540F4420C8834004F456800146F6DF1F
:1006DB00E4800B0102040810204080900940E47E66
:1006EB00019360BCA3FF543F30E509541FFEE49314
:1006FB00A360010ECF54C025E060A840B8E493A3DB
:10070B00FAE493A3F8E493A3C8C582C8CAC583CA05
:10071B00F0A3C8C582C8CAC583CADFE9DEE780BEBD
:010970000086
:00000001FF
