:0300000002000EED
:0C000E00787FE4F6D8FD758119020055DA
:06020800011200011300C9
:1001C600E4F51812023A1202778F147E00EF6407E4
:1001D60070020518EF64064E70021518AD187F01FF
:0501E60012000380E19E
:03000B00020101EE
:10010100C0E0C0F0C083C082C0D075D000C000C0C4
:0D01110001C002C003C004C005C006C00745
:10011E000512E51264027005F5121201EB0513E5E6
:0A012E001364147005F51312015359
:10013800D007D006D005D004D003D002D001D0001B
:0B014800D0D0D082D083D0F0D0E032C5
:0B026300C0F9A4B0999282F88090FFCF
:0E020E000909000A0A0A0A0A0A0A0A01080176
:10009A008D19EF14B4080050519000B175F003A403
:1000AA00C58325F0C583730200C90200CE0200D3BE
:1000BA000200D80200DD0200E20200E70200EC754D
:1000CA0080018021758002801C75800480177580EC
:1000DA00088012758010800D758020800875804018
:1000EA0080037580807F06120193E519900263935D
:0700FA00F5807F070201936E
:0700030074092FF8A6052285
:1001EB0074092508F8E6FDAF0812009A0508D3E557
:0C01FB000894087480948040037508018B
:0102070022D4
:06021C00011500011600AF
:05027700E4AF17F517CC
:01027C00225F
:10022300E4FF20B0027F0720B1027F0620B2027FE5
:060233000520B3027F0468
:0102390022A2
:100153008515161202238F15AF167E00EF7009E581
:100163001564077003751707EF4E7009E5156406EC
:100173007003751706E5167009E5156405700375B8
:0F0183001705E5167009E5156404700375170478
:01019200224A
:09026E00AE058F80AF060201937A
:10024F00EF4E600F7D0C7CA9DCFEDDFCEF1F70F024
:03025F001E80ED11
:010262002279
:10019300EF24FB601214601714601C24037023E522
:1001A300A0541F44808016E5A0541F44A0800EE590
:1001B300A0541F44C08006E5A0541F44E0F5A0539B
:0301C300A01F2258
:10023A00538E7F5389F0758A18758CFCC28DD28CC7
:05024A00D2A9D2AF2291
:10001A000201C6E493A3F8E493A34003F68001F235
:10002A0008DFF48029E493A3F85407240CC8C333E7
:10003A00C4540F4420C8834004F456800146F6DFB6
:10004A00E4800B0102040810204080900208E47E3C
:10005A00019360BCA3FF543F30E509541FFEE493AB
:10006A00A360010ECF54C025E060A840B8E493A372
:10007A00FAE493A3F8E493A3C8C582C8CAC583CA9D
:10008A00F0A3C8C582C8CAC583CADFE9DEE780BE55
:0102220000DB
:00000001FF
