BL51 BANKED LINKER/LOCATER V6.22.2.0                                                    03/24/2024  16:39:27  PAGE 1


BL51 BANKED LINKER/LOCATER V6.22.2.0, INVOKED BY:
D:\KEIL 5\C51\BIN\BL51.EXE .\Objects\main.obj, .\Objects\Init.obj, .\Objects\Key.obj, .\Objects\Seg.obj, .\Objects\LED.o
>> bj TO .\Objects\2303002124 PRINT (.\Listings\2303002124.m51) RAMSIZE (256)


MEMORY MODEL: SMALL


INPUT MODULES INCLUDED:
  .\Objects\main.obj (MAIN)
  .\Objects\Init.obj (INIT)
  .\Objects\Key.obj (KEY)
  .\Objects\Seg.obj (SEG)
  .\Objects\LED.obj (LED)
  D:\KEIL 5\C51\LIB\C51S.LIB (?C_STARTUP)
  D:\KEIL 5\C51\LIB\C51S.LIB (?C?UIDIV)
  D:\KEIL 5\C51\LIB\C51S.LIB (?C_INIT)


LINK MAP OF MODULE:  .\Objects\2303002124 (MAIN)


            TYPE    BASE      LENGTH    RELOCATION   SEGMENT NAME
            -----------------------------------------------------

            * * * * * * *   D A T A   M E M O R Y   * * * * * * *
            REG     0000H     0008H     ABSOLUTE     "REG BANK 0"
            DATA    0008H     0004H     UNIT         ?DT?LED
                    000CH     0014H                  *** GAP ***
            BIT     0020H.0   0000H.4   UNIT         ?BI?MAIN
                    0020H.4   0000H.4                *** GAP ***
            DATA    0021H     001FH     UNIT         ?DT?MAIN
            IDATA   0040H     0001H     UNIT         ?STACK

            * * * * * * *   C O D E   M E M O R Y   * * * * * * *
            CODE    0000H     0003H     ABSOLUTE     
            CODE    0003H     0006H     UNIT         ?PR?SEG_DEAL?MAIN
                    0009H     0002H                  *** GAP ***
            CODE    000BH     0003H     ABSOLUTE     
            CODE    000EH     00ABH     UNIT         ?PR?TIMER0_SERVE?MAIN
            CODE    00B9H     008CH     UNIT         ?C_C51STARTUP
            CODE    0145H     007AH     UNIT         ?PR?KEY_READ?KEY
            CODE    01BFH     0055H     UNIT         ?C?LIB_CODE
            CODE    0214H     0041H     UNIT         ?PR?_SEG_SHOW?SEG
            CODE    0255H     003BH     UNIT         ?PR?_LED_SHOW?LED
            CODE    0290H     0037H     UNIT         ?C_INITSEG
            CODE    02C7H     0023H     UNIT         ?PR?_BEEP?LED
            CODE    02EAH     0023H     UNIT         ?PR?_RELAY?LED
            CODE    030DH     001DH     UNIT         ?PR?KEY_DEAL?MAIN
            CODE    032AH     001DH     UNIT         ?PR?SYSTEM_INIT?INIT
            CODE    0347H     001AH     UNIT         ?CO?SEG
            CODE    0361H     0015H     UNIT         ?PR?TIMER0_INIT?MAIN
            CODE    0376H     0014H     UNIT         ?PR?_DELAY_MS?MAIN
            CODE    038AH     0014H     UNIT         ?PR?MAIN?MAIN
            CODE    039EH     0006H     UNIT         ?PR?LED_DEAL?MAIN
            CODE    03A4H     0006H     UNIT         ?PR?INFOR_DEAL?MAIN


BL51 BANKED LINKER/LOCATER V6.22.2.0                                                  03/24/2024  16:39:27  PAGE 2



OVERLAY MAP OF MODULE:   .\Objects\2303002124 (MAIN)


SEGMENT
  +--> CALLED SEGMENT
---------------------
?PR?TIMER0_SERVE?MAIN
  +--> ?PR?_SEG_SHOW?SEG
  +--> ?PR?_LED_SHOW?LED

?PR?_SEG_SHOW?SEG
  +--> ?CO?SEG

*** NEW ROOT ***************************************************

?C_C51STARTUP
  +--> ?PR?MAIN?MAIN
  +--> ?C_INITSEG

?PR?MAIN?MAIN
  +--> ?PR?SYSTEM_INIT?INIT
  +--> ?PR?TIMER0_INIT?MAIN
  +--> ?PR?KEY_DEAL?MAIN
  +--> ?PR?SEG_DEAL?MAIN
  +--> ?PR?LED_DEAL?MAIN
  +--> ?PR?INFOR_DEAL?MAIN

?PR?KEY_DEAL?MAIN
  +--> ?PR?KEY_READ?KEY



SYMBOL TABLE OF MODULE:  .\Objects\2303002124 (MAIN)

  VALUE           TYPE          NAME
  ----------------------------------

  -------         MODULE        MAIN
  C:0000H         SYMBOL        _ICE_DUMMY_
  D:0080H         PUBLIC        P0
  D:0090H         PUBLIC        P1
  D:00A0H         PUBLIC        P2
  C:030DH         PUBLIC        Key_Deal
  D:00B0H         PUBLIC        P3
  D:00C0H         PUBLIC        P4
  B:0020H.0       PUBLIC        Seg_Slow_Flag
  D:00C8H         PUBLIC        P5
  B:00A8H.7       PUBLIC        EA
  D:00E8H         PUBLIC        P6
  D:00F8H         PUBLIC        P7
  D:0025H         PUBLIC        Seg_Point
  D:00A8H         PUBLIC        IE
  B:0020H.1       PUBLIC        Key_Slow_Flag
  D:00B8H         PUBLIC        IP
  C:000EH         PUBLIC        Timer0_Serve
  D:002DH         PUBLIC        Seg_Buf
BL51 BANKED LINKER/LOCATER V6.22.2.0                                                  03/24/2024  16:39:27  PAGE 3


  D:0035H         PUBLIC        Slow_Down
  D:00D8H         PUBLIC        CCON
  C:038AH         PUBLIC        main
  C:0361H         PUBLIC        Timer0_Init
  C:039EH         PUBLIC        LED_Deal
  C:0376H         PUBLIC        _Delay_ms
  D:0098H         PUBLIC        SCON
  D:0089H         PUBLIC        TMOD
  D:0088H         PUBLIC        TCON
  B:0020H.2       PUBLIC        LED_Slow_Flag
  D:008EH         PUBLIC        AUXR
  B:00A8H.1       PUBLIC        ET0
  B:0088H.5       PUBLIC        TF0
  D:008CH         PUBLIC        TH0
  D:008AH         PUBLIC        TL0
  D:0037H         PUBLIC        LED_Buf
  B:0088H.4       PUBLIC        TR0
  C:03A4H         PUBLIC        Infor_Deal
  B:0020H.3       PUBLIC        Infor_Slow_Flag
  D:003FH         PUBLIC        i
  C:0003H         PUBLIC        Seg_Deal
  D:00D0H         PUBLIC        PSW
  -------         PROC          KEY_DEAL
  -------         DO            
  D:0021H         SYMBOL        Key_Down
  D:0022H         SYMBOL        Key_UP
  D:0023H         SYMBOL        Key_New
  D:0024H         SYMBOL        Key_Old
  -------         ENDDO         
  C:030DH         LINE#         20
  C:030DH         LINE#         21
  C:030DH         LINE#         25
  C:0310H         LINE#         26
  C:0312H         LINE#         28
  C:0317H         LINE#         29
  C:0320H         LINE#         30
  C:0326H         LINE#         31
  C:0329H         LINE#         34
  -------         ENDPROC       KEY_DEAL
  -------         PROC          SEG_DEAL
  C:0003H         LINE#         37
  C:0003H         LINE#         38
  C:0003H         LINE#         39
  C:0006H         LINE#         40
  C:0008H         LINE#         43
  -------         ENDPROC       SEG_DEAL
  -------         PROC          LED_DEAL
  C:039EH         LINE#         46
  C:039EH         LINE#         47
  C:039EH         LINE#         48
  C:03A1H         LINE#         49
  C:03A3H         LINE#         52
  -------         ENDPROC       LED_DEAL
  -------         PROC          INFOR_DEAL
  C:03A4H         LINE#         55
  C:03A4H         LINE#         56
  C:03A4H         LINE#         57
BL51 BANKED LINKER/LOCATER V6.22.2.0                                                  03/24/2024  16:39:27  PAGE 4


  C:03A7H         LINE#         58
  C:03A9H         LINE#         66
  -------         ENDPROC       INFOR_DEAL
  -------         PROC          TIMER0_INIT
  C:0361H         LINE#         69
  C:0361H         LINE#         70
  C:0361H         LINE#         71
  C:0364H         LINE#         72
  C:0367H         LINE#         73
  C:036AH         LINE#         74
  C:036DH         LINE#         75
  C:036FH         LINE#         76
  C:0371H         LINE#         77
  C:0373H         LINE#         78
  C:0375H         LINE#         79
  -------         ENDPROC       TIMER0_INIT
  -------         PROC          TIMER0_SERVE
  C:000EH         LINE#         82
  C:002BH         LINE#         84
  C:0044H         LINE#         85
  C:0055H         LINE#         86
  C:0066H         LINE#         87
  C:0077H         LINE#         88
  C:008FH         LINE#         89
  C:009EH         LINE#         90
  -------         ENDPROC       TIMER0_SERVE
  -------         PROC          _DELAY_MS
  D:0006H         SYMBOL        xms
  -------         DO            
  D:0005H         SYMBOL        i
  D:0004H         SYMBOL        j
  -------         ENDDO         
  C:0376H         LINE#         93
  C:0376H         LINE#         94
  C:0376H         LINE#         96
  C:037AH         LINE#         97
  C:037AH         LINE#         98
  C:037CH         LINE#         99
  C:037EH         LINE#         101
  C:037EH         LINE#         102
  C:0380H         LINE#         103
  C:0382H         LINE#         104
  C:0387H         LINE#         105
  C:0389H         LINE#         106
  -------         ENDPROC       _DELAY_MS
  -------         PROC          MAIN
  C:038AH         LINE#         109
  C:038AH         LINE#         110
  C:038AH         LINE#         111
  C:038DH         LINE#         112
  C:0390H         LINE#         114
  C:0390H         LINE#         115
  C:0390H         LINE#         116
  C:0393H         LINE#         117
  C:0396H         LINE#         118
  C:0399H         LINE#         119
  C:039CH         LINE#         120
BL51 BANKED LINKER/LOCATER V6.22.2.0                                                  03/24/2024  16:39:27  PAGE 5


  -------         ENDPROC       MAIN
  -------         ENDMOD        MAIN

  -------         MODULE        INIT
  C:0000H         SYMBOL        _ICE_DUMMY_
  C:032AH         PUBLIC        System_Init
  D:0080H         PUBLIC        P0
  D:0090H         PUBLIC        P1
  D:00A0H         PUBLIC        P2
  D:00B0H         PUBLIC        P3
  D:00C0H         PUBLIC        P4
  D:00C8H         PUBLIC        P5
  D:00E8H         PUBLIC        P6
  D:00F8H         PUBLIC        P7
  D:00A8H         PUBLIC        IE
  D:00B8H         PUBLIC        IP
  D:00D8H         PUBLIC        CCON
  D:0098H         PUBLIC        SCON
  D:0088H         PUBLIC        TCON
  D:00D0H         PUBLIC        PSW
  -------         PROC          SYSTEM_INIT
  C:032AH         LINE#         7
  C:032AH         LINE#         8
  C:032AH         LINE#         9
  C:032DH         LINE#         10
  C:0335H         LINE#         11
  C:0338H         LINE#         13
  C:033BH         LINE#         14
  C:0343H         LINE#         15
  C:0346H         LINE#         16
  -------         ENDPROC       SYSTEM_INIT
  -------         ENDMOD        INIT

  -------         MODULE        KEY
  C:0000H         SYMBOL        _ICE_DUMMY_
  D:0080H         PUBLIC        P0
  D:0090H         PUBLIC        P1
  D:00A0H         PUBLIC        P2
  D:00B0H         PUBLIC        P3
  D:00C0H         PUBLIC        P4
  D:00C8H         PUBLIC        P5
  D:00E8H         PUBLIC        P6
  D:00F8H         PUBLIC        P7
  C:0145H         PUBLIC        Key_Read
  D:00A8H         PUBLIC        IE
  D:00B8H         PUBLIC        IP
  D:00D8H         PUBLIC        CCON
  B:00B0H.0       PUBLIC        P30
  D:0098H         PUBLIC        SCON
  B:00B0H.1       PUBLIC        P31
  D:0088H         PUBLIC        TCON
  B:00B0H.2       PUBLIC        P32
  B:00C0H.2       PUBLIC        P42
  B:00B0H.3       PUBLIC        P33
  B:00B0H.4       PUBLIC        P34
  B:00C0H.4       PUBLIC        P44
  B:00B0H.5       PUBLIC        P35
BL51 BANKED LINKER/LOCATER V6.22.2.0                                                  03/24/2024  16:39:27  PAGE 6


  B:00A8H.1       PUBLIC        ET0
  D:00D0H         PUBLIC        PSW
  -------         PROC          KEY_READ
  -------         DO            
  D:0007H         SYMBOL        temp
  -------         ENDDO         
  C:0145H         LINE#         7
  C:0145H         LINE#         8
  C:0145H         LINE#         9
  C:0147H         LINE#         10
  C:0149H         LINE#         11
  C:0151H         LINE#         12
  C:0156H         LINE#         13
  C:015BH         LINE#         14
  C:0160H         LINE#         15
  C:0165H         LINE#         16
  C:016DH         LINE#         17
  C:0172H         LINE#         18
  C:0177H         LINE#         19
  C:017CH         LINE#         20
  C:0181H         LINE#         21
  C:0189H         LINE#         22
  C:018EH         LINE#         23
  C:0193H         LINE#         24
  C:0198H         LINE#         25
  C:019DH         LINE#         26
  C:01A5H         LINE#         27
  C:01AAH         LINE#         28
  C:01AFH         LINE#         29
  C:01B4H         LINE#         30
  C:01B9H         LINE#         31
  C:01BCH         LINE#         32
  C:01BEH         LINE#         33
  C:01BEH         LINE#         34
  -------         ENDPROC       KEY_READ
  -------         ENDMOD        KEY

  -------         MODULE        SEG
  C:0000H         SYMBOL        _ICE_DUMMY_
  D:0080H         PUBLIC        P0
  D:0090H         PUBLIC        P1
  D:00A0H         PUBLIC        P2
  D:00B0H         PUBLIC        P3
  D:00C0H         PUBLIC        P4
  D:00C8H         PUBLIC        P5
  D:00E8H         PUBLIC        P6
  D:00F8H         PUBLIC        P7
  D:00A8H         PUBLIC        IE
  D:00B8H         PUBLIC        IP
  C:0359H         PUBLIC        Seg_Wula
  C:0214H         PUBLIC        _Seg_Show
  D:00D8H         PUBLIC        CCON
  D:0098H         PUBLIC        SCON
  D:0088H         PUBLIC        TCON
  C:0347H         PUBLIC        Seg_Table
  D:00D0H         PUBLIC        PSW
  -------         PROC          _SEG_SHOW
BL51 BANKED LINKER/LOCATER V6.22.2.0                                                  03/24/2024  16:39:27  PAGE 7


  D:0007H         SYMBOL        Wula
  D:0004H         SYMBOL        Table
  D:0002H         SYMBOL        Point
  C:0214H         LINE#         29
  C:0214H         LINE#         30
  C:0214H         LINE#         31
  C:0217H         LINE#         32
  C:021FH         LINE#         33
  C:0222H         LINE#         35
  C:0229H         LINE#         36
  C:0231H         LINE#         37
  C:0234H         LINE#         39
  C:0242H         LINE#         40
  C:0246H         LINE#         41
  C:0249H         LINE#         42
  C:0251H         LINE#         43
  C:0254H         LINE#         44
  -------         ENDPROC       _SEG_SHOW
  -------         ENDMOD        SEG

  -------         MODULE        LED
  C:0000H         SYMBOL        _ICE_DUMMY_
  C:02EAH         PUBLIC        _Relay
  D:0080H         PUBLIC        P0
  D:0090H         PUBLIC        P1
  D:00A0H         PUBLIC        P2
  D:00B0H         PUBLIC        P3
  D:00C0H         PUBLIC        P4
  D:00C8H         PUBLIC        P5
  D:00E8H         PUBLIC        P6
  D:00F8H         PUBLIC        P7
  D:00A8H         PUBLIC        IE
  D:00B8H         PUBLIC        IP
  D:00D8H         PUBLIC        CCON
  D:0098H         PUBLIC        SCON
  D:0088H         PUBLIC        TCON
  D:000AH         PUBLIC        temp_old
  C:0255H         PUBLIC        _LED_Show
  D:000BH         PUBLIC        temp_new
  D:00D0H         PUBLIC        PSW
  C:02C7H         PUBLIC        _Beep
  -------         PROC          _LED_SHOW
  D:0007H         SYMBOL        addr
  D:0004H         SYMBOL        enable
  -------         DO            
  D:0008H         SYMBOL        temp_new_LED
  D:0009H         SYMBOL        temp_old_LED
  -------         ENDDO         
  C:0255H         LINE#         5
  C:0255H         LINE#         6
  C:0255H         LINE#         10
  C:0259H         LINE#         11
  C:0268H         LINE#         13
  C:0276H         LINE#         15
  C:027CH         LINE#         16
  C:027CH         LINE#         17
  C:0281H         LINE#         18
BL51 BANKED LINKER/LOCATER V6.22.2.0                                                  03/24/2024  16:39:27  PAGE 8


  C:0289H         LINE#         19
  C:028CH         LINE#         20
  C:028FH         LINE#         21
  C:028FH         LINE#         22
  -------         ENDPROC       _LED_SHOW
  -------         PROC          _BEEP
  D:0007H         SYMBOL        flag
  C:02C7H         LINE#         31
  C:02C7H         LINE#         32
  C:02C7H         LINE#         33
  C:02CAH         LINE#         34
  C:02CFH         LINE#         36
  C:02D2H         LINE#         38
  C:02D8H         LINE#         39
  C:02D8H         LINE#         40
  C:02DBH         LINE#         41
  C:02E3H         LINE#         42
  C:02E6H         LINE#         43
  C:02E9H         LINE#         44
  C:02E9H         LINE#         45
  -------         ENDPROC       _BEEP
  -------         PROC          _RELAY
  D:0007H         SYMBOL        flag
  C:02EAH         LINE#         47
  C:02EAH         LINE#         48
  C:02EAH         LINE#         49
  C:02EDH         LINE#         50
  C:02F2H         LINE#         52
  C:02F5H         LINE#         54
  C:02FBH         LINE#         55
  C:02FBH         LINE#         56
  C:02FEH         LINE#         57
  C:0306H         LINE#         58
  C:0309H         LINE#         59
  C:030CH         LINE#         60
  C:030CH         LINE#         61
  -------         ENDPROC       _RELAY
  -------         ENDMOD        LED

  -------         MODULE        ?C?UIDIV
  C:01BFH         PUBLIC        ?C?UIDIV
  -------         ENDMOD        ?C?UIDIV

*** WARNING L16: UNCALLED SEGMENT, IGNORED FOR OVERLAY PROCESS
    SEGMENT: ?PR?_DELAY_MS?MAIN

*** WARNING L16: UNCALLED SEGMENT, IGNORED FOR OVERLAY PROCESS
    SEGMENT: ?PR?_BEEP?LED

*** WARNING L16: UNCALLED SEGMENT, IGNORED FOR OVERLAY PROCESS
    SEGMENT: ?PR?_RELAY?LED

Program Size: data=44.4 xdata=0 code=936
LINK/LOCATE RUN COMPLETE.  3 WARNING(S),  0 ERROR(S)
