:0300000002106289
:0C106200787FE4F6D8FD7581820210A9A9
:10144A002425642C252E32660D0A004545524F523A
:10145A00210D0A002325642C25640D0A0048656CB9
:0E146A006C6F2057696E646F7773210D0A0056
:1012B50008730A0A0A0A0A0A0A0A086B00000000EB
:1012C50000000000087B0000000000000000013C59
:1012D5001E01431E012723012923C18A0123000181
:0812E500240001250001260090
:100D0800300403020E1BD2041210EE8F23E5236574
:100D180024FFE523F45FF525E5235FF526852324E5
:100D2800E524640C7029D205D3E52E94E8E52D94CA
:100D3800034023D201E4F544F545F542F541FB7A39
:100D4800007941F554755502FDFC1213A68007E49D
:100D5800F52DF52EC205E524640D7016D206D3E5EF
:100D68003094E8E52F94034010D202A20AB3920A05
:100D78008000E4F52FF530C206E52524F46023242D
:100D8800FC603914606224046003020E1B30020305
:100D9800C20222A203B39203200304E4F54C22C248
:100DA8000722300103C2012220030B054CE54C64E5
:100DB800037060F54C22A207B39207223003542037
:100DC8000713153C153CD3E53C94C87480948040C7
:100DD80042E4F53C2274FB2527F527D394C8748098
:100DE8009480402FE4F52722300328200713053C80
:100DF800053CD3E53C9463748094804016753C634D
:100E08002274052527F527D39463748094804003C2
:030E1800752763D8
:010E1B0022B4
:100B2A00300003020D07D200300303020CA2E54C89
:100B3A00147003020BCD147003020BFD2402600330
:100B4A00020CE0754D01C3E54D9404748094805005
:100B5A000B7473254DF8760A054D80EA7873760C86
:100B6A00AF40AE3FAD3EAC3D120283EF75F00A8452
:100B7A0075F00A847877A6F0EF75F00A8408A6F073
:100B8A00E4FFFE7D207C41AB40AA3FA93EA83D126E
:100B9A0000261202837C007D0A1205F67879A605E2
:100BAA00E4FFFE7DC87C42AB40AA3FA93EA83D12A5
:100BBA0000261202837C007D0A1205F6787AA605C1
:100BCA00020CE0754D01C3E54D9406748094805083
:100BDA000B7473254DF8760A054D80EA7873760D05
:100BEA00E52875F00A8475F00A847879A6F0E52874
:100BFA00020CD9754D01C3E54D940374809480505D
:100C0A000B7473254DF8760A054D80EAE47873F67D
:100C1A00AE44AF457C277D101205F67C007D0A1292
:100C2A0005F67876A605AE44AF457C037DE8120545
:100C3A00F67C007D0A1205F67877A605AE44AF4524
:100C4A007C007D641205F67C007D0A1205F6787830
:100C5A00A605AE44AF457C007D0A1205F67C007DF0
:100C6A000A1205F67879A605AE44AF457C007D0ADE
:100C7A001205F6787AA605754D03C3E54D940774F7
:100C8A0080948050517473254DF8E6704974732529
:100C9A004DF8760A054D80E27878760A18760A7851
:100CAA0075760A18760A187605A207E4337876F676
:100CBA00740426F620070DE53C75F00A847879F667
:100CCA00E53C800BE52775F00A847879F6E5277507
:100CDA00F00A8408A6F0AF4C7E00EF7007200304E8
:100CEA007D0180027D007870A605EF64024E7007D0
:0E0CFA002003047F0180027F00786BA6072292
:1012F400200938D209AC43E412024FAB40AA3FA9FB
:101304003EA83D1201CC600640047F0180027F00AC
:10131400787BA607E528C3952950047F0180027FC6
:0C13240000787CA607A20AE43308F62239
:100FC100E4FF300A15FE7D4C7C42AB4BAA4AA9498D
:100FD100A84812002612028380001215D0300B039C
:100FE100021061D20B12136B8F281213DE8F408E09
:100FF1003F8D3E8C3D200322E53C6543600B853CE3
:10100100430545E54570020544E5276529600B85E3
:1010110027290545E54570020544E5476545700406
:10102100E5466544601F854446854547E544F541ED
:101031008545427B007A007941755400755502E47B
:10104100FDFC1213A6E528D39529E4FFFE5005FD0A
:101051007C4080047D807C408F4B8E4A8D498C483A
:01106100226C
:100F0C00E52C7003020FC0D3E531940A74809480F1
:100F1C005003020FC0C208E4F531E52C24FA603B03
:100F2C0024027075E53264537029E533B45424E51A
:100F3C0034B40D1FE535B40A1A7BFF7A14794A755F
:100F4C005200852853854057853F56853E55853D33
:100F5C0054804C7BFF7A1479558044E53264507090
:100F6C0030E5336441702AE53464527024E535640D
:100F7C0041701EE536B40D19E537B40A147BFF7ABF
:100F8C0014795E755200852953755400854355803C
:100F9C000E7BFF7A14795580067BFF7A14795512F3
:100FAC00071DAF2C7E007D007B007A007932120683
:050FBC008FE4F52C227A
:1015BB00538EBF53890F758B18758DFCC28FD28ECE
:0515CB00D2AFD2AB22FB
:03001B00020E1CB6
:100E1C00C0E0C0F0C083C082C0D075D000C000C09C
:100E2C0001C002C003C004C005C006C007052BE505
:100E3C002B7002052AFFAE2ABE010BBF9008C20B15
:100E4C00752A00752B00AE2AAF2B7C007D0A12058B
:100E5C00F6ED4C7002C204AE2AAF2B7C007D14124E
:100E6C0005F6ED4C7002C209AE2AAF2B7C007D64F6
:100E7C001205F6ED4C7002C200E52B5407FBFF2463
:100E8C0073F8E6FD7C00746B2BF8E6FB7A0012120B
:100E9C006EE52B5407FF247BF8E6FD7C0012133023
:100EAC0030080B0531E531640A700375310B3005E0
:100EBC0017052EE52E7002052DC394E8E52D94033D
:100ECC004006752D03752EE93006170530E5307098
:100EDC0002052FC394E8E52F94034006752F037584
:100EEC0030E9120B2AD007D006D005D004D003D09D
:100EFC0002D001D000D0D0D082D083D0F0D0E0325C
:0300230002116166
:10116100C0E0C0F0C083C082C0D075D000C000C054
:1011710001C002C003C004C005C006C007309811F9
:10118100C298753100D208AF2C052C74322FF8A605
:1011910099C3E52C9407748094804012AF2C7E0093
:1011A1007D007B007A00793212068F752C00D00702
:1011B100D006D005D004D003D002D001D000D0D0C9
:0911C100D082D083D0F0D0E032DE
:0C1607007F237E337DB6DDFEDEFCDFFAC3
:0116130022B4
:1011CA00E4F54E1215531215BB1215A47B007A00D2
:1011DA00794E7554007555017D107C00121224E574
:1011EA004E6442700B7BFF7A14796712071D8016D2
:1011FA00754E427B007A00794E7554007555017D13
:10120A00107C001213A61213DE121607120FC11257
:0A121A000D081212F4120F0C80F2FE
:10155300E4F580E5A0541F44A0F5A053A01F7580B7
:0D156300FFE5A0541F4480F5A053A01F22F7
:1010EE00E4FFC2B4D2B5D2C2D2C420B0027F132064
:1010FE00B1027F1220B2027F1120B3027F10D2B450
:10110E00C2B5D2C2D2C420B0027F0F20B1027F0E70
:10111E0020B2027F0D20B3027F0CD2B4D2B5C2C270
:10112E00D2C420B0027F0B20B1027F0A20B2027F10
:10113E000920B3027F08D2B4D2B5D2C2C2C420B045
:10114E00027F0720B1027F0620B2027F0520B30284
:02115E007F040C
:01116000226C
:1015E500C0F9A4B0999282F88090FFBF8EC7888316
:0315F500C6A18606
:10126E007580FFE5A0541F44E0F5A053A01FA8070A
:10127E007401088002C333D8FCF580E5A0541F44E6
:10128E00C0F5A053A01F74E52DF58274153CF583AF
:10129E00E493F580EB4A600353807FE5A0541F442E
:0712AE00E0F5A053A01F2290
:0612ED000108000109FFE9
:10133000ED4C600FA8077401088002C333D8FC424B
:1013400008800EA8077401088002C333D8FCF45249
:1013500008E50865096013E508F4F580E5A0541F69
:0A1360004480F5A053A01F85080982
:01136A002260
:0616280000007F21DFFE3F
:01162E002299
:10157000E4FEEEC3940874809480500DD29012164D
:0915800028C2901216280E80E921
:01158900223F
:10136B00E4FDFCF5D9F5E9F5F9121570D2DE20DFB5
:10137B00032091FAC2DE30DF05C2DF7F0022AFF916
:10138B00EFADE9FCEDAE04FFE412024A7B967A4323
:0A139B00798B783C120026120283C1
:0113A5002225
:1015A400759850438E01538EFB75D7CC75D6FF4387
:0715B4008E10D2AFD2AC2271
:081620008F993099FDC2992257
:04158A00D2A07F0A62
:10158E00000000000000000000000000000000AE9F
:06159E00071FEE70EB22B6
:0F15F800D2A112158AC2A17F0A12158EC2A0229B
:0C161400C2A112158AD2A17F0A02158E15
:02141500AD0721
:10141700E4FCECC39408748094805024C2A07F0A33
:1014270012158EED30E704D2A18002C2A17F0A1205
:10143700158ED2A0ED25E0FD7F0A12158E0C80D205
:02144700C2A041
:011449002280
:1014C600E4FCECC3940874809480501712158AEDDE
:1014D60025E0FD30A103430501C2A07F0A12158E47
:0514E6000C80DFAF05E2
:0114EB0022DE
:1014EC00AB05AA041215F87FA0121415121500AF43
:0414FC0003121415AE
:1015000012158AA2A1E433FDC2A07F0A12158EAF84
:0115100005D5
:0115110022B7
:10000300C2A0EF24FF92A17F0A12158E12158AC295
:08001300A0D2A17F0A02158EA4
:1015D000AB071215F87F901214151215007F4312F5
:0515E00014F5021614D1
:1013A6008B4F8A5089511214ECE5551555AE547081
:1013B6000215544E601FAB4F0551E551AA507002FD
:1013C600055014F912059EFF1214151215007FC858
:0813D60012158E80D4021614DA
:101224008B4F8A5089511214EC1215F87FA11214B5
:1012340015121500E5551555AE54700215544E603F
:10124400261214C6AB4F0551E551AA507002055041
:1012540014F9EF1205E4E55545546004E4FF8002F7
:0A1264007F0112000380CD02161472
:041535007F057E00B0
:10153900EF1FAA0670011E4A600FE4FDEDC3940C6B
:091549007480948050EA0D80F3D7
:011552002276
:02147800A907C2
:10147A00E4FBEBC39408748094805012C294E9137D
:10148A009294121535D294E9C313F90B80E47F05BF
:05149A007E000215397F
:10151200E4FBEBC39408748094805014C294ECC32F
:1015220013FCD2943094034304801215350B80E2ED
:02153200AF0404
:011534002294
:10149F00C20CD2947F0C7E00121539C2947F507EFD
:1014AF0000121539D2947F0A7E00121539A2949238
:0614BF000C121535A20C11
:0114C5002204
:1013DE00E4F9FF12149F7FCC1214787F4412147814
:1013EE0012149F7FCC1214787FBE1214781215122D
:1013FE00A907121512EFAD01FCEC12024AE4FBFA3A
:07140E007980784102012FF3
:10002600EC4D6011E8497017ED33EC3304600DE4D4
:10003600FCFFFEFD22E933E8330470F80202EF12FA
:1000460002BA58046009E4CC2481500628500902FB
:1000560002F92840030202F6C0E0EB4A7044B98078
:1000660006D0E0FB0202E5EF4E701CBD8008EBFFF8
:10007600EAFEE9FD80EBE98DF0A4FEE5F002010F52
:10008600E9CDF9EAFEEBFFEF89F0A4FCE5F0CE89B5
:10009600F0A42EFFE435F0CD89F0A42DFEE435F072
:1000A6008067EF4E7005BD80D780C3EF8BF0A4ACA0
:1000B600F0EE8BF0A42CFCE435F0F8EF8AF0A42CDB
:1000C600E5F038FCE433CB8DF0A42CFCE5F03BF8EE
:1000D600EE8AF0A42CFCE5F038F8E433CF89F0A4DE
:1000E6002CFCE5F038CF3400CE89F0A42FFFE5F0E4
:1000F6003EFEE433C98DF0A42EFEE5F039CD8AF03C
:10010600A42FFFE5F03EFEE43DFD33D0E0FB5007B3
:100116000BBB000F0202F9EC2CFCEF33FFEE33FEB3
:06012600ED33FD0202D1E1
:10012C000202F9EC5D046005E8590470030202EF69
:10013C001202BA580460F6EC4860F2EC7004FDFE52
:10014C00FF22C860DB2481C85009C39860025006A6
:10015C000202F69850CAF582E9294B4A7005AB8227
:10016C000202E575F0007C1A7880C3EF9BEE9AEDE5
:10017C0099400DC3EF9BFFEE9AFEED99FDE842F01E
:10018C00DC23ACF0D0E0FFD0E0FED0E0FDAB822071
:10019C00E7101BEB60BAEC2CFCEF33FFEE33FEEDFB
:1001AC0033FD0202D1E803F830E705C0F075F0002A
:1001BC00EF2FFFEE33FEED33FD40B830E7C280AADF
:1001CC0074F8CC6480CCC86480C8F58204604FC3DA
:1001DC00EB9FF5F0EA9E42F0E99D42F0E89C45F079
:1001EC00603C501DE5825FFFE582D313CB5BCBF403
:1001FC002B5582FB50280ABA002409B9002008802C
:10020C001DE5825BFBE582D313CF5FCFF4C3132FC5
:10021C005582FF50090EBE00050DBD00010CC3EB4D
:10022C009FF5F0EA9E42F0E99D42F0E89C45F060B3
:09023C0007CC4820E701B3EC22D5
:1002450075F020800E75F010800575F0087D007E34
:10025500007F003392D530D50312064BEC334010A6
:10026500EF33FFEE33FEED33FDEC33FCD5F0ED223D
:0E027500E5F0247EA2D513CC92E7CDCEFF2279
:10028300EDD2E7CD33EC3392D524814006E4FFFE73
:10029300FDFC22FCE4CFCECDCC24E0501174FF80D2
:1002A300EDC3CC13CCCD13CDCE13CECF13CF04706F
:0702B300F030D5DE02064B1E
:1006BB00E5662452F8E6056622784F30130278522D
:1006CB00E475F00112065902059E200CEB7F2ED229
:1006DB000C8018EF540F2490D43440D4FF30100BFF
:1006EB00EF24BFB41A0050032461FFE567600215C5
:1006FB0067056AE56A7002056930130D784FE4757A
:10070B00F001120659EF0205E40216207403D2130E
:10071B008003E4C213F5668B4F8A508951E4F56769
:10072B00F569F56AE56760077F201206F680F575B7
:10073B0068FFC20DC20CC20EC20FC211C212C2148C
:10074B001206C4FF700D3013057F00120707AF6A46
:10075B00AE6922B4255FC2D5C2101206C4FF24D0E5
:10076B00B40A00501A75F00A786730D50508B6FF41
:10077B000106C6A426F620D5047002D20F80D92418
:10078B00CFB41A00EF5004C2E5D2100209F4D20D17
:10079B0080C6D20C80C0D20E80BCD2D580BAD2110A
:1007AB0080B47F201206F6200E077401B567004057
:1007BB00F11206BBFF1206F602072FD214D21280DB
:1007CB00951206BBFB1206BBFA1206BBF94A4B701D
:1007DB000679EB7A0A7BFF200E2EE567602A7E00F6
:1007EB008E827583001205B760060EEE656870F099
:1007FB00C2D5EBC0E0EAC0E0E9C0E0EE120A54D08B
:10080B00E0F9D0E0FAD0E0FB12059EFF60AAEBC046
:10081B00E0EAC0E0E9C0E01206F6D0E02401F9D02E
:10082B00E03400FAD0E0FBE5680460DCD568D980E1
:10083B0087D20E80A2120A3760F7E56870010412A6
:10084B000304A968600DE568600914F568120ADEF7
:10085B00EF60F3EA30E702F404C3995077EAF4252A
:10086B00680430E701E404F568800D120A3760C1B3
:10087B00EA05682568120304EA7865F630E701E4B7
:10088B00256804D5680420110114120A54E4C0E051
:10089B00120ADE7865E6601320E70714F61206DE0F
:1008AB00802204F6D0E014C0E07F001206DEE5687B
:1008BB0060071206D51568800B3011031206D5D0D0
:1008CB00E002072FD0E00480C5120A3760A0E5686C
:1008DB00041203047865EAF6E5682011026001044E
:0508EB002404120A5470
:1008F00074FF04C0E0120ADE1206DEE56820110271
:1009000060031206D5D0E0B568E87F451206E878A6
:1009100065E67F2B30E7047F2DF404C0E01206F675
:10092000D0E075F00A84C0F01206DFD0E01206DFD6
:1009300002072F791080027908C212C2148008D2EF
:10094000D5790A8004790AC2D5E568047002F56891
:10095000E4FAFDFEFF1206BBFC7B08200D13120615
:10096000BBFD7B10300C0A1206BBFE1206BBFF7BE0
:1009700020EC3382D592D55013C3E4300C069FFF90
:10098000E49EFEE4200D039DFDE49CFCE4CBF8C254
:100990000DEC700CCFCECDCCE824F8F870F38017B6
:1009A000C3EF33FFEE33FEED33FDEC33FCEB33FBF3
:1009B000994002FB0FD8E9EB300D05F8D0E0C448B0
:1009C000B20DC0E00AEC4D4E4F78207B0070C2EAB9
:1009D000B5680040BCC0E0120A56D0F0D0E0200D4F
:1009E00004C4C0E0C4B20DC0F01206DFD0F0D5F0F0
:1009F000EB02072F12066907CC53093358079D4CA9
:100A000007994209374F093F44093F4907B2430953
:100A1000455508764608D4450840470B0B5007A1BA
:100A20002D07A52E07C82B07A92307C6200AF42ADD
:100A3000076148000007C0E568B4FF037568061247
:100A400006BBFC1206BBFD1206BBFE1206BBFF78FE
:100A50005E020333790AA2D5200F14301109B910B0
:100A6000020404B9080104A2D52012025001042096
:100A70000E68920EB567005034C0E07F20300F1929
:100A80007F30A20E72127211500F120AADC20EC246
:100A900012C211C2147F30800F301103E9C0E0127E
:100AA00006F6301103D0E0F9D0E0B567CC3011176D
:100AB0007F30B9100C1206F67F583010077F78800F
:100AC00003B908031206F6300E057F2D0206F67FE5
:100AD000202014F87F2B2012F322920E80CF7F006B
:100AE000B407005005245EF8E6FF22286E756C6C92
:100AF0002900D20D1206BB300DF8C20D786730D533
:100B00000108F60207612D504349581206BB240321
:100B1000B405004001E4900B06931206E7743A1204
:0A0B200006E7D20F756704020933DF
:1002BA00E9D2E7C933E833F892D5EDD2E7CD33EC8A
:0702CA0033FC5002B2D52203
:1002D100EC30E7100FBF000C0EBE00080DBD00048E
:1002E1000BEB6014A2D5EB13FCED92E7FD2274FF3A
:1002F100FCFDFEFF22E480F8A2D574FF13FC7D8093
:03030100E480EFA6
:10030400F920E72824F950037907E4F42402FB18C0
:10031400DBFDE624FB5014E9600DE4F618E604F670
:0F032400B40A08E4F6D9F57401F60A22C2D5220C
:10033300ED33EC3392D5FA602AB4FF33EDC2E77B99
:10034300FF60067A037958E4227A03796120D504A1
:100353007A03795C224E614E002B494E46002D49AB
:100363004E4600E47A08F608DAFC7B00740722E8BC
:10037300C0E0ECC0E0EDC0E0EEC0E0EFC0E0EA7545
:10038300F010A4CAABF075F04DA42BFBE435F0FCE0
:10039300EA2410FAEB34C5FBEC34D9FCEDC2E7FFD9
:1003A30075F056A4F42411C5F0F434C58FF0A42AD3
:1003B300E5F03BE43CF620E71412055ED0E0FFD005
:1003C300E0FED0E0FDD0E0FC12012F8014F4041213
:1003D300055ED0E0FFD0E0FED0E0FDD0E0FC1200EF
:1003E30026D0E0F8E6FAEDD2E7CD33EC332482FBF6
:1003F300E4C3CF33CFCE33CECD33CD33DBF37B0763
:1004030075F00A846004F6081B0AE5F0F6088FF01D
:10041300740AA4FFACF08EF0740AA42CFEACF05066
:10042300010C8DF0740AA42CFDE435F0F608DBDE34
:0304330074072229
:100436000202EFE86480F8E933E83360110460F003
:10044600ED33EC337009E8FCE9FDEAFEEBFF22042C
:1004560060DED3EB9FEA9EE99DE8C2E78CF0C2F727
:1004660095F0400CE8CCF8E9CDF9EACEFAEBCFFBF3
:100476001202BA85D0F05804700320D5B3E8047090
:10048600075002B2D50202F992D5EC0460F7E4CC2B
:10049600C0E0C398F8603B94186008400DD0E0FBBC
:1004A6000202D1E4FBFAC9FC8028E830E406E4C97C
:1004B600FBE4CAFCE830E305E4C9CACBFCE8540710
:1004C6006010F8C3E913F9EA13FAEB13FBEC13FC1B
:1004D600D8F130F52FC3E49CFCEF9BFFEE9AFEEDBE
:1004E60099FDD0E0FBEF4E4D4C701222DB03020269
:1004F600F6EC2CFCEF33FFEE33FEED33FDED30E78B
:10050600EB0202D1EF2BFFEE3AFEED39FDD0E0FB18
:1005160050130BBB00030202F9ED13FDEE13FEEFC1
:0805260013FFEC13FC0202D1EB
:10052E003F8000004120000042C80000447A0000D5
:10053E00461C400047C35000497424004B18968057
:10054E004CBEBC205A0E1BCA6753C21C749DC5AE4E
:10055E00FB60065407601C232312058CEB54386095
:10056E0009120578120587120026ECF8EDF9EEFA5D
:10057E00EFCB22EB12058780F1543803241C900533
:10058E002EFE93FC0EEE93FD0EEE930ECE93FF22F7
:10106E000211CAE493A3F8E493A34003F68001F2BD
:10107E0008DFF48029E493A3F85407240CC8C33383
:10108E00C4540F4420C8834004F456800146F6DF52
:10109E00E4800B01020408102040809012B5E47E1B
:1010AE00019360BCA3FF543F30E509541FFEE49347
:1010BE00A360010ECF54C025E060A840B8E493A30E
:1010CE00FAE493A3F8E493A3C8C582C8CAC583CA39
:1010DE00F0A3C8C582C8CAC583CADFE9DEE780BEF1
:0112F30000FA
:10059E00BB010689828A83E0225002E722BBFE025B
:0905AE00E32289828A83E493228E
:1005B700BB010CE58229F582E5833AF583E02250F9
:1005C70006E92582F8E622BBFE06E92582F8E22243
:0D05D700E58229F582E5833AF583E493225D
:1005E400BB010689828A83F0225002F722BBFE01F6
:0205F400F322F0
:1005F600BC000BBE0029EF8DF084FFADF022E4CCE9
:10060600F875F008EF2FFFEE33FEEC33FCEE9DECB1
:10061600984005FCEE9DFE0FD5F0E9E4CEFD22EDF7
:10062600F8F5F0EE8420D21CFEADF075F008EF2F41
:10063600FFED33FD4007985006D5F0F222C398FD32
:050646000FD5F0EA22CF
:0E064B00C3E49FFFE49EFEE49DFDE49CFC22C0
:10065900FAE6FB0808E6F925F0F618E6CA3AF622A2
:10066900D083D082F8E4937012740193700DA3A320
:1006790093F8740193F5828883E473740293686034
:06068900EFA3A3A380DF34
:10068F00EF4E6012EF60010EEDBB010B89828A8382
:10069F00F0A3DFFCDEFA2289F05007F709DFFCA98F
:0C06AF00F022BBFEFCF309DFFCA9F022E6
:00000001FF
