:10079600C101C100082D0A0A0A0A0A0A0A0A082122
:1007A60000000000000000000843000000000000F8
:0807B6000000013C1E013B1490
:1004ED00300103020598D2011206258F39E53965D1
:1004FD0038FF5539F537E539F45FF53A8539382444
:10050D00F3603024FD605B24047060632901E529EC
:10051D00600C853C3EE4F53D752C01752A01E53CEA
:10052D00D3953B5046E53D6005853E3B803D853E80
:10053D003C8038633D01E4F54BF54CE53CD3953BF0
:10054D00500CE53D6005853E3C8003853E3BE53D19
:10055D006008752C01853B3E8011752A01853C3E56
:10056D008009E4F529753C1E753B14E529601CE5F1
:10057D003A24F1600D047013E53D6003053B22053F
:0C058D003C22E53D6003153B22153C229A
:10042B003000030204ECD2001207628F428E418D22
:10043B00408C3FE5291460500460030204EC752DD9
:10044B000D75300AAF42AE41AD40AC3F12026BEFBF
:10045B0075F00A8475F00A8485F031EF75F00A8423
:10046B0085F032752601E4FFFE7D207C41AB42AA6C
:10047B0041A940A83F12000E12026B7C007D0A12AC
:10048B0002FE8D3375340D22E52C600EE53C75F0C4
:10049B000A8475F00A84AFF080027F0A8F30E52C56
:1004AB00600AE53C75F00A84AFF080027F0A8F3159
:1004BB00E52A600EE53B75F00A8475F00A84AFF00F
:1004CB0080027F0A8F33E52A600AE53B75F00A84C8
:1004DB00AFF080027F0A8F34752D0E75320BE4F569
:0204EB002622C7
:10069800AC3CE4120237AB42AA41A940A83F120180
:1006A800B4600C400A754301E4F544F5458024AC78
:1006B8003BE4120237AB42AA41A940A83F1201B459
:1006C800E45009F543F5447545018007F543754441
:1006D80001F545E53CD3953B500475460122E4F508
:0206E8004622A8
:10089B00538E7F5389F0758A18758CFCC28DD28C60
:0508AB00D2A9D2AF222A
:03000B000203618C
:10036100C0E0C0F0C083C082C0D075D000C000C062
:1003710001C002C003C004C005C006C0070536E5C0
:100381003670020535C394F4E5359401400875359E
:1003910000753600C200AE35AF367C007D0A120210
:1003A100FEED4C7002C201052BE52B64087002F5CD
:1003B1002B742D252BF8E6FD7C007421252BF8E606
:1003C100FB7A00AF2B1206EA7443252BF8E624FFD3
:1003D1009202AF2B12072BE5296034E53D7016051B
:1003E1004CE54C7002054BC394F4E54B9401401F5E
:1003F100632C018014054CE54C7002054BC394F449
:10040100E54B94014009632A01754B00754C00D0FE
:1004110007D006D005D004D003D002D001D000D03F
:0A042100D0D082D083D0F0D0E032BA
:1008B000EF4E600F7D0C7CA9DCFEDDFCEF1F70F0BD
:0308C0001E80EDAA
:0108C3002212
:1008530012089B1208361207627FEE7E021208B05E
:0B0863001204ED12042B12069880F521
:10062500E4FFC2B4D2B5D2C2D2C420B0027F132037
:10063500B1027F1220B2027F1120B3027F10D2B423
:10064500C2B5D2C2D2C420B0027F0F20B1027F0E44
:1006550020B2027F0D20B3027F0CD2B4D2B5C2C244
:10066500D2C420B0027F0B20B1027F0A20B2027FE4
:100675000920B3027F08D2B4D2B5D2C2C2C420B019
:10068500027F0720B1027F0620B2027F0520B30258
:020695007F04E0
:010697002240
:10086E00C0F9A4B0999282F88090FFBF88C68C011F
:07087E000204081020408075
:1006EA007580FFE5A0541F44E0F5A053A01FEF90CA
:1006FA00087D93F580E5A0541F44C0F5A053A01FC0
:10070A00746E2DF58274083CF583E493F580EB4A08
:10071A00600353807FE5A0541F44E0F5A053A01F57
:01072A0022AC
:0607BE000108000109FF23
:10072B0030020FA8077401088002C333D8FC4208BB
:10073B00800EA8077401088002C333D8FCF452085A
:10074B00E50865096010E508F4F580E5A0541F4441
:06075B0080F5A053A01F71
:010761002275
:10083600E4F580E5A0541F44A0F5A053A01F7580E1
:0D084600FFE5A0541F4480F5A053A01F2221
:040885007F057E006D
:100889007C007D0C1202ECEF1FAC0670011E4C704F
:02089900F62245
:0207C500AB0780
:1007C700E4FAEAC39408748094805012C294EB133D
:1007D7009294120885D294EBC313FB0A80E47F0539
:0507E7007E00020889FC
:10081300E4FAEAC39408748094805014C294EBC33E
:1008230013FBD2943094034303801208850A80E2B9
:02083300AF0311
:0108350022A0
:1007EC00C203D2947F0C7E00120889C2947F507E83
:1007FC0000120889D2947F0A7E00120889A2949272
:06080C0003120885A2039F
:0108120022C3
:100762001207EC7FCC1207C57F441207C51207ECB3
:100772007FCC1207C57FBE1207C5120813A9071244
:100782000813EFAD01FCEC120232E4FBFA79807837
:040792004102011708
:10000E00EC4D6011E8497017ED33EC3304600DE4EC
:10001E00FCFFFEFD22E933E8330470F80202D7122A
:10002E0002A258046009E4CC24815006285009022B
:10003E0002E12840030202DEC0E0EB4A7044B980C0
:10004E0006D0E0FB0202CDEF4E701CBD8008EBFF28
:10005E00EAFEE9FD80EBE98DF0A4FEE5F00200F783
:10006E00E9CDF9EAFEEBFFEF89F0A4FCE5F0CE89CD
:10007E00F0A42EFFE435F0CD89F0A42DFEE435F08A
:10008E008067EF4E7005BD80D780C3EF8BF0A4ACB8
:10009E00F0EE8BF0A42CFCE435F0F8EF8AF0A42CF3
:1000AE00E5F038FCE433CB8DF0A42CFCE5F03BF806
:1000BE00EE8AF0A42CFCE5F038F8E433CF89F0A4F6
:1000CE002CFCE5F038CF3400CE89F0A42FFFE5F0FC
:1000DE003EFEE433C98DF0A42EFEE5F039CD8AF054
:1000EE00A42FFFE5F03EFEE43DFD33D0E0FB5007CC
:1000FE000BBB000F0202E1EC2CFCEF33FFEE33FEE4
:06010E00ED33FD0202B911
:100114000202E1EC5D046005E8590470030202D7B1
:100124001202A2580460F6EC4860F2EC7004FDFE82
:10013400FF22C860DB2481C85009C39860025006BE
:100144000202DE9850CAF582E9294B4A7005AB8257
:100154000202CD75F0007C1A7880C3EF9BEE9AED15
:1001640099400DC3EF9BFFEE9AFEED99FDE842F036
:10017400DC23ACF0D0E0FFD0E0FED0E0FDAB822089
:10018400E7101BEB60BAEC2CFCEF33FFEE33FEED13
:1001940033FD0202B9E803F830E705C0F075F0005A
:1001A400EF2FFFEE33FEED33FD40B830E7C280AAF7
:1001B40074F8CC6480CCC86480C8F58204604FC3F2
:1001C400EB9FF5F0EA9E42F0E99D42F0E89C45F091
:1001D400603C501DE5825FFFE582D313CB5BCBF41B
:1001E4002B5582FB50280ABA002409B90020088044
:1001F4001DE5825BFBE582D313CF5FCFF4C3132FDE
:100204005582FF50090EBE00050DBD00010CC3EB65
:100214009FF5F0EA9E42F0E99D42F0E89C45F060CB
:0902240007CC4820E701B3EC22ED
:10022D0075F020800E75F010800575F0087D007E4C
:10023D00007F003392D530D503120353EC334010B9
:10024D00EF33FFEE33FEED33FDEC33FCD5F0ED2255
:0E025D00E5F0247EA2D513CC92E7CDCEFF2291
:10026B00EDD2E7CD33EC3392D524814006E4FFFE8B
:10027B00FDFC22FCE4CFCECDCC24E0501174FF80EA
:10028B00EDC3CC13CCCD13CDCE13CECF13CF047087
:07029B00F030D5DE02035331
:1002A200E9D2E7C933E833F892D5EDD2E7CD33ECA2
:0702B20033FC5002B2D5221B
:1002B900EC30E7100FBF000C0EBE00080DBD0004A6
:1002C9000BEB6014A2D5EB13FCED92E7FD2274FF52
:1002D900FCFDFEFF22E480F8A2D574FF13FC7D80AB
:0302E900E480EFBF
:030000000205995D
:0C059900787FE4F6D8FD75814C0205E087
:1002EC00EF8DF0A4A8F0CF8CF0A428CE8DF0A42E26
:0202FC00FE22E0
:1002FE00BC000BBE0029EF8DF084FFADF022E4CCE4
:10030E00F875F008EF2FFFEE33FEEC33FCEE9DECAC
:10031E00984005FCEE9DFE0FD5F0E9E4CEFD22EDF2
:10032E00F8F5F0EE8420D21CFEADF075F008EF2F3C
:10033E00FFED33FD4007985006D5F0F222C398FD2D
:05034E000FD5F0EA22CA
:0E035300C3E49FFFE49EFEE49DFDE49CFC22BB
:1005A500020853E493A3F8E493A34003F68001F211
:1005B50008DFF48029E493A3F85407240CC8C33357
:1005C500C4540F4420C8834004F456800146F6DF26
:1005D500E4800B0102040810204080900796E47E19
:1005E500019360BCA3FF543F30E509541FFEE4931B
:1005F500A360010ECF54C025E060A840B8E493A3E2
:10060500FAE493A3F8E493A3C8C582C8CAC583CA0C
:10061500F0A3C8C582C8CAC583CADFE9DEE780BEC4
:0107C4000034
:00000001FF
