BL51 BANKED LINKER/LOCATER V6.22.2.0                                                    01/23/2024  11:22:09  PAGE 1


BL51 BANKED LINKER/LOCATER V6.22.2.0, INVOKED BY:
D:\KEIL 5\C51\BIN\BL51.EXE .\Objects\Key.obj, .\Objects\Seg.obj, .\Objects\Latch.obj, .\Objects\Output.obj, .\Objects\LE
>> D.obj, .\Objects\main.obj TO .\Objects\Project PRINT (.\Listings\Project.m51) RAMSIZE (256)


MEMORY MODEL: SMALL


INPUT MODULES INCLUDED:
  .\Objects\Key.obj (KEY)
  .\Objects\Seg.obj (SEG)
  .\Objects\Latch.obj (LATCH)
  .\Objects\Output.obj (OUTPUT)
  .\Objects\LED.obj (LED)
  .\Objects\main.obj (MAIN)
  D:\KEIL 5\C51\LIB\C51S.LIB (?C_STARTUP)
  D:\KEIL 5\C51\LIB\C51S.LIB (?C_INIT)


LINK MAP OF MODULE:  .\Objects\Project (KEY)


            TYPE    BASE      LENGTH    RELOCATION   SEGMENT NAME
            -----------------------------------------------------

            * * * * * * *   D A T A   M E M O R Y   * * * * * * *
            REG     0000H     0008H     ABSOLUTE     "REG BANK 0"
            DATA    0008H     0014H     UNIT         ?DT?SEG
            DATA    001CH     0002H     UNIT         ?DT?LED
                    001EH     0002H                  *** GAP ***
            BIT     0020H.0   0000H.1   UNIT         _BIT_GROUP_
                    0020H.1   0000H.7                *** GAP ***
            DATA    0021H     001FH     UNIT         ?DT?MAIN
            DATA    0040H     0005H     UNIT         _DATA_GROUP_
            IDATA   0045H     0001H     UNIT         ?STACK

            * * * * * * *   C O D E   M E M O R Y   * * * * * * *
            CODE    0000H     0003H     ABSOLUTE     
            CODE    0003H     0001H     UNIT         ?PR?LED_PROC?MAIN
                    0004H     0007H                  *** GAP ***
            CODE    000BH     0003H     ABSOLUTE     
            CODE    000EH     008CH     UNIT         ?C_C51STARTUP
            CODE    009AH     007DH     UNIT         ?PR?TIMER0_SERVE?MAIN
            CODE    0117H     003DH     UNIT         ?C_INITSEG
            CODE    0154H     0033H     UNIT         ?PR?_SEG_DISP?SEG
            CODE    0187H     0033H     UNIT         ?PR?_LATCH?LATCH
            CODE    01BAH     0033H     UNIT         ?PR?_LED_DISP?LED
            CODE    01EDH     001CH     UNIT         ?PR?MAIN?MAIN
            CODE    0209H     001AH     UNIT         ?PR?KEY_PROC?MAIN
            CODE    0223H     0017H     UNIT         ?PR?KEY_READ?KEY
            CODE    023AH     0015H     UNIT         ?PR?TIMER0INIT?MAIN
            CODE    024FH     000EH     UNIT         ?PR?SEG_PROC?MAIN
            CODE    025DH     0009H     UNIT         ?PR?_OUTPUT?OUTPUT



OVERLAY MAP OF MODULE:   .\Objects\Project (KEY)

BL51 BANKED LINKER/LOCATER V6.22.2.0                                                  01/23/2024  11:22:09  PAGE 2



SEGMENT                           BIT_GROUP          DATA_GROUP 
  +--> CALLED SEGMENT          START    LENGTH     START    LENGTH
------------------------------------------------------------------
?PR?TIMER0_SERVE?MAIN          -----    -----      -----    -----
  +--> ?PR?_SEG_DISP?SEG
  +--> ?PR?_LED_DISP?LED

?PR?_SEG_DISP?SEG              -----    -----      0040H    0005H
  +--> ?PR?_OUTPUT?OUTPUT
  +--> ?PR?_LATCH?LATCH

?PR?_OUTPUT?OUTPUT             -----    -----      -----    -----
  +--> ?PR?_LATCH?LATCH

?PR?_LED_DISP?LED              0020H.0  0000H.1    -----    -----
  +--> ?PR?_OUTPUT?OUTPUT

*** NEW ROOT ***************************************************

?C_C51STARTUP                  -----    -----      -----    -----
  +--> ?PR?MAIN?MAIN
  +--> ?C_INITSEG

?PR?MAIN?MAIN                  -----    -----      -----    -----
  +--> ?PR?_OUTPUT?OUTPUT
  +--> ?PR?TIMER0INIT?MAIN
  +--> ?PR?KEY_PROC?MAIN
  +--> ?PR?SEG_PROC?MAIN
  +--> ?PR?LED_PROC?MAIN

?PR?KEY_PROC?MAIN              -----    -----      -----    -----
  +--> ?PR?KEY_READ?KEY



SYMBOL TABLE OF MODULE:  .\Objects\Project (KEY)

  VALUE           TYPE          NAME
  ----------------------------------

  -------         MODULE        KEY
  C:0000H         SYMBOL        _ICE_DUMMY_
  D:0080H         PUBLIC        P0
  D:0090H         PUBLIC        P1
  D:00A0H         PUBLIC        P2
  D:00B0H         PUBLIC        P3
  D:00C0H         PUBLIC        P4
  D:00C8H         PUBLIC        P5
  D:00E8H         PUBLIC        P6
  D:00F8H         PUBLIC        P7
  C:0223H         PUBLIC        Key_Read
  D:00A8H         PUBLIC        IE
  D:00B8H         PUBLIC        IP
  D:00D8H         PUBLIC        CCON
  B:00B0H.0       PUBLIC        P30
  D:0098H         PUBLIC        SCON
BL51 BANKED LINKER/LOCATER V6.22.2.0                                                  01/23/2024  11:22:09  PAGE 3


  B:00B0H.1       PUBLIC        P31
  D:0088H         PUBLIC        TCON
  B:00B0H.2       PUBLIC        P32
  B:00B0H.3       PUBLIC        P33
  D:00D0H         PUBLIC        PSW
  -------         PROC          KEY_READ
  -------         DO            
  D:0007H         SYMBOL        Key_Temp
  -------         ENDDO         
  C:0223H         LINE#         36
  C:0223H         LINE#         37
  C:0223H         LINE#         38
  C:0225H         LINE#         39
  C:022AH         LINE#         40
  C:022FH         LINE#         41
  C:0234H         LINE#         42
  C:0239H         LINE#         43
  C:0239H         LINE#         45
  -------         ENDPROC       KEY_READ
  -------         ENDMOD        KEY

  -------         MODULE        SEG
  C:0000H         SYMBOL        _ICE_DUMMY_
  D:0080H         PUBLIC        P0
  D:0090H         PUBLIC        P1
  D:00A0H         PUBLIC        P2
  D:00B0H         PUBLIC        P3
  D:00C0H         PUBLIC        P4
  D:00C8H         PUBLIC        P5
  D:00E8H         PUBLIC        P6
  D:00F8H         PUBLIC        P7
  D:0008H         PUBLIC        Seg_Dula
  D:0014H         PUBLIC        Seg_Wela
  D:00A8H         PUBLIC        IE
  C:0154H         PUBLIC        _Seg_Disp
  D:00B8H         PUBLIC        IP
  D:00D8H         PUBLIC        CCON
  D:0098H         PUBLIC        SCON
  D:0088H         PUBLIC        TCON
  D:00D0H         PUBLIC        PSW
  -------         PROC          _SEG_DISP
  D:0040H         SYMBOL        Wela
  D:0041H         SYMBOL        Dula
  D:0043H         SYMBOL        Point
  C:0154H         LINE#         10
  C:015EH         LINE#         11
  C:015EH         LINE#         12
  C:0165H         LINE#         14
  C:0171H         LINE#         18
  C:0179H         LINE#         19
  C:017FH         LINE#         20
  C:0182H         LINE#         21
  -------         ENDPROC       _SEG_DISP
  -------         ENDMOD        SEG

  -------         MODULE        LATCH
  C:0000H         SYMBOL        _ICE_DUMMY_
BL51 BANKED LINKER/LOCATER V6.22.2.0                                                  01/23/2024  11:22:09  PAGE 4


  D:0080H         PUBLIC        P0
  D:0090H         PUBLIC        P1
  D:00A0H         PUBLIC        P2
  D:00B0H         PUBLIC        P3
  D:00C0H         PUBLIC        P4
  D:00C8H         PUBLIC        P5
  D:00E8H         PUBLIC        P6
  D:00F8H         PUBLIC        P7
  D:00A8H         PUBLIC        IE
  D:00B8H         PUBLIC        IP
  D:00D8H         PUBLIC        CCON
  D:0098H         PUBLIC        SCON
  D:0088H         PUBLIC        TCON
  C:0187H         PUBLIC        _Latch
  D:00D0H         PUBLIC        PSW
  -------         PROC          _LATCH
  D:0007H         SYMBOL        Latch_Num
  C:0187H         LINE#         5
  C:0187H         LINE#         6
  C:0187H         LINE#         7
  C:0196H         LINE#         8
  C:0196H         LINE#         9
  C:019EH         LINE#         10
  C:01A6H         LINE#         11
  C:01AEH         LINE#         12
  C:01B9H         LINE#         13
  C:01B9H         LINE#         14
  -------         ENDPROC       _LATCH
  -------         ENDMOD        LATCH

  -------         MODULE        OUTPUT
  C:0000H         SYMBOL        _ICE_DUMMY_
  D:0080H         PUBLIC        P0
  D:0090H         PUBLIC        P1
  D:00A0H         PUBLIC        P2
  D:00B0H         PUBLIC        P3
  D:00C0H         PUBLIC        P4
  D:00C8H         PUBLIC        P5
  D:00E8H         PUBLIC        P6
  D:00F8H         PUBLIC        P7
  D:00A8H         PUBLIC        IE
  C:025DH         PUBLIC        _Output
  D:00B8H         PUBLIC        IP
  D:00D8H         PUBLIC        CCON
  D:0098H         PUBLIC        SCON
  D:0088H         PUBLIC        TCON
  D:00D0H         PUBLIC        PSW
  -------         PROC          _OUTPUT
  D:0007H         SYMBOL        p0
  D:0006H         SYMBOL        y
  C:025DH         LINE#         4
  C:025FH         LINE#         5
  C:025FH         LINE#         6
  C:0261H         LINE#         7
  -------         ENDPROC       _OUTPUT
  -------         ENDMOD        OUTPUT

BL51 BANKED LINKER/LOCATER V6.22.2.0                                                  01/23/2024  11:22:09  PAGE 5


  -------         MODULE        LED
  C:0000H         SYMBOL        _ICE_DUMMY_
  D:0080H         PUBLIC        P0
  D:0090H         PUBLIC        P1
  D:00A0H         PUBLIC        P2
  D:00B0H         PUBLIC        P3
  D:00C0H         PUBLIC        P4
  D:00C8H         PUBLIC        P5
  D:00E8H         PUBLIC        P6
  D:00F8H         PUBLIC        P7
  D:00A8H         PUBLIC        IE
  D:00B8H         PUBLIC        IP
  D:00D8H         PUBLIC        CCON
  D:0098H         PUBLIC        SCON
  D:0088H         PUBLIC        TCON
  C:01BAH         PUBLIC        _LED_Disp
  D:00D0H         PUBLIC        PSW
  -------         PROC          _LED_DISP
  D:0007H         SYMBOL        addr
  B:0020H.0       SYMBOL        enable
  -------         DO            
  D:001CH         SYMBOL        temp
  D:001DH         SYMBOL        temp_old
  -------         ENDDO         
  C:01BAH         LINE#         5
  C:01BAH         LINE#         6
  C:01BAH         LINE#         10
  C:01BDH         LINE#         11
  C:01CCH         LINE#         13
  C:01DAH         LINE#         15
  C:01E0H         LINE#         16
  C:01E0H         LINE#         17
  C:01E9H         LINE#         18
  C:01ECH         LINE#         19
  C:01ECH         LINE#         20
  -------         ENDPROC       _LED_DISP
  -------         ENDMOD        LED

  -------         MODULE        MAIN
  C:0000H         SYMBOL        _ICE_DUMMY_
  D:0080H         PUBLIC        P0
  D:0090H         PUBLIC        P1
  D:00A0H         PUBLIC        P2
  D:00B0H         PUBLIC        P3
  D:00C0H         PUBLIC        P4
  D:00C8H         PUBLIC        P5
  B:00A8H.7       PUBLIC        EA
  D:00E8H         PUBLIC        P6
  D:00F8H         PUBLIC        P7
  D:0021H         PUBLIC        Seg_Point
  D:00A8H         PUBLIC        IE
  C:024FH         PUBLIC        Seg_Proc
  D:00B8H         PUBLIC        IP
  C:009AH         PUBLIC        Timer0_Serve
  D:0029H         PUBLIC        Seg_Buf
  D:0031H         PUBLIC        Seg_Show_Down
  C:0209H         PUBLIC        Key_Proc
BL51 BANKED LINKER/LOCATER V6.22.2.0                                                  01/23/2024  11:22:09  PAGE 6


  D:0032H         PUBLIC        Seg_Poc
  D:00D8H         PUBLIC        CCON
  D:0033H         PUBLIC        Key_Down
  C:01EDH         PUBLIC        main
  D:0034H         PUBLIC        Key_Show_Down
  D:0035H         PUBLIC        Key_Old
  D:0036H         PUBLIC        Key_Val
  D:0037H         PUBLIC        Key_UP
  D:0098H         PUBLIC        SCON
  D:0089H         PUBLIC        TMOD
  D:0088H         PUBLIC        TCON
  D:0038H         PUBLIC        usLED
  D:008EH         PUBLIC        AUXR
  B:00A8H.1       PUBLIC        ET0
  B:0088H.5       PUBLIC        TF0
  C:023AH         PUBLIC        Timer0Init
  C:0003H         PUBLIC        LED_Proc
  D:008CH         PUBLIC        TH0
  D:008AH         PUBLIC        TL0
  B:0088H.4       PUBLIC        TR0
  D:00D0H         PUBLIC        PSW
  -------         PROC          KEY_PROC
  C:0209H         LINE#         19
  C:0209H         LINE#         20
  C:0209H         LINE#         21
  C:020DH         LINE#         22
  C:0210H         LINE#         24
  C:0215H         LINE#         25
  C:021DH         LINE#         26
  C:021FH         LINE#         27
  C:0222H         LINE#         29
  C:0222H         LINE#         30
  C:0222H         LINE#         33
  C:0222H         LINE#         34
  -------         ENDPROC       KEY_PROC
  -------         PROC          SEG_PROC
  C:024FH         LINE#         37
  C:024FH         LINE#         38
  C:024FH         LINE#         39
  C:0253H         LINE#         40
  C:0256H         LINE#         42
  C:0259H         LINE#         43
  C:025CH         LINE#         45
  -------         ENDPROC       SEG_PROC
  -------         PROC          LED_PROC
  C:0003H         LINE#         48
  C:0003H         LINE#         49
  C:0003H         LINE#         51
  -------         ENDPROC       LED_PROC
  -------         PROC          TIMER0INIT
  C:023AH         LINE#         54
  C:023AH         LINE#         55
  C:023AH         LINE#         56
  C:023DH         LINE#         57
  C:0240H         LINE#         58
  C:0243H         LINE#         59
  C:0246H         LINE#         60
BL51 BANKED LINKER/LOCATER V6.22.2.0                                                  01/23/2024  11:22:09  PAGE 7


  C:0248H         LINE#         61
  C:024AH         LINE#         62
  C:024CH         LINE#         63
  C:024EH         LINE#         64
  -------         ENDPROC       TIMER0INIT
  -------         PROC          TIMER0_SERVE
  C:009AH         LINE#         67
  C:00B7H         LINE#         69
  C:00C1H         LINE#         70
  C:00D0H         LINE#         71
  C:00DAH         LINE#         72
  C:00EDH         LINE#         73
  C:00FCH         LINE#         75
  -------         ENDPROC       TIMER0_SERVE
  -------         PROC          MAIN
  C:01EDH         LINE#         78
  C:01EDH         LINE#         79
  C:01EDH         LINE#         80
  C:01F4H         LINE#         81
  C:01FBH         LINE#         82
  C:01FEH         LINE#         84
  C:01FEH         LINE#         85
  C:01FEH         LINE#         86
  C:0201H         LINE#         87
  C:0204H         LINE#         88
  C:0207H         LINE#         89
  -------         ENDPROC       MAIN
  -------         ENDMOD        MAIN

Program Size: data=67.1 xdata=0 code=607
LINK/LOCATE RUN COMPLETE.  0 WARNING(S),  0 ERROR(S)
