C51 COMPILER V9.59.0.0   SEG                                                               01/23/2024 11:22:09 PAGE 1   


C51 COMPILER V9.59.0.0, COMPILATION OF MODULE SEG
OBJECT MODULE PLACED IN .\Objects\Seg.obj
COMPILER INVOKED BY: D:\keil 5\C51\BIN\C51.EXE ..\Drivers\Seg.c OPTIMIZE(8,SPEED) BROWSE INCDIR(..\Drivers;..\User) DEBU
                    -G OBJECTEXTEND PRINT(.\Listings\Seg.lst) OBJECT(.\Objects\Seg.obj)

line level    source

   1          #include "Seg.h"
   2          
   3          
   4                                    //  0    1      2      3     4     5     6     7    8     9    熄灭   杠
   5          unsigned char Seg_Dula[] = { 0xc0, 0xf9, 0xa4, 0xb0, 0x99, 0x92, 0x82, 0xf8, 0x80, 0x90, 0xFF, 0x88};
   6          
   7          unsigned char Seg_Wela[] = {0x01,0x02,0x04,0x08,0x10,0x20,0x40,0x80};
   8          
   9          
  10          void Seg_Disp(unsigned char Wela, Dula, Point)
  11          {
*** WARNING C235 IN LINE 11 OF ..\Drivers\Seg.c: parameter 2: different types
*** WARNING C235 IN LINE 11 OF ..\Drivers\Seg.c: parameter 3: different types
  12   1          Output(0xFF, 7);                   //消影
  13   1          
  14   1          Output(Seg_Wela[Wela], 6);         //显示位置
  15   1          
  16   1      //    Output(Seg_Dula[Dula], 7);         //显示数字
  17   1          
  18   1          P0 = Seg_Dula[Dula];             //显示数字和小数点
  19   1          if (Point)
  20   1              P0 &= 0x7f;
  21   1          Latch(7);
  22   1      }
  23          
  24          
  25          
  26          
  27          
  28          
  29          
  30          
  31          
  32          
  33          
  34          
  35          
  36          
  37          
  38          
  39          
  40          
  41          
  42          
  43          
  44          
  45          
  46          
  47          
  48          
  49          
  50          
  51          
  52          
C51 COMPILER V9.59.0.0   SEG                                                               01/23/2024 11:22:09 PAGE 2   



MODULE INFORMATION:   STATIC OVERLAYABLE
   CODE SIZE        =     51    ----
   CONSTANT SIZE    =   ----    ----
   XDATA SIZE       =   ----    ----
   PDATA SIZE       =   ----    ----
   DATA SIZE        =     20       5
   IDATA SIZE       =   ----    ----
   BIT SIZE         =   ----    ----
END OF MODULE INFORMATION.


C51 COMPILATION COMPLETE.  2 WARNING(S),  0 ERROR(S)
