:101037002020CAB1BCE43A2532642D2532642D251F
:10104700640D0A002020CEC2B6C83A252E3166B6F6
:10105700C80D0A002020B5E7D1B93A252E3266B768
:10106700FC0D0A002020C6B5C2CA3A252E306C6690
:10107700BAD5D7C80D0A002020BEE0C0EB3A2564D8
:10108700C0E5C3D70D0A0020204545524F520D0A2F
:081097000020204F4B0D0A0060
:10120F0008730A0A0A0A0A0A0A0A086B0000000091
:10121F000000000008810000000000000000037EB5
:10122F00173B37037B173B370122000123000124B3
:04123F000001250085
:100CDD00300A03020DF1D20A1215248F24E5246582
:100CED0025FF5524F522E524F45FF523852425E51C
:100CFD00256406702CE5267028D20CC3E52894F4E3
:100D0D00E5279401401D7B007A00797B12109F7BB3
:100D1D00007A00797B1211CEE4F527F528C20C80FC
:100D2D0002C20CE52224FB601314601C2402702CFB
:100D3D000526E52664057024F52680201526E52672
:100D4D00F470197526048014E5267010FB7A00796D
:100D5D007EF5547555037D10FC1212C0E522640713
:100D6D006003020DF1E52614602B14603C14604DF8
:100D7D001460622404706D7BFF7A107937787EE6FB
:100D8D00755200F55308E6755400F55508E675568D
:100D9D0000F557804C7BFF7A10794B854B55854A72
:100DAD005485495385485280387BFF7A10795B858D
:100DBD0047558546548545538544528024AC29AD0D
:100DCD002AE41201D18F558E548D538C527BFF7AAC
:100DDD0010796B800C7BFF7A10797E7552008541FE
:040DED00531206781F
:010DF10022DF
:100A8500300903020CDCD2097B007A00797E121151
:100A9500CE12132D8F4B8E4A8D498C487F431213EE
:100AA500FBAC07E41201D6E4FBFA794C784212015B
:100AB5002F8F478E468D458C441212858F41E52632
:100AC50014605F147003020B79147003020BF014A9
:100AD5007003020C8724046003020CDCE47870F6D2
:100AE50008F6787EE6FF75F00A847873F6EF75F000
:100AF5000A8408A6F008760B787FE6FF75F00A846D
:100B05007876F6EF75F00A8408A6F008760B7880FB
:100B1500E6FF75F00A847879F6EF75F00A8408A681
:100B2500F0227873760E754C01C3E54C94057480FC
:100B35009480500B7473254CF8760A054C80EAAF07
:100B45004BAE4AAD49AC4812020AEF75F00A8475FE
:100B5500F00A847878A6F0EF75F00A8408A6F07894
:100B6500717601E4FFFE7D207C41AB4BAA4AA94981
:100B7500A84880657873761278707601E408F67572
:100B85004C01C3E54C940574809480500B74732517
:100B95004CF8760A054C80EAAF47AE46AD45AC4405
:100BA50012020AEF75F00A847878A6F0E4FFFE7D5C
:100BB500207C41AB47AA46A945A84412002612024B
:100BC5000AEF75F00A847879A6F0E4FFFE7DC87C0B
:100BD50042AB47AA46A945A84412002612020A7C40
:100BE500007D0A12057D787AA60522E47870F678EC
:100BF5007376117875760A18760AAE29AF2A7C279E
:100C05007D1012057D7C007D0A12057D7876A6058E
:100C1500AE29AF2A7C037DE812057D7C007D0A1292
:100C2500057D7877A605AE29AF2A7C007D6412057F
:100C35007D7C007D0A12057D7878A605AE29AF2A50
:100C45007C007D0A12057D7C007D0A12057D787980
:100C5500A605AE29AF2A7C007D0A12057D787AA605
:100C650005754C03C3E54C940774809480506874F3
:100C750073254CF8E670607473254CF8760A054CBC
:100C850080E27877760A18760A18760A18760A18AE
:100C9500760FE54175F0648475F00A847878A6F0DE
:100CA500E54175F00A8475F00A8408A6F0E54175FA
:100CB500F00A8408A6F0754C05C3E54C94077480CA
:100CC500948050137473254CF8E6700B7473254C9F
:080CD500F8760A054C80E222CA
:10000300E4FFFE7D4C7C42AB47AA46A945A84412B7
:08001300002612020A02156723
:100FC200E54D6408706EE52B644C705CE52C64455D
:100FD2007056E52D64447050E52F6420704AE53068
:100FE200643D7044E5316420703EE52E24D0FFE478
:100FF20034FFFED3EF9407EE64809480502AE532EA
:1010020024D0FFE434FFFED3EF9401EE6480948099
:1010120040028014E53224D0FF7451252EF8A60731
:101022007BFF7A10799880067BFF7A10798E120600
:0510320078E4F54D22F9
:10159000538E7F5389F0438905E4F58AF58CC28D1B
:0315A000D28C22C8
:10155200538EBF53890F758B18758DFCC28FD28E37
:05156200D2ABD2AF2264
:03001B00020DF2E1
:100DF200C0E0C0F0C083C082C0D075D000C000C0C7
:100E020001C002C003C004C005C006C0070540E51A
:100E1200407002053FFFAE3FBE010BBF9008C20902
:100E2200753F00754000AE3FAF407C007D0A120561
:100E32007DED4C7002C20AE5405407FBFF2473F8B3
:100E4200E6FD7C00746B2BF8E6FB7A0012118DE54F
:100E5200405407FF2481F8E6FD7C0012124A054344
:100E6200E54370020542FFAE42BE0319BFE816AF6A
:100E72008CEFAD8AF529EDF52A758A00758C00751F
:100E82004200754300300C170528E528700205273B
:100E9200C394F4E527940140067527017528F5D01F
:100EA20007D006D005D004D003D002D001D000D0A4
:0A0EB200D0D082D083D0F0D0E0321F
:03002300021420A4
:10142000C0E0C0D075D000C000C00730980CAF4DF0
:10143000054D742B2FF8A699C298D007D000D0D0B4
:03144000D0E032C7
:100F480012148412132D12155212159012153B7B90
:100F5800007A00794E7554007555017D087C0012A1
:100F680010FCE54E64427012FB7A00797EF55475E8
:100F780055037D10FC1210FC8029754E427B007AC7
:100F880000794E7554007555017D087C001212C019
:100F98007B007A00797E7554007555037D107C00BE
:100FA8001212C07B007A00797E12109F120CDD129B
:0A0FB8000A85120003120FC280F236
:10148400E4F580E5A0541F44A0F5A053A01F758087
:0D149400FFE5A0541F4480F5A053A01F22C7
:10152400E4FF20B0027F0720B1027F0620B2027FD1
:061534000520B3027F0454
:01153A00228E
:1014BD00C0F9A4B0999282F88090FFBF8883C6A12D
:0B14CD00868E8C010204081020408075
:10118D007580FFE5A0541F44E0F5A053A01FEF901C
:10119D0014D093F580E5A0541F44C0F5A053A01FB3
:1011AD0074BD2DF58274143CF583E493F580EB4A00
:1011BD00600353807FE5A0541F44E0F5A053A01FAA
:0111CD0022FF
:061243000109000108FF93
:10124A00ED4C600FA8077401088002C333D8FC4232
:10125A0009800EA8077401088002C333D8FCF4522F
:10126A0009E50965086013E509F4F580E5A0541F4E
:0B127A004480F5A053A01F8509082246
:1014A100E4FEEEC3940874809480500FC297EF134A
:0B14B10092A3EFC313FFD2970E80E759
:0114BC00220D
:10157C00C29300C29700D293001214A1AF051214AB
:04158C00A1C2932243
:0A114600E55225E0FFC374859FFF0A
:10115000E4FDC29300C29700D293001214A1E4FFF1
:10116000EFC39408748094805011C297EDC313FDAF
:1011700030A303430580D2970F80E5C29300C29746
:0C11800000D29700C2A300D2A300AF056C
:01118C002240
:06109F008B4F8A508951BD
:1010A500E4FCFD7F8E12157CECC394037480948060
:1010B500503EAB4FAA50A951120525FF75F00A8481
:1010C500C454F0FEEF75F00A84E5F04E12056BECA2
:1010D50025E0FFC374849FFFAB4F0551E551AA502E
:1010E5007002055014F9120525FD12157C0C80B807
:0710F5007D807F8E02157C57
:0611CE008B4F8A5089518D
:1011D400E4F552F552C3E552940374809480502A86
:1011E400121146EFC4540F75F00AA4FC121146EF15
:1011F400540F2CFFAB4F0551E551AA507002055016
:0A12040014F9EF12056B055280CBC0
:01120E0022BD
:0414D800D2A07F051A
:1014DC00000000000000000000000000000000AE52
:0614EC00071FEE70EB2269
:0F15A300D2A11214D8C2A17F051214DCC2A0225B
:0C15B200C2A11214D8D2A17F050214DCE3
:0212F800AD0740
:1012FA00E4FCECC39408748094805024C2A07F0557
:10130A001214DCED30E704D2A18002C2A17F0512DB
:10131A0014DCD2A0ED25E0FD7F051214DC0C80D28E
:02132A00C2A05F
:01132C00229E
:1013AF00E4FCECC394087480948050171214D8EDA9
:1013BF0025E0FD30A103430501C2A07F051214DC17
:0513CF000C80DFAF05FA
:0113D40022F6
:1013D500AB05AA041215A37FA01212F81213E9AFE8
:0413E500031212F8E5
:1013E9001214D8A2A1E433FDC2A07F051214DCAF08
:0113F90005EE
:0113FA0022D0
:10150C00C2A0EF24FF92A17F051214DC1214D8C2E2
:08151C00A0D2A17F050214DC3E
:0213FB00AB073E
:1013FD001215A37F901213DE1215A37F911212F80E
:10140D001213E91213AFAD077F0112150C1215B2AD
:02141D00AF0519
:01141F0022AA
:10156700AB071215A37F901212F81213E97F4112ED
:0515770013DE0215B2B5
:1012C0008B4F8A5089511213D5E5551555AE547080
:1012D0000215544E601FAB4F0551E551AA507002E4
:1012E000055014F9120525FF1212F81213E97FC8F0
:0812F0001214DC80D40215B2D7
:1010FC008B4F8A5089511213D51215A37FA112124E
:10110C00F81213E9E5551555AE54700215544E609E
:10111C00261213AFAB4F0551E551AA507002055082
:10112C0014F9EF12056BE55545546004E4FF800299
:0A113C007F0112150C80CD0215B2E0
:041466007F057E0080
:10146A00EF1FAA0670011E4A600FE4FDEDC3940C3B
:09147A007480948050EA0D80F3A7
:011483002246
:02136100A907DA
:10136300E4FBEBC39408748094805012C294E91395
:101373009294121466D294E9C313F90B80E47F05A7
:051383007E0002146A67
:10144300E4FBEBC39408748094805014C294ECC3FF
:1014530013FCD2943094034304801214660B80E28D
:02146300AF04D4
:011465002264
:10138800C200D2947F0C7E0012146AC2947F507EF1
:101398000012146AD2947F0A7E0012146AA29492F0
:0613A80000121466A20011
:0113AE00221C
:10132D001213887FCC1213617F441213611213883C
:10133D007FCC1213617FBE121361121443A90712E1
:10134D001443EFAD01FCEC1201D1E4FBFA79807886
:04135D004102012F19
:0615C60000007F21DFFEA2
:0115CC0022FC
:1014F200E4FEEEC3940874809480500DD2901215CD
:09150200C6C2901215C60E80E964
:01150B0022BD
:10128500E4FDFCF5D9F5E9F5F91214F2D2DE309159
:101295000330DFFAC2DE30DF05C2DF7F0022AFF99F
:1012A500EFADE9FCEDAE04FFE41201D17B967A4384
:0A12B500798B783C12002612020A21
:0112BF00220C
:10153B00759850438E01538EFB75D7E675D6FF43D6
:07154B008E10D2ACD2AF22DA
:0815BE008F993099FDC29922BA
:10002600EC4D6011E8497017ED33EC3304600DE4D4
:10003600FCFFFEFD22E933E8330470F80202761273
:10004600024158046009E4CC248150062850090274
:10005600028028400302027DC0E0EB4A7044B9806A
:1000660006D0E0FB02026CEF4E701CBD8008EBFF71
:10007600EAFEE9FD80EBE98DF0A4FEE5F002010F52
:10008600E9CDF9EAFEEBFFEF89F0A4FCE5F0CE89B5
:10009600F0A42EFFE435F0CD89F0A42DFEE435F072
:1000A6008067EF4E7005BD80D780C3EF8BF0A4ACA0
:1000B600F0EE8BF0A42CFCE435F0F8EF8AF0A42CDB
:1000C600E5F038FCE433CB8DF0A42CFCE5F03BF8EE
:1000D600EE8AF0A42CFCE5F038F8E433CF89F0A4DE
:1000E6002CFCE5F038CF3400CE89F0A42FFFE5F0E4
:1000F6003EFEE433C98DF0A42EFEE5F039CD8AF03C
:10010600A42FFFE5F03EFEE43DFD33D0E0FB5007B3
:100116000BBB000F020280EC2CFCEF33FFEE33FE2C
:06012600ED33FD0202585A
:10012C00020280EC5D046005E8590470030202765B
:10013C00120241580460F6EC4860F2EC7004FDFECB
:10014C00FF22C860DB2481C85009C39860025006A6
:10015C0002027D9850CAF582E9294B4A7005AB82A0
:10016C0002026C75F0007C1A7880C3EF9BEE9AED5E
:10017C0099400DC3EF9BFFEE9AFEED99FDE842F01E
:10018C00DC23ACF0D0E0FFD0E0FED0E0FDAB822071
:10019C00E7101BEB60BAEC2CFCEF33FFEE33FEEDFB
:1001AC0033FD020258E803F830E705C0F075F000A3
:1001BC00EF2FFFEE33FEED33FD40B830E7C280AADF
:1001CC0075F020800E75F010800575F0087D007EAE
:1001DC00007F003392D530D5031205D2EC3340109A
:1001EC00EF33FFEE33FEED33FDEC33FCD5F0ED22B7
:0E01FC00E5F0247EA2D513CC92E7CDCEFF22F3
:10020A00EDD2E7CD33EC3392D524814006E4FFFEEC
:10021A00FDFC22FCE4CFCECDCC24E0501174FF804B
:10022A00EDC3CC13CCCD13CDCE13CECF13CF0470E8
:07023A00F030D5DE0205D211
:10061600E5662452F8E6056622784F3007027852DE
:10062600E475F0011205E00205252000EB7F2ED2CD
:10063600008018EF540F2490D43440D4FF30040BBC
:10064600EF24BFB41A0050032461FFE5676002156A
:1006560067056AE56A7002056930070D784FE4752B
:10066600F0011205E0EF02056B0215BE7403D20716
:100676008003E4C207F5668B4F8A508951E4F5671B
:10068600F569F56AE56760077F2012065180F57502
:1006960068FFC201C200C202C203C205C206C20886
:1006A60012061FFF700D3007057F00120662AF6A43
:1006B600AE6922B4255FC2D5C20412061FFF24D03C
:1006C600B40A00501A75F00A786730D50508B6FFE7
:1006D6000106C6A426F620D5047002D20380D924CA
:1006E600CFB41A00EF5004C2E5D20402094FD2017A
:1006F60080C6D20080C0D20280BCD2D580BAD205D4
:1007060080B47F201206512002077401B5670040AD
:10071600F1120616FF12065102068AD208D2068088
:1007260095120616FB120616FA120616F94A4B70B1
:100736000679467A0A7BFF20022EE567602A7E004C
:100746008E8275830012053E60060EEE656870F0B7
:10075600C2D5EBC0E0EAC0E0E9C0E0EE1209AFD0D6
:10076600E0F9D0E0FAD0E0FB120525FF60AAEBC065
:10077600E0EAC0E0E9C0E0120651D0E02401F9D079
:10078600E03400FAD0E0FBE5680460DCD568D98087
:1007960087D20280A212099260F7E56870010412FE
:1007A600028BA968600DE568600914F568120A39BC
:1007B600EF60F3EA30E702F404C3995077EAF425D0
:1007C600680430E701E404F568800D12099260C1FF
:1007D600EA0568256812028BEA7865F630E701E4D7
:1007E600256804D56804200501141209AFE4C0E0A9
:1007F600120A397865E6601320E70714F6120639FF
:10080600802204F6D0E014C0E07F00120639E568C5
:1008160060071206301568800B300503120630D0CB
:10082600E002068AD0E00480C512099260A0E5685D
:100836000412028B7865EAF6E56820050260010479
:0508460024041209AFBB
:10084B0074FF04C0E0120A39120639E5682005026C
:10085B006003120630D0E0B568E87F451206437896
:10086B0065E67F2B30E7047F2DF404C0E0120651C0
:10087B00D0E075F00A84C0F012063AD0E012063AC6
:10088B0002068A791080027908C206C2088008D253
:10089B00D5790A8004790AC2D5E568047002F56837
:1008AB00E4FAFDFEFF120616FC7B0820011312066C
:1008BB0016FD7B1030000A120616FE120616FF7B81
:1008CB0020EC3382D592D55013C3E43000069FFF42
:1008DB00E49EFEE42001039DFDE49CFCE4CBF8C206
:1008EB0001EC700CCFCECDCCE824F8F870F3801768
:1008FB00C3EF33FFEE33FEED33FDEC33FCEB33FB99
:10090B00994002FB0FD8E9EB300105F8D0E0C44861
:10091B00B201C0E00AEC4D4E4F78207B0070C2EA6A
:10092B00B5680040BCC0E01209B1D0F0D0E02001A6
:10093B0004C4C0E0C4B201C0F012063AD0F0D5F046
:10094B00EB02068A1205F0072753088E5806F84C5F
:10095B0006F44208924F089A44089A49070D430837
:10096B00A05507D146082F45079B470A665006FC42
:10097B002D07002E07232B0704230721200A4F2ABC
:10098B0006BC480000071BE568B4FF037568061238
:10099B000616FC120616FD120616FE120616FF7838
:1009AB005E0202BA790AA2D5200314300509B910E8
:1009BB00020404B9080104A2D52006025001042048
:1009CB0002689202B567005034C0E07F20300319F3
:1009DB007F30A20272067205500F120A08C202C2C1
:1009EB0006C205C2087F30800F300503E9C0E01254
:1009FB000651300503D0E0F9D0E0B567CC300517D0
:100A0B007F30B9100C1206517F583004077F788065
:100A1B0003B908031206513002057F2D0206517FE0
:100A2B00202008F87F2B2006F322920280CF7F0034
:100A3B00B407005005245EF8E6FF22286E756C6C37
:100A4B002900D2011206163001F8C201786730D5A1
:100A5B000108F60206BC2D50434958120616240312
:100A6B00B405004001E4900A6193120642743A12F5
:0A0A7B000642D20375670402088EDC
:10024100E9D2E7C933E833F892D5EDD2E7CD33EC03
:0702510033FC5002B2D5227C
:10025800EC30E7100FBF000C0EBE00080DBD000407
:100268000BEB6014A2D5EB13FCED92E7FD2274FFB3
:10027800FCFDFEFF22E480F8A2D574FF13FC7D800C
:03028800E480EF20
:10028B00F920E72824F950037907E4F42402FB183A
:10029B00DBFDE624FB5014E9600DE4F618E604F6EA
:0F02AB00B40A08E4F6D9F57401F60A22C2D52286
:1002BA00ED33EC3392D5FA602AB4FF33EDC2E77B13
:1002CA00FF60067A0279DFE4227A0279E820D5040F
:1002DA007A0279E3224E614E002B494E46002D499F
:1002EA004E4600E47A08F608DAFC7B00740722E836
:1002FA00C0E0ECC0E0EDC0E0EEC0E0EFC0E0EA75BF
:10030A00F010A4CAABF075F04DA42BFBE435F0FC59
:10031A00EA2410FAEB34C5FBEC34D9FCEDC2E7FF52
:10032A0075F056A4F42411C5F0F434C58FF0A42A4C
:10033A00E5F03BE43CF620E7141204E5D0E0FFD0F8
:10034A00E0FED0E0FDD0E0FC12012F8014F404128C
:10035A0004E5D0E0FFD0E0FED0E0FDD0E0FC1200E2
:10036A0026D0E0F8E6FAEDD2E7CD33EC332482FB6F
:10037A00E4C3CF33CFCE33CECD33CD33DBF37B07DC
:10038A0075F00A846004F6081B0AE5F0F6088FF097
:10039A00740AA4FFACF08EF0740AA42CFEACF050E0
:1003AA00010C8DF0740AA42CFDE435F0F608DBDEAE
:0303BA00740722A3
:1003BD00020276E86480F8E933E83360110460F0F6
:1003CD00ED33EC337009E8FCE9FDEAFEEBFF2204A6
:1003DD0060DED3EB9FEA9EE99DE8C2E78CF0C2F7A1
:1003ED0095F0400CE8CCF8E9CDF9EACEFAEBCFFB6D
:1003FD0012024185D0F05804700320D5B3E8047083
:10040D00075002B2D502028092D5EC0460F7E4CC1D
:10041D00C0E0C398F8603B94186008400DD0E0FB35
:10042D00020258E4FBFAC9FC8028E830E406E4C96E
:10043D00FBE4CAFCE830E305E4C9CACBFCE8540789
:10044D006010F8C3E913F9EA13FAEB13FBEC13FC94
:10045D00D8F130F52FC3E49CFCEF9BFFEE9AFEED37
:10046D0099FDD0E0FBEF4E4D4C701222DB030202E2
:10047D007DEC2CFCEF33FFEE33FEED33FDED30E77D
:10048D00EB020258EF2BFFEE3AFEED39FDD0E0FB0B
:10049D0050130BBB0003020280ED13FDEE13FEEFB4
:0804AD0013FFEC13FC020258DE
:1004B5003F8000004120000042C80000447A00004F
:1004C500461C400047C35000497424004B189680D1
:1004D5004CBEBC205A0E1BCA6753C21C749DC5AEC8
:1004E500FB60065407601C2323120513EB54386088
:1004F500091204FF12050E120026ECF8EDF9EEFACA
:10050500EFCB22EB12050E80F1543803241C900426
:10051500B5FE93FC0EEE93FD0EEE930ECE93FF22E9
:03000000020EBC31
:0C0EBC00787FE4F6D8FD758188020F03F2
:10052500BB010689828A83E0225002E722BBFE02D4
:09053500E32289828A83E4932207
:10053E00BB010CE58229F582E5833AF583E0225072
:10054E0006E92582F8E622BBFE06E92582F8E222BC
:0D055E00E58229F582E5833AF583E49322D6
:10056B00BB010689828A83F0225002F722BBFE016F
:02057B00F32269
:10057D00BC000BBE0029EF8DF084FFADF022E4CC62
:10058D00F875F008EF2FFFEE33FEEC33FCEE9DEC2B
:10059D00984005FCEE9DFE0FD5F0E9E4CEFD22ED71
:1005AD00F8F5F0EE8420D21CFEADF075F008EF2FBB
:1005BD00FFED33FD4007985006D5F0F222C398FDAC
:0505CD000FD5F0EA2249
:0E05D200C3E49FFFE49EFEE49DFDE49CFC223A
:1005E000FAE6FB0808E6F925F0F618E6CA3AF6221C
:1005F000D083D082F8E4937012740193700DA3A39A
:1006000093F8740193F5828883E4737402936860AD
:06061000EFA3A3A380DFAD
:100EC800020F48E493A3F8E493A34003F68001F2E9
:100ED80008DFF48029E493A3F85407240CC8C3332B
:100EE800C4540F4420C8834004F456800146F6DFFA
:100EF800E4800B010204081020408090120FE47E69
:100F0800019360BCA3FF543F30E509541FFEE493EE
:100F1800A360010ECF54C025E060A840B8E493A3B5
:100F2800FAE493A3F8E493A3C8C582C8CAC583CAE0
:100F3800F0A3C8C582C8CAC583CADFE9DEE780BE98
:0112490000A4
:00000001FF
