:10035E00082D0A0A0A0A0A0A0A0A082500000000DD
:10036E0000000000013703043881422418013C03C9
:0C037E00012100012200012300012400E5
:10047C00200119D2011201968F23E5236524FF5523
:0C048C0023F521E523F45FF522852324ED
:010498002241
:1003910020002CD2007F431204578F3DE53D75F0BC
:1003A100648475F00A8485F02DE53D75F00A847545
:1003B100F00A8485F02EE53D75F00A8485F02F2240
:10020900200259D202E53714601B146029146037A3
:10021900240370487F01AE3E053EA806EF08800121
:1002290023D8FD800D7F01053EA83EEF088001031C
:10023900D8FDFF02053BAF3E053E74382FF8E6FFB7
:1002490012053B533E0322AF3C153C74382FF8E6A8
:0D025900FF12053BE53CF47003753C0322E9
:10050100538E7F5389F0758A18758CFCC28DD28CFD
:05051100D2A9D2AF22C7
:03000B0002011AD5
:10011A00C0E0C0F0C083C082C0D075D000C000C0AB
:10012A0001C002C003C004C005C006C0070536E509
:10013A003670020535FFAE35BE010DBF900AC20208
:10014A00C200753500753600AE35AF367C007D0AC3
:10015A001200C5ED4C7002C201E5365407FBFF24BC
:10016A002DF8E6FD7C0074252BF8E6FB7A001202D6
:10017A00B0D007D006D005D004D003D002D001D029
:0C018A0000D0D0D082D083D0F0D0E03282
:10051600EF4E600F7D0C7CA9DCFEDDFCEF1F70F05A
:030526001E80ED47
:0105290022AF
:10052A0012049912050112047C1203911202098025
:01053A00F5CB
:10049900E4F580E5A0541F44A0F5A053A01F758082
:0D04A900FFE5A0541F4480F5A053A01F22C2
:10019600E4FFC2B4D2B5D2C2D2C420B0027F1320CB
:1001A600B1027F1220B2027F1120B3027F10D2B4B7
:1001B600C2B5D2C2D2C420B0027F0F20B1027F0ED8
:1001C60020B2027F0D20B3027F0CD2B4D2B5C2C2D8
:1001D600D2C420B0027F0B20B1027F0A20B2027F78
:1001E6000920B3027F08D2B4D2B5D2C2C2C420B0AD
:1001F600027F0720B1027F0620B2027F0520B302EC
:020206007F0473
:0102080022D3
:1004D000C0F9A4B0999282F88090FF8883C6A18663
:0904E0008E010204081020408086
:1002B0007580FFE5A0541F44E0F5A053A01FEF9008
:1002C00004E193F580E5A0541F44C0F5A053A01F9E
:1002D00074D02DF58274043CF583E493F580EB4AE9
:1002E000600353807FE5A0541F44E0F5A053A01F96
:0102F00022EB
:06038A000117000116FF3F
:10053B00EFF4F580E5A0541F4480F5A053A01F22D3
:10040D00EF600543174080035317BFE5176516606E
:10041D0013E517F4F580E5A0541F44A0F5A053A0F3
:05042D001F85171622D7
:10043200EF600543171080035317EFE51765166049
:1004420013E517F4F580E5A0541F44A0F5A053A0CE
:050452001F85171622B2
:0404B600D2A07F054C
:1004BA00000000000000000000000000000000AE84
:0604CA00071FEE70EB229B
:0F054B00D2A11204B6C2A17F051204BAC2A02227
:0C055A00C2A11204B6D2A17F050204BAAF
:02032900AD071E
:10032B00E4FCECC39408748094805024C2A07F0535
:10033B001204BAED30E704D2A18002C2A17F0512EC
:10034B0004BAD2A0ED25E0FD7F051204BA0C80D2D1
:02035B00C2A03E
:01035D00227D
:1003C100E4FCECC394087480948050171204B6EDD9
:1003D10025E0FD30A103430501C2A07F051204BA47
:0503E1000C80DFAF05F8
:0103E60022F4
:1003E700AB05AA0412054B7FA01203291203FBAF2A
:0403F70003120329C1
:1003FB001204B6A2A1E433FDC2A07F051204BAAF6A
:01040B0005EB
:01040C0022CD
:1004E900C2A0EF24FF92A17F051204BA1204B6C27A
:0804F900A0D2A17F050204BAA4
:02045700AB07F1
:1004590012054B7F901203F012054B7F911203296D
:100469001203FB1203C1AD077F011204E912055AF9
:02047900AF05CD
:01047B00225E
:1002F1008B088A09890A1203E7E50E150EAE0D7007
:1003010002150D4E601FAB08050AE50AAA09700225
:10031100050914F912009AFF1203291203FB7FC881
:080321001204BA80D402055A4F
:100266008B0F8A1089111203E712054B7FA1120327
:10027600291203FBE5151515AE14700215144E6010
:10028600261203C1AB0F0511E511AA107002051065
:1002960014F9EF1200B3E51545146004E4FF80027B
:0A02A6007F011204E980CD02055A21
:0300000002000EED
:0C000E00787FE4F6D8FD75813E020055B5
:10009A00BB010689828A83E0225002E722BBFE0264
:0900AA00E32289828A83E4932297
:1000B300BB010689828A83F0225002F722BBFE012C
:0200C300F32226
:1000C500BC000BBE0029EF8DF084FFADF022E4CC1F
:1000D500F875F008EF2FFFEE33FEEC33FCEE9DECE8
:1000E500984005FCEE9DFE0FD5F0E9E4CEFD22ED2E
:1000F500F8F5F0EE8420D21CFEADF075F008EF2F78
:10010500FFED33FD4007985006D5F0F222C398FD68
:050115000FD5F0EA2205
:10001A0002052AE493A3F8E493A34003F68001F2CD
:10002A0008DFF48029E493A3F85407240CC8C333E7
:10003A00C4540F4420C8834004F456800146F6DFB6
:10004A00E4800B010204081020408090035EE47EE5
:10005A00019360BCA3FF543F30E509541FFEE493AB
:10006A00A360010ECF54C025E060A840B8E493A372
:10007A00FAE493A3F8E493A3C8C582C8CAC583CA9D
:10008A00F0A3C8C582C8CAC583CADFE9DEE780BE55
:01039000006C
:00000001FF
