C51 COMPILER V9.59.0.0   LED                                                               01/29/2024 15:25:17 PAGE 1   


C51 COMPILER V9.59.0.0, COMPILATION OF MODULE LED
OBJECT MODULE PLACED IN .\Objects\LED.obj
COMPILER INVOKED BY: D:\keil 5\C51\BIN\C51.EXE ..\Drivers\LED.c OPTIMIZE(8,SPEED) BROWSE INCDIR(..\Drivers;..\User) DEBU
                    -G OBJECTEXTEND PRINT(.\Listings\LED.lst) OBJECT(.\Objects\LED.obj)

line level    source

   1          #include <STC15F2K60S2.H>
   2          #include "LED.h"
   3          
   4          
   5          
   6          
   7          void LED_Disp(unsigned char addr, bit enable)
   8          {
   9   1          static unsigned char temp = 0x00;
  10   1          static unsigned char temp_old = 0xff;
  11   1          
  12   1          if (enable)
  13   1              temp |= 0x01 << addr;
  14   1          else
  15   1              temp &= ~(0x01 << addr);
  16   1          
  17   1          if (temp != temp_old)
  18   1          {
  19   2              P0 = ~temp;
  20   2              P2 = P2 & 0x1f | 0x80;
  21   2              P2 &= 0x1f;
  22   2              temp_old = temp;
  23   2          }
  24   1      }
  25          
  26          
  27          void Beep(unsigned char flag)
  28          {
  29   1          static unsigned char temp = 0x00;
  30   1          static unsigned char temp_old = 0xff;
  31   1          
  32   1          if (flag)
  33   1              temp |= 0x40;
  34   1          else
  35   1              temp &= ~0x40;
  36   1          
  37   1          if (temp != temp_old)
  38   1          {
  39   2              P0 = ~temp;
  40   2              P2 = P2 & 0x1f | 0xa0;
  41   2              P2 &= 0x1f;
  42   2              temp_old = temp;
  43   2          }
  44   1      }
  45          
  46          
  47          void Relay(unsigned char flag)
  48          {
  49   1          static unsigned char temp = 0x00;
  50   1          static unsigned char temp_old = 0xff;
  51   1          
  52   1          if (flag)
  53   1              temp |= 0x10;
  54   1          else
C51 COMPILER V9.59.0.0   LED                                                               01/29/2024 15:25:17 PAGE 2   

  55   1              temp &= ~0x10;
  56   1          
  57   1          if (temp != temp_old)
  58   1          {
  59   2              P0 = ~temp;
  60   2              P2 = P2 & 0x1f | 0xa0;
  61   2              P2 &= 0x1f;
  62   2              temp_old = temp;
  63   2          }
  64   1      }
  65          
  66          
  67          
  68          
  69          
  70          
  71          
  72          
  73          
  74          
  75          
  76          


MODULE INFORMATION:   STATIC OVERLAYABLE
   CODE SIZE        =    132    ----
   CONSTANT SIZE    =   ----    ----
   XDATA SIZE       =   ----    ----
   PDATA SIZE       =   ----    ----
   DATA SIZE        =      6    ----
   IDATA SIZE       =   ----    ----
   BIT SIZE         =   ----       1
END OF MODULE INFORMATION.


C51 COMPILATION COMPLETE.  0 WARNING(S),  0 ERROR(S)
