C51 COMPILER V9.59.0.0   MAIN                                                              01/29/2024 15:31:30 PAGE 1   


C51 COMPILER V9.59.0.0, COMPILATION OF MODULE MAIN
OBJECT MODULE PLACED IN .\Objects\main.obj
COMPILER INVOKED BY: D:\keil 5\C51\BIN\C51.EXE main.c OPTIMIZE(8,SPEED) BROWSE INCDIR(..\Drivers;..\User) DEBUG OBJECTEX
                    -TEND PRINT(.\Listings\main.lst) OBJECT(.\Objects\main.obj)

line level    source

   1          /* 头文件声明区 */
   2          #include <STC15F2K60S2.H>
   3          #include "Init.h"
   4          #include "Key.h"
   5          #include "Seg.h"
   6          #include "LED.h"
   7          #include "iic.h"
   8          
   9          /* 变量创建区 */
  10          //模版变量
  11          unsigned int Slow_Down;         //减速扫描专用
  12          unsigned char Key_Slow_Flag;    //按键减速标志位
  13          unsigned char Seg_Slow_Flag;    //数码管减速标志位
  14          unsigned char Key_UP, Key_Down; //捕获按键上升下降沿专用
  15          unsigned char Seg_Buf[8] = {10, 10, 10, 10, 10, 10, 10, 10};    //数码管显示缓冲区
  16          unsigned char Seg_Point[8] = {0, 0, 0, 0, 0, 0, 0, 0};          //数码管小数点显示缓冲区
  17          unsigned char usLED[8] = {0, 0, 0, 0, 0, 0, 0, 0};              //LED显示缓冲区
  18          //题目变量
  19          unsigned char dat[2] = {30, 20};
  20          
  21          /* 按键处理函数 */
  22          void Key_Proc()
  23          {
  24   1          static unsigned char Key_Val = 0, Key_Old = 0;//按键捕获键码专用
  25   1          
  26   1          if (Key_Slow_Flag) return;              //按键减速
  27   1          Key_Slow_Flag = 1;
  28   1          
  29   1          Key_Val = Key_Read();                   //获取键码
  30   1          Key_UP = ~Key_Val & (Key_Val ^ Key_Old);//捕获上升沿
  31   1          Key_Old = Key_Val;                      //辅助扫描
  32   1          
  33   1          switch (Key_UP)
  34   1          {
  35   2              case 4: dat[0]++; break;
  36   2              case 5: dat[1]++; break;
  37   2              case 6: EEPROM_Write(dat, 0, 2); break;
  38   2              case 7: EEPROM_Read(dat, 0, 2); break;
  39   2          }
  40   1      }
  41          
  42          /* 数码管处理函数 */
  43          void Seg_Proc()
  44          {
  45   1          if (Seg_Slow_Flag) return;              //按键减速
  46   1          Seg_Slow_Flag = 1;
  47   1          
  48   1          Seg_Buf[0] = dat[0] / 10; //十位
  49   1          Seg_Buf[1] = dat[0] % 10; //个位
  50   1          
  51   1          Seg_Buf[6] = dat[1] / 10; //十位
  52   1          Seg_Buf[7] = dat[1] % 10; //个位
  53   1      }
  54          
C51 COMPILER V9.59.0.0   MAIN                                                              01/29/2024 15:31:30 PAGE 2   

  55          /* LED处理函数 */
  56          void LED_Proc()
  57          {
  58   1          
  59   1      }
  60          
  61          /* 中断初始化函数 */
  62          void Timer0_Init(void)          //1毫秒@12.000MHz
  63          {
  64   1          AUXR &= 0x7F;                       //定时器时钟12T模式
  65   1          TMOD &= 0xF0;                       //设置定时器模式
  66   1          TL0 = 0x18;                         //设置定时初始值
  67   1          TH0 = 0xFC;                         //设置定时初始值
  68   1          TF0 = 0;                            //清除TF0标志
  69   1          TR0 = 1;                            //定时器0开始计时
  70   1          ET0 = 1;
  71   1          EA  = 1;
  72   1      }
  73          
  74          /* 中断服务函数 */
  75          void Timer0_Serve() interrupt 1
  76          {
  77   1          if (++Slow_Down == 400) Slow_Down = Seg_Slow_Flag = 0;
  78   1          if (Slow_Down % 10 == 0) Key_Slow_Flag = 0;
  79   1          Seg_Disp(Slow_Down%8, Seg_Buf[Slow_Down%8], Seg_Point[Slow_Down%8]);//数码管扫描显示
  80   1          LED_Disp(Slow_Down%8, usLED[Slow_Down%8]);                          //LED扫描显示
  81   1      }
  82          
  83          /* 主函数 */
  84          void main()
  85          {
  86   1          Timer0_Init();
  87   1          System_Init();
  88   1      //    EEPROM_Read(dat, 0, 2);
  89   1          while (1)
  90   1          {
  91   2              Key_Proc();
  92   2              Seg_Proc();
  93   2              LED_Proc();
  94   2          }
  95   1      }


MODULE INFORMATION:   STATIC OVERLAYABLE
   CODE SIZE        =    302    ----
   CONSTANT SIZE    =   ----    ----
   XDATA SIZE       =   ----    ----
   PDATA SIZE       =   ----    ----
   DATA SIZE        =     34    ----
   IDATA SIZE       =   ----    ----
   BIT SIZE         =   ----    ----
END OF MODULE INFORMATION.


C51 COMPILATION COMPLETE.  0 WARNING(S),  0 ERROR(S)
