C51 COMPILER V9.59.0.0   MAIN                                                              02/27/2024 14:14:57 PAGE 1   


C51 COMPILER V9.59.0.0, COMPILATION OF MODULE MAIN
OBJECT MODULE PLACED IN .\Objects\main.obj
COMPILER INVOKED BY: D:\keil 5\C51\BIN\C51.EXE main.c OPTIMIZE(8,SPEED) BROWSE INCDIR(..\User;..\Drivers) DEBUG OBJECTEX
                    -TEND PRINT(.\Listings\main.lst) OBJECT(.\Objects\main.obj)

line level    source

   1          /* 头文件声明区 */
   2          #include <STC15F2K60S2.H>
   3          #include "Init.h"
   4          #include "Key.h"
   5          #include "Seg.h"
   6          #include "LED.h"
   7          
   8          /* 基础变量创建区 */
   9          unsigned int Slow_Down;                                                 //减速扫描专用
  10          bit Key_Slow_Flag, Seg_Slow_Flag;                                       //按键数码管减速标志位
  11          unsigned char Seg_Buf[8] = {10, 10, 10, 10, 10, 10, 10, 10};            //数码管显示缓冲区
  12          unsigned char Seg_Point[8] = {0, 0, 0, 0, 0, 0, 0, 0};                  //数码管小数点显示缓冲区
  13          unsigned char LED_Buf[8] = {0, 0, 0, 0, 0, 0, 0, 0};                    //LED显示缓冲区
  14          
  15          /* 变量创建区 */
  16          
  17          
  18          /* 按键处理函数 */
  19          void Key_Proc()
  20          {
  21   1          static unsigned char Key_Down = 0, Key_UP = 0;  //变量
  22   1          static unsigned char Key_New = 0, Key_Old = 0;  //创建
  23   1      
  24   1          if (Key_Slow_Flag) return;
  25   1          Key_Slow_Flag = 1;                              //减速
  26   1          
  27   1          Key_New = Key_Read();                           //获取键码
  28   1          Key_Down = Key_New & ( Key_New ^ Key_Old);      //捕获下降沿
  29   1          Key_UP = ~Key_New & ( Key_New ^ Key_Old);       //捕获上升沿
  30   1          Key_Old = Key_New;                              //辅助扫描
  31   1          
  32   1      }
  33          
  34          /* 信息处理函数 */
  35          void Infor_Proc()
  36          {
  37   1          if (Seg_Slow_Flag) return;
  38   1          Seg_Slow_Flag = 1;                              //减速
  39   1          
  40   1      }
  41          
  42          /* 其他处理函数 */
  43          void Other_Proc()
  44          {
  45   1          
  46   1      }
  47          
  48          /* 定时器初始化函数 */
  49          void Timer0_Init(void)          //1毫秒@12.000MHz
  50          {
  51   1          AUXR &= 0x7F;                       //定时器时钟12T模式
  52   1          TMOD &= 0xF0;                       //设置定时器模式
  53   1          TL0 = 0x18;                         //设置定时初始值
  54   1          TH0 = 0xFC;                         //设置定时初始值
C51 COMPILER V9.59.0.0   MAIN                                                              02/27/2024 14:14:57 PAGE 2   

  55   1          TF0 = 0;                            //清除TF0标志
  56   1          TR0 = 1;                            //定时器0开始计时
  57   1          ET0 = 1;
  58   1          EA  = 1;
  59   1      }
  60          
  61          /* 定时器中断服务函数 */
  62          void Timer0_Serve() interrupt 1
  63          {
  64   1          if (++Slow_Down == 400) Slow_Down = Seg_Slow_Flag = 0;
  65   1          if (Slow_Down % 10 == 0) Key_Slow_Flag = 0;
  66   1          Seg_Show(Slow_Down%8, Seg_Buf[Slow_Down%8], Seg_Point[Slow_Down%8]);
  67   1          LED_Show(Slow_Down%8, LED_Buf[Slow_Down%8]);
  68   1      }
  69          
  70          /* 延时函数 */
  71          void Delay_ms(unsigned int xms)         //@12.000MHz
  72          {
  73   1          unsigned char i, j;
  74   1          while (xms)
  75   1          {
  76   2              i = 12;
  77   2              j = 169;
  78   2              do
  79   2              {
  80   3                  while (--j);
  81   3              } while (--i);
  82   2              xms--;
  83   2          }
  84   1      }
  85          
  86          /* 主函数 */
  87          void main()
  88          {
  89   1          Init();
  90   1          Timer0_Init();
  91   1          while (1)
  92   1          {
  93   2              Key_Proc();
  94   2              Infor_Proc();
  95   2              Other_Proc();
  96   2          }
  97   1      }
  98          
  99          
 100          


MODULE INFORMATION:   STATIC OVERLAYABLE
   CODE SIZE        =    231    ----
   CONSTANT SIZE    =   ----    ----
   XDATA SIZE       =   ----    ----
   PDATA SIZE       =   ----    ----
   DATA SIZE        =     30    ----
   IDATA SIZE       =   ----    ----
   BIT SIZE         =      2    ----
END OF MODULE INFORMATION.


C51 COMPILATION COMPLETE.  0 WARNING(S),  0 ERROR(S)
