BL51 BANKED LINKER/LOCATER V6.22.2.0                                                    05/25/2024  17:26:09  PAGE 1


BL51 BANKED LINKER/LOCATER V6.22.2.0, INVOKED BY:
D:\KEIL 5\C51\BIN\BL51.EXE .\Objects\STARTUP.obj, .\Objects\main.obj, .\Objects\Init.obj, .\Objects\Key.obj, .\Objects\S
>> eg.obj, .\Objects\LED.obj, .\Objects\iic.obj, .\Objects\onewire.obj TO .\Objects\15536971 PRINT (.\Listings\15536971.
>> m51) RAMSIZE (256)


MEMORY MODEL: SMALL WITH FLOATING POINT ARITHMETIC


INPUT MODULES INCLUDED:
  .\Objects\STARTUP.obj (?C_STARTUP)
  .\Objects\main.obj (MAIN)
  .\Objects\Init.obj (INIT)
  .\Objects\Key.obj (KEY)
  .\Objects\Seg.obj (SEG)
  .\Objects\LED.obj (LED)
  .\Objects\iic.obj (IIC)
  .\Objects\onewire.obj (ONEWIRE)
  D:\KEIL 5\C51\LIB\C51FPS.LIB (?C?FPADD)
  D:\KEIL 5\C51\LIB\C51FPS.LIB (?C?FPMUL)
  D:\KEIL 5\C51\LIB\C51FPS.LIB (?C?FPDIV)
  D:\KEIL 5\C51\LIB\C51FPS.LIB (?C?FPCMP)
  D:\KEIL 5\C51\LIB\C51FPS.LIB (?C?FCAST)
  D:\KEIL 5\C51\LIB\C51FPS.LIB (?C?CASTF)
  D:\KEIL 5\C51\LIB\C51FPS.LIB (?C?FPGETOPN)
  D:\KEIL 5\C51\LIB\C51S.LIB (?C_INIT)
  D:\KEIL 5\C51\LIB\C51S.LIB (?C?CLDPTR)
  D:\KEIL 5\C51\LIB\C51S.LIB (?C?CSTPTR)
  D:\KEIL 5\C51\LIB\C51S.LIB (?C?UIDIV)
  D:\KEIL 5\C51\LIB\C51S.LIB (?C?LNEG)


LINK MAP OF MODULE:  .\Objects\15536971 (?C_STARTUP)


            TYPE    BASE      LENGTH    RELOCATION   SEGMENT NAME
            -----------------------------------------------------

            * * * * * * *   D A T A   M E M O R Y   * * * * * * *
            REG     0000H     0008H     ABSOLUTE     "REG BANK 0"
            DATA    0008H     0008H     UNIT         _DATA_GROUP_
            DATA    0010H     0002H     UNIT         ?DT?LED
                    0012H     000EH                  *** GAP ***
            BIT     0020H.0   0000H.7   UNIT         ?BI?MAIN
            BIT     0020H.7   0000H.1   UNIT         _BIT_GROUP_
            DATA    0021H     0049H     UNIT         ?DT?MAIN
            IDATA   006AH     0001H     UNIT         ?STACK

            * * * * * * *   C O D E   M E M O R Y   * * * * * * *
            CODE    0000H     0003H     ABSOLUTE     
            CODE    0003H     0018H     UNIT         ?PR?_I2CSENDACK?IIC
            CODE    001BH     0003H     ABSOLUTE     
            CODE    001EH     0464H     UNIT         ?C?LIB_CODE
            CODE    0482H     0345H     UNIT         ?PR?SEG_DEAL?MAIN
            CODE    07C7H     0185H     UNIT         ?PR?KEY_DEAL?MAIN
            CODE    094CH     0148H     UNIT         ?PR?TIMER1_SERVE?MAIN
            CODE    0A94H     00D9H     UNIT         ?PR?MAIN?MAIN
            CODE    0B6DH     008CH     UNIT         ?C_C51STARTUP
BL51 BANKED LINKER/LOCATER V6.22.2.0                                                  05/25/2024  17:26:09  PAGE 2


            CODE    0BF9H     0057H     UNIT         ?PR?LED_DEAL?MAIN
            CODE    0C50H     0057H     UNIT         ?PR?KEY_READ?KEY
            CODE    0CA7H     0053H     UNIT         ?PR?INFOR_DEAL?MAIN
            CODE    0CFAH     004AH     UNIT         ?PR?_EEPROM_READ?IIC
            CODE    0D44H     0047H     UNIT         ?PR?_SEG_SHOW?SEG
            CODE    0D8BH     003DH     UNIT         ?C_INITSEG
            CODE    0DC8H     003BH     UNIT         ?PR?_LED_SHOW?LED
            CODE    0E03H     0038H     UNIT         ?PR?_EEPROM_WRITE?IIC
            CODE    0E3BH     0037H     UNIT         ?PR?DS18B20_READ_T?ONEWIRE
            CODE    0E72H     0035H     UNIT         ?PR?_I2CSENDBYTE?IIC
            CODE    0EA7H     0027H     UNIT         ?PR?_AD_READ?IIC
            CODE    0ECEH     0027H     UNIT         ?PR?_WRITE_DS18B20?ONEWIRE
            CODE    0EF5H     0027H     UNIT         ?PR?INIT_DS18B20?ONEWIRE
            CODE    0F1CH     0026H     UNIT         ?PR?I2CRECEIVEBYTE?IIC
            CODE    0F42H     0026H     UNIT         ?PR?I2CWAITACK?IIC
            CODE    0F68H     0023H     UNIT         ?PR?READ_DS18B20?ONEWIRE
            CODE    0F8BH     001EH     UNIT         ?PR?_DELAY_ONEWIRE?ONEWIRE
            CODE    0FA9H     001DH     UNIT         ?PR?SYSTEM_INIT?INIT
            CODE    0FC6H     001AH     UNIT         ?PR?_I2C_DELAY?IIC
            CODE    0FE0H     0015H     UNIT         ?PR?TIMER1_INIT?MAIN
            CODE    0FF5H     0015H     UNIT         ?CO?SEG
            CODE    100AH     0013H     UNIT         ?PR?TIMER0_INIT?MAIN
            CODE    101DH     000FH     UNIT         ?PR?I2CSTART?IIC
            CODE    102CH     000CH     UNIT         ?PR?I2CSTOP?IIC
            CODE    1038H     0009H     UNIT         ?PR?DELAY10MS?MAIN



OVERLAY MAP OF MODULE:   .\Objects\15536971 (?C_STARTUP)


SEGMENT                               BIT_GROUP          DATA_GROUP 
  +--> CALLED SEGMENT              START    LENGTH     START    LENGTH
----------------------------------------------------------------------
?C_C51STARTUP                      -----    -----      -----    -----
  +--> ?PR?MAIN?MAIN
  +--> ?C_INITSEG

?PR?MAIN?MAIN                      -----    -----      0008H    0001H
  +--> ?PR?SYSTEM_INIT?INIT
  +--> ?PR?TIMER1_INIT?MAIN
  +--> ?PR?TIMER0_INIT?MAIN
  +--> ?PR?DS18B20_READ_T?ONEWIRE
  +--> ?PR?_AD_READ?IIC
  +--> ?PR?_EEPROM_READ?IIC
  +--> ?PR?_EEPROM_WRITE?IIC
  +--> ?PR?KEY_DEAL?MAIN
  +--> ?PR?LED_DEAL?MAIN
  +--> ?PR?INFOR_DEAL?MAIN

?PR?DS18B20_READ_T?ONEWIRE         -----    -----      -----    -----
  +--> ?PR?INIT_DS18B20?ONEWIRE
  +--> ?PR?_WRITE_DS18B20?ONEWIRE
  +--> ?PR?READ_DS18B20?ONEWIRE

?PR?INIT_DS18B20?ONEWIRE           0020H.7  0000H.1    -----    -----
  +--> ?PR?_DELAY_ONEWIRE?ONEWIRE
BL51 BANKED LINKER/LOCATER V6.22.2.0                                                  05/25/2024  17:26:09  PAGE 3



?PR?_WRITE_DS18B20?ONEWIRE         -----    -----      -----    -----
  +--> ?PR?_DELAY_ONEWIRE?ONEWIRE

?PR?READ_DS18B20?ONEWIRE           -----    -----      -----    -----
  +--> ?PR?_DELAY_ONEWIRE?ONEWIRE

?PR?_AD_READ?IIC                   -----    -----      -----    -----
  +--> ?PR?I2CSTART?IIC
  +--> ?PR?I2CWAITACK?IIC
  +--> ?PR?_I2CSENDBYTE?IIC
  +--> ?PR?I2CRECEIVEBYTE?IIC
  +--> ?PR?_I2CSENDACK?IIC
  +--> ?PR?I2CSTOP?IIC

?PR?I2CSTART?IIC                   -----    -----      -----    -----
  +--> ?PR?_I2C_DELAY?IIC

?PR?I2CWAITACK?IIC                 -----    -----      -----    -----
  +--> ?PR?I2CSTART?IIC
  +--> ?PR?_I2CSENDBYTE?IIC
  +--> ?PR?_I2C_DELAY?IIC

?PR?_I2CSENDBYTE?IIC               -----    -----      -----    -----
  +--> ?PR?_I2C_DELAY?IIC

?PR?I2CRECEIVEBYTE?IIC             -----    -----      -----    -----
  +--> ?PR?_I2C_DELAY?IIC

?PR?_I2CSENDACK?IIC                -----    -----      -----    -----
  +--> ?PR?_I2C_DELAY?IIC

?PR?I2CSTOP?IIC                    -----    -----      -----    -----
  +--> ?PR?_I2C_DELAY?IIC

?PR?_EEPROM_READ?IIC               -----    -----      0009H    0007H
  +--> ?PR?I2CWAITACK?IIC
  +--> ?PR?I2CSTART?IIC
  +--> ?PR?_I2CSENDBYTE?IIC
  +--> ?PR?I2CRECEIVEBYTE?IIC
  +--> ?PR?_I2CSENDACK?IIC
  +--> ?PR?I2CSTOP?IIC

?PR?_EEPROM_WRITE?IIC              -----    -----      0009H    0007H
  +--> ?PR?I2CWAITACK?IIC
  +--> ?PR?_I2CSENDBYTE?IIC
  +--> ?PR?_I2C_DELAY?IIC
  +--> ?PR?I2CSTOP?IIC

?PR?KEY_DEAL?MAIN                  -----    -----      -----    -----
  +--> ?PR?KEY_READ?KEY
  +--> ?PR?_EEPROM_WRITE?IIC
  +--> ?PR?DELAY10MS?MAIN

?PR?INFOR_DEAL?MAIN                -----    -----      -----    -----
  +--> ?PR?DS18B20_READ_T?ONEWIRE
  +--> ?PR?_AD_READ?IIC
BL51 BANKED LINKER/LOCATER V6.22.2.0                                                  05/25/2024  17:26:09  PAGE 4



*** NEW ROOT ***************************************************

?PR?TIMER1_SERVE?MAIN              -----    -----      -----    -----
  +--> ?PR?_SEG_SHOW?SEG
  +--> ?PR?_LED_SHOW?LED
  +--> ?PR?SEG_DEAL?MAIN

?PR?_SEG_SHOW?SEG                  -----    -----      -----    -----
  +--> ?CO?SEG



SYMBOL TABLE OF MODULE:  .\Objects\15536971 (?C_STARTUP)

  VALUE           TYPE          NAME
  ----------------------------------

  -------         MODULE        ?C_STARTUP
  C:0B6DH         SEGMENT       ?C_C51STARTUP
  I:006AH         SEGMENT       ?STACK
  C:0000H         PUBLIC        ?C_STARTUP
  D:00E0H         SYMBOL        ACC
  D:00F0H         SYMBOL        B
  D:0083H         SYMBOL        DPH
  D:0082H         SYMBOL        DPL
  N:0000H         SYMBOL        IBPSTACK
  N:0100H         SYMBOL        IBPSTACKTOP
  N:0080H         SYMBOL        IDATALEN
  C:0B70H         SYMBOL        IDATALOOP
  N:0000H         SYMBOL        PBPSTACK
  N:0100H         SYMBOL        PBPSTACKTOP
  N:0000H         SYMBOL        PDATALEN
  N:0000H         SYMBOL        PDATASTART
  N:0000H         SYMBOL        PPAGE
  N:0000H         SYMBOL        PPAGEENABLE
  D:00A0H         SYMBOL        PPAGE_SFR
  D:0081H         SYMBOL        SP
  C:0B6DH         SYMBOL        STARTUP1
  N:0000H         SYMBOL        XBPSTACK
  N:0000H         SYMBOL        XBPSTACKTOP
  N:0000H         SYMBOL        XDATALEN
  N:0000H         SYMBOL        XDATASTART
  C:0000H         LINE#         126
  C:0B6DH         LINE#         133
  C:0B6FH         LINE#         134
  C:0B70H         LINE#         135
  C:0B71H         LINE#         136
  C:0B73H         LINE#         185
  C:0B76H         LINE#         196
  -------         ENDMOD        ?C_STARTUP

  -------         MODULE        MAIN
  C:0000H         SYMBOL        _ICE_DUMMY_
  D:0080H         PUBLIC        P0
  D:0090H         PUBLIC        P1
  D:00A0H         PUBLIC        P2
BL51 BANKED LINKER/LOCATER V6.22.2.0                                                  05/25/2024  17:26:09  PAGE 5


  C:07C7H         PUBLIC        Key_Deal
  D:00B0H         PUBLIC        P3
  D:00C0H         PUBLIC        P4
  D:0025H         PUBLIC        V_S6_Time_100ms
  B:0020H.0       PUBLIC        Seg_Slow_Flag
  D:00C8H         PUBLIC        P5
  D:0026H         PUBLIC        Freq_Time_1000ms
  B:00A8H.7       PUBLIC        EA
  D:00E8H         PUBLIC        P6
  D:00F8H         PUBLIC        P7
  D:0028H         PUBLIC        Freq_Temp
  D:002AH         PUBLIC        Seg_Show_Mode
  D:002BH         PUBLIC        Seg_Point
  D:00A8H         PUBLIC        IE
  B:0020H.1       PUBLIC        Key_Slow_Flag
  D:0033H         PUBLIC        Freq
  D:0035H         PUBLIC        T_Record
  D:00B8H         PUBLIC        IP
  B:0020H.2       PUBLIC        V_S6_Flag
  C:094CH         PUBLIC        Timer1_Serve
  D:0037H         PUBLIC        Seg_Buf
  D:003FH         PUBLIC        Slow_Down
  D:00D8H         PUBLIC        CCON
  D:0041H         PUBLIC        AD_Data_Record
  C:0A94H         PUBLIC        main
  C:100AH         PUBLIC        Timer0_Init
  C:0FE0H         PUBLIC        Timer1_Init
  C:0BF9H         PUBLIC        LED_Deal
  D:0098H         PUBLIC        SCON
  C:1038H         PUBLIC        Delay10ms
  D:0089H         PUBLIC        TMOD
  D:0088H         PUBLIC        TCON
  B:0020H.3       PUBLIC        LED_Slow_Flag
  D:008EH         PUBLIC        AUXR
  D:0042H         PUBLIC        L8_Time_200ms
  B:0088H.5       PUBLIC        TF0
  B:00A8H.3       PUBLIC        ET1
  B:0088H.7       PUBLIC        TF1
  D:0043H         PUBLIC        T_Temp
  D:0047H         PUBLIC        Data_Return_Show_Mode
  D:008CH         PUBLIC        TH0
  D:008DH         PUBLIC        TH1
  D:008AH         PUBLIC        TL0
  D:008BH         PUBLIC        TL1
  D:0048H         PUBLIC        T
  D:004CH         PUBLIC        Freq_Record
  D:004EH         PUBLIC        LED_Buf
  B:0088H.4       PUBLIC        TR0
  B:0088H.6       PUBLIC        TR1
  C:0CA7H         PUBLIC        Infor_Deal
  D:0056H         PUBLIC        AD_Data_Temp
  B:0020H.4       PUBLIC        L8_Star_Flag
  B:0020H.5       PUBLIC        L8_Flag
  D:005AH         PUBLIC        AD_Data
  D:005EH         PUBLIC        AD_Data_Show
  B:0020H.6       PUBLIC        Infor_Slow_Flag
  D:0062H         PUBLIC        Data_Show_Mode
BL51 BANKED LINKER/LOCATER V6.22.2.0                                                  05/25/2024  17:26:09  PAGE 6


  D:0063H         PUBLIC        i
  D:0064H         PUBLIC        Time_800ms
  D:0066H         PUBLIC        AD_Data_Set
  C:0482H         PUBLIC        Seg_Deal
  D:00D0H         PUBLIC        PSW
  -------         PROC          DELAY10MS
  -------         DO            
  D:0007H         SYMBOL        i
  D:0006H         SYMBOL        j
  -------         ENDDO         
  C:1038H         LINE#         35
  C:1038H         LINE#         36
  C:1038H         LINE#         39
  C:103AH         LINE#         40
  C:103CH         LINE#         42
  C:103CH         LINE#         43
  C:103EH         LINE#         44
  C:1040H         LINE#         45
  -------         ENDPROC       DELAY10MS
  -------         PROC          KEY_DEAL
  -------         DO            
  D:0021H         SYMBOL        Key_New
  D:0022H         SYMBOL        Key_Old
  D:0023H         SYMBOL        Key_UP
  D:0024H         SYMBOL        Key_Down
  -------         ENDDO         
  C:07C7H         LINE#         48
  C:07C7H         LINE#         49
  C:07C7H         LINE#         53
  C:07CDH         LINE#         54
  C:07CFH         LINE#         56
  C:07D4H         LINE#         57
  C:07DFH         LINE#         58
  C:07E4H         LINE#         59
  C:07E7H         LINE#         62
  C:07F3H         LINE#         63
  C:07F7H         LINE#         65
  C:07F7H         LINE#         66
  C:07F9H         LINE#         67
  C:080EH         LINE#         68
  C:0829H         LINE#         69
  C:083FH         LINE#         70
  C:084AH         LINE#         71
  C:084FH         LINE#         72
  C:084FH         LINE#         74
  C:0868H         LINE#         75
  C:0868H         LINE#         77
  C:0868H         LINE#         78
  C:0879H         LINE#         79
  C:088FH         LINE#         80
  C:0890H         LINE#         82
  C:0890H         LINE#         84
  C:089CH         LINE#         85
  C:08B3H         LINE#         86
  C:08C5H         LINE#         87
  C:08C8H         LINE#         89
  C:08CCH         LINE#         90
BL51 BANKED LINKER/LOCATER V6.22.2.0                                                  05/25/2024  17:26:09  PAGE 7


  C:08CFH         LINE#         91
  C:08D4H         LINE#         92
  C:08E7H         LINE#         93
  C:08EAH         LINE#         95
  C:08F6H         LINE#         96
  C:0903H         LINE#         97
  C:0921H         LINE#         98
  C:0934H         LINE#         99
  C:0934H         LINE#         101
  C:0934H         LINE#         102
  C:093DH         LINE#         103
  C:093EH         LINE#         105
  C:093EH         LINE#         106
  C:0948H         LINE#         107
  C:094BH         LINE#         108
  C:094BH         LINE#         109
  C:094BH         LINE#         111
  -------         ENDPROC       KEY_DEAL
  -------         PROC          SEG_DEAL
  C:0482H         LINE#         114
  C:0482H         LINE#         115
  C:0482H         LINE#         116
  C:0488H         LINE#         117
  C:048AH         LINE#         119
  C:049FH         LINE#         120
  C:049FH         LINE#         122
  C:049FH         LINE#         123
  C:04B1H         LINE#         124
  C:04B1H         LINE#         126
  C:04B1H         LINE#         127
  C:04BFH         LINE#         128
  C:04CAH         LINE#         129
  C:04CDH         LINE#         130
  C:04E0H         LINE#         131
  C:04EFH         LINE#         132
  C:04F2H         LINE#         134
  C:04F2H         LINE#         135
  C:04F8H         LINE#         136
  C:04FBH         LINE#         137
  C:050FH         LINE#         138
  C:0523H         LINE#         139
  C:0537H         LINE#         140
  C:054BH         LINE#         141
  C:0558H         LINE#         142
  C:0569H         LINE#         143
  C:0569H         LINE#         144
  C:0574H         LINE#         145
  C:057BH         LINE#         147
  C:057BH         LINE#         148
  C:057FH         LINE#         149
  C:057FH         LINE#         151
  C:057FH         LINE#         152
  C:058DH         LINE#         153
  C:0598H         LINE#         154
  C:059BH         LINE#         155
  C:05ADH         LINE#         156
  C:05B5H         LINE#         157
BL51 BANKED LINKER/LOCATER V6.22.2.0                                                  05/25/2024  17:26:09  PAGE 8


  C:05D3H         LINE#         158
  C:05E2H         LINE#         159
  C:05E5H         LINE#         160
  C:05E5H         LINE#         161
  C:05E5H         LINE#         163
  C:05E5H         LINE#         164
  C:05E8H         LINE#         165
  C:05EEH         LINE#         166
  C:0600H         LINE#         167
  C:0600H         LINE#         169
  C:0600H         LINE#         170
  C:060EH         LINE#         171
  C:0619H         LINE#         172
  C:062CH         LINE#         173
  C:063BH         LINE#         174
  C:063EH         LINE#         176
  C:063EH         LINE#         177
  C:0641H         LINE#         178
  C:0655H         LINE#         179
  C:0669H         LINE#         180
  C:067DH         LINE#         181
  C:0691H         LINE#         182
  C:069EH         LINE#         183
  C:06AFH         LINE#         184
  C:06AFH         LINE#         185
  C:06BAH         LINE#         186
  C:06C1H         LINE#         188
  C:06C1H         LINE#         189
  C:06C5H         LINE#         190
  C:06C5H         LINE#         192
  C:06C5H         LINE#         193
  C:06D3H         LINE#         194
  C:06DEH         LINE#         195
  C:06F0H         LINE#         196
  C:06F8H         LINE#         197
  C:0716H         LINE#         198
  C:0734H         LINE#         199
  C:0736H         LINE#         200
  C:0736H         LINE#         201
  C:0736H         LINE#         203
  C:0736H         LINE#         204
  C:0744H         LINE#         205
  C:074FH         LINE#         206
  C:0752H         LINE#         207
  C:0765H         LINE#         208
  C:0782H         LINE#         209
  C:0782H         LINE#         210
  C:0782H         LINE#         213
  C:07A5H         LINE#         214
  C:07C6H         LINE#         216
  -------         ENDPROC       SEG_DEAL
  -------         PROC          LED_DEAL
  C:0BF9H         LINE#         219
  C:0BF9H         LINE#         220
  C:0BF9H         LINE#         221
  C:0BFCH         LINE#         222
  C:0BFEH         LINE#         225
BL51 BANKED LINKER/LOCATER V6.22.2.0                                                  05/25/2024  17:26:09  PAGE 9


  C:0C0CH         LINE#         226
  C:0C26H         LINE#         229
  C:0C40H         LINE#         230
  C:0C43H         LINE#         231
  C:0C4AH         LINE#         233
  C:0C4FH         LINE#         234
  -------         ENDPROC       LED_DEAL
  -------         PROC          INFOR_DEAL
  C:0CA7H         LINE#         237
  C:0CA7H         LINE#         238
  C:0CA7H         LINE#         240
  C:0CAAH         LINE#         241
  C:0CACH         LINE#         244
  C:0CB7H         LINE#         245
  C:0CD4H         LINE#         249
  C:0CDEH         LINE#         250
  C:0CE7H         LINE#         252
  C:0CF9H         LINE#         257
  -------         ENDPROC       INFOR_DEAL
  -------         PROC          TIMER0_INIT
  C:100AH         LINE#         260
  C:100AH         LINE#         261
  C:100AH         LINE#         262
  C:100DH         LINE#         263
  C:1010H         LINE#         264
  C:1013H         LINE#         265
  C:1016H         LINE#         266
  C:1018H         LINE#         267
  C:101AH         LINE#         268
  C:101CH         LINE#         269
  -------         ENDPROC       TIMER0_INIT
  -------         PROC          TIMER1_INIT
  C:0FE0H         LINE#         270
  C:0FE0H         LINE#         271
  C:0FE0H         LINE#         272
  C:0FE3H         LINE#         273
  C:0FE6H         LINE#         274
  C:0FE9H         LINE#         275
  C:0FECH         LINE#         276
  C:0FEEH         LINE#         277
  C:0FF0H         LINE#         278
  C:0FF2H         LINE#         279
  C:0FF4H         LINE#         280
  -------         ENDPROC       TIMER1_INIT
  -------         PROC          TIMER1_SERVE
  C:094CH         LINE#         283
  C:0969H         LINE#         285
  C:0982H         LINE#         286
  C:0993H         LINE#         287
  C:09A4H         LINE#         288
  C:09B5H         LINE#         289
  C:09CDH         LINE#         290
  C:09DCH         LINE#         293
  C:09EDH         LINE#         294
  C:09EDH         LINE#         295
  C:09F3H         LINE#         296
  C:09FDH         LINE#         297
BL51 BANKED LINKER/LOCATER V6.22.2.0                                                  05/25/2024  17:26:09  PAGE 10


  C:0A03H         LINE#         298
  C:0A03H         LINE#         300
  C:0A17H         LINE#         301
  C:0A17H         LINE#         302
  C:0A1DH         LINE#         303
  C:0A25H         LINE#         304
  C:0A25H         LINE#         305
  C:0A27H         LINE#         306
  C:0A42H         LINE#         307
  C:0A58H         LINE#         308
  C:0A64H         LINE#         309
  C:0A64H         LINE#         310
  C:0A64H         LINE#         312
  C:0A6FH         LINE#         313
  C:0A6FH         LINE#         314
  C:0A71H         LINE#         315
  C:0A76H         LINE#         316
  C:0A76H         LINE#         318
  C:0A79H         LINE#         319
  -------         ENDPROC       TIMER1_SERVE
  -------         PROC          MAIN
  -------         DO            
  D:0008H         SYMBOL        PIN
  -------         ENDDO         
  C:0A94H         LINE#         322
  C:0A94H         LINE#         323
  C:0A94H         LINE#         324
  C:0A97H         LINE#         325
  C:0A9AH         LINE#         326
  C:0A9DH         LINE#         327
  C:0AA0H         LINE#         328
  C:0AA3H         LINE#         329
  C:0AA8H         LINE#         332
  C:0ABBH         LINE#         333
  C:0AC4H         LINE#         334
  C:0AC4H         LINE#         335
  C:0AD3H         LINE#         336
  C:0AEBH         LINE#         338
  C:0AFEH         LINE#         339
  C:0B06H         LINE#         341
  C:0B19H         LINE#         342
  C:0B4AH         LINE#         343
  C:0B4CH         LINE#         345
  C:0B4CH         LINE#         346
  C:0B4FH         LINE#         347
  C:0B62H         LINE#         348
  C:0B62H         LINE#         350
  C:0B62H         LINE#         351
  C:0B62H         LINE#         352
  C:0B65H         LINE#         353
  C:0B68H         LINE#         354
  C:0B6BH         LINE#         355
  -------         ENDPROC       MAIN
  -------         ENDMOD        MAIN

  -------         MODULE        INIT
  C:0000H         SYMBOL        _ICE_DUMMY_
BL51 BANKED LINKER/LOCATER V6.22.2.0                                                  05/25/2024  17:26:09  PAGE 11


  C:0FA9H         PUBLIC        System_Init
  D:0080H         PUBLIC        P0
  D:0090H         PUBLIC        P1
  D:00A0H         PUBLIC        P2
  D:00B0H         PUBLIC        P3
  D:00C0H         PUBLIC        P4
  D:00C8H         PUBLIC        P5
  D:00E8H         PUBLIC        P6
  D:00F8H         PUBLIC        P7
  D:00A8H         PUBLIC        IE
  D:00B8H         PUBLIC        IP
  D:00D8H         PUBLIC        CCON
  D:0098H         PUBLIC        SCON
  D:0088H         PUBLIC        TCON
  D:00D0H         PUBLIC        PSW
  -------         PROC          SYSTEM_INIT
  C:0FA9H         LINE#         4
  C:0FA9H         LINE#         5
  C:0FA9H         LINE#         6
  C:0FACH         LINE#         7
  C:0FB4H         LINE#         8
  C:0FB7H         LINE#         10
  C:0FBAH         LINE#         11
  C:0FC2H         LINE#         12
  C:0FC5H         LINE#         13
  -------         ENDPROC       SYSTEM_INIT
  -------         ENDMOD        INIT

  -------         MODULE        KEY
  C:0000H         SYMBOL        _ICE_DUMMY_
  D:0080H         PUBLIC        P0
  D:0090H         PUBLIC        P1
  D:00A0H         PUBLIC        P2
  D:00B0H         PUBLIC        P3
  D:00C0H         PUBLIC        P4
  D:00C8H         PUBLIC        P5
  D:00E8H         PUBLIC        P6
  D:00F8H         PUBLIC        P7
  C:0C50H         PUBLIC        Key_Read
  D:00A8H         PUBLIC        IE
  D:00B8H         PUBLIC        IP
  D:00D8H         PUBLIC        CCON
  B:00B0H.0       PUBLIC        P30
  D:0098H         PUBLIC        SCON
  B:00B0H.1       PUBLIC        P31
  D:0088H         PUBLIC        TCON
  B:00B0H.2       PUBLIC        P32
  B:00C0H.2       PUBLIC        P42
  B:00B0H.3       PUBLIC        P33
  B:00B0H.4       PUBLIC        P34
  B:00C0H.4       PUBLIC        P44
  B:00B0H.5       PUBLIC        P35
  D:00D0H         PUBLIC        PSW
  -------         PROC          KEY_READ
  -------         DO            
  D:0007H         SYMBOL        temp
  -------         ENDDO         
BL51 BANKED LINKER/LOCATER V6.22.2.0                                                  05/25/2024  17:26:09  PAGE 12


  C:0C50H         LINE#         4
  C:0C50H         LINE#         5
  C:0C50H         LINE#         6
  C:0C52H         LINE#         12
  C:0C5AH         LINE#         13
  C:0C5FH         LINE#         14
  C:0C64H         LINE#         15
  C:0C69H         LINE#         16
  C:0C6EH         LINE#         17
  C:0C76H         LINE#         18
  C:0C7BH         LINE#         19
  C:0C80H         LINE#         20
  C:0C85H         LINE#         21
  C:0C8AH         LINE#         22
  C:0C92H         LINE#         23
  C:0C97H         LINE#         24
  C:0C9CH         LINE#         25
  C:0CA1H         LINE#         26
  C:0CA6H         LINE#         27
  C:0CA6H         LINE#         28
  -------         ENDPROC       KEY_READ
  -------         ENDMOD        KEY

  -------         MODULE        SEG
  C:0000H         SYMBOL        _ICE_DUMMY_
  D:0080H         PUBLIC        P0
  D:0090H         PUBLIC        P1
  D:00A0H         PUBLIC        P2
  D:00B0H         PUBLIC        P3
  D:00C0H         PUBLIC        P4
  D:00C8H         PUBLIC        P5
  D:00E8H         PUBLIC        P6
  D:00F8H         PUBLIC        P7
  D:00A8H         PUBLIC        IE
  D:00B8H         PUBLIC        IP
  C:0D44H         PUBLIC        _Seg_Show
  D:00D8H         PUBLIC        CCON
  D:0098H         PUBLIC        SCON
  D:0088H         PUBLIC        TCON
  C:0FF5H         PUBLIC        Seg_Table
  D:00D0H         PUBLIC        PSW
  -------         PROC          _SEG_SHOW
  D:0007H         SYMBOL        addr
  D:0004H         SYMBOL        Table
  D:0002H         SYMBOL        Point
  C:0D44H         LINE#         29
  C:0D44H         LINE#         30
  C:0D44H         LINE#         31
  C:0D47H         LINE#         32
  C:0D4FH         LINE#         33
  C:0D52H         LINE#         35
  C:0D5FH         LINE#         36
  C:0D67H         LINE#         37
  C:0D6AH         LINE#         39
  C:0D78H         LINE#         40
  C:0D7CH         LINE#         41
  C:0D7FH         LINE#         42
BL51 BANKED LINKER/LOCATER V6.22.2.0                                                  05/25/2024  17:26:09  PAGE 13


  C:0D87H         LINE#         43
  C:0D8AH         LINE#         44
  -------         ENDPROC       _SEG_SHOW
  -------         ENDMOD        SEG

  -------         MODULE        LED
  C:0000H         SYMBOL        _ICE_DUMMY_
  D:0080H         PUBLIC        P0
  D:0090H         PUBLIC        P1
  D:00A0H         PUBLIC        P2
  D:00B0H         PUBLIC        P3
  D:00C0H         PUBLIC        P4
  D:00C8H         PUBLIC        P5
  D:00E8H         PUBLIC        P6
  D:00F8H         PUBLIC        P7
  D:00A8H         PUBLIC        IE
  D:00B8H         PUBLIC        IP
  D:00D8H         PUBLIC        CCON
  D:0098H         PUBLIC        SCON
  D:0088H         PUBLIC        TCON
  C:0DC8H         PUBLIC        _LED_Show
  D:00D0H         PUBLIC        PSW
  -------         PROC          _LED_SHOW
  D:0007H         SYMBOL        addr
  D:0004H         SYMBOL        enable
  -------         DO            
  D:0010H         SYMBOL        temp_new
  D:0011H         SYMBOL        temp_old
  -------         ENDDO         
  C:0DC8H         LINE#         5
  C:0DC8H         LINE#         6
  C:0DC8H         LINE#         10
  C:0DCCH         LINE#         11
  C:0DDBH         LINE#         13
  C:0DE9H         LINE#         15
  C:0DEFH         LINE#         16
  C:0DEFH         LINE#         17
  C:0DF4H         LINE#         18
  C:0DFCH         LINE#         19
  C:0DFFH         LINE#         20
  C:0E02H         LINE#         21
  C:0E02H         LINE#         22
  -------         ENDPROC       _LED_SHOW
  -------         ENDMOD        LED

  -------         MODULE        IIC
  C:0000H         SYMBOL        _ICE_DUMMY_
  D:0080H         PUBLIC        P0
  D:0090H         PUBLIC        P1
  D:00A0H         PUBLIC        P2
  D:00B0H         PUBLIC        P3
  D:00C0H         PUBLIC        P4
  D:00C8H         PUBLIC        P5
  D:00E8H         PUBLIC        P6
  D:00F8H         PUBLIC        P7
  D:00A8H         PUBLIC        IE
  C:0FCAH         SYMBOL        _I2C_Delay
BL51 BANKED LINKER/LOCATER V6.22.2.0                                                  05/25/2024  17:26:09  PAGE 14


  D:00B8H         PUBLIC        IP
  C:0F1CH         PUBLIC        I2CReceiveByte
  D:00D8H         PUBLIC        CCON
  C:0CFAH         PUBLIC        _EEPROM_Read
  D:0098H         PUBLIC        SCON
  D:0088H         PUBLIC        TCON
  B:00A0H.1       PUBLIC        sda
  C:0E03H         PUBLIC        _EEPROM_Write
  B:00A0H.0       PUBLIC        scl
  C:101DH         PUBLIC        I2CStart
  C:0003H         PUBLIC        _I2CSendAck
  C:0E72H         PUBLIC        _I2CSendByte
  C:0EA7H         PUBLIC        _AD_Read
  C:0F56H         PUBLIC        I2CWaitAck
  C:102CH         PUBLIC        I2CStop
  D:00D0H         PUBLIC        PSW
  C:0FC6H         SYMBOL        L?0037
  -------         PROC          L?0036
  -------         ENDPROC       L?0036
  C:0FC6H         SYMBOL        L?0037
  -------         PROC          _I2C_DELAY
  D:0007H         SYMBOL        n
  C:0FCAH         LINE#         16
  C:0FCAH         LINE#         17
  C:0FCAH         LINE#         19
  C:0FCAH         LINE#         20
  C:0FCFH         LINE#         21
  C:0FD4H         LINE#         22
  C:0FD9H         LINE#         23
  C:0FD9H         LINE#         24
  C:0FDFH         LINE#         25
  -------         ENDPROC       _I2C_DELAY
  -------         PROC          I2CSTART
  C:101DH         LINE#         28
  C:101DH         LINE#         29
  C:101DH         LINE#         30
  C:101FH         LINE#         31
  C:101FH         LINE#         32
  C:1022H         LINE#         33
  C:1024H         LINE#         34
  C:1029H         LINE#         35
  C:102BH         LINE#         36
  -------         ENDPROC       I2CSTART
  -------         PROC          I2CSTOP
  C:102CH         LINE#         39
  C:102CH         LINE#         40
  C:102CH         LINE#         41
  C:102EH         LINE#         42
  C:102EH         LINE#         43
  C:1031H         LINE#         44
  C:1033H         LINE#         45
  -------         ENDPROC       I2CSTOP
  -------         PROC          _I2CSENDBYTE
  D:0005H         SYMBOL        byt
  -------         DO            
  D:0004H         SYMBOL        i
  -------         ENDDO         
BL51 BANKED LINKER/LOCATER V6.22.2.0                                                  05/25/2024  17:26:09  PAGE 15


  C:0E72H         LINE#         49
  C:0E74H         LINE#         50
  C:0E74H         LINE#         53
  C:0E80H         LINE#         54
  C:0E82H         LINE#         55
  C:0E87H         LINE#         56
  C:0E8BH         LINE#         57
  C:0E8DH         LINE#         58
  C:0E8FH         LINE#         59
  C:0E8FH         LINE#         60
  C:0E91H         LINE#         61
  C:0E91H         LINE#         62
  C:0E96H         LINE#         63
  C:0E98H         LINE#         64
  C:0E9CH         LINE#         65
  C:0EA1H         LINE#         66
  C:0EA4H         LINE#         68
  C:0EA6H         LINE#         69
  -------         ENDPROC       _I2CSENDBYTE
  -------         PROC          I2CRECEIVEBYTE
  -------         DO            
  D:0005H         SYMBOL        da
  D:0004H         SYMBOL        i
  -------         ENDDO         
  C:0F1CH         LINE#         72
  C:0F1CH         LINE#         73
  C:0F1CH         LINE#         76
  C:0F28H         LINE#         77
  C:0F28H         LINE#         78
  C:0F2BH         LINE#         79
  C:0F2FH         LINE#         80
  C:0F32H         LINE#         81
  C:0F35H         LINE#         82
  C:0F37H         LINE#         83
  C:0F3CH         LINE#         84
  C:0F3FH         LINE#         85
  C:0F41H         LINE#         86
  -------         ENDPROC       I2CRECEIVEBYTE
  C:0F4BH         SYMBOL        L?0035
  -------         PROC          L?0034
  -------         ENDPROC       L?0034
  C:0F4BH         SYMBOL        L?0035
  -------         PROC          I2CWAITACK
  -------         DO            
  D:0005H         SYMBOL        ackbit
  -------         ENDDO         
  C:0F56H         LINE#         89
  C:0F56H         LINE#         90
  C:0F56H         LINE#         93
  C:0F56H         LINE#         94
  C:0F59H         LINE#         95
  C:0F5EH         LINE#         96
  C:0F60H         LINE#         97
  C:0F65H         LINE#         99
  C:0F67H         LINE#         100
  -------         ENDPROC       I2CWAITACK
  -------         PROC          _I2CSENDACK
BL51 BANKED LINKER/LOCATER V6.22.2.0                                                  05/25/2024  17:26:09  PAGE 16


  D:0007H         SYMBOL        ackbit
  C:0003H         LINE#         103
  C:0003H         LINE#         104
  C:0003H         LINE#         105
  C:0005H         LINE#         106
  C:000AH         LINE#         107
  C:000FH         LINE#         108
  C:000FH         LINE#         109
  C:0012H         LINE#         110
  C:0014H         LINE#         111
  C:0016H         LINE#         112
  -------         ENDPROC       _I2CSENDACK
  -------         PROC          _AD_READ
  D:0003H         SYMBOL        addr
  -------         DO            
  D:0005H         SYMBOL        temp
  -------         ENDDO         
  C:0EA7H         LINE#         127
  C:0EA9H         LINE#         128
  C:0EA9H         LINE#         129
  C:0EABH         LINE#         130
  C:0EAEH         LINE#         131
  C:0EB0H         LINE#         132
  C:0EB0H         LINE#         133
  C:0EB0H         LINE#         134
  C:0EB3H         LINE#         136
  C:0EB6H         LINE#         137
  C:0EBBH         LINE#         138
  C:0EBEH         LINE#         139
  C:0EC3H         LINE#         140
  C:0EC8H         LINE#         141
  C:0ECBH         LINE#         142
  C:0ECDH         LINE#         143
  -------         ENDPROC       _AD_READ
  -------         PROC          _EEPROM_WRITE
  D:0009H         SYMBOL        pAT
  D:0002H         SYMBOL        addr
  D:000EH         SYMBOL        num
  C:0E03H         LINE#         145
  C:0E09H         LINE#         146
  C:0E09H         LINE#         147
  C:0E09H         LINE#         148
  C:0E09H         LINE#         149
  C:0E09H         LINE#         150
  C:0E09H         LINE#         151
  C:0E0CH         LINE#         152
  C:0E19H         LINE#         153
  C:0E19H         LINE#         154
  C:0E2EH         LINE#         155
  C:0E31H         LINE#         156
  C:0E36H         LINE#         157
  C:0E38H         LINE#         158
  -------         ENDPROC       _EEPROM_WRITE
  -------         PROC          _EEPROM_READ
  D:0009H         SYMBOL        pAT
  D:0002H         SYMBOL        addr
  D:000EH         SYMBOL        num
BL51 BANKED LINKER/LOCATER V6.22.2.0                                                  05/25/2024  17:26:09  PAGE 17


  C:0CFAH         LINE#         161
  C:0D00H         LINE#         162
  C:0D00H         LINE#         163
  C:0D00H         LINE#         164
  C:0D00H         LINE#         165
  C:0D00H         LINE#         166
  C:0D00H         LINE#         167
  C:0D03H         LINE#         169
  C:0D06H         LINE#         170
  C:0D0BH         LINE#         171
  C:0D0EH         LINE#         172
  C:0D1BH         LINE#         173
  C:0D1BH         LINE#         174
  C:0D30H         LINE#         175
  C:0D3AH         LINE#         176
  C:0D3FH         LINE#         177
  C:0D41H         LINE#         178
  -------         ENDPROC       _EEPROM_READ
  -------         ENDMOD        IIC

  -------         MODULE        ONEWIRE
  C:0000H         SYMBOL        _ICE_DUMMY_
  D:0080H         PUBLIC        P0
  D:0090H         PUBLIC        P1
  D:00A0H         PUBLIC        P2
  D:00B0H         PUBLIC        P3
  D:00C0H         PUBLIC        P4
  C:0F68H         PUBLIC        Read_DS18B20
  D:00C8H         PUBLIC        P5
  D:00E8H         PUBLIC        P6
  D:00F8H         PUBLIC        P7
  D:00A8H         PUBLIC        IE
  C:0F8FH         PUBLIC        _Delay_OneWire
  C:0ECEH         PUBLIC        _Write_DS18B20
  B:0090H.4       PUBLIC        DQ
  D:00B8H         PUBLIC        IP
  C:0EF5H         PUBLIC        init_ds18b20
  D:00D8H         PUBLIC        CCON
  D:0098H         PUBLIC        SCON
  D:0088H         PUBLIC        TCON
  C:0E3BH         PUBLIC        DS18B20_Read_T
  D:00D0H         PUBLIC        PSW
  C:0F8BH         SYMBOL        L?0020
  -------         PROC          L?0019
  -------         ENDPROC       L?0019
  C:0F8BH         SYMBOL        L?0020
  -------         PROC          _DELAY_ONEWIRE
  D:0006H         SYMBOL        t
  -------         DO            
  D:0005H         SYMBOL        i
  -------         ENDDO         
  C:0F8FH         LINE#         12
  C:0F8FH         LINE#         13
  C:0F8FH         LINE#         15
  C:0F99H         LINE#         16
  C:0FA8H         LINE#         17
  C:0FA8H         LINE#         18
BL51 BANKED LINKER/LOCATER V6.22.2.0                                                  05/25/2024  17:26:09  PAGE 18


  -------         ENDPROC       _DELAY_ONEWIRE
  -------         PROC          _WRITE_DS18B20
  D:0001H         SYMBOL        dat
  -------         DO            
  D:0003H         SYMBOL        i
  -------         ENDDO         
  C:0ECEH         LINE#         21
  C:0ED0H         LINE#         22
  C:0ED0H         LINE#         24
  C:0EDCH         LINE#         25
  C:0EDCH         LINE#         26
  C:0EDEH         LINE#         27
  C:0EE2H         LINE#         28
  C:0EE5H         LINE#         29
  C:0EE7H         LINE#         30
  C:0EEBH         LINE#         31
  C:0EEEH         LINE#         32
  -------         ENDPROC       _WRITE_DS18B20
  -------         PROC          READ_DS18B20
  -------         DO            
  D:0003H         SYMBOL        i
  D:0004H         SYMBOL        dat
  -------         ENDDO         
  C:0F68H         LINE#         36
  C:0F68H         LINE#         37
  C:0F68H         LINE#         41
  C:0F74H         LINE#         42
  C:0F74H         LINE#         43
  C:0F76H         LINE#         44
  C:0F7AH         LINE#         45
  C:0F7CH         LINE#         46
  C:0F7FH         LINE#         47
  C:0F7FH         LINE#         48
  C:0F82H         LINE#         49
  C:0F82H         LINE#         50
  C:0F85H         LINE#         51
  C:0F88H         LINE#         52
  C:0F8AH         LINE#         53
  -------         ENDPROC       READ_DS18B20
  -------         PROC          INIT_DS18B20
  -------         DO            
  B:0020H.7       SYMBOL        initflag
  -------         ENDDO         
  C:0EF5H         LINE#         56
  C:0EF5H         LINE#         57
  C:0EF5H         LINE#         58
  C:0EF7H         LINE#         60
  C:0EF9H         LINE#         61
  C:0F00H         LINE#         62
  C:0F02H         LINE#         63
  C:0F09H         LINE#         64
  C:0F0BH         LINE#         65
  C:0F12H         LINE#         66
  C:0F16H         LINE#         67
  C:0F19H         LINE#         69
  C:0F1BH         LINE#         70
  -------         ENDPROC       INIT_DS18B20
BL51 BANKED LINKER/LOCATER V6.22.2.0                                                  05/25/2024  17:26:09  PAGE 19


  -------         PROC          DS18B20_READ_T
  -------         DO            
  D:0007H         SYMBOL        high
  D:0001H         SYMBOL        low
  -------         ENDDO         
  C:0E3BH         LINE#         72
  C:0E3BH         LINE#         73
  C:0E3BH         LINE#         74
  C:0E3EH         LINE#         75
  C:0E41H         LINE#         76
  C:0E46H         LINE#         77
  C:0E4BH         LINE#         78
  C:0E4EH         LINE#         79
  C:0E53H         LINE#         80
  C:0E58H         LINE#         81
  C:0E5DH         LINE#         82
  C:0E60H         LINE#         83
  -------         ENDPROC       DS18B20_READ_T
  -------         ENDMOD        ONEWIRE

  -------         MODULE        ?C?FPADD
  C:0025H         PUBLIC        ?C?FPADD
  C:0021H         PUBLIC        ?C?FPSUB
  -------         ENDMOD        ?C?FPADD

  -------         MODULE        ?C?FPMUL
  C:0116H         PUBLIC        ?C?FPMUL
  -------         ENDMOD        ?C?FPMUL

  -------         MODULE        ?C?FPDIV
  C:021FH         PUBLIC        ?C?FPDIV
  -------         ENDMOD        ?C?FPDIV

  -------         MODULE        ?C?FPCMP
  C:02BEH         PUBLIC        ?C?FPCMP
  C:02BCH         PUBLIC        ?C?FPCMP3
  -------         ENDMOD        ?C?FPCMP

  -------         MODULE        ?C?FCAST
  C:033FH         PUBLIC        ?C?FCASTC
  C:033AH         PUBLIC        ?C?FCASTI
  C:0335H         PUBLIC        ?C?FCASTL
  -------         ENDMOD        ?C?FCAST

  -------         MODULE        ?C?CASTF
  C:0373H         PUBLIC        ?C?CASTF
  -------         ENDMOD        ?C?CASTF

  -------         MODULE        ?C?CLDPTR
  C:03F4H         PUBLIC        ?C?CLDPTR
  -------         ENDMOD        ?C?CLDPTR

  -------         MODULE        ?C?CSTPTR
  C:040DH         PUBLIC        ?C?CSTPTR
  -------         ENDMOD        ?C?CSTPTR

  -------         MODULE        ?C?UIDIV
BL51 BANKED LINKER/LOCATER V6.22.2.0                                                  05/25/2024  17:26:09  PAGE 20


  C:041FH         PUBLIC        ?C?UIDIV
  -------         ENDMOD        ?C?UIDIV

  -------         MODULE        ?C?LNEG
  C:0474H         PUBLIC        ?C?LNEG
  -------         ENDMOD        ?C?LNEG

Program Size: data=93.0 xdata=0 code=4161
LINK/LOCATE RUN COMPLETE.  0 WARNING(S),  0 ERROR(S)
