BL51 BANKED LINKER/LOCATER V6.22.2.0                                                    02/01/2024  14:20:22  PAGE 1


BL51 BANKED LINKER/LOCATER V6.22.2.0, INVOKED BY:
D:\KEIL 5\C51\BIN\BL51.EXE .\Objects\main.obj, .\Objects\Init.obj, .\Objects\Key.obj, .\Objects\Seg.obj, .\Objects\LED.o
>> bj TO .\Objects\2303002124 PRINT (.\Listings\2303002124.m51) RAMSIZE (256)


MEMORY MODEL: SMALL


INPUT MODULES INCLUDED:
  .\Objects\main.obj (MAIN)
  .\Objects\Init.obj (INIT)
  .\Objects\Key.obj (KEY)
  .\Objects\Seg.obj (SEG)
  .\Objects\LED.obj (LED)
  D:\KEIL 5\C51\LIB\C51S.LIB (?C_STARTUP)
  D:\KEIL 5\C51\LIB\C51S.LIB (?C?UIDIV)
  D:\KEIL 5\C51\LIB\C51S.LIB (?C_INIT)


LINK MAP OF MODULE:  .\Objects\2303002124 (MAIN)


            TYPE    BASE      LENGTH    RELOCATION   SEGMENT NAME
            -----------------------------------------------------

            * * * * * * *   D A T A   M E M O R Y   * * * * * * *
            REG     0000H     0008H     ABSOLUTE     "REG BANK 0"
            DATA    0008H     0002H     UNIT         ?DT?LED
                    000AH     0016H                  *** GAP ***
            BIT     0020H.0   0000H.2   UNIT         ?BI?MAIN
            BIT     0020H.2   0000H.1   UNIT         _BIT_GROUP_
                    0020H.3   0000H.5                *** GAP ***
            DATA    0021H     0022H     UNIT         ?DT?MAIN
            IDATA   0043H     0001H     UNIT         ?STACK

            * * * * * * *   C O D E   M E M O R Y   * * * * * * *
            CODE    0000H     0003H     ABSOLUTE     
            CODE    0003H     0017H     UNIT         ?PR?KEY_READ?KEY
            CODE    001AH     0001H     UNIT         ?PR?LED_PROC?MAIN
            CODE    001BH     0003H     ABSOLUTE     
            CODE    001EH     00B2H     UNIT         ?PR?TIMER1_SERVE?MAIN
            CODE    00D0H     008CH     UNIT         ?C_C51STARTUP
            CODE    015CH     0063H     UNIT         ?PR?SEG_PROC?MAIN
            CODE    01BFH     0055H     UNIT         ?C?LIB_CODE
            CODE    0214H     0040H     UNIT         ?PR?_SEG_DISP?SEG
            CODE    0254H     003AH     UNIT         ?PR?_LED_DISP?LED
            CODE    028EH     002BH     UNIT         ?C_INITSEG
            CODE    02B9H     0020H     UNIT         ?PR?KEY_PROC?MAIN
            CODE    02D9H     001DH     UNIT         ?PR?SYSTEM_INIT?INIT
            CODE    02F6H     0015H     UNIT         ?PR?TIMER1_INIT?MAIN
            CODE    030BH     0014H     UNIT         ?PR?MAIN?MAIN
            CODE    031FH     0013H     UNIT         ?PR?TIMER0_INIT?MAIN
            CODE    0332H     0013H     UNIT         ?CO?SEG



OVERLAY MAP OF MODULE:   .\Objects\2303002124 (MAIN)

BL51 BANKED LINKER/LOCATER V6.22.2.0                                                  02/01/2024  14:20:22  PAGE 2



SEGMENT                           BIT_GROUP 
  +--> CALLED SEGMENT          START    LENGTH
----------------------------------------------
?PR?TIMER1_SERVE?MAIN          -----    -----
  +--> ?PR?_SEG_DISP?SEG
  +--> ?PR?_LED_DISP?LED

?PR?_SEG_DISP?SEG              0020H.2  0000H.1
  +--> ?CO?SEG

?PR?_LED_DISP?LED              0020H.2  0000H.1

*** NEW ROOT ***************************************************

?C_C51STARTUP                  -----    -----
  +--> ?PR?MAIN?MAIN
  +--> ?C_INITSEG

?PR?MAIN?MAIN                  -----    -----
  +--> ?PR?TIMER1_INIT?MAIN
  +--> ?PR?TIMER0_INIT?MAIN
  +--> ?PR?SYSTEM_INIT?INIT
  +--> ?PR?KEY_PROC?MAIN
  +--> ?PR?SEG_PROC?MAIN
  +--> ?PR?LED_PROC?MAIN

?PR?KEY_PROC?MAIN              -----    -----
  +--> ?PR?KEY_READ?KEY



SYMBOL TABLE OF MODULE:  .\Objects\2303002124 (MAIN)

  VALUE           TYPE          NAME
  ----------------------------------

  -------         MODULE        MAIN
  C:0000H         SYMBOL        _ICE_DUMMY_
  D:0080H         PUBLIC        P0
  D:0090H         PUBLIC        P1
  D:00A0H         PUBLIC        P2
  D:00B0H         PUBLIC        P3
  D:00C0H         PUBLIC        P4
  B:0020H.0       PUBLIC        Seg_Slow_Flag
  D:00C8H         PUBLIC        P5
  B:00A8H.7       PUBLIC        EA
  D:00E8H         PUBLIC        P6
  D:00F8H         PUBLIC        P7
  D:0023H         PUBLIC        Seg_Point
  D:00A8H         PUBLIC        IE
  B:0020H.1       PUBLIC        Key_Slow_Flag
  D:002BH         PUBLIC        Freq
  C:015CH         PUBLIC        Seg_Proc
  D:00B8H         PUBLIC        IP
  C:001EH         PUBLIC        Timer1_Serve
  D:002DH         PUBLIC        Seg_Buf
BL51 BANKED LINKER/LOCATER V6.22.2.0                                                  02/01/2024  14:20:22  PAGE 3


  C:02B9H         PUBLIC        Key_Proc
  D:0035H         PUBLIC        Slow_Down
  D:00D8H         PUBLIC        CCON
  D:0037H         PUBLIC        Key_Down
  C:030BH         PUBLIC        main
  C:031FH         PUBLIC        Timer0_Init
  C:02F6H         PUBLIC        Timer1_Init
  D:0038H         PUBLIC        Key_UP
  D:0098H         PUBLIC        SCON
  D:0089H         PUBLIC        TMOD
  D:0088H         PUBLIC        TCON
  D:0039H         PUBLIC        Time1s
  D:003BH         PUBLIC        usLED
  D:008EH         PUBLIC        AUXR
  B:0088H.5       PUBLIC        TF0
  B:00A8H.3       PUBLIC        ET1
  B:0088H.7       PUBLIC        TF1
  C:001AH         PUBLIC        LED_Proc
  D:008CH         PUBLIC        TH0
  D:008DH         PUBLIC        TH1
  D:008AH         PUBLIC        TL0
  D:008BH         PUBLIC        TL1
  B:0088H.4       PUBLIC        TR0
  B:0088H.6       PUBLIC        TR1
  D:00D0H         PUBLIC        PSW
  -------         PROC          KEY_PROC
  -------         DO            
  D:0021H         SYMBOL        Key_Val
  D:0022H         SYMBOL        Key_Old
  -------         ENDDO         
  C:02B9H         LINE#         21
  C:02B9H         LINE#         22
  C:02B9H         LINE#         25
  C:02BCH         LINE#         26
  C:02BEH         LINE#         28
  C:02C3H         LINE#         29
  C:02CBH         LINE#         30
  C:02CEH         LINE#         32
  C:02D2H         LINE#         33
  C:02D2H         LINE#         34
  C:02D2H         LINE#         35
  C:02D5H         LINE#         36
  C:02D8H         LINE#         37
  C:02D8H         LINE#         38
  C:02D8H         LINE#         39
  -------         ENDPROC       KEY_PROC
  -------         PROC          SEG_PROC
  C:015CH         LINE#         42
  C:015CH         LINE#         43
  C:015CH         LINE#         44
  C:015FH         LINE#         45
  C:0161H         LINE#         47
  C:0175H         LINE#         48
  C:0189H         LINE#         49
  C:019DH         LINE#         50
  C:01B1H         LINE#         51
  C:01BEH         LINE#         52
BL51 BANKED LINKER/LOCATER V6.22.2.0                                                  02/01/2024  14:20:22  PAGE 4


  -------         ENDPROC       SEG_PROC
  -------         PROC          LED_PROC
  C:001AH         LINE#         55
  C:001AH         LINE#         56
  C:001AH         LINE#         58
  -------         ENDPROC       LED_PROC
  -------         PROC          TIMER1_INIT
  C:02F6H         LINE#         61
  C:02F6H         LINE#         62
  C:02F6H         LINE#         63
  C:02F9H         LINE#         64
  C:02FCH         LINE#         65
  C:02FFH         LINE#         66
  C:0302H         LINE#         67
  C:0304H         LINE#         68
  C:0306H         LINE#         69
  C:0308H         LINE#         70
  C:030AH         LINE#         71
  -------         ENDPROC       TIMER1_INIT
  -------         PROC          TIMER0_INIT
  C:031FH         LINE#         72
  C:031FH         LINE#         73
  C:031FH         LINE#         74
  C:0322H         LINE#         75
  C:0325H         LINE#         76
  C:0328H         LINE#         77
  C:032BH         LINE#         78
  C:032DH         LINE#         79
  C:032FH         LINE#         80
  C:0331H         LINE#         81
  -------         ENDPROC       TIMER0_INIT
  -------         PROC          TIMER1_SERVE
  C:001EH         LINE#         84
  C:003BH         LINE#         86
  C:0054H         LINE#         87
  C:0065H         LINE#         88
  C:007EH         LINE#         89
  C:008EH         LINE#         91
  C:009FH         LINE#         92
  C:009FH         LINE#         93
  C:00A5H         LINE#         94
  C:00AFH         LINE#         95
  C:00B2H         LINE#         96
  C:00B5H         LINE#         97
  C:00B5H         LINE#         98
  -------         ENDPROC       TIMER1_SERVE
  -------         PROC          MAIN
  C:030BH         LINE#         101
  C:030BH         LINE#         102
  C:030BH         LINE#         103
  C:030EH         LINE#         104
  C:0311H         LINE#         105
  C:0314H         LINE#         106
  C:0314H         LINE#         107
  C:0314H         LINE#         108
  C:0317H         LINE#         109
  C:031AH         LINE#         110
BL51 BANKED LINKER/LOCATER V6.22.2.0                                                  02/01/2024  14:20:22  PAGE 5


  C:031DH         LINE#         111
  -------         ENDPROC       MAIN
  -------         ENDMOD        MAIN

  -------         MODULE        INIT
  C:0000H         SYMBOL        _ICE_DUMMY_
  D:0080H         PUBLIC        P0
  C:02D9H         PUBLIC        System_Init
  D:0090H         PUBLIC        P1
  D:00A0H         PUBLIC        P2
  D:00B0H         PUBLIC        P3
  D:00C0H         PUBLIC        P4
  D:00C8H         PUBLIC        P5
  D:00E8H         PUBLIC        P6
  D:00F8H         PUBLIC        P7
  D:00A8H         PUBLIC        IE
  D:00B8H         PUBLIC        IP
  D:00D8H         PUBLIC        CCON
  D:0098H         PUBLIC        SCON
  D:0088H         PUBLIC        TCON
  D:00D0H         PUBLIC        PSW
  -------         PROC          SYSTEM_INIT
  C:02D9H         LINE#         5
  C:02D9H         LINE#         6
  C:02D9H         LINE#         7
  C:02DCH         LINE#         8
  C:02E4H         LINE#         9
  C:02E7H         LINE#         11
  C:02EAH         LINE#         12
  C:02F2H         LINE#         13
  C:02F5H         LINE#         14
  -------         ENDPROC       SYSTEM_INIT
  -------         ENDMOD        INIT

  -------         MODULE        KEY
  C:0000H         SYMBOL        _ICE_DUMMY_
  D:0080H         PUBLIC        P0
  D:0090H         PUBLIC        P1
  D:00A0H         PUBLIC        P2
  D:00B0H         PUBLIC        P3
  D:00C0H         PUBLIC        P4
  D:00C8H         PUBLIC        P5
  D:00E8H         PUBLIC        P6
  D:00F8H         PUBLIC        P7
  C:0003H         PUBLIC        Key_Read
  D:00A8H         PUBLIC        IE
  D:00B8H         PUBLIC        IP
  D:00D8H         PUBLIC        CCON
  B:00B0H.0       PUBLIC        P30
  D:0098H         PUBLIC        SCON
  B:00B0H.1       PUBLIC        P31
  D:0088H         PUBLIC        TCON
  B:00B0H.2       PUBLIC        P32
  B:00B0H.3       PUBLIC        P33
  D:00D0H         PUBLIC        PSW
  -------         PROC          KEY_READ
  -------         DO            
BL51 BANKED LINKER/LOCATER V6.22.2.0                                                  02/01/2024  14:20:22  PAGE 6


  D:0007H         SYMBOL        temp
  -------         ENDDO         
  C:0003H         LINE#         6
  C:0003H         LINE#         7
  C:0003H         LINE#         8
  C:0005H         LINE#         9
  C:000AH         LINE#         10
  C:000FH         LINE#         11
  C:0014H         LINE#         12
  C:0019H         LINE#         13
  C:0019H         LINE#         14
  -------         ENDPROC       KEY_READ
  -------         ENDMOD        KEY

  -------         MODULE        SEG
  C:0000H         SYMBOL        _ICE_DUMMY_
  D:0080H         PUBLIC        P0
  D:0090H         PUBLIC        P1
  D:00A0H         PUBLIC        P2
  D:00B0H         PUBLIC        P3
  D:00C0H         PUBLIC        P4
  D:00C8H         PUBLIC        P5
  D:00E8H         PUBLIC        P6
  D:00F8H         PUBLIC        P7
  C:0332H         PUBLIC        Seg_Dula
  D:00A8H         PUBLIC        IE
  C:0214H         PUBLIC        _Seg_Disp
  D:00B8H         PUBLIC        IP
  C:033DH         PUBLIC        Seg_Wula
  D:00D8H         PUBLIC        CCON
  D:0098H         PUBLIC        SCON
  D:0088H         PUBLIC        TCON
  D:00D0H         PUBLIC        PSW
  -------         PROC          _SEG_DISP
  D:0007H         SYMBOL        Wula
  D:0004H         SYMBOL        Dula
  B:0020H.2       SYMBOL        Point
  C:0214H         LINE#         9
  C:0214H         LINE#         10
  C:0214H         LINE#         11
  C:0217H         LINE#         12
  C:021FH         LINE#         13
  C:0222H         LINE#         15
  C:0229H         LINE#         16
  C:0231H         LINE#         17
  C:0234H         LINE#         19
  C:0242H         LINE#         20
  C:0245H         LINE#         21
  C:0248H         LINE#         22
  C:0250H         LINE#         23
  C:0253H         LINE#         24
  -------         ENDPROC       _SEG_DISP
  -------         ENDMOD        SEG

  -------         MODULE        LED
  C:0000H         SYMBOL        _ICE_DUMMY_
  D:0080H         PUBLIC        P0
BL51 BANKED LINKER/LOCATER V6.22.2.0                                                  02/01/2024  14:20:22  PAGE 7


  D:0090H         PUBLIC        P1
  D:00A0H         PUBLIC        P2
  D:00B0H         PUBLIC        P3
  D:00C0H         PUBLIC        P4
  D:00C8H         PUBLIC        P5
  D:00E8H         PUBLIC        P6
  D:00F8H         PUBLIC        P7
  D:00A8H         PUBLIC        IE
  D:00B8H         PUBLIC        IP
  D:00D8H         PUBLIC        CCON
  D:0098H         PUBLIC        SCON
  D:0088H         PUBLIC        TCON
  C:0254H         PUBLIC        _LED_Disp
  D:00D0H         PUBLIC        PSW
  -------         PROC          _LED_DISP
  D:0007H         SYMBOL        addr
  B:0020H.2       SYMBOL        enable
  -------         DO            
  D:0008H         SYMBOL        temp
  D:0009H         SYMBOL        temp_old
  -------         ENDDO         
  C:0254H         LINE#         8
  C:0254H         LINE#         9
  C:0254H         LINE#         13
  C:0257H         LINE#         14
  C:0266H         LINE#         16
  C:0274H         LINE#         18
  C:027AH         LINE#         19
  C:027AH         LINE#         20
  C:027FH         LINE#         21
  C:0287H         LINE#         22
  C:028AH         LINE#         23
  C:028DH         LINE#         24
  C:028DH         LINE#         25
  -------         ENDPROC       _LED_DISP
  -------         ENDMOD        LED

  -------         MODULE        ?C?UIDIV
  C:01BFH         PUBLIC        ?C?UIDIV
  -------         ENDMOD        ?C?UIDIV

Program Size: data=45.3 xdata=0 code=837
LINK/LOCATE RUN COMPLETE.  0 WARNING(S),  0 ERROR(S)
