C51 COMPILER V9.59.0.0   MAIN                                                              02/01/2024 14:17:32 PAGE 1   


C51 COMPILER V9.59.0.0, COMPILATION OF MODULE MAIN
OBJECT MODULE PLACED IN .\Objects\main.obj
COMPILER INVOKED BY: D:\keil 5\C51\BIN\C51.EXE main.c OPTIMIZE(8,SPEED) BROWSE INCDIR(..\Drivers;..\User) DEBUG OBJECTEX
                    -TEND PRINT(.\Listings\main.lst) OBJECT(.\Objects\main.obj)

line level    source

   1          /* 头文件声明区 */
   2          #include <STC15F2K60S2.H>
   3          #include "Init.h"
   4          #include "Key.h"
   5          #include "Seg.h"
   6          #include "LED.h"
   7          
   8          
   9          /* 模版变量声明区 */
  10          unsigned int Slow_Down;                 //减速扫描专用
  11          bit Key_Slow_Flag, Seg_Slow_Flag;       //按键数码管减速标志位
  12          unsigned char Key_UP, Key_Down;         //按键捕获上升下降沿
  13          unsigned char Seg_Buf[8] = {10, 10, 10, 10, 10, 10, 10, 10};                //数码管数字显示缓冲区
  14          unsigned char Seg_Point[8] = {0, 0, 0, 0, 0, 0, 0, 0};                      //数码管小数点显示缓冲区
  15          unsigned char usLED[8] = {0, 0, 0, 0, 0, 0, 0, 0};                          //LED显示缓冲区
  16          
  17          /* 用户自定义变量声明区 */
  18          unsigned int Freq, Time1s;
  19          
  20          /* 按键处理函数 */
  21          void Key_Proc()
  22          {
  23   1          static unsigned char Key_Val = 0, Key_Old = 0;          //按键取键码，辅助扫描专用
  24   1          
  25   1          if (Key_Slow_Flag) return;                              //减速
  26   1          Key_Slow_Flag = 1;
  27   1          
  28   1          Key_Val = Key_Read();                                   //获取键码
  29   1          Key_Down = Key_Val & (Key_Val ^ Key_Old);               //捕获下降沿
  30   1          Key_Old = Key_Val;                                      //辅助扫描
  31   1          
  32   1          switch (Key_Down)
  33   1          {
  34   2              case 4:
  35   2                  Seg_Buf[0] = 4;
  36   2                  usLED[0] ^= 1;
  37   2              break;
  38   2          }
  39   1      }
  40          
  41          /* 数码管处理函数 */
  42          void Seg_Proc()
  43          {
  44   1          if (Seg_Slow_Flag) return;
  45   1          Seg_Slow_Flag = 1;
  46   1          
  47   1          Seg_Buf[0] = Freq / 10000 % 10;
  48   1          Seg_Buf[1] = Freq / 1000 % 10;
  49   1          Seg_Buf[2] = Freq / 100 % 10;
  50   1          Seg_Buf[3] = Freq / 10 % 10;
  51   1          Seg_Buf[4] = Freq % 10;
  52   1      }
  53          
  54          /* LED处理函数 */
C51 COMPILER V9.59.0.0   MAIN                                                              02/01/2024 14:17:32 PAGE 2   

  55          void LED_Proc()
  56          {
  57   1          
  58   1      }
  59          
  60          /* 定时器初始化函数 */
  61          void Timer1_Init(void)          //1毫秒@12.000MHz
  62          {
  63   1          AUXR &= 0xBF;                       //定时器时钟12T模式
  64   1          TMOD &= 0x0F;                       //设置定时器模式
  65   1          TL1 = 0x18;                         //设置定时初始值
  66   1          TH1 = 0xFC;                         //设置定时初始值
  67   1          TF1 = 0;                            //清除TF1标志
  68   1          TR1 = 1;                            //定时器1开始计时
  69   1          ET1 = 1;
  70   1          EA  = 1;
  71   1      }
  72          void Timer0_Init(void)          //0毫秒@12.000MHz
  73          {
  74   1          AUXR &= 0x7F;                       //定时器时钟12T模式
  75   1          TMOD &= 0xF0;                       //设置定时器模式
  76   1          TMOD |= 0x05;
  77   1          TL0 = 0x00;                         //设置定时初始值
  78   1          TH0 = 0x00;                         //设置定时初始值
  79   1          TF0 = 0;                            //清除TF0标志
  80   1          TR0 = 1;                            //定时器0开始计时
  81   1      }
  82          
  83          /* 定时器中断服务函数 */
  84          void Timer1_Serve() interrupt 3
  85          {
  86   1          if (++Slow_Down == 400) Slow_Down = Seg_Slow_Flag = 0;
  87   1          if (Slow_Down % 10 == 0) Key_Slow_Flag = 0;
  88   1          Seg_Disp(Slow_Down%8, Seg_Buf[Slow_Down%8], Seg_Point[Slow_Down%8]);
  89   1          LED_Disp(Slow_Down%8, usLED[Slow_Down%8]);
  90   1          
  91   1          if (++Time1s == 1000)
  92   1          {
  93   2              Time1s = 0;
  94   2              Freq = TH0 << 8 | TL0;
  95   2              TH0 = 0;
  96   2              TL0 = 0;
  97   2          }
  98   1      }
  99          
 100          /* 主函数 */
 101          void main()
 102          {
 103   1          Timer1_Init();
 104   1          Timer0_Init();
 105   1          System_Init();
 106   1          while (1)
 107   1          {
 108   2              Key_Proc();
 109   2              Seg_Proc();
 110   2              LED_Proc();
 111   2          }
 112   1      }
 113          
 114          
 115          
 116          
C51 COMPILER V9.59.0.0   MAIN                                                              02/01/2024 14:17:32 PAGE 3   

 117          
 118          
 119          
 120          
 121          
 122          


MODULE INFORMATION:   STATIC OVERLAYABLE
   CODE SIZE        =    370    ----
   CONSTANT SIZE    =   ----    ----
   XDATA SIZE       =   ----    ----
   PDATA SIZE       =   ----    ----
   DATA SIZE        =     34    ----
   IDATA SIZE       =   ----    ----
   BIT SIZE         =      2    ----
END OF MODULE INFORMATION.


C51 COMPILATION COMPLETE.  0 WARNING(S),  0 ERROR(S)
