BL51 BANKED LINKER/LOCATER V6.22.2.0                                                    02/01/2024  17:15:47  PAGE 1


BL51 BANKED LINKER/LOCATER V6.22.2.0, INVOKED BY:
D:\KEIL 5\C51\BIN\BL51.EXE .\Objects\main.obj, .\Objects\Init.obj, .\Objects\Key.obj, .\Objects\Seg.obj, .\Objects\LED.o
>> bj, .\Objects\iic.obj TO .\Objects\2303002124 PRINT (.\Listings\2303002124.m51) RAMSIZE (256)


MEMORY MODEL: SMALL WITH FLOATING POINT ARITHMETIC


INPUT MODULES INCLUDED:
  .\Objects\main.obj (MAIN)
  .\Objects\Init.obj (INIT)
  .\Objects\Key.obj (KEY)
  .\Objects\Seg.obj (SEG)
  .\Objects\LED.obj (LED)
  .\Objects\iic.obj (IIC)
  D:\KEIL 5\C51\LIB\C51FPS.LIB (?C?FPMUL)
  D:\KEIL 5\C51\LIB\C51FPS.LIB (?C?FPDIV)
  D:\KEIL 5\C51\LIB\C51FPS.LIB (?C?FPCMP)
  D:\KEIL 5\C51\LIB\C51FPS.LIB (?C?FCAST)
  D:\KEIL 5\C51\LIB\C51FPS.LIB (?C?CASTF)
  D:\KEIL 5\C51\LIB\C51FPS.LIB (?C?FPGETOPN)
  D:\KEIL 5\C51\LIB\C51S.LIB (?C_STARTUP)
  D:\KEIL 5\C51\LIB\C51S.LIB (?C?UIDIV)
  D:\KEIL 5\C51\LIB\C51S.LIB (?C?LNEG)
  D:\KEIL 5\C51\LIB\C51S.LIB (?C_INIT)


LINK MAP OF MODULE:  .\Objects\2303002124 (MAIN)


            TYPE    BASE      LENGTH    RELOCATION   SEGMENT NAME
            -----------------------------------------------------

            * * * * * * *   D A T A   M E M O R Y   * * * * * * *
            REG     0000H     0008H     ABSOLUTE     "REG BANK 0"
            DATA    0008H     0002H     UNIT         ?DT?LED
            DATA    000AH     0001H     UNIT         _DATA_GROUP_
                    000BH     0015H                  *** GAP ***
            BIT     0020H.0   0000H.5   UNIT         ?BI?MAIN
            BIT     0020H.5   0000H.2   UNIT         _BIT_GROUP_
                    0020H.7   0000H.1                *** GAP ***
            DATA    0021H     0027H     UNIT         ?DT?MAIN
            IDATA   0048H     0001H     UNIT         ?STACK

            * * * * * * *   C O D E   M E M O R Y   * * * * * * *
            CODE    0000H     0003H     ABSOLUTE     
            CODE    0003H     0017H     UNIT         ?PR?KEY_READ?KEY
                    001AH     0001H                  *** GAP ***
            CODE    001BH     0003H     ABSOLUTE     
            CODE    001EH     0341H     UNIT         ?C?LIB_CODE
            CODE    035FH     0102H     UNIT         ?PR?SEG_PROC?MAIN
            CODE    0461H     00C5H     UNIT         ?PR?TIMER1_SERVE?MAIN
            CODE    0526H     00B0H     UNIT         ?PR?LED_PROC?MAIN
            CODE    05D6H     008CH     UNIT         ?C_C51STARTUP
            CODE    0662H     0041H     UNIT         ?PR?KEY_PROC?MAIN
            CODE    06A3H     0040H     UNIT         ?PR?_SEG_DISP?SEG
            CODE    06E3H     003AH     UNIT         ?PR?_LED_DISP?LED
            CODE    071DH     0035H     UNIT         ?PR?_IIC_SENDBYTE?IIC
BL51 BANKED LINKER/LOCATER V6.22.2.0                                                  02/01/2024  17:15:47  PAGE 2


            CODE    0752H     0035H     UNIT         ?PR?_AD_READ?IIC
            CODE    0787H     0031H     UNIT         ?C_INITSEG
            CODE    07B8H     0026H     UNIT         ?PR?IIC_RECBYTE?IIC
            CODE    07DEH     001DH     UNIT         ?PR?SYSTEM_INIT?INIT
            CODE    07FBH     001BH     UNIT         ?PR?IIC_WAITACK?IIC
            CODE    0816H     0017H     UNIT         ?PR?IIC_SENDACK?IIC
            CODE    082DH     0016H     UNIT         ?PR?_DA_WRITE?IIC
            CODE    0843H     0015H     UNIT         ?PR?TIMER1_INIT?MAIN
            CODE    0858H     0015H     UNIT         ?CO?SEG
            CODE    086DH     0014H     UNIT         ?PR?MAIN?MAIN
            CODE    0881H     0013H     UNIT         ?PR?TIMER0_INIT?MAIN
            CODE    0894H     000FH     UNIT         ?PR?IIC_START?IIC
            CODE    08A3H     000CH     UNIT         ?PR?_IIC_DELAY?IIC
            CODE    08AFH     000CH     UNIT         ?PR?IIC_STOP?IIC



OVERLAY MAP OF MODULE:   .\Objects\2303002124 (MAIN)


SEGMENT                           BIT_GROUP          DATA_GROUP 
  +--> CALLED SEGMENT          START    LENGTH     START    LENGTH
------------------------------------------------------------------
?PR?TIMER1_SERVE?MAIN          -----    -----      -----    -----
  +--> ?PR?_SEG_DISP?SEG
  +--> ?PR?_LED_DISP?LED

?PR?_SEG_DISP?SEG              0020H.5  0000H.1    -----    -----
  +--> ?CO?SEG

?PR?_LED_DISP?LED              0020H.5  0000H.1    -----    -----

*** NEW ROOT ***************************************************

?C_C51STARTUP                  -----    -----      -----    -----
  +--> ?PR?MAIN?MAIN
  +--> ?C_INITSEG

?PR?MAIN?MAIN                  -----    -----      -----    -----
  +--> ?PR?SYSTEM_INIT?INIT
  +--> ?PR?TIMER0_INIT?MAIN
  +--> ?PR?TIMER1_INIT?MAIN
  +--> ?PR?KEY_PROC?MAIN
  +--> ?PR?SEG_PROC?MAIN
  +--> ?PR?LED_PROC?MAIN

?PR?KEY_PROC?MAIN              -----    -----      -----    -----
  +--> ?PR?KEY_READ?KEY

?PR?SEG_PROC?MAIN              -----    -----      000AH    0001H
  +--> ?PR?_AD_READ?IIC

?PR?_AD_READ?IIC               -----    -----      -----    -----
  +--> ?PR?IIC_WAITACK?IIC
  +--> ?PR?_IIC_SENDBYTE?IIC
  +--> ?PR?IIC_START?IIC
  +--> ?PR?IIC_RECBYTE?IIC
BL51 BANKED LINKER/LOCATER V6.22.2.0                                                  02/01/2024  17:15:47  PAGE 3


  +--> ?PR?IIC_SENDACK?IIC
  +--> ?PR?IIC_STOP?IIC

?PR?IIC_WAITACK?IIC            0020H.6  0000H.1    -----    -----
  +--> ?PR?IIC_START?IIC
  +--> ?PR?_IIC_SENDBYTE?IIC
  +--> ?PR?_IIC_DELAY?IIC

?PR?IIC_START?IIC              -----    -----      -----    -----
  +--> ?PR?_IIC_DELAY?IIC

?PR?_IIC_SENDBYTE?IIC          -----    -----      -----    -----
  +--> ?PR?_IIC_DELAY?IIC

?PR?IIC_RECBYTE?IIC            -----    -----      -----    -----
  +--> ?PR?_IIC_DELAY?IIC

?PR?IIC_SENDACK?IIC            0020H.6  0000H.1    -----    -----
  +--> ?PR?_IIC_DELAY?IIC

?PR?IIC_STOP?IIC               -----    -----      -----    -----
  +--> ?PR?_IIC_DELAY?IIC

?PR?LED_PROC?MAIN              -----    -----      000AH    0001H
  +--> ?PR?_DA_WRITE?IIC

?PR?_DA_WRITE?IIC              -----    -----      -----    -----
  +--> ?PR?IIC_WAITACK?IIC
  +--> ?PR?_IIC_SENDBYTE?IIC
  +--> ?PR?IIC_STOP?IIC



SYMBOL TABLE OF MODULE:  .\Objects\2303002124 (MAIN)

  VALUE           TYPE          NAME
  ----------------------------------

  -------         MODULE        MAIN
  C:0000H         SYMBOL        _ICE_DUMMY_
  D:0080H         PUBLIC        P0
  D:0090H         PUBLIC        P1
  D:00A0H         PUBLIC        P2
  D:00B0H         PUBLIC        P3
  D:00C0H         PUBLIC        P4
  B:0020H.0       PUBLIC        Seg_Slow_Flag
  D:00C8H         PUBLIC        P5
  D:0025H         PUBLIC        AD_DA_dat
  B:00A8H.7       PUBLIC        EA
  D:00E8H         PUBLIC        P6
  D:00F8H         PUBLIC        P7
  D:0029H         PUBLIC        Seg_Point
  D:00A8H         PUBLIC        IE
  B:0020H.1       PUBLIC        Key_Slow_Flag
  D:0031H         PUBLIC        Freq
  C:035FH         PUBLIC        Seg_Proc
  D:00B8H         PUBLIC        IP
BL51 BANKED LINKER/LOCATER V6.22.2.0                                                  02/01/2024  17:15:47  PAGE 4


  B:0020H.2       PUBLIC        LED_Control
  C:0461H         PUBLIC        Timer1_Serve
  D:0033H         PUBLIC        Seg_Buf
  C:0662H         PUBLIC        Key_Proc
  D:003BH         PUBLIC        Slow_Down
  D:00D8H         PUBLIC        CCON
  C:086DH         PUBLIC        main
  C:0881H         PUBLIC        Timer0_Init
  C:0843H         PUBLIC        Timer1_Init
  B:0020H.3       PUBLIC        DAC_Mode
  D:0098H         PUBLIC        SCON
  D:003DH         PUBLIC        Time1000ms
  D:0089H         PUBLIC        TMOD
  D:0088H         PUBLIC        TCON
  D:003FH         PUBLIC        usLED
  D:008EH         PUBLIC        AUXR
  B:0088H.5       PUBLIC        TF0
  B:00A8H.3       PUBLIC        ET1
  B:0088H.7       PUBLIC        TF1
  C:0526H         PUBLIC        LED_Proc
  D:008CH         PUBLIC        TH0
  D:008DH         PUBLIC        TH1
  D:008AH         PUBLIC        TL0
  D:008BH         PUBLIC        TL1
  B:0088H.4       PUBLIC        TR0
  B:0088H.6       PUBLIC        TR1
  B:0020H.4       PUBLIC        Seg_Control
  D:0047H         PUBLIC        Seg_Disp_Mode
  D:00D0H         PUBLIC        PSW
  -------         PROC          KEY_PROC
  -------         DO            
  D:0021H         SYMBOL        Key_Val
  D:0022H         SYMBOL        Key_Old
  D:0023H         SYMBOL        Key_UP
  D:0024H         SYMBOL        Key_Down
  -------         ENDDO         
  C:0662H         LINE#         22
  C:0662H         LINE#         23
  C:0662H         LINE#         27
  C:0665H         LINE#         28
  C:0667H         LINE#         30
  C:066CH         LINE#         31
  C:0677H         LINE#         32
  C:067CH         LINE#         33
  C:067FH         LINE#         35
  C:068DH         LINE#         36
  C:068DH         LINE#         38
  C:0691H         LINE#         40
  C:0697H         LINE#         42
  C:069DH         LINE#         44
  C:06A2H         LINE#         45
  C:06A2H         LINE#         46
  -------         ENDPROC       KEY_PROC
  -------         PROC          SEG_PROC
  -------         DO            
  D:000AH         SYMBOL        i
  -------         ENDDO         
BL51 BANKED LINKER/LOCATER V6.22.2.0                                                  02/01/2024  17:15:47  PAGE 5


  C:035FH         LINE#         49
  C:035FH         LINE#         50
  C:035FH         LINE#         51
  C:0362H         LINE#         53
  C:0368H         LINE#         54
  C:036AH         LINE#         56
  C:0377H         LINE#         58
  C:0382H         LINE#         59
  C:0382H         LINE#         61
  C:0382H         LINE#         62
  C:0385H         LINE#         63
  C:0388H         LINE#         64
  C:038BH         LINE#         65
  C:039EH         LINE#         66
  C:03A1H         LINE#         67
  C:03BEH         LINE#         68
  C:03DCH         LINE#         69
  C:03DDH         LINE#         71
  C:03DDH         LINE#         72
  C:03E0H         LINE#         73
  C:03F4H         LINE#         74
  C:0408H         LINE#         75
  C:041CH         LINE#         76
  C:041FH         LINE#         77
  C:0432H         LINE#         78
  C:043FH         LINE#         79
  C:044DH         LINE#         80
  C:044DH         LINE#         81
  C:0455H         LINE#         82
  C:0455H         LINE#         84
  C:045CH         LINE#         85
  C:0460H         LINE#         86
  C:0460H         LINE#         87
  C:0460H         LINE#         90
  -------         ENDPROC       SEG_PROC
  -------         PROC          LED_PROC
  -------         DO            
  D:000AH         SYMBOL        i
  -------         ENDDO         
  C:0526H         LINE#         93
  C:0526H         LINE#         94
  C:0526H         LINE#         95
  C:0529H         LINE#         98
  C:052CH         LINE#         99
  C:0542H         LINE#         101
  C:0547H         LINE#         105
  C:0555H         LINE#         106
  C:056BH         LINE#         109
  C:05A7H         LINE#         110
  C:05ACH         LINE#         112
  C:05AFH         LINE#         115
  C:05CEH         LINE#         116
  C:05D2H         LINE#         118
  C:05D5H         LINE#         119
  -------         ENDPROC       LED_PROC
  -------         PROC          TIMER0_INIT
  C:0881H         LINE#         122
BL51 BANKED LINKER/LOCATER V6.22.2.0                                                  02/01/2024  17:15:47  PAGE 6


  C:0881H         LINE#         123
  C:0881H         LINE#         124
  C:0884H         LINE#         125
  C:0887H         LINE#         126
  C:088AH         LINE#         127
  C:088DH         LINE#         128
  C:088FH         LINE#         129
  C:0891H         LINE#         130
  C:0893H         LINE#         131
  -------         ENDPROC       TIMER0_INIT
  -------         PROC          TIMER1_INIT
  C:0843H         LINE#         132
  C:0843H         LINE#         133
  C:0843H         LINE#         134
  C:0846H         LINE#         135
  C:0849H         LINE#         136
  C:084CH         LINE#         137
  C:084FH         LINE#         138
  C:0851H         LINE#         139
  C:0853H         LINE#         140
  C:0855H         LINE#         141
  C:0857H         LINE#         142
  -------         ENDPROC       TIMER1_INIT
  -------         PROC          TIMER1_SERVE
  C:0461H         LINE#         145
  C:047EH         LINE#         148
  C:0497H         LINE#         149
  C:04A8H         LINE#         152
  C:04AFH         LINE#         153
  C:04C3H         LINE#         155
  C:04CDH         LINE#         158
  C:04D5H         LINE#         159
  C:04DFH         LINE#         161
  C:04E4H         LINE#         164
  C:04F5H         LINE#         165
  C:04F5H         LINE#         166
  C:04FBH         LINE#         167
  C:0505H         LINE#         168
  C:0508H         LINE#         169
  C:050BH         LINE#         170
  C:050BH         LINE#         171
  -------         ENDPROC       TIMER1_SERVE
  -------         PROC          MAIN
  C:086DH         LINE#         174
  C:086DH         LINE#         175
  C:086DH         LINE#         176
  C:0870H         LINE#         177
  C:0873H         LINE#         178
  C:0876H         LINE#         180
  C:0876H         LINE#         181
  C:0876H         LINE#         182
  C:0879H         LINE#         183
  C:087CH         LINE#         184
  C:087FH         LINE#         185
  -------         ENDPROC       MAIN
  -------         ENDMOD        MAIN

BL51 BANKED LINKER/LOCATER V6.22.2.0                                                  02/01/2024  17:15:47  PAGE 7


  -------         MODULE        INIT
  C:0000H         SYMBOL        _ICE_DUMMY_
  C:07DEH         PUBLIC        System_Init
  D:0080H         PUBLIC        P0
  D:0090H         PUBLIC        P1
  D:00A0H         PUBLIC        P2
  D:00B0H         PUBLIC        P3
  D:00C0H         PUBLIC        P4
  D:00C8H         PUBLIC        P5
  D:00E8H         PUBLIC        P6
  D:00F8H         PUBLIC        P7
  D:00A8H         PUBLIC        IE
  D:00B8H         PUBLIC        IP
  D:00D8H         PUBLIC        CCON
  D:0098H         PUBLIC        SCON
  D:0088H         PUBLIC        TCON
  D:00D0H         PUBLIC        PSW
  -------         PROC          SYSTEM_INIT
  C:07DEH         LINE#         6
  C:07DEH         LINE#         7
  C:07DEH         LINE#         8
  C:07E1H         LINE#         9
  C:07E9H         LINE#         10
  C:07ECH         LINE#         12
  C:07EFH         LINE#         13
  C:07F7H         LINE#         14
  C:07FAH         LINE#         15
  -------         ENDPROC       SYSTEM_INIT
  -------         ENDMOD        INIT

  -------         MODULE        KEY
  C:0000H         SYMBOL        _ICE_DUMMY_
  D:0080H         PUBLIC        P0
  D:0090H         PUBLIC        P1
  D:00A0H         PUBLIC        P2
  D:00B0H         PUBLIC        P3
  D:00C0H         PUBLIC        P4
  D:00C8H         PUBLIC        P5
  D:00E8H         PUBLIC        P6
  D:00F8H         PUBLIC        P7
  C:0003H         PUBLIC        Key_Read
  D:00A8H         PUBLIC        IE
  D:00B8H         PUBLIC        IP
  D:00D8H         PUBLIC        CCON
  B:00B0H.0       PUBLIC        P30
  D:0098H         PUBLIC        SCON
  B:00B0H.1       PUBLIC        P31
  D:0088H         PUBLIC        TCON
  B:00B0H.2       PUBLIC        P32
  B:00B0H.3       PUBLIC        P33
  D:00D0H         PUBLIC        PSW
  -------         PROC          KEY_READ
  -------         DO            
  D:0007H         SYMBOL        temp
  -------         ENDDO         
  C:0003H         LINE#         6
  C:0003H         LINE#         7
BL51 BANKED LINKER/LOCATER V6.22.2.0                                                  02/01/2024  17:15:47  PAGE 8


  C:0003H         LINE#         8
  C:0005H         LINE#         9
  C:000AH         LINE#         10
  C:000FH         LINE#         11
  C:0014H         LINE#         12
  C:0019H         LINE#         13
  C:0019H         LINE#         14
  -------         ENDPROC       KEY_READ
  -------         ENDMOD        KEY

  -------         MODULE        SEG
  C:0000H         SYMBOL        _ICE_DUMMY_
  D:0080H         PUBLIC        P0
  D:0090H         PUBLIC        P1
  D:00A0H         PUBLIC        P2
  D:00B0H         PUBLIC        P3
  D:00C0H         PUBLIC        P4
  D:00C8H         PUBLIC        P5
  D:00E8H         PUBLIC        P6
  D:00F8H         PUBLIC        P7
  C:0860H         PUBLIC        Seg_Dula
  D:00A8H         PUBLIC        IE
  C:06A3H         PUBLIC        _Seg_Disp
  D:00B8H         PUBLIC        IP
  C:0858H         PUBLIC        Seg_Wula
  D:00D8H         PUBLIC        CCON
  D:0098H         PUBLIC        SCON
  D:0088H         PUBLIC        TCON
  D:00D0H         PUBLIC        PSW
  -------         PROC          _SEG_DISP
  D:0007H         SYMBOL        Wula
  D:0004H         SYMBOL        Dula
  B:0020H.5       SYMBOL        Point
  C:06A3H         LINE#         9
  C:06A3H         LINE#         10
  C:06A3H         LINE#         11
  C:06A6H         LINE#         12
  C:06AEH         LINE#         13
  C:06B1H         LINE#         15
  C:06B8H         LINE#         16
  C:06C0H         LINE#         17
  C:06C3H         LINE#         19
  C:06D1H         LINE#         20
  C:06D4H         LINE#         21
  C:06D7H         LINE#         22
  C:06DFH         LINE#         23
  C:06E2H         LINE#         24
  -------         ENDPROC       _SEG_DISP
  -------         ENDMOD        SEG

  -------         MODULE        LED
  C:0000H         SYMBOL        _ICE_DUMMY_
  D:0080H         PUBLIC        P0
  D:0090H         PUBLIC        P1
  D:00A0H         PUBLIC        P2
  D:00B0H         PUBLIC        P3
  D:00C0H         PUBLIC        P4
BL51 BANKED LINKER/LOCATER V6.22.2.0                                                  02/01/2024  17:15:47  PAGE 9


  D:00C8H         PUBLIC        P5
  D:00E8H         PUBLIC        P6
  D:00F8H         PUBLIC        P7
  D:00A8H         PUBLIC        IE
  D:00B8H         PUBLIC        IP
  D:00D8H         PUBLIC        CCON
  D:0098H         PUBLIC        SCON
  D:0088H         PUBLIC        TCON
  C:06E3H         PUBLIC        _LED_Disp
  D:00D0H         PUBLIC        PSW
  -------         PROC          _LED_DISP
  D:0007H         SYMBOL        addr
  B:0020H.5       SYMBOL        enable
  -------         DO            
  D:0008H         SYMBOL        temp
  D:0009H         SYMBOL        temp_old
  -------         ENDDO         
  C:06E3H         LINE#         6
  C:06E3H         LINE#         7
  C:06E3H         LINE#         11
  C:06E6H         LINE#         12
  C:06F5H         LINE#         14
  C:0703H         LINE#         16
  C:0709H         LINE#         17
  C:0709H         LINE#         18
  C:070EH         LINE#         19
  C:0716H         LINE#         20
  C:0719H         LINE#         21
  C:071CH         LINE#         22
  C:071CH         LINE#         23
  -------         ENDPROC       _LED_DISP
  -------         ENDMOD        LED

  -------         MODULE        IIC
  C:0000H         SYMBOL        _ICE_DUMMY_
  D:0090H         PUBLIC        P1
  D:00A0H         PUBLIC        P2
  D:00B0H         PUBLIC        P3
  D:00A8H         PUBLIC        IE
  D:00B8H         PUBLIC        IP
  C:08A7H         PUBLIC        _IIC_Delay
  D:0098H         PUBLIC        SCON
  D:0088H         PUBLIC        TCON
  C:0894H         PUBLIC        IIC_Start
  C:0816H         PUBLIC        IIC_SendAck
  B:00A0H.1       PUBLIC        SDA
  C:071DH         PUBLIC        _IIC_SendByte
  C:0805H         PUBLIC        IIC_WaitAck
  C:08AFH         PUBLIC        IIC_Stop
  B:00A0H.0       PUBLIC        SCL
  C:0752H         PUBLIC        _AD_Read
  D:00C8H         PUBLIC        T2CON
  C:07B8H         PUBLIC        IIC_RecByte
  C:082DH         PUBLIC        _DA_Write
  D:00D0H         PUBLIC        PSW
  C:08A3H         SYMBOL        L?0024
  -------         PROC          L?0023
BL51 BANKED LINKER/LOCATER V6.22.2.0                                                  02/01/2024  17:15:47  PAGE 10


  -------         ENDPROC       L?0023
  C:08A3H         SYMBOL        L?0024
  -------         PROC          _IIC_DELAY
  D:0007H         SYMBOL        i
  C:08A7H         LINE#         11
  C:08A7H         LINE#         12
  C:08A7H         LINE#         13
  C:08A8H         LINE#         14
  C:08AEH         LINE#         15
  -------         ENDPROC       _IIC_DELAY
  -------         PROC          IIC_START
  C:0894H         LINE#         18
  C:0894H         LINE#         19
  C:0894H         LINE#         20
  C:0896H         LINE#         21
  C:0896H         LINE#         22
  C:0899H         LINE#         23
  C:089BH         LINE#         24
  C:08A0H         LINE#         25
  C:08A2H         LINE#         26
  -------         ENDPROC       IIC_START
  -------         PROC          IIC_STOP
  C:08AFH         LINE#         29
  C:08AFH         LINE#         30
  C:08AFH         LINE#         31
  C:08B1H         LINE#         32
  C:08B1H         LINE#         33
  C:08B4H         LINE#         34
  C:08B6H         LINE#         35
  -------         ENDPROC       IIC_STOP
  -------         PROC          IIC_SENDACK
  B:0020H.6       SYMBOL        ackbit
  C:0816H         LINE#         39
  C:0816H         LINE#         40
  C:0816H         LINE#         41
  C:0818H         LINE#         42
  C:081CH         LINE#         43
  C:0821H         LINE#         44
  C:0821H         LINE#         45
  C:0824H         LINE#         46
  C:0826H         LINE#         47
  C:0828H         LINE#         48
  -------         ENDPROC       IIC_SENDACK
  -------         PROC          L?0022
  -------         ENDPROC       L?0022
  -------         PROC          IIC_WAITACK
  -------         DO            
  B:0020H.6       SYMBOL        ackbit
  -------         ENDDO         
  C:0805H         LINE#         52
  C:0805H         LINE#         53
  C:0805H         LINE#         56
  C:0805H         LINE#         57
  C:0808H         LINE#         58
  C:080CH         LINE#         59
  C:080EH         LINE#         60
  C:0813H         LINE#         61
BL51 BANKED LINKER/LOCATER V6.22.2.0                                                  02/01/2024  17:15:47  PAGE 11


  C:0815H         LINE#         62
  -------         ENDPROC       IIC_WAITACK
  -------         PROC          _IIC_SENDBYTE
  D:0005H         SYMBOL        byt
  -------         DO            
  D:0004H         SYMBOL        i
  -------         ENDDO         
  C:071DH         LINE#         65
  C:071FH         LINE#         66
  C:071FH         LINE#         69
  C:072BH         LINE#         70
  C:072BH         LINE#         71
  C:072DH         LINE#         72
  C:0732H         LINE#         73
  C:073AH         LINE#         74
  C:073CH         LINE#         75
  C:0741H         LINE#         76
  C:0743H         LINE#         77
  C:0747H         LINE#         78
  C:074CH         LINE#         79
  C:074FH         LINE#         80
  C:0751H         LINE#         81
  -------         ENDPROC       _IIC_SENDBYTE
  -------         PROC          IIC_RECBYTE
  -------         DO            
  D:0004H         SYMBOL        i
  D:0005H         SYMBOL        da
  -------         ENDDO         
  C:07B8H         LINE#         84
  C:07B8H         LINE#         85
  C:07B8H         LINE#         87
  C:07C4H         LINE#         88
  C:07C4H         LINE#         89
  C:07C4H         LINE#         90
  C:07C7H         LINE#         91
  C:07CBH         LINE#         92
  C:07D1H         LINE#         93
  C:07D3H         LINE#         94
  C:07D8H         LINE#         95
  C:07DBH         LINE#         96
  C:07DDH         LINE#         97
  -------         ENDPROC       IIC_RECBYTE
  -------         PROC          _AD_READ
  D:0003H         SYMBOL        addr
  -------         DO            
  D:0005H         SYMBOL        temp
  -------         ENDDO         
  C:0752H         LINE#         100
  C:0752H         LINE#         101
  C:0752H         LINE#         103
  C:0752H         LINE#         104
  C:0752H         LINE#         105
  C:0755H         LINE#         106
  C:075AH         LINE#         107
  C:075DH         LINE#         108
  C:0760H         LINE#         109
  C:0765H         LINE#         110
BL51 BANKED LINKER/LOCATER V6.22.2.0                                                  02/01/2024  17:15:47  PAGE 12


  C:0768H         LINE#         111
  C:076DH         LINE#         112
  C:0772H         LINE#         113
  C:0775H         LINE#         114
  -------         ENDPROC       _AD_READ
  -------         PROC          _DA_WRITE
  D:0003H         SYMBOL        dat
  C:082DH         LINE#         117
  C:082DH         LINE#         118
  C:082DH         LINE#         119
  C:082DH         LINE#         120
  C:082DH         LINE#         121
  C:0830H         LINE#         122
  C:0835H         LINE#         123
  C:0838H         LINE#         124
  C:083DH         LINE#         125
  C:0840H         LINE#         126
  -------         ENDPROC       _DA_WRITE
  -------         ENDMOD        IIC

  -------         MODULE        ?C?FPMUL
  C:001EH         PUBLIC        ?C?FPMUL
  -------         ENDMOD        ?C?FPMUL

  -------         MODULE        ?C?FPDIV
  C:0127H         PUBLIC        ?C?FPDIV
  -------         ENDMOD        ?C?FPDIV

  -------         MODULE        ?C?FPCMP
  C:01C6H         PUBLIC        ?C?FPCMP
  C:01C4H         PUBLIC        ?C?FPCMP3
  -------         ENDMOD        ?C?FPCMP

  -------         MODULE        ?C?FCAST
  C:0247H         PUBLIC        ?C?FCASTC
  C:0242H         PUBLIC        ?C?FCASTI
  C:023DH         PUBLIC        ?C?FCASTL
  -------         ENDMOD        ?C?FCAST

  -------         MODULE        ?C?CASTF
  C:027BH         PUBLIC        ?C?CASTF
  -------         ENDMOD        ?C?CASTF

  -------         MODULE        ?C?UIDIV
  C:02FCH         PUBLIC        ?C?UIDIV
  -------         ENDMOD        ?C?UIDIV

  -------         MODULE        ?C?LNEG
  C:0351H         PUBLIC        ?C?LNEG
  -------         ENDMOD        ?C?LNEG

Program Size: data=51.7 xdata=0 code=2234
LINK/LOCATE RUN COMPLETE.  0 WARNING(S),  0 ERROR(S)
