C51 COMPILER V9.59.0.0   MAIN                                                              02/01/2024 17:15:47 PAGE 1   


C51 COMPILER V9.59.0.0, COMPILATION OF MODULE MAIN
OBJECT MODULE PLACED IN .\Objects\main.obj
COMPILER INVOKED BY: D:\keil 5\C51\BIN\C51.EXE main.c OPTIMIZE(8,SPEED) BROWSE INCDIR(..\Drivers;..\User) DEBUG OBJECTEX
                    -TEND PRINT(.\Listings\main.lst) OBJECT(.\Objects\main.obj)

line level    source

   1          /* 头文件声明区 */
   2          #include <STC15F2K60S2.H>
   3          #include "Init.h"
   4          #include "Key.h"
   5          #include "Seg.h"
   6          #include "LED.h"
   7          #include "iic.h"
   8          
   9          /* 模版变量声明区 */
  10          unsigned int Slow_Down;                 //减速扫描专用
  11          bit Key_Slow_Flag, Seg_Slow_Flag;       //按键数码管减速标志位
  12          unsigned char Seg_Buf[8] = {10, 10, 10, 10, 10, 10, 10, 10};            //数码管数字显示缓冲区
  13          unsigned char Seg_Point[8] = {0, 0, 0, 0, 0, 0, 0, 0};                  //数码管小数点显示缓冲区
  14          unsigned char usLED[8] = {0, 0, 0, 0, 0, 0, 0, 0};                      //LED显示缓冲区
  15          /* 题目变量声明区 */
  16          unsigned char Seg_Disp_Mode;            //数码管显示模式   0 --> 频率显示界面   1 --> 电压显示界面
  17          bit DAC_Mode;                           //0 --> 输出2.0V   1 --> 输出AD_DA_dat
  18          bit Seg_Control, LED_Control;           //数码管，LED功能控制  0 --> 开     1 --> 关
  19          unsigned int Freq, Time1000ms;          //实时频率，1s计数
  20          float AD_DA_dat;                        //DAC实时输出电压
  21          /* 按键处理函数 */
  22          void Key_Proc()
  23          {
  24   1          static unsigned char Key_Val = 0, Key_Old = 0;      //按键捕获
  25   1          static unsigned char Key_UP = 0, Key_Down = 0;      //键码专用
  26   1          
  27   1          if (Key_Slow_Flag) return;
  28   1          Key_Slow_Flag = 1;                                  //按键减速
  29   1          
  30   1          Key_Val = Key_Read();                               //获取键码
  31   1          Key_UP = ~Key_Val & (Key_Val ^ Key_Old);            //捕获上升沿
  32   1          Key_Down = Key_Val & (Key_Val ^ Key_Old);           //捕获下降沿
  33   1          Key_Old = Key_Val;                                  //辅助扫描
  34   1          
  35   1          switch(Key_Down)
  36   1          {
  37   2              //控制数码管显示模式
  38   2              case 4: Seg_Disp_Mode ^= 1; break;
  39   2              //控制DAC输出模式
  40   2              case 5: DAC_Mode ^= 1; break;
  41   2              //LED 指示灯功能控制
  42   2              case 6: Seg_Control ^= 1; break;
  43   2              //数码管显示功能控制
  44   2              case 7: LED_Control ^= 1; break;
  45   2          }
  46   1      }
  47          
  48          /* 信息处理函数 */
  49          void Seg_Proc()
  50          {
  51   1          unsigned char i = 0;        //用于未使用熄灭
  52   1          
  53   1          if (Seg_Slow_Flag) return;
  54   1          Seg_Slow_Flag = 1;                     //减速
C51 COMPILER V9.59.0.0   MAIN                                                              02/01/2024 17:15:47 PAGE 2   

  55   1          
  56   1          AD_DA_dat = AD_Read(0x43);             //读取电压值
  57   1      
  58   1          switch (Seg_Disp_Mode)
  59   1          {
  60   2              //电压显示界面
  61   2              case 0:
  62   2                  Seg_Buf[0] = 12;                                    //显示U
  63   2                  Seg_Buf[3] = 10;                                    //熄灭4号
  64   2                  Seg_Buf[4] = 10;                                    //熄灭5号
  65   2                  Seg_Buf[5] = (unsigned char)AD_DA_dat % 10;         //显示个位
  66   2                  Seg_Point[5] = 1;                                   //显示小数点
  67   2                  Seg_Buf[6] = (unsigned char)(AD_DA_dat * 10) % 10;  //显示小数点1位
  68   2                  Seg_Buf[7] = (unsigned int)(AD_DA_dat * 100) % 10;  //显示小数点2位
  69   2              break;
  70   2              //频率显示界面
  71   2              case 1:
  72   2                  Seg_Buf[0] = 11;                        //显示F
  73   2                  Seg_Buf[3] = Freq / 10000 % 10;         //万
  74   2                  Seg_Buf[4] = Freq / 1000 % 10;          //千
  75   2                  Seg_Buf[5] = Freq / 100 % 10;           //百
  76   2                  Seg_Point[5] = 0;                       //熄灭小数点
  77   2                  Seg_Buf[6] = Freq / 10 % 10;            //十
  78   2                  Seg_Buf[7] = Freq % 10;                 //个
  79   2                  for (i = 3; i < 7; i++)                 //检测熄灭
  80   2                  {
  81   3                      if (Seg_Buf[i] != 0)
  82   3                          break;
  83   3                      else
  84   3                          Seg_Buf[i] = 10;
  85   3                  }
  86   2              break;
  87   2          }
  88   1          
  89   1          
  90   1      }
  91          
  92          /* 其他处理函数 */
  93          void LED_Proc()
  94          {
  95   1          unsigned char i = 0;
  96   1          
  97   1          /* DAC相关 */
  98   1          if (DAC_Mode)
  99   1              DA_Write(AD_DA_dat * 51);    //输出电压
 100   1          else
 101   1              DA_Write(2 * 51);    //输出电压
 102   1          
 103   1          /* LED相关 */
 104   1          //  L1, L2
 105   1          for (i = 0; i < 2; i++)
 106   1              usLED[i] = (i == Seg_Disp_Mode);
 107   1          
 108   1          //    L3
 109   1          if (AD_DA_dat < 1.5 || (AD_DA_dat < 3.5 && AD_DA_dat >= 2.5))
 110   1              usLED[2] = 0;
 111   1          else
 112   1              usLED[2] = 1;
 113   1          
 114   1          //    L4
 115   1          if (Freq < 1000 || (Freq >= 5000 && Freq < 10000))
 116   1              usLED[3] = 0;
C51 COMPILER V9.59.0.0   MAIN                                                              02/01/2024 17:15:47 PAGE 3   

 117   1          else
 118   1              usLED[3] = 1;
 119   1      }
 120          
 121          /* 定时器初始化函数 */
 122          void Timer0_Init(void)          //0ms@12.000MHz
 123          {
 124   1          AUXR &= 0x7F;                       //定时器时钟12T模式
 125   1          TMOD &= 0xF0;                       //设置定时器模式
 126   1          TMOD |= 0x05;                       //设置定时器模式
 127   1          TL0 = 0x00;                         //设置定时初始值
 128   1          TH0 = 0x00;                         //设置定时初始值
 129   1          TF0 = 0;                            //清除TF0标志
 130   1          TR0 = 1;                            //定时器0开始计时
 131   1      }
 132          void Timer1_Init(void)          //1毫秒@12.000MHz
 133          {
 134   1          AUXR &= 0xBF;                       //定时器时钟12T模式
 135   1          TMOD &= 0x0F;                       //设置定时器模式
 136   1          TL1 = 0x18;                         //设置定时初始值
 137   1          TH1 = 0xFC;                         //设置定时初始值
 138   1          TF1 = 0;                            //清除TF1标志
 139   1          TR1 = 1;                            //定时器1开始计时
 140   1          ET1 = 1;
 141   1          EA  = 1;
 142   1      }
 143          
 144          /* 中断服务函数 */
 145          void Timer1_Serve() interrupt 3
 146          {
 147   1          //减速控制
 148   1          if (++Slow_Down == 400) Slow_Down = Seg_Slow_Flag = 0;
 149   1          if (Slow_Down % 10 == 0) Key_Slow_Flag = 0;
 150   1          
 151   1          //数码管功能控制
 152   1          if (Seg_Control == 0)
 153   1              Seg_Disp(Slow_Down%8, Seg_Buf[Slow_Down%8], Seg_Point[Slow_Down%8]);
 154   1          else
 155   1              Seg_Disp(Slow_Down%8, 10, 0);
 156   1          
 157   1          //LED功能控制
 158   1          if (LED_Control == 0)
 159   1              LED_Disp(Slow_Down%8, usLED[Slow_Down%8]);
 160   1          else
 161   1              LED_Disp(Slow_Down%8, 0);
 162   1      
 163   1          //频率计算
 164   1          if (++Time1000ms == 1000)   //1s触发一次，频率测量
 165   1          {
 166   2              Time1000ms = 0;
 167   2              Freq = (TH0 << 8) | TL0;
 168   2              TH0 = 0;
 169   2              TL0 = 0;
 170   2          }
 171   1      }
 172          
 173          /* 主函数 */
 174          void main()
 175          {
 176   1          System_Init();
 177   1          Timer0_Init();
 178   1          Timer1_Init();
C51 COMPILER V9.59.0.0   MAIN                                                              02/01/2024 17:15:47 PAGE 4   

 179   1          
 180   1          while (1)
 181   1          {
 182   2              Key_Proc();
 183   2              Seg_Proc();
 184   2              LED_Proc();
 185   2          }
 186   1      }
 187          
 188          
 189          
 190              


MODULE INFORMATION:   STATIC OVERLAYABLE
   CODE SIZE        =    756    ----
   CONSTANT SIZE    =   ----    ----
   XDATA SIZE       =   ----    ----
   PDATA SIZE       =   ----    ----
   DATA SIZE        =     39       2
   IDATA SIZE       =   ----    ----
   BIT SIZE         =      5    ----
END OF MODULE INFORMATION.


C51 COMPILATION COMPLETE.  0 WARNING(S),  0 ERROR(S)
