BL51 BANKED LINKER/LOCATER V6.22.2.0                                                    01/20/2024  17:51:16  PAGE 1


BL51 BANKED LINKER/LOCATER V6.22.2.0, INVOKED BY:
D:\KEIL 5\C51\BIN\BL51.EXE .\Objects\Delay.obj, .\Objects\Latch.obj, .\Objects\main.obj TO .\Objects\Project PRINT (.\Li
>> stings\Project.m51) RAMSIZE (256)


MEMORY MODEL: SMALL


INPUT MODULES INCLUDED:
  .\Objects\Delay.obj (DELAY)
  .\Objects\Latch.obj (LATCH)
  .\Objects\main.obj (MAIN)
  D:\KEIL 5\C51\LIB\C51S.LIB (?C_STARTUP)


LINK MAP OF MODULE:  .\Objects\Project (DELAY)


            TYPE    BASE      LENGTH    RELOCATION   SEGMENT NAME
            -----------------------------------------------------

            * * * * * * *   D A T A   M E M O R Y   * * * * * * *
            REG     0000H     0008H     ABSOLUTE     "REG BANK 0"
            DATA    0008H     0001H     UNIT         _DATA_GROUP_
            IDATA   0009H     0001H     UNIT         ?STACK

            * * * * * * *   C O D E   M E M O R Y   * * * * * * *
            CODE    0000H     0003H     ABSOLUTE     
            CODE    0003H     003DH     UNIT         ?PR?MAIN?MAIN
            CODE    0040H     0033H     UNIT         ?PR?_LATCH?LATCH
            CODE    0073H     0014H     UNIT         ?PR?_DELAY_MS?DELAY
            CODE    0087H     000CH     UNIT         ?C_C51STARTUP



OVERLAY MAP OF MODULE:   .\Objects\Project (DELAY)


SEGMENT                          DATA_GROUP 
  +--> CALLED SEGMENT          START    LENGTH
----------------------------------------------
?C_C51STARTUP                  -----    -----
  +--> ?PR?MAIN?MAIN

?PR?MAIN?MAIN                  0008H    0001H
  +--> ?PR?_LATCH?LATCH
  +--> ?PR?_DELAY_MS?DELAY



SYMBOL TABLE OF MODULE:  .\Objects\Project (DELAY)

  VALUE           TYPE          NAME
  ----------------------------------

  -------         MODULE        DELAY
  C:0000H         SYMBOL        _ICE_DUMMY_
  C:0073H         PUBLIC        _Delay_ms
BL51 BANKED LINKER/LOCATER V6.22.2.0                                                  01/20/2024  17:51:16  PAGE 2


  -------         PROC          _DELAY_MS
  D:0006H         SYMBOL        x_ms
  -------         DO            
  D:0005H         SYMBOL        i
  D:0004H         SYMBOL        j
  -------         ENDDO         
  C:0073H         LINE#         3
  C:0073H         LINE#         4
  C:0073H         LINE#         6
  C:0077H         LINE#         7
  C:0077H         LINE#         8
  C:0079H         LINE#         9
  C:007BH         LINE#         11
  C:007BH         LINE#         12
  C:007DH         LINE#         13
  C:007FH         LINE#         14
  C:0084H         LINE#         15
  C:0086H         LINE#         16
  -------         ENDPROC       _DELAY_MS
  -------         ENDMOD        DELAY

  -------         MODULE        LATCH
  C:0000H         SYMBOL        _ICE_DUMMY_
  D:0080H         PUBLIC        P0
  D:0090H         PUBLIC        P1
  D:00A0H         PUBLIC        P2
  D:00B0H         PUBLIC        P3
  D:00C0H         PUBLIC        P4
  D:00C8H         PUBLIC        P5
  D:00E8H         PUBLIC        P6
  D:00F8H         PUBLIC        P7
  D:00A8H         PUBLIC        IE
  D:00B8H         PUBLIC        IP
  D:00D8H         PUBLIC        CCON
  D:0098H         PUBLIC        SCON
  D:0088H         PUBLIC        TCON
  C:0040H         PUBLIC        _Latch
  D:00D0H         PUBLIC        PSW
  -------         PROC          _LATCH
  D:0007H         SYMBOL        Latch_Num
  C:0040H         LINE#         7
  C:0040H         LINE#         8
  C:0040H         LINE#         9
  C:004FH         LINE#         10
  C:004FH         LINE#         11
  C:0057H         LINE#         12
  C:005FH         LINE#         13
  C:0067H         LINE#         14
  C:0072H         LINE#         15
  C:0072H         LINE#         16
  -------         ENDPROC       _LATCH
  -------         ENDMOD        LATCH

  -------         MODULE        MAIN
  C:0000H         SYMBOL        _ICE_DUMMY_
  D:0080H         PUBLIC        P0
  D:0090H         PUBLIC        P1
BL51 BANKED LINKER/LOCATER V6.22.2.0                                                  01/20/2024  17:51:16  PAGE 3


  D:00A0H         PUBLIC        P2
  D:00B0H         PUBLIC        P3
  D:00C0H         PUBLIC        P4
  D:00C8H         PUBLIC        P5
  D:00E8H         PUBLIC        P6
  D:00F8H         PUBLIC        P7
  D:00A8H         PUBLIC        IE
  D:00B8H         PUBLIC        IP
  D:00D8H         PUBLIC        CCON
  C:0003H         PUBLIC        main
  D:0098H         PUBLIC        SCON
  D:0088H         PUBLIC        TCON
  D:00D0H         PUBLIC        PSW
  -------         PROC          MAIN
  -------         DO            
  D:0008H         SYMBOL        i
  -------         ENDDO         
  C:0003H         LINE#         14
  C:0003H         LINE#         15
  C:0003H         LINE#         16
  C:0006H         LINE#         17
  C:0009H         LINE#         18
  C:000EH         LINE#         19
  C:0015H         LINE#         20
  C:0015H         LINE#         21
  C:0015H         LINE#         22
  C:0023H         LINE#         23
  C:0023H         LINE#         24
  C:0030H         LINE#         25
  C:0035H         LINE#         26
  C:003CH         LINE#         27
  -------         ENDPROC       MAIN
  -------         ENDMOD        MAIN

Program Size: data=10.0 xdata=0 code=147
LINK/LOCATE RUN COMPLETE.  0 WARNING(S),  0 ERROR(S)
