:10066D0008380A0A0A0A0A0A0A0A082E00000000B7
:10067D0000000000084901000000000000000857BC
:10068D000190019001900190082501900190019039
:0E069D00019001210001220001230001240030
:10000E00300203020165D2021208758F21E52165C7
:10001E0022FFE521F45FF523E5215FF524852122FA
:10002E00E52D7012E52264047004D2018008C2012D
:10003E00753F0A753E0AE52424FC607B14700302AA
:10004E00011524FE700302016004600302016505C0
:10005E002DE52D64037002F52DE52D60030201657B
:10006E00F551F552C3E5529404748094805036E5F0
:10007E005225E02457F8E6FE08E6FF7C007D641268
:10008E0005CE74452552F8A607E55225E02457F80B
:10009E00E6FE08E6FFE55225E02425F8A60608A6AA
:1000AE0007055280BF7B007A007945750E00750FEB
:1000BE0004E4FDFC02072EAF2D7E00EF6401700DEF
:1000CE001551E551F46003020165F55122EF64020A
:1000DE004E6003020165E55125E02457F808749C33
:1000EE0026F61874FF36F6E55125E02457F8E6FE9D
:1000FE0008E6C39490EE9401505DE55125E0245737
:10010E00F8760108769022AF2D7E00EF6401700C18
:10011E000551E5516404703F75510322EF64024EA0
:10012E007035E55125E02457F808746426F618E476
:10013E0036F6E55125E02457F8E6FE08E6D394B0EE
:10014E00EE94044012E55125E02457F87604087623
:07015E00B022A203B39203DB
:010165002277
:100166003000030202BCD2007F431207E7EF75F0AE
:10017600558404F53730010302029AE52D70030217
:10018600029A753B0A753A0B75380BE55104F53939
:10019600E55125E02457F8E6FA08E6FB7C007D6485
:1001A600FFAE021205CE7C007D0A1205CE8D3D7C87
:1001B600007D0AAF03AE021205CE7C007D0A120551
:1001C600CE8D3EE55125E02457F8E6FA08E6FB7C9D
:1001D600007D0AFFAE021205CE8D3FC3EB94E8EA1E
:1001E600940340047F0180027F0A8F3CE52D640161
:1001F600701B3005047F0A80027F0B8F3A8F3830E0
:1002060005047F0A8004E55104FF8F392230050476
:100216007F0A801CE55125E02457F8E6FE08E6FF34
:100226007C007D641205CE7C007D0A1205CEAF05EA
:100236008F3D3005047F0A801CE55125E02457F8E0
:10024600E6FE08E6FF7C007D0A1205CE7C007D0AEC
:100256001205CEAF058F3E3005047F0A8015E551A5
:1002660025E02457F8E6FE08E6FF7C007D0A120525
:10027600CEAF058F3FE55125E02457F8E6FE08E6A8
:10028600C394E8EE940340072005047F0180027FB3
:100296000A8F3C2230011FE4F552C3E552940674DE
:1002A600809480500B74382552F8760A055280EAFD
:0702B600753E0B85373F2266
:1003B600300371E53625E02425F8E6FE08E66544B7
:1003C6007003EE6543705DF543F544E53614601A37
:1003D60014602614603A2403704A0553E5536408F2
:1003E6007042755307753601803A1553E553F4701C
:1003F60033755307753602802B74092553F553D38D
:10040600942274809480401C7553227536038014A0
:1004160074F72553F553D394C8748094804005E44B
:10042600F553F536C3E5369402748094805024E47F
:10043600F552C3E552940874809480504AE552B54B
:1004460053047F0180027F0074492552F8A60705F0
:100456005280DFE4F552C3E55294087480948050CC
:1004660026E55375F00A846552600BE55375F00A6C
:1004760084E5F0B552047F0180027F00744925525D
:08048600F8A607055280CF2201
:10088C00538E7F5389F0758A18758CFCC28DD28C6F
:05089C00D2A9D2AF2239
:03000B000202BD31
:1002BD00C0E0C0F0C083C082C0D075D000C000C007
:1002CD0001C002C003C004C005C006C0070541E55A
:1002DD004170020540FFAE40BE010BBF9008C20049
:1002ED00754000754100AE40AF417C007D0A12059E
:1002FD00CEED4C7002C202AE40AF417C007D641267
:10030D0005CEED4C7002C2040542E542640C70024C
:10031D00F5423003080544E54470020543E53775A1
:10032D00F003A4FFD3E5429FE5F06480F874809854
:10033D00E5415407FF50092449F8E6FD7C00800390
:10034D00E4FDFC1206F3E52D7003300117E5415471
:10035D0007FBFF2438F8E6FD7C00742E2BF8E6FB36
:10036D007A00800BE5415407FFE4FBFA7D0AFC128D
:10037D0006B20555E55570020554FFAE54BE030E89
:10038D00BF200B755400755500A205B39205D0071B
:10039D00D006D005D004D003D002D001D000D0D0EB
:0903AD00D082D083D0F0D0E03200
:10051A00E4F50812080C12088C7B007A0079087539
:10052A000E00750F017D107C00120623E508644257
:10053A007046FB7A007945F50E750F04FDFC12062C
:10054A0023E4F552C3E552940474809480503F74B6
:10055A00452552F8E675F064A4FFAEF0E55225E0B1
:10056A002425F8EEF608EFF6E55225E02457F8A61A
:10057A000608A607055280CC7508427B007A0079E6
:10058A0008750E00750F017D107C0012072E1200EF
:09059A000E1201661203B680F591
:10080C00E4F580E5A0541F44A0F5A053A01F75800B
:0D081C00FFE5A0541F4480F5A053A01F224B
:10087500E4FF20B0027F0720B1027F0620B2027F8D
:060885000520B3027F0410
:01088B00224A
:10082900C0F9A4B0999282F88090FFBF8883C6A1CD
:0A083900868E0102040810204080A2
:1006B2007580FFE5A0541F44E0F5A053A01FEF9002
:1006C200083B93F580E5A0541F44C0F5A053A01F3A
:1006D20074292DF58274083CF583E493F580EB4A86
:1006E200600353807FE5A0541F44E0F5A053A01F90
:0106F20022E5
:0606AB000110000111FF27
:1006F300ED4C600FA8077401088002C333D8FC4295
:1007030010800EA8077401088002C333D8FCF4528A
:1007130010E51065116013E510F4F580E5A0541F92
:0A0723004480F5A053A01F851011BB
:01072D0022A9
:04084300D2A07F05BB
:10084700000000000000000000000000000000AEF3
:06085700071FEE70EB220A
:0F08A100D2A1120843C2A17F05120847C2A022AC
:0C08B000C2A1120843D2A17F0502084734
:02076600AD07DD
:10076800E4FCECC39408748094805024C2A07F05F4
:10077800120847ED30E704D2A18002C2A17F05121A
:100788000847D2A0ED25E0FD7F051208470C80D26E
:02079800C2A0FD
:01079A00223C
:10079B00E4FCECC39408748094805017120843ED6A
:1007AB0025E0FD30A103430501C2A07F05120847D8
:0507BB000C80DFAF051A
:0107C0002216
:1007C100AB05AA041208A17FA01207661207D5AFD4
:0407D10003120766A2
:1007D500120843A2A1E433FDC2A07F05120847AF6A
:0107E500050E
:0107E60022F0
:10085D00C2A0EF24FF92A17F05120847120843C2E0
:08086D00A0D2A17F050208479B
:0207E700AB075E
:1007E9001208A17F901207CA1208A17F9112076609
:1007F9001207D512079BAD077F0112085D1208B0D9
:02080900AF0539
:01080B0022CA
:10072E008B098A0A890B1207C1E50F150FAE0E70E1
:10073E0002150E4E601FAB09050BE50BAA0A7002DF
:10074E00050A14F91205A3FF1207661207D57FC812
:08075E0012084780D40208B024
:100623008B098A0A890B1207C11208A17FA112073D
:10063300661207D5E50F150FAE0E7002150E4E604C
:100643002612079BAB09050BE50BAA0A7002050AE4
:1006530014F9EF1205BCE50F450E6004E4FF8002B8
:0A0663007F0112085D80CD0208B08F
:0300000002048E69
:0C048E00787FE4F6D8FD75815E0204D58D
:1005A300BB010689828A83E0225002E722BBFE0256
:0905B300E32289828A83E4932289
:1005BC00BB010689828A83F0225002F722BBFE011E
:0205CC00F32218
:1005CE00BC000BBE0029EF8DF084FFADF022E4CC11
:1005DE00F875F008EF2FFFEE33FEEC33FCEE9DECDA
:1005EE00984005FCEE9DFE0FD5F0E9E4CEFD22ED20
:1005FE00F8F5F0EE8420D21CFEADF075F008EF2F6A
:10060E00FFED33FD4007985006D5F0F222C398FD5A
:05061E000FD5F0EA22F7
:10049A0002051AE493A3F8E493A34003F68001F259
:1004AA0008DFF48029E493A3F85407240CC8C33363
:1004BA00C4540F4420C8834004F456800146F6DF32
:1004CA00E4800B010204081020408090066DE47E4F
:1004DA00019360BCA3FF543F30E509541FFEE49327
:1004EA00A360010ECF54C025E060A840B8E493A3EE
:1004FA00FAE493A3F8E493A3C8C582C8CAC583CA19
:10050A00F0A3C8C582C8CAC583CADFE9DEE780BED0
:0106B1000048
:00000001FF
