BL51 BANKED LINKER/LOCATER V6.22.2.0                                                    04/12/2024  14:42:26  PAGE 1


BL51 BANKED LINKER/LOCATER V6.22.2.0, INVOKED BY:
D:\KEIL 5\C51\BIN\BL51.EXE .\Objects\main.obj, .\Objects\Init.obj, .\Objects\Key.obj, .\Objects\Seg.obj, .\Objects\LED.o
>> bj, .\Objects\ds1302.obj, .\Objects\onewire.obj, .\Objects\iic.obj, .\Objects\Uwave.obj, .\Objects\Uart.obj TO .\Obje
>> cts\2303002124 PRINT (.\Listings\2303002124.m51) RAMSIZE (256)


MEMORY MODEL: SMALL WITH FLOATING POINT ARITHMETIC


INPUT MODULES INCLUDED:
  .\Objects\main.obj (MAIN)
  .\Objects\Init.obj (INIT)
  .\Objects\Key.obj (KEY)
  .\Objects\Seg.obj (SEG)
  .\Objects\LED.obj (LED)
  .\Objects\ds1302.obj (DS1302)
  .\Objects\onewire.obj (ONEWIRE)
  .\Objects\iic.obj (IIC)
  .\Objects\Uwave.obj (UWAVE)
  .\Objects\Uart.obj (UART)
  D:\KEIL 5\C51\LIB\C51FPS.LIB (?C?FPMUL)
  D:\KEIL 5\C51\LIB\C51FPS.LIB (?C?FPDIV)
  D:\KEIL 5\C51\LIB\C51FPS.LIB (?C?FCAST)
  D:\KEIL 5\C51\LIB\C51FPS.LIB (?C?CASTF)
  D:\KEIL 5\C51\LIB\C51FPS.LIB (PRINTF)
  D:\KEIL 5\C51\LIB\C51FPS.LIB (?C?FPGETOPN)
  D:\KEIL 5\C51\LIB\C51FPS.LIB (?C?FPROUND)
  D:\KEIL 5\C51\LIB\C51FPS.LIB (?C?FPCONVERT)
  D:\KEIL 5\C51\LIB\C51FPS.LIB (?C?FPADD)
  D:\KEIL 5\C51\LIB\C51FPS.LIB (?C?FTNPWR)
  D:\KEIL 5\C51\LIB\C51S.LIB (?C_STARTUP)
  D:\KEIL 5\C51\LIB\C51S.LIB (?C?CLDPTR)
  D:\KEIL 5\C51\LIB\C51S.LIB (?C?CLDOPTR)
  D:\KEIL 5\C51\LIB\C51S.LIB (?C?CSTPTR)
  D:\KEIL 5\C51\LIB\C51S.LIB (?C?CSTOPTR)
  D:\KEIL 5\C51\LIB\C51S.LIB (?C?UIDIV)
  D:\KEIL 5\C51\LIB\C51S.LIB (?C?LNEG)
  D:\KEIL 5\C51\LIB\C51S.LIB (?C?PLDIIDATA)
  D:\KEIL 5\C51\LIB\C51S.LIB (?C?CCASE)
  D:\KEIL 5\C51\LIB\C51S.LIB (?C?MEMSET)
  D:\KEIL 5\C51\LIB\C51S.LIB (?C_INIT)


LINK MAP OF MODULE:  .\Objects\2303002124 (MAIN)


            TYPE    BASE      LENGTH    RELOCATION   SEGMENT NAME
            -----------------------------------------------------

            * * * * * * *   D A T A   M E M O R Y   * * * * * * *
            REG     0000H     0008H     ABSOLUTE     "REG BANK 0"
            DATA    0008H     0004H     UNIT         ?DT?LED
            IDATA   000CH     0014H     UNIT         ?ID?MAIN
            BIT     0020H.0   0001H.1   UNIT         _BIT_GROUP_
            BIT     0021H.1   0000H.6   UNIT         ?BI?MAIN
                    0021H.7   0000H.1                *** GAP ***
            DATA    0022H     0033H     UNIT         ?DT?MAIN
            DATA    0055H     001DH     UNIT         _DATA_GROUP_
BL51 BANKED LINKER/LOCATER V6.22.2.0                                                  04/12/2024  14:42:26  PAGE 2


            IDATA   0072H     0001H     UNIT         ?STACK

            * * * * * * *   C O D E   M E M O R Y   * * * * * * *
            CODE    0000H     0003H     ABSOLUTE     
            CODE    0003H     0018H     UNIT         ?PR?_I2CSENDACK?IIC
            CODE    001BH     0003H     ABSOLUTE     
                    001EH     0005H                  *** GAP ***
            CODE    0023H     0003H     ABSOLUTE     
            CODE    0026H     063EH     UNIT         ?C?LIB_CODE
            CODE    0664H     046FH     UNIT         ?PR?PRINTF?PRINTF
            CODE    0AD3H     01F5H     UNIT         ?PR?SEG_DEAL?MAIN
            CODE    0CC8H     00E6H     UNIT         ?PR?TIMER1_SERVE?MAIN
            CODE    0DAEH     00E5H     UNIT         ?PR?KEY_DEAL?MAIN
            CODE    0E93H     00C2H     UNIT         ?PR?UART_DEAL?MAIN
            CODE    0F55H     008CH     UNIT         ?C_C51STARTUP
            CODE    0FE1H     007AH     UNIT         ?PR?KEY_READ?KEY
            CODE    105BH     0070H     UNIT         ?PR?INFOR_DEAL?MAIN
            CODE    10CBH     006CH     UNIT         ?PR?MAIN?MAIN
            CODE    1137H     005DH     UNIT         ?CO?MAIN
            CODE    1194H     0051H     UNIT         ?PR?_DS1302_WRITE_RTC?DS1302
            CODE    11E5H     004AH     UNIT         ?PR?_EEPROM_READ?IIC
            CODE    122FH     0047H     UNIT         ?PR?_SEG_SHOW?SEG
            CODE    1276H     0047H     UNIT         ?PR?_READ_DS1302_BYTE?DS1302
            CODE    12BDH     003DH     UNIT         ?PR?_DS1302_READ_RTC?DS1302
            CODE    12FAH     003CH     UNIT         ?PR?UART_SERVE?MAIN
            CODE    1336H     003CH     UNIT         ?C_INITSEG
            CODE    1372H     003BH     UNIT         ?PR?_LED_SHOW?LED
            CODE    13ADH     003BH     UNIT         ?PR?UWAVE_READ_DISTANCE?UWAVE
            CODE    13E8H     0038H     UNIT         ?PR?_EEPROM_WRITE?IIC
            CODE    1420H     0035H     UNIT         ?PR?_I2CSENDBYTE?IIC
            CODE    1455H     0034H     UNIT         ?PR?DS18B20_READ_T?ONEWIRE
            CODE    1489H     002AH     UNIT         ?PR?LED_DEAL?MAIN
            CODE    14B3H     0027H     UNIT         ?PR?_WRITE_DS18B20?ONEWIRE
            CODE    14DAH     0027H     UNIT         ?PR?INIT_DS18B20?ONEWIRE
            CODE    1501H     0027H     UNIT         ?PR?_AD_READ?IIC
            CODE    1528H     0026H     UNIT         ?PR?I2CRECEIVEBYTE?IIC
            CODE    154EH     0026H     UNIT         ?PR?I2CWAITACK?IIC
            CODE    1574H     0023H     UNIT         ?PR?_BEEP?LED
            CODE    1597H     0023H     UNIT         ?PR?_RELAY?LED
            CODE    15BAH     0023H     UNIT         ?PR?READ_DS18B20?ONEWIRE
            CODE    15DDH     001EH     UNIT         ?PR?_DELAY_ONEWIRE?ONEWIRE
            CODE    15FBH     001DH     UNIT         ?PR?SYSTEM_INIT?INIT
            CODE    1618H     001CH     UNIT         ?PR?_WRITE_DS1302?DS1302
            CODE    1634H     001AH     UNIT         ?PR?_I2C_DELAY?IIC
            CODE    164EH     001AH     UNIT         ?PR?UWAVE_INIT?UWAVE
            CODE    1668H     0017H     UNIT         ?PR?UART_INIT?UART
            CODE    167FH     0015H     UNIT         ?PR?TIMER1_INIT?MAIN
            CODE    1694H     0015H     UNIT         ?PR?_DA_WRITE?IIC
            CODE    16A9H     0014H     UNIT         ?PR?_WRITE_DS1302_BYTE?DS1302
            CODE    16BDH     0013H     UNIT         ?PR?TIMER0_INIT?MAIN
            CODE    16D0H     0013H     UNIT         ?CO?SEG
            CODE    16E3H     000FH     UNIT         ?PR?I2CSTART?IIC
            CODE    16F2H     000CH     UNIT         ?PR?I2CSTOP?IIC
            CODE    16FEH     0008H     UNIT         ?PR?_PUTCHAR?UART
            CODE    1706H     0007H     UNIT         ?PR?DELAY12US?UWAVE


BL51 BANKED LINKER/LOCATER V6.22.2.0                                                  04/12/2024  14:42:26  PAGE 3



OVERLAY MAP OF MODULE:   .\Objects\2303002124 (MAIN)


SEGMENT                                  BIT_GROUP          DATA_GROUP 
  +--> CALLED SEGMENT                 START    LENGTH     START    LENGTH
-------------------------------------------------------------------------
?PR?TIMER1_SERVE?MAIN                 -----    -----      -----    -----
  +--> ?PR?_SEG_SHOW?SEG
  +--> ?PR?_LED_SHOW?LED

?PR?_SEG_SHOW?SEG                     -----    -----      -----    -----
  +--> ?CO?SEG

*** NEW ROOT ***************************************************

?C_C51STARTUP                         -----    -----      -----    -----
  +--> ?PR?MAIN?MAIN
  +--> ?C_INITSEG

?PR?MAIN?MAIN                         -----    -----      0055H    0001H
  +--> ?PR?SYSTEM_INIT?INIT
  +--> ?PR?TIMER1_INIT?MAIN
  +--> ?PR?TIMER0_INIT?MAIN
  +--> ?PR?UART_INIT?UART
  +--> ?PR?DS18B20_READ_T?ONEWIRE
  +--> ?PR?_EEPROM_READ?IIC
  +--> ?PR?_EEPROM_WRITE?IIC
  +--> ?PR?_DS1302_WRITE_RTC?DS1302
  +--> ?PR?KEY_DEAL?MAIN
  +--> ?PR?SEG_DEAL?MAIN
  +--> ?PR?LED_DEAL?MAIN
  +--> ?PR?INFOR_DEAL?MAIN
  +--> ?PR?UART_DEAL?MAIN

?PR?DS18B20_READ_T?ONEWIRE            -----    -----      -----    -----
  +--> ?PR?INIT_DS18B20?ONEWIRE
  +--> ?PR?_WRITE_DS18B20?ONEWIRE
  +--> ?PR?READ_DS18B20?ONEWIRE

?PR?INIT_DS18B20?ONEWIRE              0020H.0  0000H.1    -----    -----
  +--> ?PR?_DELAY_ONEWIRE?ONEWIRE

?PR?_WRITE_DS18B20?ONEWIRE            -----    -----      -----    -----
  +--> ?PR?_DELAY_ONEWIRE?ONEWIRE

?PR?READ_DS18B20?ONEWIRE              -----    -----      -----    -----
  +--> ?PR?_DELAY_ONEWIRE?ONEWIRE

?PR?_EEPROM_READ?IIC                  -----    -----      0056H    0007H
  +--> ?PR?I2CWAITACK?IIC
  +--> ?PR?I2CSTART?IIC
  +--> ?PR?_I2CSENDBYTE?IIC
  +--> ?PR?I2CRECEIVEBYTE?IIC
  +--> ?PR?_I2CSENDACK?IIC
  +--> ?PR?I2CSTOP?IIC

BL51 BANKED LINKER/LOCATER V6.22.2.0                                                  04/12/2024  14:42:26  PAGE 4


?PR?I2CWAITACK?IIC                    -----    -----      -----    -----
  +--> ?PR?I2CSTART?IIC
  +--> ?PR?_I2CSENDBYTE?IIC
  +--> ?PR?_I2C_DELAY?IIC

?PR?I2CSTART?IIC                      -----    -----      -----    -----
  +--> ?PR?_I2C_DELAY?IIC

?PR?_I2CSENDBYTE?IIC                  -----    -----      -----    -----
  +--> ?PR?_I2C_DELAY?IIC

?PR?I2CRECEIVEBYTE?IIC                -----    -----      -----    -----
  +--> ?PR?_I2C_DELAY?IIC

?PR?_I2CSENDACK?IIC                   -----    -----      -----    -----
  +--> ?PR?_I2C_DELAY?IIC

?PR?I2CSTOP?IIC                       -----    -----      -----    -----
  +--> ?PR?_I2C_DELAY?IIC

?PR?_EEPROM_WRITE?IIC                 -----    -----      0056H    0007H
  +--> ?PR?I2CWAITACK?IIC
  +--> ?PR?_I2CSENDBYTE?IIC
  +--> ?PR?_I2C_DELAY?IIC
  +--> ?PR?I2CSTOP?IIC

?PR?_DS1302_WRITE_RTC?DS1302          -----    -----      0056H    0003H
  +--> ?PR?_WRITE_DS1302_BYTE?DS1302

?PR?_WRITE_DS1302_BYTE?DS1302         -----    -----      -----    -----
  +--> ?PR?_WRITE_DS1302?DS1302

?PR?KEY_DEAL?MAIN                     -----    -----      -----    -----
  +--> ?PR?KEY_READ?KEY
  +--> ?PR?_EEPROM_WRITE?IIC
  +--> ?PR?_DS1302_WRITE_RTC?DS1302
  +--> ?CO?MAIN
  +--> ?PR?PRINTF?PRINTF

?PR?PRINTF?PRINTF                     0020H.0  0001H.1    0056H    001CH
  +--> ?PR?_PUTCHAR?UART

?PR?INFOR_DEAL?MAIN                   -----    -----      -----    -----
  +--> ?PR?_DA_WRITE?IIC
  +--> ?PR?_BEEP?LED
  +--> ?PR?_RELAY?LED
  +--> ?PR?_DS1302_READ_RTC?DS1302
  +--> ?PR?DS18B20_READ_T?ONEWIRE
  +--> ?PR?_AD_READ?IIC
  +--> ?PR?UWAVE_READ_DISTANCE?UWAVE

?PR?_DA_WRITE?IIC                     -----    -----      -----    -----
  +--> ?PR?I2CSTART?IIC
  +--> ?PR?_I2CSENDBYTE?IIC
  +--> ?PR?I2CWAITACK?IIC
  +--> ?PR?I2CSTOP?IIC

BL51 BANKED LINKER/LOCATER V6.22.2.0                                                  04/12/2024  14:42:26  PAGE 5


?PR?_DS1302_READ_RTC?DS1302           -----    -----      0056H    0004H
  +--> ?PR?_READ_DS1302_BYTE?DS1302

?PR?_READ_DS1302_BYTE?DS1302          -----    -----      -----    -----
  +--> ?PR?_WRITE_DS1302?DS1302

?PR?_AD_READ?IIC                      -----    -----      -----    -----
  +--> ?PR?I2CSTART?IIC
  +--> ?PR?I2CWAITACK?IIC
  +--> ?PR?_I2CSENDBYTE?IIC
  +--> ?PR?I2CRECEIVEBYTE?IIC
  +--> ?PR?_I2CSENDACK?IIC
  +--> ?PR?I2CSTOP?IIC

?PR?UWAVE_READ_DISTANCE?UWAVE         -----    -----      -----    -----
  +--> ?PR?UWAVE_INIT?UWAVE

?PR?UWAVE_INIT?UWAVE                  -----    -----      -----    -----
  +--> ?PR?DELAY12US?UWAVE

?PR?UART_DEAL?MAIN                    -----    -----      -----    -----
  +--> ?CO?MAIN
  +--> ?PR?PRINTF?PRINTF



SYMBOL TABLE OF MODULE:  .\Objects\2303002124 (MAIN)

  VALUE           TYPE          NAME
  ----------------------------------

  -------         MODULE        MAIN
  C:0000H         SYMBOL        _ICE_DUMMY_
  D:0080H         PUBLIC        P0
  D:0090H         PUBLIC        P1
  D:00A0H         PUBLIC        P2
  C:0DAEH         PUBLIC        Key_Deal
  D:00B0H         PUBLIC        P3
  D:00C0H         PUBLIC        P4
  B:0021H.1       PUBLIC        Seg_Slow_Flag
  D:00C8H         PUBLIC        P5
  B:00A8H.7       PUBLIC        EA
  D:00E8H         PUBLIC        P6
  C:12FAH         PUBLIC        Uart_Serve
  D:00F8H         PUBLIC        P7
  D:0026H         PUBLIC        Seg_Show_Mode
  D:0027H         PUBLIC        Seg_Point
  D:00A8H         PUBLIC        IE
  B:0021H.2       PUBLIC        Key_Slow_Flag
  D:002FH         PUBLIC        Freq
  D:0031H         PUBLIC        Rtc_Real_Buf
  D:0034H         PUBLIC        Time_1000ms
  D:0036H         PUBLIC        Dist
  D:00B8H         PUBLIC        IP
  B:0098H.0       PUBLIC        RI
  C:0CC8H         PUBLIC        Timer1_Serve
  D:0037H         PUBLIC        Seg_Buf
BL51 BANKED LINKER/LOCATER V6.22.2.0                                                  04/12/2024  14:42:26  PAGE 6


  D:003FH         PUBLIC        Slow_Down
  D:00D8H         PUBLIC        CCON
  D:0041H         PUBLIC        Uart_Rx_Index
  B:0021H.3       PUBLIC        Uart_Rx_Flag
  C:10CBH         PUBLIC        main
  C:16BDH         PUBLIC        Timer0_Init
  C:167FH         PUBLIC        Timer1_Init
  C:1489H         PUBLIC        LED_Deal
  D:0099H         PUBLIC        SBUF
  D:0098H         PUBLIC        SCON
  D:0089H         PUBLIC        TMOD
  D:0088H         PUBLIC        TCON
  B:0021H.4       PUBLIC        LED_Slow_Flag
  D:0042H         PUBLIC        Time_75ms
  D:0043H         PUBLIC        Uart_10ms
  D:008EH         PUBLIC        AUXR
  D:0044H         PUBLIC        AD_DA_Data
  I:000CH         PUBLIC        Uart_Rx_Buf
  B:0088H.5       PUBLIC        TF0
  B:00A8H.3       PUBLIC        ET1
  B:0088H.7       PUBLIC        TF1
  D:008CH         PUBLIC        TH0
  D:008DH         PUBLIC        TH1
  D:008AH         PUBLIC        TL0
  D:008BH         PUBLIC        TL1
  D:0048H         PUBLIC        T
  D:004CH         PUBLIC        LED_Buf
  B:0088H.4       PUBLIC        TR0
  B:0088H.6       PUBLIC        TR1
  C:105BH         PUBLIC        Infor_Deal
  B:0021H.5       PUBLIC        Beep_Flag
  B:0021H.6       PUBLIC        Infor_Slow_Flag
  D:0054H         PUBLIC        i
  C:0E93H         PUBLIC        Uart_Deal
  C:0AD3H         PUBLIC        Seg_Deal
  D:00D0H         PUBLIC        PSW
  -------         PROC          KEY_DEAL
  -------         DO            
  D:0022H         SYMBOL        Key_New
  D:0023H         SYMBOL        Key_Old
  D:0024H         SYMBOL        Key_UP
  D:0025H         SYMBOL        Key_Down
  -------         ENDDO         
  C:0DAEH         LINE#         37
  C:0DAEH         LINE#         38
  C:0DAEH         LINE#         42
  C:0DB4H         LINE#         43
  C:0DB6H         LINE#         45
  C:0DBBH         LINE#         46
  C:0DC6H         LINE#         47
  C:0DCBH         LINE#         48
  C:0DCEH         LINE#         51
  C:0DDFH         LINE#         52
  C:0DDFH         LINE#         54
  C:0DDFH         LINE#         55
  C:0DECH         LINE#         56
  C:0DEDH         LINE#         58
BL51 BANKED LINKER/LOCATER V6.22.2.0                                                  04/12/2024  14:42:26  PAGE 7


  C:0DEDH         LINE#         59
  C:0DF4H         LINE#         60
  C:0DF4H         LINE#         61
  C:0E03H         LINE#         62
  C:0E05H         LINE#         63
  C:0E08H         LINE#         64
  C:0E08H         LINE#         65
  C:0E09H         LINE#         67
  C:0E09H         LINE#         68
  C:0E10H         LINE#         69
  C:0E10H         LINE#         70
  C:0E13H         LINE#         71
  C:0E16H         LINE#         72
  C:0E19H         LINE#         73
  C:0E21H         LINE#         74
  C:0E21H         LINE#         75
  C:0E21H         LINE#         77
  C:0E21H         LINE#         78
  C:0E33H         LINE#         79
  C:0E33H         LINE#         80
  C:0E4DH         LINE#         81
  C:0E61H         LINE#         82
  C:0E75H         LINE#         83
  C:0E83H         LINE#         84
  C:0E92H         LINE#         85
  C:0E92H         LINE#         86
  C:0E92H         LINE#         87
  C:0E92H         LINE#         89
  -------         ENDPROC       KEY_DEAL
  -------         PROC          SEG_DEAL
  C:0AD3H         LINE#         92
  C:0AD3H         LINE#         93
  C:0AD3H         LINE#         94
  C:0AD9H         LINE#         95
  C:0ADBH         LINE#         97
  C:0AF9H         LINE#         98
  C:0AF9H         LINE#         100
  C:0AF9H         LINE#         101
  C:0AFCH         LINE#         102
  C:0AFEH         LINE#         103
  C:0B06H         LINE#         104
  C:0B0FH         LINE#         105
  C:0B12H         LINE#         106
  C:0B1AH         LINE#         107
  C:0B23H         LINE#         108
  C:0B26H         LINE#         109
  C:0B2EH         LINE#         110
  C:0B30H         LINE#         111
  C:0B33H         LINE#         113
  C:0B33H         LINE#         114
  C:0B36H         LINE#         115
  C:0B39H         LINE#         116
  C:0B3CH         LINE#         117
  C:0B4AH         LINE#         118
  C:0B55H         LINE#         119
  C:0B6CH         LINE#         120
  C:0B74H         LINE#         121
BL51 BANKED LINKER/LOCATER V6.22.2.0                                                  04/12/2024  14:42:26  PAGE 8


  C:0B83H         LINE#         122
  C:0B85H         LINE#         124
  C:0B85H         LINE#         125
  C:0B88H         LINE#         126
  C:0B8BH         LINE#         127
  C:0B99H         LINE#         128
  C:0BA4H         LINE#         129
  C:0BA7H         LINE#         130
  C:0BBAH         LINE#         131
  C:0BD8H         LINE#         132
  C:0BF6H         LINE#         133
  C:0BF7H         LINE#         135
  C:0BF7H         LINE#         136
  C:0BFAH         LINE#         137
  C:0BFCH         LINE#         138
  C:0BFFH         LINE#         139
  C:0C05H         LINE#         140
  C:0C19H         LINE#         141
  C:0C2DH         LINE#         142
  C:0C41H         LINE#         143
  C:0C55H         LINE#         144
  C:0C62H         LINE#         145
  C:0C70H         LINE#         146
  C:0C70H         LINE#         147
  C:0C78H         LINE#         148
  C:0C7FH         LINE#         150
  C:0C7FH         LINE#         151
  C:0C83H         LINE#         152
  C:0C83H         LINE#         154
  C:0C83H         LINE#         155
  C:0C86H         LINE#         156
  C:0C88H         LINE#         157
  C:0C8BH         LINE#         158
  C:0C99H         LINE#         159
  C:0CA4H         LINE#         160
  C:0CB1H         LINE#         161
  C:0CBEH         LINE#         162
  C:0CC7H         LINE#         163
  C:0CC7H         LINE#         164
  C:0CC7H         LINE#         166
  -------         ENDPROC       SEG_DEAL
  -------         PROC          LED_DEAL
  C:1489H         LINE#         169
  C:1489H         LINE#         170
  C:1489H         LINE#         171
  C:148CH         LINE#         172
  C:148EH         LINE#         175
  C:149CH         LINE#         176
  C:14B2H         LINE#         177
  -------         ENDPROC       LED_DEAL
  -------         PROC          INFOR_DEAL
  C:105BH         LINE#         180
  C:105BH         LINE#         181
  C:105BH         LINE#         183
  C:1073H         LINE#         184
  C:107BH         LINE#         185
  C:108FH         LINE#         188
BL51 BANKED LINKER/LOCATER V6.22.2.0                                                  04/12/2024  14:42:26  PAGE 9


  C:1092H         LINE#         189
  C:1094H         LINE#         192
  C:109DH         LINE#         193
  C:10A8H         LINE#         194
  C:10C5H         LINE#         195
  C:10CAH         LINE#         199
  -------         ENDPROC       INFOR_DEAL
  -------         PROC          UART_DEAL
  C:0E93H         LINE#         202
  C:0E93H         LINE#         203
  C:0E93H         LINE#         204
  C:0E9BH         LINE#         206
  C:0EA9H         LINE#         207
  C:0EA9H         LINE#         208
  C:0EAEH         LINE#         210
  C:0EB6H         LINE#         211
  C:0EB6H         LINE#         212
  C:0F17H         LINE#         214
  C:0F17H         LINE#         215
  C:0F24H         LINE#         216
  C:0F24H         LINE#         217
  C:0F29H         LINE#         218
  C:0F2FH         LINE#         219
  C:0F31H         LINE#         221
  C:0F37H         LINE#         222
  C:0F39H         LINE#         224
  C:0F42H         LINE#         226
  C:0F42H         LINE#         228
  C:0F51H         LINE#         229
  C:0F54H         LINE#         230
  C:0F54H         LINE#         232
  -------         ENDPROC       UART_DEAL
  -------         PROC          TIMER0_INIT
  C:16BDH         LINE#         235
  C:16BDH         LINE#         236
  C:16BDH         LINE#         237
  C:16C0H         LINE#         238
  C:16C3H         LINE#         239
  C:16C6H         LINE#         240
  C:16C9H         LINE#         241
  C:16CBH         LINE#         242
  C:16CDH         LINE#         243
  C:16CFH         LINE#         244
  -------         ENDPROC       TIMER0_INIT
  -------         PROC          TIMER1_INIT
  C:167FH         LINE#         245
  C:167FH         LINE#         246
  C:167FH         LINE#         247
  C:1682H         LINE#         248
  C:1685H         LINE#         249
  C:1688H         LINE#         250
  C:168BH         LINE#         251
  C:168DH         LINE#         252
  C:168FH         LINE#         253
  C:1691H         LINE#         254
  C:1693H         LINE#         255
  -------         ENDPROC       TIMER1_INIT
BL51 BANKED LINKER/LOCATER V6.22.2.0                                                  04/12/2024  14:42:26  PAGE 10


  -------         PROC          TIMER1_SERVE
  C:0CC8H         LINE#         258
  C:0CE5H         LINE#         260
  C:0CFEH         LINE#         261
  C:0D0FH         LINE#         262
  C:0D20H         LINE#         263
  C:0D31H         LINE#         264
  C:0D49H         LINE#         265
  C:0D58H         LINE#         268
  C:0D63H         LINE#         269
  C:0D67H         LINE#         272
  C:0D78H         LINE#         273
  C:0D78H         LINE#         274
  C:0D82H         LINE#         275
  C:0D8EH         LINE#         276
  C:0D8EH         LINE#         279
  C:0D91H         LINE#         280
  C:0D93H         LINE#         281
  -------         ENDPROC       TIMER1_SERVE
  -------         PROC          UART_SERVE
  C:12FAH         LINE#         282
  C:1305H         LINE#         284
  C:1308H         LINE#         285
  C:1308H         LINE#         286
  C:130AH         LINE#         287
  C:130DH         LINE#         288
  C:1317H         LINE#         289
  C:1319H         LINE#         290
  C:1319H         LINE#         292
  C:132DH         LINE#         293
  -------         ENDPROC       UART_SERVE
  -------         PROC          MAIN
  -------         DO            
  D:0055H         SYMBOL        Password
  -------         ENDDO         
  C:10CBH         LINE#         296
  C:10CBH         LINE#         297
  C:10CBH         LINE#         298
  C:10CEH         LINE#         301
  C:10D1H         LINE#         302
  C:10D4H         LINE#         303
  C:10D7H         LINE#         304
  C:10DAH         LINE#         305
  C:10DDH         LINE#         308
  C:10F0H         LINE#         309
  C:10F6H         LINE#         310
  C:1107H         LINE#         312
  C:1107H         LINE#         313
  C:110AH         LINE#         314
  C:111DH         LINE#         315
  C:111DH         LINE#         316
  C:1126H         LINE#         318
  C:1126H         LINE#         319
  C:1126H         LINE#         320
  C:1129H         LINE#         321
  C:112CH         LINE#         322
  C:112FH         LINE#         323
BL51 BANKED LINKER/LOCATER V6.22.2.0                                                  04/12/2024  14:42:26  PAGE 11


  C:1132H         LINE#         324
  C:1135H         LINE#         325
  -------         ENDPROC       MAIN
  -------         ENDMOD        MAIN

  -------         MODULE        INIT
  C:0000H         SYMBOL        _ICE_DUMMY_
  C:15FBH         PUBLIC        System_Init
  D:0080H         PUBLIC        P0
  D:0090H         PUBLIC        P1
  D:00A0H         PUBLIC        P2
  D:00B0H         PUBLIC        P3
  D:00C0H         PUBLIC        P4
  D:00C8H         PUBLIC        P5
  D:00E8H         PUBLIC        P6
  D:00F8H         PUBLIC        P7
  D:00A8H         PUBLIC        IE
  D:00B8H         PUBLIC        IP
  D:00D8H         PUBLIC        CCON
  D:0098H         PUBLIC        SCON
  D:0088H         PUBLIC        TCON
  D:00D0H         PUBLIC        PSW
  -------         PROC          SYSTEM_INIT
  C:15FBH         LINE#         5
  C:15FBH         LINE#         6
  C:15FBH         LINE#         7
  C:15FEH         LINE#         8
  C:1606H         LINE#         9
  C:1609H         LINE#         11
  C:160CH         LINE#         12
  C:1614H         LINE#         13
  C:1617H         LINE#         14
  -------         ENDPROC       SYSTEM_INIT
  -------         ENDMOD        INIT

  -------         MODULE        KEY
  C:0000H         SYMBOL        _ICE_DUMMY_
  D:0080H         PUBLIC        P0
  D:0090H         PUBLIC        P1
  D:00A0H         PUBLIC        P2
  D:00B0H         PUBLIC        P3
  D:00C0H         PUBLIC        P4
  D:00C8H         PUBLIC        P5
  B:00A8H.7       PUBLIC        EA
  D:00E8H         PUBLIC        P6
  D:00F8H         PUBLIC        P7
  C:0FE1H         PUBLIC        Key_Read
  D:00A8H         PUBLIC        IE
  D:00B8H         PUBLIC        IP
  D:00D8H         PUBLIC        CCON
  B:00B0H.0       PUBLIC        P30
  D:0098H         PUBLIC        SCON
  B:00B0H.1       PUBLIC        P31
  D:0088H         PUBLIC        TCON
  B:00B0H.2       PUBLIC        P32
  B:00C0H.2       PUBLIC        P42
  B:00B0H.3       PUBLIC        P33
BL51 BANKED LINKER/LOCATER V6.22.2.0                                                  04/12/2024  14:42:26  PAGE 12


  B:00B0H.4       PUBLIC        P34
  B:00C0H.4       PUBLIC        P44
  B:00B0H.5       PUBLIC        P35
  D:00D0H         PUBLIC        PSW
  -------         PROC          KEY_READ
  -------         DO            
  D:0007H         SYMBOL        temp
  -------         ENDDO         
  C:0FE1H         LINE#         4
  C:0FE1H         LINE#         5
  C:0FE1H         LINE#         6
  C:0FE3H         LINE#         7
  C:0FE5H         LINE#         8
  C:0FEDH         LINE#         9
  C:0FF2H         LINE#         10
  C:0FF7H         LINE#         11
  C:0FFCH         LINE#         12
  C:1001H         LINE#         13
  C:1009H         LINE#         14
  C:100EH         LINE#         15
  C:1013H         LINE#         16
  C:1018H         LINE#         17
  C:101DH         LINE#         18
  C:1025H         LINE#         19
  C:102AH         LINE#         20
  C:102FH         LINE#         21
  C:1034H         LINE#         22
  C:1039H         LINE#         23
  C:1041H         LINE#         24
  C:1046H         LINE#         25
  C:104BH         LINE#         26
  C:1050H         LINE#         27
  C:1055H         LINE#         28
  C:1058H         LINE#         29
  C:105AH         LINE#         30
  C:105AH         LINE#         31
  -------         ENDPROC       KEY_READ
  -------         ENDMOD        KEY

  -------         MODULE        SEG
  C:0000H         SYMBOL        _ICE_DUMMY_
  D:0080H         PUBLIC        P0
  D:0090H         PUBLIC        P1
  D:00A0H         PUBLIC        P2
  D:00B0H         PUBLIC        P3
  D:00C0H         PUBLIC        P4
  D:00C8H         PUBLIC        P5
  D:00E8H         PUBLIC        P6
  D:00F8H         PUBLIC        P7
  D:00A8H         PUBLIC        IE
  D:00B8H         PUBLIC        IP
  C:122FH         PUBLIC        _Seg_Show
  D:00D8H         PUBLIC        CCON
  D:0098H         PUBLIC        SCON
  D:0088H         PUBLIC        TCON
  C:16D0H         PUBLIC        Seg_Table
  D:00D0H         PUBLIC        PSW
BL51 BANKED LINKER/LOCATER V6.22.2.0                                                  04/12/2024  14:42:26  PAGE 13


  -------         PROC          _SEG_SHOW
  D:0007H         SYMBOL        addr
  D:0004H         SYMBOL        Table
  D:0002H         SYMBOL        Point
  C:122FH         LINE#         27
  C:122FH         LINE#         28
  C:122FH         LINE#         29
  C:1232H         LINE#         30
  C:123AH         LINE#         31
  C:123DH         LINE#         33
  C:124AH         LINE#         34
  C:1252H         LINE#         35
  C:1255H         LINE#         37
  C:1263H         LINE#         38
  C:1267H         LINE#         39
  C:126AH         LINE#         40
  C:1272H         LINE#         41
  C:1275H         LINE#         43
  -------         ENDPROC       _SEG_SHOW
  -------         ENDMOD        SEG

  -------         MODULE        LED
  C:0000H         SYMBOL        _ICE_DUMMY_
  C:1597H         PUBLIC        _Relay
  D:0080H         PUBLIC        P0
  D:0090H         PUBLIC        P1
  D:00A0H         PUBLIC        P2
  D:00B0H         PUBLIC        P3
  D:00C0H         PUBLIC        P4
  D:00C8H         PUBLIC        P5
  D:00E8H         PUBLIC        P6
  D:00F8H         PUBLIC        P7
  D:00A8H         PUBLIC        IE
  D:00B8H         PUBLIC        IP
  D:00D8H         PUBLIC        CCON
  D:0098H         PUBLIC        SCON
  D:0088H         PUBLIC        TCON
  D:000AH         PUBLIC        temp_old
  C:1372H         PUBLIC        _LED_Show
  D:000BH         PUBLIC        temp_new
  D:00D0H         PUBLIC        PSW
  C:1574H         PUBLIC        _Beep
  -------         PROC          _LED_SHOW
  D:0007H         SYMBOL        addr
  D:0004H         SYMBOL        enable
  -------         DO            
  D:0008H         SYMBOL        LED_temp_new
  D:0009H         SYMBOL        LED_temp_old
  -------         ENDDO         
  C:1372H         LINE#         5
  C:1372H         LINE#         6
  C:1372H         LINE#         10
  C:1376H         LINE#         11
  C:1385H         LINE#         13
  C:1393H         LINE#         15
  C:1399H         LINE#         16
  C:1399H         LINE#         17
BL51 BANKED LINKER/LOCATER V6.22.2.0                                                  04/12/2024  14:42:26  PAGE 14


  C:139EH         LINE#         18
  C:13A6H         LINE#         19
  C:13A9H         LINE#         20
  C:13ACH         LINE#         21
  C:13ACH         LINE#         22
  -------         ENDPROC       _LED_SHOW
  -------         PROC          _BEEP
  D:0007H         SYMBOL        enable
  C:1574H         LINE#         27
  C:1574H         LINE#         28
  C:1574H         LINE#         29
  C:1577H         LINE#         30
  C:157CH         LINE#         32
  C:157FH         LINE#         34
  C:1585H         LINE#         35
  C:1585H         LINE#         36
  C:1588H         LINE#         37
  C:1590H         LINE#         38
  C:1593H         LINE#         39
  C:1596H         LINE#         40
  C:1596H         LINE#         41
  -------         ENDPROC       _BEEP
  -------         PROC          _RELAY
  D:0007H         SYMBOL        enable
  C:1597H         LINE#         43
  C:1597H         LINE#         44
  C:1597H         LINE#         45
  C:159AH         LINE#         46
  C:159FH         LINE#         48
  C:15A2H         LINE#         50
  C:15A8H         LINE#         51
  C:15A8H         LINE#         52
  C:15ABH         LINE#         53
  C:15B3H         LINE#         54
  C:15B6H         LINE#         55
  C:15B9H         LINE#         56
  C:15B9H         LINE#         57
  -------         ENDPROC       _RELAY
  -------         ENDMOD        LED

  -------         MODULE        DS1302
  C:0000H         SYMBOL        _ICE_DUMMY_
  D:0080H         PUBLIC        P0
  D:0090H         PUBLIC        P1
  D:00A0H         PUBLIC        P2
  D:00B0H         PUBLIC        P3
  D:00C0H         PUBLIC        P4
  D:00C8H         PUBLIC        P5
  D:00E8H         PUBLIC        P6
  D:00F8H         PUBLIC        P7
  D:00A8H         PUBLIC        IE
  D:00B8H         PUBLIC        IP
  D:00D8H         PUBLIC        CCON
  D:0098H         PUBLIC        SCON
  D:0088H         PUBLIC        TCON
  C:12BDH         PUBLIC        _DS1302_Read_Rtc
  C:1280H         PUBLIC        _Read_Ds1302_Byte
BL51 BANKED LINKER/LOCATER V6.22.2.0                                                  04/12/2024  14:42:26  PAGE 15


  B:00A0H.3       PUBLIC        SDA
  C:1194H         PUBLIC        _DS1302_Write_Rtc
  B:0090H.7       PUBLIC        SCK
  C:16A9H         PUBLIC        _Write_Ds1302_Byte
  C:1618H         PUBLIC        _Write_Ds1302
  B:0090H.3       PUBLIC        RST
  D:00D0H         PUBLIC        PSW
  -------         PROC          _WRITE_DS1302
  D:0007H         SYMBOL        temp
  -------         DO            
  D:0006H         SYMBOL        i
  -------         ENDDO         
  C:1618H         LINE#         15
  C:1618H         LINE#         16
  C:1618H         LINE#         18
  C:1624H         LINE#         19
  C:1624H         LINE#         20
  C:1626H         LINE#         21
  C:162AH         LINE#         22
  C:162EH         LINE#         23
  C:1630H         LINE#         24
  C:1633H         LINE#         25
  -------         ENDPROC       _WRITE_DS1302
  -------         PROC          _WRITE_DS1302_BYTE
  D:0007H         SYMBOL        address
  D:0005H         SYMBOL        dat
  C:16A9H         LINE#         28
  C:16A9H         LINE#         29
  C:16A9H         LINE#         30
  C:16ACH         LINE#         31
  C:16AFH         LINE#         32
  C:16B2H         LINE#         33
  C:16B5H         LINE#         34
  C:16BAH         LINE#         35
  C:16BCH         LINE#         36
  -------         ENDPROC       _WRITE_DS1302_BYTE
  -------         PROC          L?0019
  -------         ENDPROC       L?0019
  -------         PROC          _READ_DS1302_BYTE
  D:0007H         SYMBOL        address
  -------         DO            
  D:0007H         SYMBOL        i
  D:0005H         SYMBOL        temp
  -------         ENDDO         
  C:1280H         LINE#         39
  C:1280H         LINE#         40
  C:1280H         LINE#         41
  C:1282H         LINE#         42
  C:1285H         LINE#         43
  C:1288H         LINE#         44
  C:128BH         LINE#         45
  C:128EH         LINE#         46
  C:129AH         LINE#         47
  C:129AH         LINE#         48
  C:129CH         LINE#         49
  C:12A0H         LINE#         50
  C:12A3H         LINE#         51
BL51 BANKED LINKER/LOCATER V6.22.2.0                                                  04/12/2024  14:42:26  PAGE 16


  C:12A6H         LINE#         52
  C:12A8H         LINE#         53
  C:12ABH         LINE#         54
  C:12AEH         LINE#         55
  C:12B1H         LINE#         56
  C:12B4H         LINE#         57
  C:12B7H         LINE#         58
  C:12BAH         LINE#         59
  C:12BCH         LINE#         60
  -------         ENDPROC       _READ_DS1302_BYTE
  -------         PROC          _DS1302_WRITE_RTC
  D:0056H         SYMBOL        pRtc
  -------         DO            
  D:0004H         SYMBOL        i
  D:0003H         SYMBOL        temp
  -------         ENDDO         
  C:1194H         LINE#         62
  C:119AH         LINE#         63
  C:119AH         LINE#         64
  C:119CH         LINE#         65
  C:119DH         LINE#         66
  C:11A3H         LINE#         67
  C:11ADH         LINE#         68
  C:11ADH         LINE#         69
  C:11CDH         LINE#         70
  C:11DBH         LINE#         71
  C:11DEH         LINE#         72
  -------         ENDPROC       _DS1302_WRITE_RTC
  -------         PROC          _DS1302_READ_RTC
  D:0056H         SYMBOL        pRtc
  -------         DO            
  D:0059H         SYMBOL        i
  -------         ENDDO         
  C:12BDH         LINE#         75
  C:12C3H         LINE#         76
  C:12C3H         LINE#         77
  C:12C6H         LINE#         78
  C:12D3H         LINE#         79
  C:12F9H         LINE#         80
  -------         ENDPROC       _DS1302_READ_RTC
  -------         ENDMOD        DS1302

  -------         MODULE        ONEWIRE
  C:0000H         SYMBOL        _ICE_DUMMY_
  D:0080H         PUBLIC        P0
  D:0090H         PUBLIC        P1
  D:00A0H         PUBLIC        P2
  D:00B0H         PUBLIC        P3
  D:00C0H         PUBLIC        P4
  C:15BAH         PUBLIC        Read_DS18B20
  D:00C8H         PUBLIC        P5
  D:00E8H         PUBLIC        P6
  D:00F8H         PUBLIC        P7
  D:00A8H         PUBLIC        IE
  C:15E1H         PUBLIC        _Delay_OneWire
  C:14B3H         PUBLIC        _Write_DS18B20
  B:0090H.4       PUBLIC        DQ
BL51 BANKED LINKER/LOCATER V6.22.2.0                                                  04/12/2024  14:42:26  PAGE 17


  D:00B8H         PUBLIC        IP
  C:14DAH         PUBLIC        init_ds18b20
  D:00D8H         PUBLIC        CCON
  D:0098H         PUBLIC        SCON
  D:0088H         PUBLIC        TCON
  C:1455H         PUBLIC        DS18B20_Read_T
  D:00D0H         PUBLIC        PSW
  C:15DDH         SYMBOL        L?0020
  -------         PROC          L?0019
  -------         ENDPROC       L?0019
  C:15DDH         SYMBOL        L?0020
  -------         PROC          _DELAY_ONEWIRE
  D:0006H         SYMBOL        t
  -------         DO            
  D:0005H         SYMBOL        i
  -------         ENDDO         
  C:15E1H         LINE#         12
  C:15E1H         LINE#         13
  C:15E1H         LINE#         15
  C:15EBH         LINE#         16
  C:15FAH         LINE#         17
  C:15FAH         LINE#         18
  -------         ENDPROC       _DELAY_ONEWIRE
  -------         PROC          _WRITE_DS18B20
  D:0001H         SYMBOL        dat
  -------         DO            
  D:0003H         SYMBOL        i
  -------         ENDDO         
  C:14B3H         LINE#         21
  C:14B5H         LINE#         22
  C:14B5H         LINE#         24
  C:14C1H         LINE#         25
  C:14C1H         LINE#         26
  C:14C3H         LINE#         27
  C:14C7H         LINE#         28
  C:14CAH         LINE#         29
  C:14CCH         LINE#         30
  C:14D0H         LINE#         31
  C:14D3H         LINE#         32
  -------         ENDPROC       _WRITE_DS18B20
  -------         PROC          READ_DS18B20
  -------         DO            
  D:0003H         SYMBOL        i
  D:0004H         SYMBOL        dat
  -------         ENDDO         
  C:15BAH         LINE#         36
  C:15BAH         LINE#         37
  C:15BAH         LINE#         41
  C:15C6H         LINE#         42
  C:15C6H         LINE#         43
  C:15C8H         LINE#         44
  C:15CCH         LINE#         45
  C:15CEH         LINE#         46
  C:15D1H         LINE#         47
  C:15D1H         LINE#         48
  C:15D4H         LINE#         49
  C:15D4H         LINE#         50
BL51 BANKED LINKER/LOCATER V6.22.2.0                                                  04/12/2024  14:42:26  PAGE 18


  C:15D7H         LINE#         51
  C:15DAH         LINE#         52
  C:15DCH         LINE#         53
  -------         ENDPROC       READ_DS18B20
  -------         PROC          INIT_DS18B20
  -------         DO            
  B:0020H.0       SYMBOL        initflag
  -------         ENDDO         
  C:14DAH         LINE#         56
  C:14DAH         LINE#         57
  C:14DAH         LINE#         58
  C:14DCH         LINE#         60
  C:14DEH         LINE#         61
  C:14E5H         LINE#         62
  C:14E7H         LINE#         63
  C:14EEH         LINE#         64
  C:14F0H         LINE#         65
  C:14F7H         LINE#         66
  C:14FBH         LINE#         67
  C:14FEH         LINE#         69
  C:1500H         LINE#         70
  -------         ENDPROC       INIT_DS18B20
  -------         PROC          DS18B20_READ_T
  -------         DO            
  D:0001H         SYMBOL        low
  D:0007H         SYMBOL        high
  -------         ENDDO         
  C:1455H         LINE#         72
  C:1455H         LINE#         73
  C:1455H         LINE#         75
  C:1458H         LINE#         76
  C:145DH         LINE#         77
  C:1462H         LINE#         78
  C:1465H         LINE#         79
  C:146AH         LINE#         80
  C:146FH         LINE#         82
  C:1474H         LINE#         83
  C:1477H         LINE#         85
  -------         ENDPROC       DS18B20_READ_T
  -------         ENDMOD        ONEWIRE

  -------         MODULE        IIC
  C:0000H         SYMBOL        _ICE_DUMMY_
  D:0080H         PUBLIC        P0
  D:0090H         PUBLIC        P1
  D:00A0H         PUBLIC        P2
  D:00B0H         PUBLIC        P3
  D:00C0H         PUBLIC        P4
  D:00C8H         PUBLIC        P5
  D:00E8H         PUBLIC        P6
  D:00F8H         PUBLIC        P7
  D:00A8H         PUBLIC        IE
  C:1638H         SYMBOL        _I2C_Delay
  D:00B8H         PUBLIC        IP
  C:1528H         PUBLIC        I2CReceiveByte
  D:00D8H         PUBLIC        CCON
  C:11E5H         PUBLIC        _EEPROM_Read
BL51 BANKED LINKER/LOCATER V6.22.2.0                                                  04/12/2024  14:42:26  PAGE 19


  D:0098H         PUBLIC        SCON
  D:0088H         PUBLIC        TCON
  B:00A0H.1       PUBLIC        sda
  C:13E8H         PUBLIC        _EEPROM_Write
  B:00A0H.0       PUBLIC        scl
  C:16E3H         PUBLIC        I2CStart
  C:0003H         PUBLIC        _I2CSendAck
  C:1420H         PUBLIC        _I2CSendByte
  C:1501H         PUBLIC        _AD_Read
  C:1562H         PUBLIC        I2CWaitAck
  C:16F2H         PUBLIC        I2CStop
  C:1694H         PUBLIC        _DA_Write
  D:00D0H         PUBLIC        PSW
  C:1634H         SYMBOL        L?0038
  -------         PROC          L?0037
  -------         ENDPROC       L?0037
  C:1634H         SYMBOL        L?0038
  -------         PROC          _I2C_DELAY
  D:0007H         SYMBOL        n
  C:1638H         LINE#         16
  C:1638H         LINE#         17
  C:1638H         LINE#         19
  C:1638H         LINE#         20
  C:163DH         LINE#         21
  C:1642H         LINE#         22
  C:1647H         LINE#         23
  C:1647H         LINE#         24
  C:164DH         LINE#         25
  -------         ENDPROC       _I2C_DELAY
  -------         PROC          I2CSTART
  C:16E3H         LINE#         28
  C:16E3H         LINE#         29
  C:16E3H         LINE#         30
  C:16E5H         LINE#         31
  C:16E5H         LINE#         32
  C:16E8H         LINE#         33
  C:16EAH         LINE#         34
  C:16EFH         LINE#         35
  C:16F1H         LINE#         36
  -------         ENDPROC       I2CSTART
  -------         PROC          I2CSTOP
  C:16F2H         LINE#         39
  C:16F2H         LINE#         40
  C:16F2H         LINE#         41
  C:16F4H         LINE#         42
  C:16F4H         LINE#         43
  C:16F7H         LINE#         44
  C:16F9H         LINE#         45
  -------         ENDPROC       I2CSTOP
  -------         PROC          _I2CSENDBYTE
  D:0005H         SYMBOL        byt
  -------         DO            
  D:0004H         SYMBOL        i
  -------         ENDDO         
  C:1420H         LINE#         49
  C:1422H         LINE#         50
  C:1422H         LINE#         53
BL51 BANKED LINKER/LOCATER V6.22.2.0                                                  04/12/2024  14:42:26  PAGE 20


  C:142EH         LINE#         54
  C:1430H         LINE#         55
  C:1435H         LINE#         56
  C:1439H         LINE#         57
  C:143BH         LINE#         58
  C:143DH         LINE#         59
  C:143DH         LINE#         60
  C:143FH         LINE#         61
  C:143FH         LINE#         62
  C:1444H         LINE#         63
  C:1446H         LINE#         64
  C:144AH         LINE#         65
  C:144FH         LINE#         66
  C:1452H         LINE#         68
  C:1454H         LINE#         69
  -------         ENDPROC       _I2CSENDBYTE
  -------         PROC          I2CRECEIVEBYTE
  -------         DO            
  D:0005H         SYMBOL        da
  D:0004H         SYMBOL        i
  -------         ENDDO         
  C:1528H         LINE#         72
  C:1528H         LINE#         73
  C:1528H         LINE#         76
  C:1534H         LINE#         77
  C:1534H         LINE#         78
  C:1537H         LINE#         79
  C:153BH         LINE#         80
  C:153EH         LINE#         81
  C:1541H         LINE#         82
  C:1543H         LINE#         83
  C:1548H         LINE#         84
  C:154BH         LINE#         85
  C:154DH         LINE#         86
  -------         ENDPROC       I2CRECEIVEBYTE
  C:1557H         SYMBOL        L?0036
  -------         PROC          L?0035
  -------         ENDPROC       L?0035
  C:1557H         SYMBOL        L?0036
  -------         PROC          I2CWAITACK
  -------         DO            
  D:0005H         SYMBOL        ackbit
  -------         ENDDO         
  C:1562H         LINE#         89
  C:1562H         LINE#         90
  C:1562H         LINE#         93
  C:1562H         LINE#         94
  C:1565H         LINE#         95
  C:156AH         LINE#         96
  C:156CH         LINE#         97
  C:1571H         LINE#         99
  C:1573H         LINE#         100
  -------         ENDPROC       I2CWAITACK
  -------         PROC          _I2CSENDACK
  D:0007H         SYMBOL        ackbit
  C:0003H         LINE#         103
  C:0003H         LINE#         104
BL51 BANKED LINKER/LOCATER V6.22.2.0                                                  04/12/2024  14:42:26  PAGE 21


  C:0003H         LINE#         105
  C:0005H         LINE#         106
  C:000AH         LINE#         107
  C:000FH         LINE#         108
  C:000FH         LINE#         109
  C:0012H         LINE#         110
  C:0014H         LINE#         111
  C:0016H         LINE#         112
  -------         ENDPROC       _I2CSENDACK
  -------         PROC          _AD_READ
  D:0003H         SYMBOL        addr
  -------         DO            
  D:0005H         SYMBOL        temp
  -------         ENDDO         
  C:1501H         LINE#         115
  C:1503H         LINE#         116
  C:1503H         LINE#         117
  C:1505H         LINE#         118
  C:1508H         LINE#         119
  C:150AH         LINE#         120
  C:150AH         LINE#         121
  C:150AH         LINE#         122
  C:150DH         LINE#         124
  C:1510H         LINE#         125
  C:1515H         LINE#         126
  C:1518H         LINE#         127
  C:151DH         LINE#         128
  C:1522H         LINE#         129
  C:1525H         LINE#         130
  C:1527H         LINE#         131
  -------         ENDPROC       _AD_READ
  -------         PROC          _DA_WRITE
  D:0003H         SYMBOL        dat
  C:1694H         LINE#         133
  C:1696H         LINE#         134
  C:1696H         LINE#         135
  C:1699H         LINE#         136
  C:169EH         LINE#         137
  C:16A1H         LINE#         138
  C:16A3H         LINE#         139
  C:16A3H         LINE#         140
  C:16A3H         LINE#         141
  C:16A6H         LINE#         142
  -------         ENDPROC       _DA_WRITE
  -------         PROC          _EEPROM_WRITE
  D:0056H         SYMBOL        pAT
  D:0002H         SYMBOL        addr
  D:005BH         SYMBOL        num
  C:13E8H         LINE#         145
  C:13EEH         LINE#         146
  C:13EEH         LINE#         147
  C:13EEH         LINE#         148
  C:13EEH         LINE#         149
  C:13EEH         LINE#         150
  C:13EEH         LINE#         151
  C:13F1H         LINE#         152
  C:13FEH         LINE#         153
BL51 BANKED LINKER/LOCATER V6.22.2.0                                                  04/12/2024  14:42:26  PAGE 22


  C:13FEH         LINE#         154
  C:1413H         LINE#         155
  C:1416H         LINE#         156
  C:141BH         LINE#         157
  C:141DH         LINE#         158
  -------         ENDPROC       _EEPROM_WRITE
  -------         PROC          _EEPROM_READ
  D:0056H         SYMBOL        pAT
  D:0002H         SYMBOL        addr
  D:005BH         SYMBOL        num
  C:11E5H         LINE#         161
  C:11EBH         LINE#         162
  C:11EBH         LINE#         163
  C:11EBH         LINE#         164
  C:11EBH         LINE#         165
  C:11EBH         LINE#         166
  C:11EBH         LINE#         167
  C:11EEH         LINE#         168
  C:11F1H         LINE#         169
  C:11F6H         LINE#         170
  C:11F9H         LINE#         171
  C:1206H         LINE#         172
  C:1206H         LINE#         173
  C:121BH         LINE#         174
  C:1221H         LINE#         175
  C:1225H         LINE#         177
  C:122AH         LINE#         178
  C:122CH         LINE#         179
  -------         ENDPROC       _EEPROM_READ
  -------         ENDMOD        IIC

  -------         MODULE        UWAVE
  C:0000H         SYMBOL        _ICE_DUMMY_
  D:0080H         PUBLIC        P0
  D:0090H         PUBLIC        P1
  C:164EH         PUBLIC        Uwave_Init
  D:00A0H         PUBLIC        P2
  D:00B0H         PUBLIC        P3
  D:00C0H         PUBLIC        P4
  D:00C8H         PUBLIC        P5
  D:00E8H         PUBLIC        P6
  D:00F8H         PUBLIC        P7
  B:00D8H.7       PUBLIC        CF
  D:00F9H         PUBLIC        CH
  D:00A8H         PUBLIC        IE
  D:00E9H         PUBLIC        CL
  B:00D8H.6       PUBLIC        CR
  D:00B8H         PUBLIC        IP
  D:00D9H         PUBLIC        CMOD
  D:00D8H         PUBLIC        CCON
  D:0098H         PUBLIC        SCON
  D:0088H         PUBLIC        TCON
  C:1706H         PUBLIC        Delay12us
  B:0090H.1       PUBLIC        Rx
  B:0090H.0       PUBLIC        Tx
  C:13ADH         PUBLIC        Uwave_Read_Distance
  D:00D0H         PUBLIC        PSW
BL51 BANKED LINKER/LOCATER V6.22.2.0                                                  04/12/2024  14:42:26  PAGE 23


  -------         PROC          DELAY12US
  -------         DO            
  D:0007H         SYMBOL        i
  -------         ENDDO         
  C:1706H         LINE#         9
  C:1706H         LINE#         10
  C:1706H         LINE#         13
  C:1707H         LINE#         14
  C:1708H         LINE#         15
  C:170AH         LINE#         16
  C:170CH         LINE#         17
  -------         ENDPROC       DELAY12US
  -------         PROC          UWAVE_INIT
  -------         DO            
  D:0006H         SYMBOL        i
  -------         ENDDO         
  C:164EH         LINE#         19
  C:164EH         LINE#         20
  C:164EH         LINE#         21
  C:1650H         LINE#         22
  C:165AH         LINE#         23
  C:165AH         LINE#         24
  C:165CH         LINE#         25
  C:165FH         LINE#         26
  C:1661H         LINE#         27
  C:1664H         LINE#         28
  C:1667H         LINE#         29
  -------         ENDPROC       UWAVE_INIT
  -------         PROC          UWAVE_READ_DISTANCE
  -------         DO            
  D:0004H         SYMBOL        time
  -------         ENDDO         
  C:13ADH         LINE#         31
  C:13ADH         LINE#         32
  C:13ADH         LINE#         33
  C:13B0H         LINE#         34
  C:13B2H         LINE#         35
  C:13B6H         LINE#         36
  C:13B9H         LINE#         37
  C:13BBH         LINE#         38
  C:13C1H         LINE#         39
  C:13C3H         LINE#         40
  C:13C6H         LINE#         41
  C:13C6H         LINE#         42
  C:13C8H         LINE#         43
  C:13CBH         LINE#         44
  C:13CBH         LINE#         46
  C:13CBH         LINE#         47
  C:13D2H         LINE#         48
  C:13E7H         LINE#         49
  C:13E7H         LINE#         50
  -------         ENDPROC       UWAVE_READ_DISTANCE
  -------         ENDMOD        UWAVE

  -------         MODULE        UART
  C:0000H         SYMBOL        _ICE_DUMMY_
  D:0080H         PUBLIC        P0
BL51 BANKED LINKER/LOCATER V6.22.2.0                                                  04/12/2024  14:42:26  PAGE 24


  D:0090H         PUBLIC        P1
  D:00A0H         PUBLIC        P2
  D:00B0H         PUBLIC        P3
  D:00C0H         PUBLIC        P4
  D:00C8H         PUBLIC        P5
  B:00A8H.7       PUBLIC        EA
  D:00E8H         PUBLIC        P6
  D:00F8H         PUBLIC        P7
  D:00A8H         PUBLIC        IE
  C:1668H         PUBLIC        Uart_Init
  B:00A8H.4       PUBLIC        ES
  D:00B8H         PUBLIC        IP
  B:0098H.1       PUBLIC        TI
  D:00D8H         PUBLIC        CCON
  D:0099H         PUBLIC        SBUF
  D:0098H         PUBLIC        SCON
  D:0088H         PUBLIC        TCON
  D:008EH         PUBLIC        AUXR
  D:00D6H         PUBLIC        T2H
  D:00D7H         PUBLIC        T2L
  D:00D0H         PUBLIC        PSW
  C:16FEH         PUBLIC        _putchar
  -------         PROC          UART_INIT
  C:1668H         LINE#         6
  C:1668H         LINE#         7
  C:1668H         LINE#         8
  C:166BH         LINE#         9
  C:166EH         LINE#         10
  C:1671H         LINE#         11
  C:1674H         LINE#         12
  C:1677H         LINE#         13
  C:167AH         LINE#         14
  C:167CH         LINE#         15
  C:167EH         LINE#         16
  -------         ENDPROC       UART_INIT
  -------         PROC          _PUTCHAR
  D:0007H         SYMBOL        string
  C:16FEH         LINE#         18
  C:16FEH         LINE#         19
  C:16FEH         LINE#         20
  C:1700H         LINE#         21
  C:1703H         LINE#         22
  C:1705H         LINE#         23
  C:1705H         LINE#         24
  -------         ENDPROC       _PUTCHAR
  -------         ENDMOD        UART

  -------         MODULE        ?C?FPMUL
  C:0026H         PUBLIC        ?C?FPMUL
  -------         ENDMOD        ?C?FPMUL

  -------         MODULE        ?C?FPDIV
  C:012FH         PUBLIC        ?C?FPDIV
  -------         ENDMOD        ?C?FPDIV

  -------         MODULE        ?C?FCAST
  C:01D6H         PUBLIC        ?C?FCASTC
BL51 BANKED LINKER/LOCATER V6.22.2.0                                                  04/12/2024  14:42:26  PAGE 25


  C:01D1H         PUBLIC        ?C?FCASTI
  C:01CCH         PUBLIC        ?C?FCASTL
  -------         ENDMOD        ?C?FCAST

  -------         MODULE        ?C?CASTF
  C:020AH         PUBLIC        ?C?CASTF
  -------         ENDMOD        ?C?CASTF

  -------         MODULE        PRINTF
  D:0056H         PUBLIC        ?_PRINTF?BYTE
  D:0056H         PUBLIC        ?_SPRINTF?BYTE
  C:06C6H         PUBLIC        _PRINTF
  C:06C0H         PUBLIC        _SPRINTF
  -------         ENDMOD        PRINTF

  -------         MODULE        ?C?FPROUND
  C:028BH         PUBLIC        ?C?FPROUND
  -------         ENDMOD        ?C?FPROUND

  -------         MODULE        ?C?FPCONVERT
  C:02BAH         PUBLIC        ?C?FPCONVERT
  -------         ENDMOD        ?C?FPCONVERT

  -------         MODULE        ?C?FPADD
  C:03C4H         PUBLIC        ?C?FPADD
  C:03C0H         PUBLIC        ?C?FPSUB
  -------         ENDMOD        ?C?FPADD

  -------         MODULE        ?C?FTNPWR
  C:04E5H         PUBLIC        ?C?FTNPWR
  -------         ENDMOD        ?C?FTNPWR

  -------         MODULE        ?C?CLDPTR
  C:0525H         PUBLIC        ?C?CLDPTR
  -------         ENDMOD        ?C?CLDPTR

  -------         MODULE        ?C?CLDOPTR
  C:053EH         PUBLIC        ?C?CLDOPTR
  -------         ENDMOD        ?C?CLDOPTR

  -------         MODULE        ?C?CSTPTR
  C:056BH         PUBLIC        ?C?CSTPTR
  -------         ENDMOD        ?C?CSTPTR

  -------         MODULE        ?C?CSTOPTR
  C:057DH         PUBLIC        ?C?CSTOPTR
  -------         ENDMOD        ?C?CSTOPTR

  -------         MODULE        ?C?UIDIV
  C:059FH         PUBLIC        ?C?UIDIV
  -------         ENDMOD        ?C?UIDIV

  -------         MODULE        ?C?LNEG
  C:05F4H         PUBLIC        ?C?LNEG
  -------         ENDMOD        ?C?LNEG

  -------         MODULE        ?C?PLDIIDATA
BL51 BANKED LINKER/LOCATER V6.22.2.0                                                  04/12/2024  14:42:26  PAGE 26


  C:0602H         PUBLIC        ?C?PLDIIDATA
  -------         ENDMOD        ?C?PLDIIDATA

  -------         MODULE        ?C?CCASE
  C:0612H         PUBLIC        ?C?CCASE
  -------         ENDMOD        ?C?CCASE

  -------         MODULE        ?C?MEMSET
  C:0638H         PUBLIC        ?C?MEMSET
  -------         ENDMOD        ?C?MEMSET

Program Size: data=114.7 xdata=0 code=5896
LINK/LOCATE RUN COMPLETE.  0 WARNING(S),  0 ERROR(S)
