:10082B0054203D2025640D0A0048656C6C6F2057E1
:08083B006F726C64210D0A00CC
:10070B00082E0A0A0A0A0A0A0A0A0826000000002A
:10071B0000000000084D0000000000000000012256
:0A072B000001230001240001250055
:1005FE00200B53D20B12058B8F24E5246525FF5556
:10060E0024F522E524F45FF523852425E52224FB39
:10061E00602B047031750BFF750C08750D2B05568C
:10062E00E55685550E7002055514F50F7B007A00C0
:10063E0079421200827B007A00794280067BFF7A33
:06064E000879341207AD2B
:010654002283
:06088500200A02D20A2243
:01088B00224A
:1006D100200936D209E54C6408702EE538644C7067
:1006E10025E539B44520E53AB4441BE53CB4201670
:1006F100E53DB43D11E53EB4200CE53F24D0FF7447
:0A0701001D253BF8A607E4F54C2285
:10000E00538E7F5389F0758A18758CFCC28DD28CF5
:05001E00D2A9D2AF22BF
:03000B0002046587
:10046500C0E0C0F0C083C082C0D075D000C000C05D
:1004750001C002C003C004C005C006C0070537E5BA
:100485003770020536FFAE36BE010BBF9008C20AB3
:10049500753600753700AE36AF377C007D0A12031E
:1004A5009BED4C7002C20BAE36AF377C007DC81297
:1004B500039BED4C7002C209E5375407FBFF242E60
:1004C500F8E6FD7C0074262BF8E6FB7A001206554B
:1004D500E5375407FF244DF8E6FD7C00120696D05B
:1004E50007D006D005D004D003D002D001D000D06B
:0A04F500D0D082D083D0F0D0E032E6
:030023000207D2FF
:1007D200C0E0C0D075D000C000C00730980CAF4C4C
:1007E200054C74382FF8A699C298D007D000D0D003
:0307F200D0E03222
:10087100EF4E600F7D0C7CA9DCFEDDFCEF1F70F0FC
:030881001E80EDE9
:010884002251
:100843001207F512000E12085A1205FE120885123D
:07085300088B1206D180F2B0
:1007F500E4F580E5A0541F44A0F5A053A01F758023
:0D080500FFE5A0541F4480F5A053A01F2262
:10058B00E4FFC2B4D2B5D2C2D2C420B0027F1320D2
:10059B00B1027F1220B2027F1120B3027F10D2B4BE
:1005AB00C2B5D2C2D2C420B0027F0F20B1027F0EDF
:1005BB0020B2027F0D20B3027F0CD2B4D2B5C2C2DF
:1005CB00D2C420B0027F0B20B1027F0A20B2027F7F
:1005DB000920B3027F08D2B4D2B5D2C2C2C420B0B4
:1005EB00027F0720B1027F0620B2027F0520B302F3
:0205FB007F047B
:0105FD0022DB
:10081200C0F9A4B0999282F88090FF8883C6A1861D
:090822008E010204081020408040
:100655007580FFE5A0541F44E0F5A053A01FEF905F
:10066500082393F580E5A0541F44C0F5A053A01FAF
:1006750074122DF58274083CF583E493F580EB4AFA
:10068500600353807FE5A0541F44E0F5A053A01FED
:010695002242
:06073500011D00011CFF84
:10069600ED4C600FA8077401088002C333D8FC42F2
:1006A6001D800EA8077401088002C333D8FCF452DB
:1006B6001DE51D651C6013E51DF4F580E5A0541FBE
:0B06C6004480F5A053A01F851D1C22DE
:10076300EF6005431D408003531DBFE51D651C60FD
:1007730013E51DF4F580E5A0541F44A0F5A053A094
:050783001F851D1C2272
:10078800EF6005431D108003531DEFE51D651C60D8
:1007980013E51DF4F580E5A0541F44A0F5A053A06F
:0507A8001F851D1C224D
:10085A00759850438E01538EFB75D7E675D6FF43C4
:07086A008E10D2ACD2AF22C8
:080003008F993099FDC299228A
:1007AD008B088A09890AAB08AA09A90A1203826073
:1007BD0013050AE50A7002050914F9120382FF12E6
:0507CD00000380E222A0
:030000000204FFF8
:0C04FF00787FE4F6D8FD758157020546B1
:10038200BB010689828A83E0225002E722BBFE0279
:09039200E32289828A83E49322AC
:10039B00BC000BBE0029EF8DF084FFADF022E4CC46
:1003AB00F875F008EF2FFFEE33FEEC33FCEE9DEC0F
:1003BB00984005FCEE9DFE0FD5F0E9E4CEFD22ED55
:1003CB00F8F5F0EE8420D21CFEADF075F008EF2F9F
:1003DB00FFED33FD4007985006D5F0F222C398FD90
:0503EB000FD5F0EA222D
:10002600E517240BF8E60517227808300702780B47
:10003600E475F00112042F0203822000EB7F2ED21A
:10004600008018EF540F2490D43440D4FF30040BB2
:10005600EF24BFB41A0050032461FFE518600215AF
:1000660018051BE51B7002051A30070D7808E475A4
:10007600F00112042FEF02041D02073C7403D2079D
:100086008003E4C207F5178B088A09890AE4F51884
:10009600F51AF51BE51860077F2012006180F575DB
:1000A60019FFC201C200C202C203C205C206C208CB
:1000B60012002FFF700D3007057F00120072AF1B74
:1000C600AE1A22B4255FC2D5C20412002FFF24D077
:1000D600B40A00501A75F00A781830D50508B6FF2C
:1000E6000106C6A426F620D5047002D20380D924C0
:1000F600CFB41A00EF5004C2E5D204020272D20154
:1001060080C6D20080C0D20280BCD2D580BAD205C9
:1001160080B47F201200612002077401B5180040E8
:10012600F1120026FF12006102009AD208D2068060
:1001360095120026FB120026FA120026F94A4B7089
:100146000679437A037BFF20022EE518602A7E009B
:100156008E827583001203F060060EEE651970F04C
:10016600C2D5EBC0E0EAC0E0E9C0E0EE1202B9D0C9
:10017600E0F9D0E0FAD0E0FB120382FF60AAEBC000
:10018600E0EAC0E0E9C0E0120061D0E02401F9D065
:10019600E03400FAD0E0FBE5190460DCD519D9801B
:1001A600877BFF7A0279B5D202809C79108002792A
:1001B60008C206C2088008D2D5790A8004790AC224
:1001C600D5E519047002F519E4FAFDFEFF120026C2
:1001D600FC7B08200113120026FD7B1030000A125A
:1001E6000026FE120026FF7B20EC3382D592D550E6
:1001F60013C3E43000069FFFE49EFEE42001039D46
:10020600FDE49CFCE4CBF8C201EC700CCFCECDCC67
:10021600E824F8F870F38017C3EF33FFEE33FEEDF2
:1002260033FDEC33FCEB33FB994002FB0FD8E9EBD3
:10023600300105F8D0E0C448B201C0E00AEC4D4EEA
:100246004F78207B0070C2EAB5190040BCC0E012AE
:1002560002BBD0F0D0E0200104C4C0E0C4B201C0AB
:10026600F012004AD0F0D5F0EB02009A12043F01DA
:10027600375301B15801084C01044201B54F01BD85
:0F0286004401BD49011D4301C35501A74601A70E
:100295004501A747036350010C2D01102E01332B97
:1002A500011423013120034C2A00CC480000012B06
:1002B5003F3F3F00790AA2D5200314300509B91044
:1002C500020404B9080104A2D52006025001042045
:1002D50002689202B518005034C0E07F203003193F
:1002E5007F30A20272067205500F120312C202C2BB
:1002F50006C205C2087F30800F300503E9C0E01251
:100305000061300503D0E0F9D0E0B518CC30051711
:100315007F30B9100C1200617F583004077F788058
:1003250003B908031200613002057F2D0200617FC9
:10033500202008F87F2B2006F322920280CF286E1A
:10034500756C6C2900D2011200263001F8C20178C3
:100355001830D50108F60200CC2D5043495812003B
:10036500262403B405004001E490035E9312005275
:0D037500743A120052D2037518040201B14F
:10050B00020843E493A3F8E493A34003F68001F2BB
:10051B0008DFF48029E493A3F85407240CC8C333F1
:10052B00C4540F4420C8834004F456800146F6DFC0
:10053B00E4800B010204081020408090070BE47E3E
:10054B00019360BCA3FF543F30E509541FFEE493B5
:10055B00A360010ECF54C025E060A840B8E493A37C
:10056B00FAE493A3F8E493A3C8C582C8CAC583CAA7
:10057B00F0A3C8C582C8CAC583CADFE9DEE780BE5F
:01073B0000BD
:1003F000BB010CE58229F582E5833AF583E02250C2
:1004000006E92582F8E622BBFE06E92582F8E2220B
:0D041000E58229F582E5833AF583E4932225
:10041D00BB010689828A83F0225002F722BBFE01BE
:02042D00F322B8
:10042F00FAE6FB0808E6F925F0F618E6CA3AF622CE
:10043F00D083D082F8E4937012740193700DA3A34C
:10044F0093F8740193F5828883E473740293686060
:06045F00EFA3A3A380DF60
:10073C00EFB40A07740D120747740A309811A89980
:10074C00B8130CC2983098FDA899C298B811F6301D
:07075C0099FDC299F59922F5
:00000001FF
