C51 COMPILER V9.59.0.0   MAIN                                                              03/30/2024 12:04:46 PAGE 1   


C51 COMPILER V9.59.0.0, COMPILATION OF MODULE MAIN
OBJECT MODULE PLACED IN .\Objects\main.obj
COMPILER INVOKED BY: D:\keil 5\C51\BIN\C51.EXE main.c OPTIMIZE(8,SPEED) BROWSE INCDIR(..\Drivers;..\User) DEBUG OBJECTEX
                    -TEND PRINT(.\Listings\main.lst) OBJECT(.\Objects\main.obj)

line level    source

   1          /* 头文件声明区 */
   2          #include <STC15F2K60S2.H>
   3          #include "Init.h"
   4          #include "Key.h"
   5          #include "Seg.h"
   6          #include "LED.h"
   7          
   8          /* 基础变量创建区 */
   9          unsigned int Slow_Down;                 //减速扫描专用变量
  10          bit Key_Slow_Flag, Seg_Slow_Flag;       //按键数码管减速标志位
  11          bit LED_Slow_Flag, Infor_Slow_Flag;     //LED,信息减速标志位
  12          unsigned char Seg_Buf[8] = {0, 10, 10, 10, 10, 10, 10, 10};    //数码管显示缓冲区
  13          unsigned char Seg_Point[8] = {0, 0, 0, 0, 0, 0, 0, 0};          //数码管小数点显示缓冲区
  14          unsigned char LED_Buf[8] = {0, 0, 0, 0, 0, 0, 0, 0};            //LED显示缓冲区
  15          
  16          /* 变量创建区 */
  17          
  18          
  19          /* 按键处理函数 */
  20          void Key_Deal()
  21          {
  22   1          static unsigned char Key_Down = 0, Key_UP = 0;
  23   1          static unsigned char Key_New = 0, Key_Old = 0;
  24   1          
  25   1          if (Key_Slow_Flag) return;          //减速
  26   1          Key_Slow_Flag = 1;
  27   1          
  28   1          Key_New = Key_Read();                       //获取键码
  29   1          Key_Down = Key_New & (Key_New ^ Key_Old);   //捕获下降沿
  30   1          Key_UP = ~Key_New & (Key_New ^ Key_Old);    //捕获上升沿
  31   1          Key_Old = Key_New;                          //辅助扫描
  32   1          
  33   1          switch (Key_Down)
  34   1          {
  35   2              case 4:
  36   2                  LED_Buf[0] ^= 1;
  37   2                  Seg_Buf[0] ^= 1;
  38   2              break;
  39   2              case 5:
  40   2                  Beep(1);
  41   2              break;
  42   2              case 6:
  43   2                  Relay(1);
  44   2              break;
  45   2              case 7:
  46   2                  Beep(0);
  47   2                  Relay(0);
  48   2              break;
  49   2          }
  50   1      }
  51          
  52          /* 数码管处理函数 */
  53          void Seg_Deal()
  54          {
C51 COMPILER V9.59.0.0   MAIN                                                              03/30/2024 12:04:46 PAGE 2   

  55   1          if (Seg_Slow_Flag) return;          //减速
  56   1          Seg_Slow_Flag = 1;
  57   1          
  58   1          
  59   1      }
  60          
  61          /* LED处理函数 */
  62          void LED_Deal()
  63          {
  64   1          if (LED_Slow_Flag) return;          //减速
  65   1          LED_Slow_Flag = 1;
  66   1          
  67   1          
  68   1      }
  69          
  70          /* 信息处理函数 */
  71          void Infor_Deal()
  72          {
  73   1          if (Infor_Slow_Flag) return;        //减速
  74   1          Infor_Slow_Flag = 1;
  75   1          
  76   1          
  77   1      }
  78          
  79          /* 定时器初始化函数 */
  80          void Timer0_Init(void)          //1毫秒@12.000MHz
  81          {
  82   1              AUXR &= 0x7F;                   //定时器时钟12T模式
  83   1              TMOD &= 0xF0;                   //设置定时器模式
  84   1              TL0 = 0x18;                             //设置定时初始值
  85   1              TH0 = 0xFC;                             //设置定时初始值
  86   1              TF0 = 0;                                //清除TF0标志
  87   1              TR0 = 1;                                //定时器0开始计时
  88   1          ET0 = 1;
  89   1          EA  = 1;
  90   1      }
  91          
  92          /* 中断服务函数 */
  93          void Timer0_Sevre() interrupt 1
  94          {
  95   1          if (++Slow_Down == 400) Slow_Down = Infor_Slow_Flag = 0;
  96   1          if (Slow_Down % 10 == 0) Key_Slow_Flag = 0;
  97   1          if (Slow_Down % 20 == 0) LED_Slow_Flag = 0;
  98   1          if (Slow_Down % 200 == 0) Seg_Slow_Flag = 0;
  99   1          Seg_Show(Slow_Down%8, Seg_Buf[Slow_Down%8], Seg_Point[Slow_Down%8]);
 100   1          LED_Show(Slow_Down%8, LED_Buf[Slow_Down%8]);
 101   1      }
 102          
 103          /* 主函数 */
 104          void main()
 105          {
 106   1          System_Init();
 107   1          Timer0_Init();
 108   1          
 109   1          while (1)
 110   1          {
 111   2              Key_Deal();
 112   2              Seg_Deal();
 113   2              LED_Deal();
 114   2              Infor_Deal();
 115   2          }
 116   1      }
C51 COMPILER V9.59.0.0   MAIN                                                              03/30/2024 12:04:46 PAGE 3   

 117          
 118          


MODULE INFORMATION:   STATIC OVERLAYABLE
   CODE SIZE        =    301    ----
   CONSTANT SIZE    =   ----    ----
   XDATA SIZE       =   ----    ----
   PDATA SIZE       =   ----    ----
   DATA SIZE        =     30    ----
   IDATA SIZE       =   ----    ----
   BIT SIZE         =      4    ----
END OF MODULE INFORMATION.


C51 COMPILATION COMPLETE.  0 WARNING(S),  0 ERROR(S)
