C51 COMPILER V9.59.0.0   DS1302                                                            01/23/2024 17:13:40 PAGE 1   


C51 COMPILER V9.59.0.0, COMPILATION OF MODULE DS1302
OBJECT MODULE PLACED IN .\Objects\ds1302.obj
COMPILER INVOKED BY: D:\keil 5\C51\BIN\C51.EXE ..\Drivers\ds1302.c OPTIMIZE(8,SPEED) BROWSE INCDIR(..\Drivers;..\User) D
                    -EBUG OBJECTEXTEND PRINT(.\Listings\ds1302.lst) OBJECT(.\Objects\ds1302.obj)

line level    source

   1          #include "ds1302.h"
   2          #include <reg52.h>
   3          #include <intrins.h>
   4          
   5          sbit SCK = P1^7;                
   6          sbit SDA = P2^3;                
   7          sbit RST = P1^3; 
   8          
   9          //写字节
  10          void Write_Ds1302(unsigned  char temp) 
  11          {
  12   1          unsigned char i;
  13   1          for (i=0;i<8;i++)           
  14   1          { 
  15   2              SCK = 0;
  16   2              SDA = temp&0x01;
  17   2              temp>>=1; 
  18   2              SCK=1;
  19   2          }
  20   1      }   
  21          
  22          //向DS1302寄存器写入数据
  23          void Write_Ds1302_Byte( unsigned char address,unsigned char dat )     
  24          {
  25   1          RST=0;      _nop_();
  26   1          SCK=0;      _nop_();
  27   1          RST=1;      _nop_();  
  28   1          Write_Ds1302(address);      
  29   1          Write_Ds1302(dat);          
  30   1          RST=0; 
  31   1      }
  32          
  33          //从DS1302寄存器读出数据
  34          unsigned char Read_Ds1302_Byte ( unsigned char address )
  35          {
  36   1          unsigned char i,temp=0x00;
  37   1          RST=0;      _nop_();
  38   1          SCK=0;      _nop_();
  39   1          RST=1;      _nop_();
  40   1          Write_Ds1302(address);
  41   1          for (i=0;i<8;i++)   
  42   1          {           
  43   2              SCK=0;
  44   2              temp>>=1;       
  45   2              if(SDA)
  46   2              temp|=0x80;     
  47   2              SCK=1;
  48   2          } 
  49   1          RST=0;      _nop_();
  50   1          SCK=0;      _nop_();
  51   1          SCK=1;      _nop_();
  52   1          SDA=0;      _nop_();
  53   1          SDA=1;      _nop_();
  54   1          return (temp);                      
C51 COMPILER V9.59.0.0   DS1302                                                            01/23/2024 17:13:40 PAGE 2   

  55   1      }
  56          
  57          
  58          //设置时钟
  59          void Set_Rtc_Day(unsigned char* ucRtc)
  60          {
  61   1          Write_Ds1302_Byte(0x8e, 0x00);  //关闭写保护
  62   1      
  63   1          Write_Ds1302_Byte(0x8c, ucRtc[0]);//年
  64   1          Write_Ds1302_Byte(0x88, ucRtc[1]);//月
  65   1          Write_Ds1302_Byte(0x86, ucRtc[2]);//日
  66   1          
  67   1          Write_Ds1302_Byte(0x8e, 0x80);  //开启写保护
  68   1      }
  69          
  70          void Set_Rtc_Sec(unsigned char* ucRtc)
  71          {
  72   1          unsigned char i = 0;
  73   1          Write_Ds1302_Byte(0x8e, 0x00);  //关闭写保护
  74   1          for (i = 0; i < 3; i++)
  75   1              Write_Ds1302_Byte(0x84 - 2*i, ucRtc[i]);
  76   1          Write_Ds1302_Byte(0x8e, 0x80);  //开启写保护
  77   1      }
  78          
  79          
  80          //读取时钟
  81          void Read_Rtc_Day(unsigned char* ucRtc)
  82          {
  83   1          ucRtc[0] = Read_Ds1302_Byte(0x8d);
  84   1          ucRtc[1] = Read_Ds1302_Byte(0x89);
  85   1          ucRtc[2] = Read_Ds1302_Byte(0x87);
  86   1      }
  87          
  88          void Read_Rtc_Sec(unsigned char* ucRtc)
  89          {
  90   1          unsigned char i = 0;
  91   1          for (i = 0; i < 3; i++)
  92   1              ucRtc[i] = Read_Ds1302_Byte(0x85 - 2*i);
  93   1      }
  94          
  95          
  96          
  97          
  98          
  99          
 100          
 101          
 102          
 103          
 104          
 105          
 106          
 107          
 108          
 109          
 110          


MODULE INFORMATION:   STATIC OVERLAYABLE
   CODE SIZE        =    299    ----
   CONSTANT SIZE    =   ----    ----
   XDATA SIZE       =   ----    ----
C51 COMPILER V9.59.0.0   DS1302                                                            01/23/2024 17:13:40 PAGE 3   

   PDATA SIZE       =   ----    ----
   DATA SIZE        =   ----       6
   IDATA SIZE       =   ----    ----
   BIT SIZE         =   ----    ----
END OF MODULE INFORMATION.


C51 COMPILATION COMPLETE.  0 WARNING(S),  0 ERROR(S)
