BL51 BANKED LINKER/LOCATER V6.22.2.0                                                    01/20/2024  13:38:47  PAGE 1


BL51 BANKED LINKER/LOCATER V6.22.2.0, INVOKED BY:
D:\KEIL 5\C51\BIN\BL51.EXE .\Objects\main.obj TO .\Objects\Project PRINT (.\Listings\Project.m51) RAMSIZE (256)


MEMORY MODEL: SMALL


INPUT MODULES INCLUDED:
  .\Objects\main.obj (MAIN)
  D:\KEIL 5\C51\LIB\C51S.LIB (?C_STARTUP)


LINK MAP OF MODULE:  .\Objects\Project (MAIN)


            TYPE    BASE      LENGTH    RELOCATION   SEGMENT NAME
            -----------------------------------------------------

            * * * * * * *   D A T A   M E M O R Y   * * * * * * *
            REG     0000H     0008H     ABSOLUTE     "REG BANK 0"
            IDATA   0008H     0001H     UNIT         ?STACK

            * * * * * * *   C O D E   M E M O R Y   * * * * * * *
            CODE    0000H     0003H     ABSOLUTE     
            CODE    0003H     001AH     UNIT         ?PR?DELAY500MS?MAIN
            CODE    001DH     000EH     UNIT         ?PR?MAIN?MAIN
            CODE    002BH     000CH     UNIT         ?C_C51STARTUP



OVERLAY MAP OF MODULE:   .\Objects\Project (MAIN)


SEGMENT
  +--> CALLED SEGMENT
---------------------
?C_C51STARTUP
  +--> ?PR?MAIN?MAIN

?PR?MAIN?MAIN
  +--> ?PR?DELAY500MS?MAIN



SYMBOL TABLE OF MODULE:  .\Objects\Project (MAIN)

  VALUE           TYPE          NAME
  ----------------------------------

  -------         MODULE        MAIN
  C:0000H         SYMBOL        _ICE_DUMMY_
  D:0080H         PUBLIC        P0
  D:0090H         PUBLIC        P1
  D:00A0H         PUBLIC        P2
  D:00B0H         PUBLIC        P3
  D:00C0H         PUBLIC        P4
  D:00C8H         PUBLIC        P5
  D:00E8H         PUBLIC        P6
BL51 BANKED LINKER/LOCATER V6.22.2.0                                                  01/20/2024  13:38:47  PAGE 2


  D:00F8H         PUBLIC        P7
  D:00A8H         PUBLIC        IE
  D:00B8H         PUBLIC        IP
  D:00D8H         PUBLIC        CCON
  C:001DH         PUBLIC        main
  D:0098H         PUBLIC        SCON
  D:0088H         PUBLIC        TCON
  C:000EH         PUBLIC        Delay500ms
  D:00D0H         PUBLIC        PSW
  -------         PROC          L?0013
  -------         ENDPROC       L?0013
  -------         PROC          DELAY500MS
  -------         DO            
  D:0007H         SYMBOL        i
  D:0006H         SYMBOL        j
  D:0005H         SYMBOL        k
  -------         ENDDO         
  C:000EH         LINE#         6
  C:000EH         LINE#         7
  C:000EH         LINE#         10
  C:000FH         LINE#         11
  C:0010H         LINE#         12
  C:0012H         LINE#         13
  C:0014H         LINE#         14
  C:0016H         LINE#         16
  C:0016H         LINE#         18
  C:0016H         LINE#         19
  C:0018H         LINE#         20
  C:001AH         LINE#         21
  C:001CH         LINE#         22
  -------         ENDPROC       DELAY500MS
  -------         PROC          MAIN
  C:001DH         LINE#         28
  C:001DH         LINE#         29
  C:001DH         LINE#         30
  C:001DH         LINE#         31
  C:001DH         LINE#         32
  C:0020H         LINE#         33
  C:0020H         LINE#         34
  C:0020H         LINE#         35
  C:0023H         LINE#         37
  C:0026H         LINE#         38
  C:0026H         LINE#         39
  C:0026H         LINE#         40
  C:0029H         LINE#         41
  -------         ENDPROC       MAIN
  -------         ENDMOD        MAIN

Program Size: data=9.0 xdata=0 code=55
LINK/LOCATE RUN COMPLETE.  0 WARNING(S),  0 ERROR(S)
