:10084300082C0A0A0A0A0A0A0A0A082400000000F5
:1008530000000000083D0000000000000000014A05
:0A08630019014919012100012200CA
:1007BE00200141D20112074B8F21E52165225521DF
:1007CE00F53685212224FB600F04700F0523E523E7
:1007DE0064037007F5238003633701E5236401701A
:1007EE0013AF36FEEF64087003154A22EF64094E0C
:0407FE007002054A36
:0108020022D3
:10045900300003020548D2001208EF8F488E478DFD
:10046900468C45E52314605E14607924026003021A
:100479000548752C0CAF48AE47AD46AC4512036331
:10048900EF75F00A8475F00A8485F030EF75F00A8B
:100499008485F031752901E4FFFE7D207C41AB485C
:1004A900AA47A946A8451201061203637C007D0AE2
:1004B9001203F68D32E4FFFE7DC87C42AB48AA47A1
:1004C900A946A845806A752C0D75300A75310AE46C
:1004D900F529E54A75F00A84F532E54A75F00A848A
:1004E90085F03322854A49752C0B75300AAF3CAE2D
:1004F9003BAD3AAC39120363EF75F00A8485F031EC
:10050900752901E4FFFE7D207C41AB3CAA3BA93A59
:10051900A8391201061203637C007D0A1203F68DC5
:1005290032E4FFFE7DC87C42AB3CAA3BA93AA8391C
:100539001201061203637C007D0A1203F68D332231
:10054900E4F50EFFFE7D4C7C42AB3CAA3BA93AA8E0
:1005590039120106120363120A7FE5377026AC4986
:1005690012032FAB48AA47A946A8451202ACE4508A
:100579000AF53CF53BF53AF5398071F53CF53B75E3
:100589003AA0803FE4FFFE7DA07C41AB48AA47A981
:1005990046A8451202AC6002500DE4F53CF53B75E6
:1005A9003A8075393F8045E4FFFE7D207C42AB48A7
:1005B900AA47A946A8451202AC400DE4F53CF53B13
:1005C900753A8075394080247F9A7E997D197C3EE1
:1005D900AB48AA47A946A845120106E4FBFAF978EF
:1005E900C01200158F3C8E3B8D3A8C39E53770056A
:1005F900753D018003E4F53D750E01AF0E7E00C324
:10060900EF9404748094805021E5232401FDE433A0
:10061900FCEDB50708EEB504047F0180027F007484
:0A0629003D250EF8A607050E80D14E
:0106330022A4
:100ADA00538E7F5389F0758A18758CFCC28DD28C1F
:050AEA00D2A9D2AF22E9
:03000B000206C02A
:1006C000C0E0C0F0C083C082C0D075D000C000C000
:1006D00001C002C003C004C005C006C0070535E55F
:1006E0003570020534FFAE34BE010BBF9008C20066
:1006F000753400753500AE34AF357C007D0A1203C9
:10070000F6ED4C7002C201E5355407FBFF242CF8CE
:10071000E6FD7C0074242BF8E624FF920212080305
:10072000E5355407FF243DF8E624FF9202120880C5
:10073000D007D006D005D004D003D002D001D0001D
:0B074000D0D0D082D083D0F0D0E032C7
:100AEF00EF4E600F7D0C7CA9DCFEDDFCEF1F70F07C
:030AFF001E80ED69
:010B020022D0
:100A4B00120ADA120A2E1208EF7FEE7E02120AEF5A
:0B0A5B001207BE12045912054980F575
:100A2E00E4F580E5A0541F44A0F5A053A01F7580E7
:0D0A3E00FFE5A0541F4480F5A053A01F2227
:10074B00E4FFC2B4D2B5D2C2D2C420B0027F132010
:10075B00B1027F1220B2027F1120B3027F10D2B4FC
:10076B00C2B5D2C2D2C420B0027F0F20B1027F0E1D
:10077B0020B2027F0D20B3027F0CD2B4D2B5C2C21D
:10078B00D2C420B0027F0B20B1027F0A20B2027FBD
:10079B000920B3027F08D2B4D2B5D2C2C2C420B0F2
:1007AB00027F0720B1027F0620B2027F0520B30231
:0207BB007F04B9
:0107BD002219
:100AAE000102040810204080C0F9A4B0999282F887
:060ABE008090FF88C68C49
:100803007580FFE5A0541F44E0F5A053A01FEF90AF
:100813000AAE93F580E5A0541F44C0F5A053A01F72
:1008230074B62DF582740A3CF583E493F5803002A7
:100833000353807FE5A0541F44E0F5A053A01F227B
:10086D000108000109FF010A00010BFF010C000145
:02087D000DFF6D
:1008800030020FA8077401088002C333D8FC420865
:10089000800EA8077401088002C333D8FCF4520804
:1008A000E50865096013E508F4F580E5A0541F44E8
:0908B00080F5A053A01F85080982
:0108B900221C
:1009C100EF6005430A408003530ABFE50A650B60E7
:1009D10013E50AF4F580E5A0541F44A0F5A053A047
:0409E1001F850A0B59
:0109E50022EF
:1009E600EF6005430C108003530CEFE50C650D60BA
:1009F60013E50CF4F580E5A0541F44A0F5A053A020
:040A06001F850C0D2F
:010A0A0022C9
:040B1200D2A07F05E9
:080B160000AE071FEE70F9228A
:0F0B0300D2A1120B12C2A17F05120B16C2A022A3
:0C0B1E00C2A1120B12D2A17F05020B161F
:100A9700C2A0A20492A17F05120B16120B12C2A0CC
:070AA700D2A17F05020B162E
:080A6600120B037F901208BA85
:100A6E00120B12A2A19203C2A07F05120B16A203B3
:010A7E002255
:0208BA00AD0788
:1008BC00E4FCECC39408748094805024C2A07F059F
:1008CC00120B16ED30E704D2A18002C2A17F0512F3
:1008DC000B16D2A0ED25E0FD7F05120B160C80D275
:0208EC00C2A0A8
:0108EE0022E7
:10099B00E4FCECC39408748094805017120B12ED96
:1009AB0025E0FD30A103430501C2A07F05120B1604
:0509BB000C80DFAF0518
:0109C0002214
:02092300AB0720
:10092500E4FD120A66AF031208BA120A6E120B032F
:100935007F911208BA120A6E12099BAD07D20412F2
:070945000A97120B1EAF051B
:01094C002288
:100A7F00AB07120A667F411208BA120A6EAF031251
:080A8F0008BA120A6E020B1EE8
:040AC4007F057E002C
:100AC8007C007D0C1203E4EF1FAC0670011E4C7015
:020AD800F62204
:02094D00AB07F6
:10094F00E4FAEAC39408748094805012C294EB13B3
:10095F009294120AC4D294EBC313FB0A80E47F056E
:05096F007E00020AC831
:100A0B00E4FAEAC39408748094805014C294EBC344
:100A1B0013FBD294309403430380120AC40A80E27E
:020A2B00AF0317
:010A2D0022A6
:10097400C203D2947F0C7E00120AC8C2947F507EB8
:1009840000120AC8D2947F0A7E00120AC8A2949266
:0609940003120AC4A203D5
:01099A00223A
:1008EF001209747FCC12094D7F4412094D120974FD
:1008FF007FCC12094D7FBE12094D120A0BA90712A8
:10090F000A0BEFAD01FCEC12032AE4FBFA798078B5
:04091F004102020F80
:10000E000203CFE86480F8E933E83360110460F04E
:10001E00ED33EC337009E8FCE9FDEAFEEBFF220458
:10002E0060DED3EB9FEA9EE99DE8C2E78CF0C2F753
:10003E0095F0400CE8CCF8E9CDF9EACEFAEBCFFB1F
:10004E0012039A85D0F05804700320D5B3E80470DB
:10005E00075002B2D50203D992D5EC0460F7E4CC76
:10006E00C0E0C398F8603B94186008400DD0E0FBE8
:10007E000203B1E4FBFAC9FC8028E830E406E4C9C7
:10008E00FBE4CAFCE830E305E4C9CACBFCE854073C
:10009E006010F8C3E913F9EA13FAEB13FBEC13FC47
:1000AE00D8F130F52FC3E49CFCEF9BFFEE9AFEEDEA
:1000BE0099FDD0E0FBEF4E4D4C701222DB03020394
:1000CE00D6EC2CFCEF33FFEE33FEED33FDED30E7D7
:1000DE00EB0203B1EF2BFFEE3AFEED39FDD0E0FB64
:1000EE0050130BBB00030203D9ED13FDEE13FEEF0D
:0800FE0013FFEC13FC0203B137
:10010600EC4D6011E8497017ED33EC3304600DE4F3
:10011600FCFFFEFD22E933E8330470F80203CF1238
:10012600039A58046009E4CC248150062850090239
:1001360003D92840030203D6C0E0EB4A7044B980D5
:1001460006D0E0FB0203C5EF4E701CBD8008EBFF36
:10015600EAFEE9FD80EBE98DF0A4FEE5F00201EF91
:10016600E9CDF9EAFEEBFFEF89F0A4FCE5F0CE89D4
:10017600F0A42EFFE435F0CD89F0A42DFEE435F091
:100186008067EF4E7005BD80D780C3EF8BF0A4ACBF
:10019600F0EE8BF0A42CFCE435F0F8EF8AF0A42CFA
:1001A600E5F038FCE433CB8DF0A42CFCE5F03BF80D
:1001B600EE8AF0A42CFCE5F038F8E433CF89F0A4FD
:1001C6002CFCE5F038CF3400CE89F0A42FFFE5F003
:1001D6003EFEE433C98DF0A42EFEE5F039CD8AF05B
:1001E600A42FFFE5F03EFEE43DFD33D0E0FB5007D3
:1001F6000BBB000F0203D9EC2CFCEF33FFEE33FEF2
:06020600ED33FD0203B11F
:10020C000203D9EC5D046005E8590470030203CFC6
:10021C0012039A580460F6EC4860F2EC7004FDFE90
:10022C00FF22C860DB2481C85009C39860025006C5
:10023C000203D69850CAF582E9294B4A7005AB8265
:10024C000203C575F0007C1A7880C3EF9BEE9AED23
:10025C0099400DC3EF9BFFEE9AFEED99FDE842F03D
:10026C00DC23ACF0D0E0FFD0E0FED0E0FDAB822090
:10027C00E7101BEB60BAEC2CFCEF33FFEE33FEED1A
:10028C0033FD0203B1E803F830E705C0F075F00068
:10029C00EF2FFFEE33FEED33FD40B830E7C280AAFE
:1002AC0074F8CC6480CCC86480C8F58204604FC3F9
:1002BC00EB9FF5F0EA9E42F0E99D42F0E89C45F098
:1002CC00603C501DE5825FFFE582D313CB5BCBF422
:1002DC002B5582FB50280ABA002409B9002008804B
:1002EC001DE5825BFBE582D313CF5FCFF4C3132FE5
:1002FC005582FF50090EBE00050DBD00010CC3EB6D
:10030C009FF5F0EA9E42F0E99D42F0E89C45F060D2
:09031C0007CC4820E701B3EC22F4
:1003250075F020800E75F010800575F0087D007E53
:10033500007F003392D530D50312044BEC334010C7
:10034500EF33FFEE33FEED33FDEC33FCD5F0ED225C
:0E035500E5F0247EA2D513CC92E7CDCEFF2298
:10036300EDD2E7CD33EC3392D524814006E4FFFE92
:10037300FDFC22FCE4CFCECDCC24E0501174FF80F1
:10038300EDC3CC13CCCD13CDCE13CECF13CF04708E
:07039300F030D5DE02044B3F
:10039A00E9D2E7C933E833F892D5EDD2E7CD33ECA9
:0703AA0033FC5002B2D52222
:1003B100EC30E7100FBF000C0EBE00080DBD0004AD
:1003C1000BEB6014A2D5EB13FCED92E7FD2274FF59
:1003D100FCFDFEFF22E480F8A2D574FF13FC7D80B2
:0303E100E480EFC6
:03000000020634C1
:0C063400787FE4F6D8FD75814A02067B51
:1003E400EF8DF0A4A8F0CF8CF0A428CE8DF0A42E2D
:0203F400FE22E7
:1003F600BC000BBE0029EF8DF084FFADF022E4CCEB
:10040600F875F008EF2FFFEE33FEEC33FCEE9DECB3
:10041600984005FCEE9DFE0FD5F0E9E4CEFD22EDF9
:10042600F8F5F0EE8420D21CFEADF075F008EF2F43
:10043600FFED33FD4007985006D5F0F222C398FD34
:050446000FD5F0EA22D1
:0E044B00C3E49FFFE49EFEE49DFDE49CFC22C2
:10064000020A4BE493A3F8E493A34003F68001F27B
:1006500008DFF48029E493A3F85407240CC8C333BB
:10066000C4540F4420C8834004F456800146F6DF8A
:10067000E4800B0102040810204080900843E47ECF
:10068000019360BCA3FF543F30E509541FFEE4937F
:10069000A360010ECF54C025E060A840B8E493A346
:1006A000FAE493A3F8E493A3C8C582C8CAC583CA71
:1006B000F0A3C8C582C8CAC583CADFE9DEE780BE29
:01087F000078
:00000001FF
