C51 COMPILER V9.59.0.0   MAIN                                                              03/03/2024 14:14:15 PAGE 1   


C51 COMPILER V9.59.0.0, COMPILATION OF MODULE MAIN
OBJECT MODULE PLACED IN .\Objects\main.obj
COMPILER INVOKED BY: D:\keil 5\C51\BIN\C51.EXE main.c OPTIMIZE(8,SPEED) BROWSE INCDIR(..\User;..\Drivers) DEBUG OBJECTEX
                    -TEND PRINT(.\Listings\main.lst) OBJECT(.\Objects\main.obj)

line level    source

   1          /* 头文件声明区 */
   2          #include <STC15F2K60S2.H>
   3          #include "Init.h"
   4          #include "Key.h"
   5          #include "Seg.h"
   6          #include "LED.h"
   7          
   8          /* 基础变量创建区 */
   9          unsigned int Slow_Down;                                                 //减速扫描专用
  10          bit Key_Slow_Flag, Seg_Slow_Flag;                                       //按键数码管减速标志位
  11          unsigned char Seg_Buf[8] = {10, 10, 10, 10, 10, 10, 10, 10};            //数码管显示缓冲区
  12          unsigned char Seg_Point[8] = {0, 0, 0, 0, 0, 0, 0, 0};                  //数码管小数点显示缓冲区
  13          unsigned char LED_Buf[8] = {0, 0, 0, 0, 0, 0, 0, 0};                    //LED显示缓冲区
  14          
  15          /* 变量创建区 */
  16          unsigned char PWM_Light_Grade, Timer0_LED;  //PWM亮度等级
  17          
  18          /* 按键处理函数 */
  19          void Key_Proc()
  20          {
  21   1          static unsigned char Key_Down = 0, Key_UP = 0;  //变量
  22   1          static unsigned char Key_New = 0, Key_Old = 0;  //创建
  23   1      
  24   1          if (Key_Slow_Flag) return;
  25   1          Key_Slow_Flag = 1;                              //减速
  26   1          
  27   1          Key_New = Key_Read();                           //获取键码
  28   1          Key_Down = Key_New & ( Key_New ^ Key_Old);      //捕获下降沿
  29   1          Key_UP = ~Key_New & ( Key_New ^ Key_Old);       //捕获上升沿
  30   1          Key_Old = Key_New;                              //辅助扫描
  31   1          
  32   1          switch (Key_Down)
  33   1          {
  34   2              case 4:
  35   2                  if ((Timer0_LED += 20) == 120) Timer0_LED == 60;
*** WARNING C275 IN LINE 35 OF main.c: expression with possibly no effect
  36   2              break;
  37   2          }
  38   1      }
  39          
  40          /* 信息处理函数 */
  41          void Infor_Proc()
  42          {
  43   1          if (Seg_Slow_Flag) return;
  44   1          Seg_Slow_Flag = 1;                              //减速
  45   1          
  46   1      }
  47          
  48          /* 其他处理函数 */
  49          void Other_Proc()
  50          {
  51   1          Relay(1);
  52   1          Beep(0);
  53   1      }
C51 COMPILER V9.59.0.0   MAIN                                                              03/03/2024 14:14:15 PAGE 2   

  54          
  55          /* 定时器初始化函数 */
  56          void Timer0_Init(void)          //1毫秒@12.000MHz
  57          {
  58   1          AUXR &= 0x7F;                       //定时器时钟12T模式
  59   1          TMOD &= 0xF0;                       //设置定时器模式
  60   1          TL0 = 0x18;                         //设置定时初始值
  61   1          TH0 = 0xFC;                         //设置定时初始值
  62   1          TF0 = 0;                            //清除TF0标志
  63   1          TR0 = 1;                            //定时器0开始计时
  64   1          ET0 = 1;
  65   1          EA  = 1;
  66   1      }
  67          
  68          /* 定时器中断服务函数 */
  69          void Timer0_Serve() interrupt 1
  70          {
  71   1          if (++Slow_Down == 400) Slow_Down = Seg_Slow_Flag = 0;
  72   1          if (Slow_Down % 10 == 0) Key_Slow_Flag = 0;
  73   1          Seg_Show(Slow_Down%8, Seg_Buf[Slow_Down%8], Seg_Point[Slow_Down%8]);
  74   1          LED_Show(Slow_Down%8, LED_Buf[Slow_Down%8]);
  75   1          
  76   1          if (++PWM_Light_Grade < Timer0_LED)
  77   1              LED_Buf[0] = 1;
  78   1          else if (PWM_Light_Grade >= Timer0_LED)
  79   1          {
  80   2              LED_Buf[0] = 0;
  81   2              PWM_Light_Grade %= 100;
  82   2          }
  83   1              
  84   1      }
  85          
  86          /* 延时函数 */
  87          void Delay_ms(unsigned int xms)         //@12.000MHz
  88          {
  89   1          unsigned char i, j;
  90   1          while (xms)
  91   1          {
  92   2              i = 12;
  93   2              j = 169;
  94   2              do
  95   2              {
  96   3                  while (--j);
  97   3              } while (--i);
  98   2              xms--;
  99   2          }
 100   1      }
 101          
 102          /* 主函数 */
 103          void main()
 104          {
 105   1          Init();
 106   1          Timer0_Init();
 107   1          while (1)
 108   1          {
 109   2              Key_Proc();
 110   2              Infor_Proc();
 111   2              Other_Proc();
 112   2          }
 113   1      }
 114          
 115          
C51 COMPILER V9.59.0.0   MAIN                                                              03/03/2024 14:14:15 PAGE 3   

 116          


MODULE INFORMATION:   STATIC OVERLAYABLE
   CODE SIZE        =    285    ----
   CONSTANT SIZE    =   ----    ----
   XDATA SIZE       =   ----    ----
   PDATA SIZE       =   ----    ----
   DATA SIZE        =     32    ----
   IDATA SIZE       =   ----    ----
   BIT SIZE         =      2    ----
END OF MODULE INFORMATION.


C51 COMPILATION COMPLETE.  1 WARNING(S),  0 ERROR(S)
