C51 COMPILER V9.59.0.0   MAIN                                                              03/13/2024 11:39:07 PAGE 1   


C51 COMPILER V9.59.0.0, COMPILATION OF MODULE MAIN
OBJECT MODULE PLACED IN .\Objects\main.obj
COMPILER INVOKED BY: D:\keil 5\C51\BIN\C51.EXE main.c OPTIMIZE(8,SPEED) BROWSE INCDIR(..\Drivers;..\User) DEBUG OBJECTEX
                    -TEND PRINT(.\Listings\main.lst) OBJECT(.\Objects\main.obj)

line level    source

   1          /* 头文件声明区 */
   2          #include <STC15F2K60S2.H>
   3          #include "Init.h"
   4          #include "Key.h"
   5          #include "Seg.h"
   6          #include "LED.h"
   7          
   8          /* 基础变量创建区 */
   9          unsigned int Slow_Down;                                     //减速扫描专用变量
  10          bit Key_Slow_Flag, Seg_Slow_Flag, Infor_Get_Slow_Flag;      //按键数码管信息获取减速标志位
  11          unsigned char Seg_Buf[8] = {0, 10, 10, 10, 10, 10, 10, 10};//数码管显示缓冲区
  12          unsigned char Seg_Point[8] = {0, 0, 0, 0, 0, 0, 0, 0};      //数码管小数点显示缓冲区
  13          unsigned char LED_Buf[8] = {0, 0, 0, 0, 0, 0, 0, 0};        //LED显示缓冲区
  14          unsigned char i;                                            //循环专用变量
  15          
  16          /* 变量创建区 */
  17          
  18          
  19          /* 按键处理函数 */
  20          void Key_Deal()
  21          {
  22   1          static unsigned char Key_New = 0, Key_Old= 0;   //按键专用
  23   1          static unsigned char Key_UP = 0, Key_Down= 0;   //变量创建
  24   1          
  25   1          if (Key_Slow_Flag) return;                      //减速
  26   1          Key_Slow_Flag = 1;
  27   1          
  28   1          Key_New = Key_Read();                           //获取键码
  29   1          Key_UP = ~Key_New & (Key_New ^ Key_Old);        //捕获上升沿
  30   1          Key_Down = Key_New & (Key_New ^ Key_Old);       //捕获下降沿
  31   1          Key_Old = Key_New;                              //辅助扫描
  32   1          
  33   1          switch (Key_Down)
  34   1          {
  35   2              case 4:
  36   2                  Seg_Buf[0] ^= 1;
  37   2                  LED_Buf[0] ^= 1;
  38   2              break;
  39   2          }
  40   1      }
  41          
  42          /* 信息处理函数 */
  43          void Infor_Deal()
  44          {
  45   1          if (Seg_Slow_Flag) return;
  46   1          Seg_Slow_Flag = 1;
  47   1          
  48   1          
  49   1          
  50   1      }
  51          
  52          /* 其他处理函数 */
  53          void Other_Deal()
  54          {
C51 COMPILER V9.59.0.0   MAIN                                                              03/13/2024 11:39:07 PAGE 2   

  55   1          
  56   1      }
  57          
  58          /* 信息获取函数 */
  59          void Infor_Get()
  60          {
  61   1          if (Infor_Get_Slow_Flag) return;
  62   1          Infor_Get_Slow_Flag = 1;
  63   1          
  64   1          
  65   1          
  66   1      }
  67          
  68          /* 定时器初始化函数 */
  69          void Timer0_Init(void)          //1毫秒@12.000MHz
  70          {
  71   1              AUXR &= 0x7F;                   //定时器时钟12T模式
  72   1              TMOD &= 0xF0;                   //设置定时器模式
  73   1              TL0 = 0x18;                             //设置定时初始值
  74   1              TH0 = 0xFC;                             //设置定时初始值
  75   1              TF0 = 0;                                //清除TF0标志
  76   1              TR0 = 1;                                //定时器0开始计时
  77   1          EA  = 1;
  78   1          ET0 = 1;
  79   1      }
  80          
  81          /* 中断处理函数 */
  82          void Timer0_Serve() interrupt 1
  83          {
  84   1          if (++Slow_Down == 400) Slow_Down = Infor_Get_Slow_Flag = 0;
  85   1          if (Slow_Down % 200 == 0) Seg_Slow_Flag = 0;
  86   1          if (Slow_Down % 10 == 0) Key_Slow_Flag = 0;
  87   1          Seg_Show(Slow_Down%8, Seg_Buf[Slow_Down%8], Seg_Point[Slow_Down%8]);
  88   1          LED_Show(Slow_Down%8, LED_Buf[Slow_Down%8]);
  89   1          
  90   1      }
  91          
  92          /* 主函数 */
  93          void main()
  94          {
  95   1          System_Init();
  96   1          Timer0_Init();
  97   1          while (1)
  98   1          {
  99   2              Key_Deal();
 100   2              Infor_Deal();
 101   2              Other_Deal();
 102   2              Infor_Get();
 103   2          }
 104   1      }
 105          
 106          
 107          
 108          


MODULE INFORMATION:   STATIC OVERLAYABLE
   CODE SIZE        =    248    ----
   CONSTANT SIZE    =   ----    ----
   XDATA SIZE       =   ----    ----
   PDATA SIZE       =   ----    ----
   DATA SIZE        =     31    ----
C51 COMPILER V9.59.0.0   MAIN                                                              03/13/2024 11:39:07 PAGE 3   

   IDATA SIZE       =   ----    ----
   BIT SIZE         =      3    ----
END OF MODULE INFORMATION.


C51 COMPILATION COMPLETE.  0 WARNING(S),  0 ERROR(S)
