:1003BF00082D0A0A0A0A0A0A0A0A0825000000007C
:1003CF0000000000083A00000000000000000337A2
:0F03DF00173B37012100012200012300012400F8
:10043F00200119D2011201A38F23E5236524FF5553
:0C044F0023F521E523F45FF5228523242A
:01045B00227E
:10027300200044D2007B007A007937120343E5372C
:1002830075F00A84F52DE53775F00A8485F02E752F
:100293002F0BE53875F00A84F530E53875F00A84DC
:1002A30085F03175320BE53975F00A84F533E5399C
:0802B30075F00A8485F0342285
:0100030022DA
:1004C900538E7F5389F0758A18758CFCC28DD28C36
:0504D900D2A9D2AF2200
:03000B0002009A56
:10009A00C0E0C0F0C083C082C0D075D000C000C02C
:1000AA0001C002C003C004C005C006C0070536E58A
:1000BA003670020535FFAE35BE010BBF9008C2008F
:1000CA00753500753600AE35AF367C007D0A1201F3
:1000DA004EED4C7002C201E5365407FBFF242DF8A1
:1000EA00E6FD7C0074252BF8E6FB7A00120302E594
:1000FA00365407FF243AF8E6FD7C00120384D00741
:10010A00D006D005D004D003D002D001D000D0D080
:09011A00D082D083D0F0D0E03295
:1004DE00EF4E600F7D0C7CA9DCFEDDFCEF1F70F093
:0304EE001E80ED80
:0104F10022E8
:1004950012045C7B007A0079371202161204C91225
:0A04A500043F12027312000380F5F9
:10045C00E4F580E5A0541F44A0F5A053A01F7580BF
:0D046C00FFE5A0541F4480F5A053A01F22FF
:1001A300E4FFC2B4D2B5D2C2D2C420B0027F1320BE
:1001B300B1027F1220B2027F1120B3027F10D2B4AA
:1001C300C2B5D2C2D2C420B0027F0F20B1027F0ECB
:1001D30020B2027F0D20B3027F0CD2B4D2B5C2C2CB
:1001E300D2C420B0027F0B20B1027F0A20B2027F6B
:1001F3000920B3027F08D2B4D2B5D2C2C2C420B0A0
:10020300027F0720B1027F0620B2027F0520B302DE
:020213007F0466
:0102150022C6
:1004AF00C0F9A4B0999282F88090FFBF8883C6A14B
:0A04BF00868E010204081020408020
:100302007580FFE5A0541F44E0F5A053A01FEF90B5
:1003120004C193F580E5A0541F44C0F5A053A01F6B
:1003220074AF2DF58274043CF583E493F580EB4AB7
:10033200600353807FE5A0541F44E0F5A053A01F43
:010342002298
:0603EE00010D00010CFFEF
:10038400ED4C600FA8077401088002C333D8FC4207
:100394000D800EA8077401088002C333D8FCF45200
:1003A4000DE50D650C6013E50DF4F580E5A0541F13
:0B03B4004480F5A053A01F850D0C2213
:1003F500EF6005430D408003530DBFE50D650C60AF
:1004050013E50DF4F580E5A0541F44A0F5A053A015
:050415001F850D0C2203
:10041A00EF6005430D108003530DEFE50D650C6089
:10042A0013E50DF4F580E5A0541F44A0F5A053A0F0
:05043A001F850D0C22DE
:10047900E4FEEEC3940874809480500FC297EF1382
:0B04890092A3EFC313FFD2970E80E791
:010494002245
:1004F200C29300C29700D29300120479AF0512048E
:0405020079C2932205
:0A02BB00E50B25E0FFC374859FFFEB
:1002C500E4FDC29300C29700D29300120479E4FFC3
:1002D500EFC39408748094805011C297EDC313FD49
:1002E50030A303430580D2970F80E5C29300C297E0
:0C02F50000D29700C2A300D2A300AF0506
:0103010022D9
:060216008B088A09890A29
:10021C00E4FCFD7F8E1204F2ECC394037480948092
:10022C00503EAB08AA09A90A120123FF75F00A84F3
:10023C00C454F0FEEF75F00A84E5F04E12013CEC6C
:10024C0025E0FFC374849FFFAB08050AE50AAA09E1
:10025C007002050914F9120123FD1204F20C80B886
:07026C007D807F8E0204F289
:060343008B088A09890AFB
:10034900E4F50BF50BC3E50B940374809480502AF4
:100359001202BBEFC4540F75F00AA4FC1202BBEFE2
:10036900540F2CFFAB08050AE50AAA097002050912
:0A03790014F9EF12013C050B80CBD4
:010383002257
:0300000002000EED
:0C000E00787FE4F6D8FD758141020055B2
:10012300BB010689828A83E0225002E722BBFE02DA
:09013300E32289828A83E493220D
:10013C00BB010689828A83F0225002F722BBFE01A2
:02014C00F3229C
:10014E00BC000BBE0029EF8DF084FFADF022E4CC95
:10015E00F875F008EF2FFFEE33FEEC33FCEE9DEC5E
:10016E00984005FCEE9DFE0FD5F0E9E4CEFD22EDA4
:10017E00F8F5F0EE8420D21CFEADF075F008EF2FEE
:10018E00FFED33FD4007985006D5F0F222C398FDDF
:05019E000FD5F0EA227C
:10001A00020495E493A3F8E493A34003F68001F263
:10002A0008DFF48029E493A3F85407240CC8C333E7
:10003A00C4540F4420C8834004F456800146F6DFB6
:10004A00E4800B01020408102040809003BFE47E84
:10005A00019360BCA3FF543F30E509541FFEE493AB
:10006A00A360010ECF54C025E060A840B8E493A372
:10007A00FAE493A3F8E493A3C8C582C8CAC583CA9D
:10008A00F0A3C8C582C8CAC583CADFE9DEE780BE55
:0103F4000008
:00000001FF
