:030000000200C932
:0C00C900787FE4F6D8FD75813F0201103D
:1002E500082D000A0A0A0A0A0A0A08250000000061
:1002F5000000000008370000000000000000012198
:0A0305000001220001230001240082
:10026400200142D2011201558F21E5216522FFE5CB
:1002740021F45FF523E5215FF52485212224FB6029
:10028400111460131460142403701A632D0163376E
:1002940001227F0102031C7F018007E4FF12031C7B
:0502A400E4FF12033F1E
:0102A9002232
:0603A500200002D200223C
:0603AB00200202D2022232
:0603B100200302D203222A
:10000300538EBF53890F758B18758DFCC28FD28E9B
:05001300D2AFD2AB22C8
:03001B0002001EC2
:10001E00C0E0C0F0C083C082C0D075D000C000C0A8
:10002E0001C002C003C004C005C006C0070536E506
:10003E003670020535FFAE35BE010BBF9008C20308
:10004E00753500753600AE35AF367C007D0A12016F
:10005E00C8ED4C7002C201AE35AF367C007D141275
:10006E0001C8ED4C7002C202AE35AF367C007DC8C1
:10007E001201C8ED4C7002C200E5365407FBFF2496
:10008E002DF8E6FD7C0074252BF8E6FB7A001202B3
:10009E001DE5365407FF2437F8E6FD7C001202AA50
:1000AE00D007D006D005D004D003D002D001D000A6
:0B00BE00D0D0D082D083D0F0D0E03250
:10037F001203621200031203B11202641203A512D8
:04038F0003AB80F24A
:10036200E4F580E5A0541F44A0F5A053A01F7580BA
:0D037200FFE5A0541F4480F5A053A01F22FA
:10015500E4FFC2B4D2B5D2C2D2C420B0027F13200C
:10016500B1027F1220B2027F1120B3027F10D2B4F8
:10017500C2B5D2C2D2C420B0027F0F20B1027F0E19
:1001850020B2027F0D20B3027F0CD2B4D2B5C2C219
:10019500D2C420B0027F0B20B1027F0A20B2027FB9
:1001A5000920B3027F08D2B4D2B5D2C2C2C420B0EE
:1001B500027F0720B1027F0620B2027F0520B3022D
:0201C5007F04B5
:0101C7002215
:10039300C0F9A4B0999282F88090FFBF8883C6A168
:0203A300868E44
:10021D007580FFE5A0541F44E0F5A053A01FA8076B
:10022D007401088002C333D8FCF580E5A0541F4447
:10023D00C0F5A053A01F74932DF58274033CF58374
:10024D00E493F580EB4A600353807FE5A0541F448F
:07025D00E0F5A053A01F22F1
:0C030F000108000109FF010B00010AFFBA
:1002AA00ED4C600FA8077401088002C333D8FC42E2
:1002BA0008800EA8077401088002C333D8FCF452E0
:1002CA0008E50865096013E508F4F580E5A0541F00
:0A02DA004480F5A053A01F85080919
:0102E40022F7
:10031C00EF6005430B408003530BBFE50B650A6090
:10032C0011850B80E5A0541F44A0F5A053A01F8598
:03033C000B0A2287
:10033F00EF6005430B108003530BEFE50B650A606D
:10034F0011850B80E5A0541F44A0F5A053A01F8575
:03035F000B0A2264
:1000D50002037FE493A3F8E493A34003F68001F2BF
:1000E50008DFF48029E493A3F85407240CC8C3332C
:1000F500C4540F4420C8834004F456800146F6DFFB
:10010500E4800B01020408102040809002E5E47EA3
:10011500019360BCA3FF543F30E509541FFEE493EF
:10012500A360010ECF54C025E060A840B8E493A3B6
:10013500FAE493A3F8E493A3C8C582C8CAC583CAE1
:10014500F0A3C8C582C8CAC583CADFE9DEE780BE99
:01031B0000E1
:1001C800BC000BBE0029EF8DF084FFADF022E4CC1B
:1001D800F875F008EF2FFFEE33FEEC33FCEE9DECE4
:1001E800984005FCEE9DFE0FD5F0E9E4CEFD22ED2A
:1001F800F8F5F0EE8420D21CFEADF075F008EF2F74
:10020800FFED33FD4007985006D5F0F222C398FD64
:050218000FD5F0EA2201
:00000001FF
